{
  "address": "0xf5D43E16560F3C0f4DD6d354515b53D7161ED151",
  "abi": [
    {
      "inputs": [
        {
          "internalType": "uint256",
          "name": "_minimumBet",
          "type": "uint256"
        },
        {
          "internalType": "uint256",
          "name": "_interval",
          "type": "uint256"
        },
        {
          "internalType": "address",
          "name": "_link",
          "type": "address"
        },
        {
          "internalType": "address",
          "name": "_oracle",
          "type": "address"
        },
        {
          "internalType": "bytes32",
          "name": "_jobId",
          "type": "bytes32"
        },
        {
          "internalType": "uint256",
          "name": "_fee",
          "type": "uint256"
        }
      ],
      "stateMutability": "nonpayable",
      "type": "constructor"
    },
    {
      "anonymous": false,
      "inputs": [
        {
          "indexed": true,
          "internalType": "bytes32",
          "name": "id",
          "type": "bytes32"
        }
      ],
      "name": "ChainlinkCancelled",
      "type": "event"
    },
    {
      "anonymous": false,
      "inputs": [
        {
          "indexed": true,
          "internalType": "bytes32",
          "name": "id",
          "type": "bytes32"
        }
      ],
      "name": "ChainlinkFulfilled",
      "type": "event"
    },
    {
      "anonymous": false,
      "inputs": [
        {
          "indexed": true,
          "internalType": "bytes32",
          "name": "id",
          "type": "bytes32"
        }
      ],
      "name": "ChainlinkRequested",
      "type": "event"
    },
    {
      "anonymous": false,
      "inputs": [
        {
          "indexed": true,
          "internalType": "address",
          "name": "previousOwner",
          "type": "address"
        },
        {
          "indexed": true,
          "internalType": "address",
          "name": "newOwner",
          "type": "address"
        }
      ],
      "name": "OwnershipTransferred",
      "type": "event"
    },
    {
      "inputs": [
        {
          "internalType": "uint256",
          "name": "_betId",
          "type": "uint256"
        }
      ],
      "name": "acceptBet",
      "outputs": [],
      "stateMutability": "payable",
      "type": "function"
    },
    {
      "inputs": [
        {
          "internalType": "uint256",
          "name": "",
          "type": "uint256"
        }
      ],
      "name": "acceptedBets",
      "outputs": [
        {
          "internalType": "uint256",
          "name": "",
          "type": "uint256"
        }
      ],
      "stateMutability": "view",
      "type": "function"
    },
    {
      "inputs": [
        {
          "internalType": "uint256",
          "name": "",
          "type": "uint256"
        }
      ],
      "name": "activeBets",
      "outputs": [
        {
          "internalType": "uint256",
          "name": "",
          "type": "uint256"
        }
      ],
      "stateMutability": "view",
      "type": "function"
    },
    {
      "inputs": [
        {
          "internalType": "uint256",
          "name": "",
          "type": "uint256"
        }
      ],
      "name": "allBets",
      "outputs": [
        {
          "internalType": "uint256",
          "name": "id",
          "type": "uint256"
        },
        {
          "internalType": "address payable",
          "name": "creator",
          "type": "address"
        },
        {
          "internalType": "address payable",
          "name": "acceptor",
          "type": "address"
        },
        {
          "internalType": "string",
          "name": "apiURL",
          "type": "string"
        },
        {
          "internalType": "uint256",
          "name": "amount",
          "type": "uint256"
        },
        {
          "internalType": "uint256",
          "name": "acceptValue",
          "type": "uint256"
        },
        {
          "internalType": "bool",
          "name": "accepted",
          "type": "bool"
        },
        {
          "internalType": "bool",
          "name": "active",
          "type": "bool"
        },
        {
          "internalType": "bool",
          "name": "closed",
          "type": "bool"
        },
        {
          "internalType": "uint256",
          "name": "countArts",
          "type": "uint256"
        },
        {
          "components": [
            {
              "internalType": "uint256",
              "name": "createdDate",
              "type": "uint256"
            },
            {
              "internalType": "uint256",
              "name": "acceptByDate",
              "type": "uint256"
            },
            {
              "internalType": "uint256",
              "name": "startDate",
              "type": "uint256"
            },
            {
              "internalType": "uint256",
              "name": "expirationDate",
              "type": "uint256"
            }
          ],
          "internalType": "struct BetGame.TimeProps",
          "name": "timeProps",
          "type": "tuple"
        }
      ],
      "stateMutability": "view",
      "type": "function"
    },
    {
      "inputs": [
        {
          "internalType": "uint256",
          "name": "_id",
          "type": "uint256"
        }
      ],
      "name": "checkBet",
      "outputs": [],
      "stateMutability": "nonpayable",
      "type": "function"
    },
    {
      "inputs": [
        {
          "internalType": "bytes",
          "name": "checkData",
          "type": "bytes"
        }
      ],
      "name": "checkUpkeep",
      "outputs": [
        {
          "internalType": "bool",
          "name": "upkeepNeeded",
          "type": "bool"
        },
        {
          "internalType": "bytes",
          "name": "performData",
          "type": "bytes"
        }
      ],
      "stateMutability": "view",
      "type": "function"
    },
    {
      "inputs": [
        {
          "internalType": "string",
          "name": "_apiURL",
          "type": "string"
        },
        {
          "internalType": "uint256",
          "name": "_acceptValue",
          "type": "uint256"
        },
        {
          "internalType": "uint256",
          "name": "_countArts",
          "type": "uint256"
        },
        {
          "internalType": "uint256",
          "name": "_endDate",
          "type": "uint256"
        },
        {
          "internalType": "uint256",
          "name": "_acceptdate",
          "type": "uint256"
        }
      ],
      "name": "createBet",
      "outputs": [],
      "stateMutability": "payable",
      "type": "function"
    },
    {
      "inputs": [],
      "name": "devWallet",
      "outputs": [
        {
          "internalType": "address payable",
          "name": "",
          "type": "address"
        }
      ],
      "stateMutability": "view",
      "type": "function"
    },
    {
      "inputs": [
        {
          "internalType": "bytes32",
          "name": "_requestId",
          "type": "bytes32"
        },
        {
          "internalType": "uint256",
          "name": "_volume",
          "type": "uint256"
        }
      ],
      "name": "fulfill",
      "outputs": [],
      "stateMutability": "nonpayable",
      "type": "function"
    },
    {
      "inputs": [],
      "name": "globalId",
      "outputs": [
        {
          "internalType": "uint256",
          "name": "",
          "type": "uint256"
        }
      ],
      "stateMutability": "view",
      "type": "function"
    },
    {
      "inputs": [],
      "name": "interval",
      "outputs": [
        {
          "internalType": "uint256",
          "name": "",
          "type": "uint256"
        }
      ],
      "stateMutability": "view",
      "type": "function"
    },
    {
      "inputs": [],
      "name": "lastTimeStamp",
      "outputs": [
        {
          "internalType": "uint256",
          "name": "",
          "type": "uint256"
        }
      ],
      "stateMutability": "view",
      "type": "function"
    },
    {
      "inputs": [],
      "name": "minimumBet",
      "outputs": [
        {
          "internalType": "uint256",
          "name": "",
          "type": "uint256"
        }
      ],
      "stateMutability": "view",
      "type": "function"
    },
    {
      "inputs": [],
      "name": "owner",
      "outputs": [
        {
          "internalType": "address",
          "name": "",
          "type": "address"
        }
      ],
      "stateMutability": "view",
      "type": "function"
    },
    {
      "inputs": [
        {
          "internalType": "bytes",
          "name": "performData",
          "type": "bytes"
        }
      ],
      "name": "performUpkeep",
      "outputs": [],
      "stateMutability": "nonpayable",
      "type": "function"
    },
    {
      "inputs": [],
      "name": "renounceOwnership",
      "outputs": [],
      "stateMutability": "nonpayable",
      "type": "function"
    },
    {
      "inputs": [
        {
          "internalType": "string",
          "name": "_apiURL",
          "type": "string"
        },
        {
          "internalType": "uint256",
          "name": "_id",
          "type": "uint256"
        }
      ],
      "name": "requestVolumeData",
      "outputs": [
        {
          "internalType": "bytes32",
          "name": "requestId",
          "type": "bytes32"
        }
      ],
      "stateMutability": "nonpayable",
      "type": "function"
    },
    {
      "inputs": [],
      "name": "serviceFee",
      "outputs": [
        {
          "internalType": "uint256",
          "name": "",
          "type": "uint256"
        }
      ],
      "stateMutability": "view",
      "type": "function"
    },
    {
      "inputs": [
        {
          "internalType": "address payable",
          "name": "_devWallet",
          "type": "address"
        }
      ],
      "name": "setDevWallet",
      "outputs": [],
      "stateMutability": "nonpayable",
      "type": "function"
    },
    {
      "inputs": [
        {
          "internalType": "uint256",
          "name": "_interval",
          "type": "uint256"
        }
      ],
      "name": "setInterval",
      "outputs": [],
      "stateMutability": "nonpayable",
      "type": "function"
    },
    {
      "inputs": [
        {
          "internalType": "bytes32",
          "name": "_jobId",
          "type": "bytes32"
        }
      ],
      "name": "setJobId",
      "outputs": [],
      "stateMutability": "nonpayable",
      "type": "function"
    },
    {
      "inputs": [
        {
          "internalType": "uint256",
          "name": "_minimumBet",
          "type": "uint256"
        }
      ],
      "name": "setMinimumBet",
      "outputs": [],
      "stateMutability": "nonpayable",
      "type": "function"
    },
    {
      "inputs": [
        {
          "internalType": "address",
          "name": "_oracle",
          "type": "address"
        }
      ],
      "name": "setOracle",
      "outputs": [],
      "stateMutability": "nonpayable",
      "type": "function"
    },
    {
      "inputs": [
        {
          "internalType": "address",
          "name": "newOwner",
          "type": "address"
        }
      ],
      "name": "transferOwnership",
      "outputs": [],
      "stateMutability": "nonpayable",
      "type": "function"
    }
  ],
  "transactionHash": "0xf9cdb9019bea218b81491686eb5bf04d97206ea43ad1a5c438f3507fa43de9c1",
  "args": [
    1000000000000000,
    1,
    "0xa36085F69e2889c224210F603D836748e7dC0088",
    "0xc57b33452b4f7bb189bb5afae9cc4aba1f7a4fd8",
    {
      "0": 100,
      "1": 53,
      "2": 50,
      "3": 55,
      "4": 48,
      "5": 100,
      "6": 49,
      "7": 99,
      "8": 51,
      "9": 49,
      "10": 49,
      "11": 57,
      "12": 52,
      "13": 49,
      "14": 100,
      "15": 48,
      "16": 98,
      "17": 48,
      "18": 56,
      "19": 98,
      "20": 101,
      "21": 97,
      "22": 100,
      "23": 50,
      "24": 49,
      "25": 102,
      "26": 101,
      "27": 97,
      "28": 55,
      "29": 55,
      "30": 52,
      "31": 55
    },
    "100000000000000000"
  ],
  "numDeployments": 2,
  "solcInputHash": "18141d997ca9b750d723158e24ed9816",
  "bytecode": "0x608060405260016004553480156200001657600080fd5b50604051620049863803806200498683398181016040528101906200003c91906200035b565b6200005c620000506200012a60201b60201c565b6200013260201b60201c565b856008819055508460128190555042601381905550600073ffffffffffffffffffffffffffffffffffffffff168473ffffffffffffffffffffffffffffffffffffffff161415620000bd57620000b7620001f860201b60201c565b620000cf565b620000ce84620002a060201b60201c565b5b82600e60006101000a81548173ffffffffffffffffffffffffffffffffffffffff021916908373ffffffffffffffffffffffffffffffffffffffff16021790555081600f819055508060108190555050505050505062000492565b600033905090565b6000600660009054906101000a900473ffffffffffffffffffffffffffffffffffffffff16905081600660006101000a81548173ffffffffffffffffffffffffffffffffffffffff021916908373ffffffffffffffffffffffffffffffffffffffff1602179055508173ffffffffffffffffffffffffffffffffffffffff168173ffffffffffffffffffffffffffffffffffffffff167f8be0079c531659141344cd1fd0a4f28419497f9722a3daafe3b4186f6b6457e060405160405180910390a35050565b6200029e73c89bd4e1632d3a43cb03aaad5262cbe4038bc57173ffffffffffffffffffffffffffffffffffffffff166338cc48316040518163ffffffff1660e01b815260040160206040518083038186803b1580156200025757600080fd5b505afa1580156200026c573d6000803e3d6000fd5b505050506040513d601f19601f8201168201806040525081019062000292919062000329565b620002a060201b60201c565b565b80600260006101000a81548173ffffffffffffffffffffffffffffffffffffffff021916908373ffffffffffffffffffffffffffffffffffffffff16021790555050565b600081519050620002f58162000444565b92915050565b6000815190506200030c816200045e565b92915050565b600081519050620003238162000478565b92915050565b6000602082840312156200034257620003416200043f565b5b60006200035284828501620002e4565b91505092915050565b60008060008060008060c087890312156200037b576200037a6200043f565b5b60006200038b89828a0162000312565b96505060206200039e89828a0162000312565b9550506040620003b189828a01620002e4565b9450506060620003c489828a01620002e4565b9350506080620003d789828a01620002fb565b92505060a0620003ea89828a0162000312565b9150509295509295509295565b6000620004048262000415565b9050919050565b6000819050919050565b600073ffffffffffffffffffffffffffffffffffffffff82169050919050565b6000819050919050565b600080fd5b6200044f81620003f7565b81146200045b57600080fd5b50565b62000469816200040b565b81146200047557600080fd5b50565b620004838162000435565b81146200048f57600080fd5b50565b6144e480620004a26000396000f3fe60806040526004361061014b5760003560e01c80638772ae3c116100b6578063af768ee31161006f578063af768ee314610439578063b4c0a1d414610476578063c38a8afd146104b3578063ca666823146104de578063e0ced0e114610509578063f2fde38b146105505761014b565b80638772ae3c1461033b57806387f7777d146103645780638abdf5aa1461038d5780638da5cb5b146103b85780638ea5220f146103e3578063947a36fb1461040e5761014b565b8063508954f811610108578063508954f81461023b5780636c0c27e1146102645780636e04ff0d14610280578063711bc983146102be578063715018a6146102fb5780637adbf973146103125761014b565b80631f53ac02146101505780631f796b571461017957806322a90082146101955780633f3b3b27146101be5780634357855e146101e95780634585e33b14610212575b600080fd5b34801561015c57600080fd5b5061017760048036038101906101729190613214565b610579565b005b610193600480360381019061018e9190613384565b610639565b005b3480156101a157600080fd5b506101bc60048036038101906101b7919061341b565b61093d565b005b3480156101ca57600080fd5b506101d36109c3565b6040516101e09190613a3a565b60405180910390f35b3480156101f557600080fd5b50610210600480360381019061020b919061329b565b6109c9565b005b34801561021e57600080fd5b50610239600480360381019061023491906132db565b610b08565b005b34801561024757600080fd5b50610262600480360381019061025d919061326e565b610b74565b005b61027e6004803603810190610279919061341b565b610bfa565b005b34801561028c57600080fd5b506102a760048036038101906102a291906132db565b6111b9565b6040516102b592919061386f565b60405180910390f35b3480156102ca57600080fd5b506102e560048036038101906102e0919061341b565b61121f565b6040516102f29190613a3a565b60405180910390f35b34801561030757600080fd5b50610310611243565b005b34801561031e57600080fd5b50610339600480360381019061033491906131e7565b6112cb565b005b34801561034757600080fd5b50610362600480360381019061035d919061341b565b61139a565b005b34801561037057600080fd5b5061038b6004803603810190610386919061341b565b611420565b005b34801561039957600080fd5b506103a2611649565b6040516103af9190613a3a565b60405180910390f35b3480156103c457600080fd5b506103cd61164f565b6040516103da9190613776565b60405180910390f35b3480156103ef57600080fd5b506103f8611679565b6040516104059190613791565b60405180910390f35b34801561041a57600080fd5b5061042361169f565b6040516104309190613a3a565b60405180910390f35b34801561044557600080fd5b50610460600480360381019061045b919061341b565b6116a5565b60405161046d9190613a3a565b60405180910390f35b34801561048257600080fd5b5061049d60048036038101906104989190613328565b6116c9565b6040516104aa919061389f565b60405180910390f35b3480156104bf57600080fd5b506104c86117fb565b6040516104d59190613a3a565b60405180910390f35b3480156104ea57600080fd5b506104f3611801565b6040516105009190613a3a565b60405180910390f35b34801561051557600080fd5b50610530600480360381019061052b919061341b565b611807565b6040516105479b9a99989796959493929190613a55565b60405180910390f35b34801561055c57600080fd5b50610577600480360381019061057291906131e7565b611982565b005b610581611a7a565b73ffffffffffffffffffffffffffffffffffffffff1661059f61164f565b73ffffffffffffffffffffffffffffffffffffffff16146105f5576040517f08c379a00000000000000000000000000000000000000000000000000000000081526004016105ec906139da565b60405180910390fd5b80600960006101000a81548173ffffffffffffffffffffffffffffffffffffffff021916908373ffffffffffffffffffffffffffffffffffffffff16021790555050565b60085434101561067e576040517f08c379a00000000000000000000000000000000000000000000000000000000081526004016106759061391a565b60405180910390fd5b8181106106c0576040517f08c379a00000000000000000000000000000000000000000000000000000000081526004016106b79061397a565b60405180910390fd5b60006040518060800160405280428152602001838152602001600081526020018481525090506000604051806101600160405280600a5481526020013373ffffffffffffffffffffffffffffffffffffffff168152602001600073ffffffffffffffffffffffffffffffffffffffff1681526020018881526020013481526020018781526020016000151581526020016001151581526020016000151581526020018681526020018381525090506001600a5461077d9190613b95565b600a81905550600c8160000151908060018154018082558091505060019003906000526020600020016000909190919091505580600b6000836000015181526020019081526020016000206000820151816000015560208201518160010160006101000a81548173ffffffffffffffffffffffffffffffffffffffff021916908373ffffffffffffffffffffffffffffffffffffffff16021790555060408201518160020160006101000a81548173ffffffffffffffffffffffffffffffffffffffff021916908373ffffffffffffffffffffffffffffffffffffffff160217905550606082015181600301908051906020019061087c929190612f8e565b506080820151816004015560a0820151816005015560c08201518160060160006101000a81548160ff02191690831515021790555060e08201518160060160016101000a81548160ff0219169083151502179055506101008201518160060160026101000a81548160ff02191690831515021790555061012082015181600701556101408201518160080160008201518160000155602082015181600101556040820151816002015560608201518160030155505090505050505050505050565b610945611a7a565b73ffffffffffffffffffffffffffffffffffffffff1661096361164f565b73ffffffffffffffffffffffffffffffffffffffff16146109b9576040517f08c379a00000000000000000000000000000000000000000000000000000000081526004016109b0906139da565b60405180910390fd5b8060128190555050565b60135481565b816005600082815260200190815260200160002060009054906101000a900473ffffffffffffffffffffffffffffffffffffffff1673ffffffffffffffffffffffffffffffffffffffff163373ffffffffffffffffffffffffffffffffffffffff1614610a6b576040517f08c379a0000000000000000000000000000000000000000000000000000000008152600401610a62906139fa565b60405180910390fd5b6005600082815260200190815260200160002060006101000a81549073ffffffffffffffffffffffffffffffffffffffff0219169055807f7cc135e0cebb02c3480ae5d74d377283180a2601f8f644edf7987b009316c63a60405160405180910390a26000606483610add9190613beb565b9050600060116000868152602001908152602001600020549050610b018183611a82565b5050505050565b60125460135442610b199190613de7565b11610b59576040517f08c379a0000000000000000000000000000000000000000000000000000000008152600401610b50906139ba565b60405180910390fd5b42601381905550610b686120bb565b610b70612357565b5050565b610b7c611a7a565b73ffffffffffffffffffffffffffffffffffffffff16610b9a61164f565b73ffffffffffffffffffffffffffffffffffffffff1614610bf0576040517f08c379a0000000000000000000000000000000000000000000000000000000008152600401610be7906139da565b60405180910390fd5b80600f8190555050565b6000600b600083815260200190815260200160002060405180610160016040529081600082015481526020016001820160009054906101000a900473ffffffffffffffffffffffffffffffffffffffff1673ffffffffffffffffffffffffffffffffffffffff1673ffffffffffffffffffffffffffffffffffffffff1681526020016002820160009054906101000a900473ffffffffffffffffffffffffffffffffffffffff1673ffffffffffffffffffffffffffffffffffffffff1673ffffffffffffffffffffffffffffffffffffffff168152602001600382018054610ce190613f23565b80601f0160208091040260200160405190810160405280929190818152602001828054610d0d90613f23565b8015610d5a5780601f10610d2f57610100808354040283529160200191610d5a565b820191906000526020600020905b815481529060010190602001808311610d3d57829003601f168201915b5050505050815260200160048201548152602001600582015481526020016006820160009054906101000a900460ff161515151581526020016006820160019054906101000a900460ff161515151581526020016006820160029054906101000a900460ff161515151581526020016007820154815260200160088201604051806080016040529081600082015481526020016001820154815260200160028201548152602001600382015481525050815250509050600115158160e00151151514610e5b576040517f08c379a0000000000000000000000000000000000000000000000000000000008152600401610e52906138da565b60405180910390fd5b600015158160c00151151514610ea6576040517f08c379a0000000000000000000000000000000000000000000000000000000008152600401610e9d906138fa565b60405180910390fd5b60001515816101000151151514610ef2576040517f08c379a0000000000000000000000000000000000000000000000000000000008152600401610ee99061399a565b60405180910390fd5b348160a0015114610f38576040517f08c379a0000000000000000000000000000000000000000000000000000000008152600401610f2f9061395a565b60405180910390fd5b80610140015160200151421115610f84576040517f08c379a0000000000000000000000000000000000000000000000000000000008152600401610f7b90613a1a565b60405180910390fd5b42816101400151604001818152505060018160c00190151590811515815250503481608001818151610fb69190613b95565b9150818152505033816040019073ffffffffffffffffffffffffffffffffffffffff16908173ffffffffffffffffffffffffffffffffffffffff1681525050611004600c82600001516125d0565b80600b6000836000015181526020019081526020016000206000820151816000015560208201518160010160006101000a81548173ffffffffffffffffffffffffffffffffffffffff021916908373ffffffffffffffffffffffffffffffffffffffff16021790555060408201518160020160006101000a81548173ffffffffffffffffffffffffffffffffffffffff021916908373ffffffffffffffffffffffffffffffffffffffff16021790555060608201518160030190805190602001906110d0929190612f8e565b506080820151816004015560a0820151816005015560c08201518160060160006101000a81548160ff02191690831515021790555060e08201518160060160016101000a81548160ff0219169083151502179055506101008201518160060160026101000a81548160ff021916908315150217905550610120820151816007015561014082015181600801600082015181600001556020820151816001015560408201518160020155606082015181600301555050905050600d816000015190806001815401808255809150506001900390600052602060002001600090919091909150555050565b60006060601254601354426111ce9190613de7565b11915083838080601f016020809104026020016040519081016040528093929190818152602001838380828437600081840152601f19601f8201169050808301925050505050505090509250929050565b600d818154811061122f57600080fd5b906000526020600020016000915090505481565b61124b611a7a565b73ffffffffffffffffffffffffffffffffffffffff1661126961164f565b73ffffffffffffffffffffffffffffffffffffffff16146112bf576040517f08c379a00000000000000000000000000000000000000000000000000000000081526004016112b6906139da565b60405180910390fd5b6112c960006126b8565b565b6112d3611a7a565b73ffffffffffffffffffffffffffffffffffffffff166112f161164f565b73ffffffffffffffffffffffffffffffffffffffff1614611347576040517f08c379a000000000000000000000000000000000000000000000000000000000815260040161133e906139da565b60405180910390fd5b80600e60006101000a81548173ffffffffffffffffffffffffffffffffffffffff021916908373ffffffffffffffffffffffffffffffffffffffff16021790555067016345785d8a000060108190555050565b6113a2611a7a565b73ffffffffffffffffffffffffffffffffffffffff166113c061164f565b73ffffffffffffffffffffffffffffffffffffffff1614611416576040517f08c379a000000000000000000000000000000000000000000000000000000000815260040161140d906139da565b60405180910390fd5b8060088190555050565b6000600b600083815260200190815260200160002060405180610160016040529081600082015481526020016001820160009054906101000a900473ffffffffffffffffffffffffffffffffffffffff1673ffffffffffffffffffffffffffffffffffffffff1673ffffffffffffffffffffffffffffffffffffffff1681526020016002820160009054906101000a900473ffffffffffffffffffffffffffffffffffffffff1673ffffffffffffffffffffffffffffffffffffffff1673ffffffffffffffffffffffffffffffffffffffff16815260200160038201805461150790613f23565b80601f016020809104026020016040519081016040528092919081815260200182805461153390613f23565b80156115805780601f1061155557610100808354040283529160200191611580565b820191906000526020600020905b81548152906001019060200180831161156357829003601f168201915b5050505050815260200160048201548152602001600582015481526020016006820160009054906101000a900460ff161515151581526020016006820160019054906101000a900460ff161515151581526020016006820160029054906101000a900460ff1615151515815260200160078201548152602001600882016040518060800160405290816000820154815260200160018201548152602001600282015481526020016003820154815250508152505090506116448160600151836116c9565b505050565b60075481565b6000600660009054906101000a900473ffffffffffffffffffffffffffffffffffffffff16905090565b600960009054906101000a900473ffffffffffffffffffffffffffffffffffffffff1681565b60125481565b600c81815481106116b557600080fd5b906000526020600020016000915090505481565b6000806116e0600f5430634357855e60e01b61277e565b905061172c6040518060400160405280600381526020017f676574000000000000000000000000000000000000000000000000000000000081525085836127af9092919063ffffffff16565b6117ab6040518060400160405280600481526020017f70617468000000000000000000000000000000000000000000000000000000008152506040518060400160405280600c81526020017f746f74616c526573756c74730000000000000000000000000000000000000000815250836127af9092919063ffffffff16565b6117da600e60009054906101000a900473ffffffffffffffffffffffffffffffffffffffff16826010546127e2565b91508260116000848152602001908152602001600020819055505092915050565b60085481565b600a5481565b600b6020528060005260406000206000915090508060000154908060010160009054906101000a900473ffffffffffffffffffffffffffffffffffffffff16908060020160009054906101000a900473ffffffffffffffffffffffffffffffffffffffff169080600301805461187c90613f23565b80601f01602080910402602001604051908101604052809291908181526020018280546118a890613f23565b80156118f55780601f106118ca576101008083540402835291602001916118f5565b820191906000526020600020905b8154815290600101906020018083116118d857829003601f168201915b5050505050908060040154908060050154908060060160009054906101000a900460ff16908060060160019054906101000a900460ff16908060060160029054906101000a900460ff16908060070154908060080160405180608001604052908160008201548152602001600182015481526020016002820154815260200160038201548152505090508b565b61198a611a7a565b73ffffffffffffffffffffffffffffffffffffffff166119a861164f565b73ffffffffffffffffffffffffffffffffffffffff16146119fe576040517f08c379a00000000000000000000000000000000000000000000000000000000081526004016119f5906139da565b60405180910390fd5b600073ffffffffffffffffffffffffffffffffffffffff168173ffffffffffffffffffffffffffffffffffffffff161415611a6e576040517f08c379a0000000000000000000000000000000000000000000000000000000008152600401611a65906138ba565b60405180910390fd5b611a77816126b8565b50565b600033905090565b6000600b600084815260200190815260200160002060405180610160016040529081600082015481526020016001820160009054906101000a900473ffffffffffffffffffffffffffffffffffffffff1673ffffffffffffffffffffffffffffffffffffffff1673ffffffffffffffffffffffffffffffffffffffff1681526020016002820160009054906101000a900473ffffffffffffffffffffffffffffffffffffffff1673ffffffffffffffffffffffffffffffffffffffff1673ffffffffffffffffffffffffffffffffffffffff168152602001600382018054611b6990613f23565b80601f0160208091040260200160405190810160405280929190818152602001828054611b9590613f23565b8015611be25780601f10611bb757610100808354040283529160200191611be2565b820191906000526020600020905b815481529060010190602001808311611bc557829003601f168201915b5050505050815260200160048201548152602001600582015481526020016006820160009054906101000a900460ff161515151581526020016006820160019054906101000a900460ff161515151581526020016006820160029054906101000a900460ff161515151581526020016007820154815260200160088201604051806080016040529081600082015481526020016001820154815260200160028201548152602001600382015481525050815250509050806101200151821115611ea75760018161010001901515908115158152505060008160e0019015159081151581525050806020015173ffffffffffffffffffffffffffffffffffffffff166108fc82608001519081150290604051600060405180830381858888f19350505050158015611d16573d6000803e3d6000fd5b5080600b60008581526020019081526020016000206000820151816000015560208201518160010160006101000a81548173ffffffffffffffffffffffffffffffffffffffff021916908373ffffffffffffffffffffffffffffffffffffffff16021790555060408201518160020160006101000a81548173ffffffffffffffffffffffffffffffffffffffff021916908373ffffffffffffffffffffffffffffffffffffffff1602179055506060820151816003019080519060200190611ddf929190612f8e565b506080820151816004015560a0820151816005015560c08201518160060160006101000a81548160ff02191690831515021790555060e08201518160060160016101000a81548160ff0219169083151502179055506101008201518160060160026101000a81548160ff021916908315150217905550610120820151816007015561014082015181600801600082015181600001556020820151816001015560408201518160020155606082015181600301555050905050611ea2600d846125d0565b6120b6565b8061014001516060015142106120b55760018161010001901515908115158152505060008160e0019015159081151581525050806040015173ffffffffffffffffffffffffffffffffffffffff166108fc82608001519081150290604051600060405180830381858888f19350505050158015611f28573d6000803e3d6000fd5b5080600b60008581526020019081526020016000206000820151816000015560208201518160010160006101000a81548173ffffffffffffffffffffffffffffffffffffffff021916908373ffffffffffffffffffffffffffffffffffffffff16021790555060408201518160020160006101000a81548173ffffffffffffffffffffffffffffffffffffffff021916908373ffffffffffffffffffffffffffffffffffffffff1602179055506060820151816003019080519060200190611ff1929190612f8e565b506080820151816004015560a0820151816005015560c08201518160060160006101000a81548160ff02191690831515021790555060e08201518160060160016101000a81548160ff0219169083151502179055506101008201518160060160026101000a81548160ff0219169083151502179055506101208201518160070155610140820151816008016000820151816000015560208201518160010155604082015181600201556060820151816003015550509050506120b4600d846125d0565b5b5b505050565b60005b600c80549050811015612354576000600b6000600c84815481106120e5576120e46140ea565b5b9060005260206000200154815260200190815260200160002060405180610160016040529081600082015481526020016001820160009054906101000a900473ffffffffffffffffffffffffffffffffffffffff1673ffffffffffffffffffffffffffffffffffffffff1673ffffffffffffffffffffffffffffffffffffffff1681526020016002820160009054906101000a900473ffffffffffffffffffffffffffffffffffffffff1673ffffffffffffffffffffffffffffffffffffffff1673ffffffffffffffffffffffffffffffffffffffff1681526020016003820180546121d090613f23565b80601f01602080910402602001604051908101604052809291908181526020018280546121fc90613f23565b80156122495780601f1061221e57610100808354040283529160200191612249565b820191906000526020600020905b81548152906001019060200180831161222c57829003601f168201915b5050505050815260200160048201548152602001600582015481526020016006820160009054906101000a900460ff161515151581526020016006820160019054906101000a900460ff161515151581526020016006820160029054906101000a900460ff1615151515815260200160078201548152602001600882016040518060800160405290816000820154815260200160018201548152602001600282015481526020016003820154815250508152505090508060c0015115801561231a5750428161014001516020015111155b156123405760008160e001901515908115158152505061233f600c82600001516125d0565b5b50808061234c90613f86565b9150506120be565b50565b60005b600d805490508110156125cd576000600b6000600d8481548110612381576123806140ea565b5b9060005260206000200154815260200190815260200160002060405180610160016040529081600082015481526020016001820160009054906101000a900473ffffffffffffffffffffffffffffffffffffffff1673ffffffffffffffffffffffffffffffffffffffff1673ffffffffffffffffffffffffffffffffffffffff1681526020016002820160009054906101000a900473ffffffffffffffffffffffffffffffffffffffff1673ffffffffffffffffffffffffffffffffffffffff1673ffffffffffffffffffffffffffffffffffffffff16815260200160038201805461246c90613f23565b80601f016020809104026020016040519081016040528092919081815260200182805461249890613f23565b80156124e55780601f106124ba576101008083540402835291602001916124e5565b820191906000526020600020905b8154815290600101906020018083116124c857829003601f168201915b5050505050815260200160048201548152602001600582015481526020016006820160009054906101000a900460ff161515151581526020016006820160019054906101000a900460ff161515151581526020016006820160029054906101000a900460ff1615151515815260200160078201548152602001600882016040518060800160405290816000820154815260200160018201548152602001600282015481526020016003820154815250508152505090504281610140015160600151116125b9576125b88160000151611420565b5b5080806125c590613f86565b91505061235a565b50565b60005b82805490508110156126b357818382815481106125f3576125f26140ea565b5b906000526020600020015414156126a057828181548110612617576126166140ea565b5b906000526020600020016000905582600184805490506126379190613de7565b81548110612648576126476140ea565b5b9060005260206000200154838281548110612666576126656140ea565b5b906000526020600020018190555082805480612685576126846140bb565b5b600190038181906000526020600020016000905590556126b3565b80806126ab90613f86565b9150506125d3565b505050565b6000600660009054906101000a900473ffffffffffffffffffffffffffffffffffffffff16905081600660006101000a81548173ffffffffffffffffffffffffffffffffffffffff021916908373ffffffffffffffffffffffffffffffffffffffff1602179055508173ffffffffffffffffffffffffffffffffffffffff168173ffffffffffffffffffffffffffffffffffffffff167f8be0079c531659141344cd1fd0a4f28419497f9722a3daafe3b4186f6b6457e060405160405180910390a35050565b612786613014565b61278e613014565b6127a5858585846128ae909392919063ffffffff16565b9150509392505050565b6127c682846080015161295e90919063ffffffff16565b6127dd81846080015161295e90919063ffffffff16565b505050565b60008060045490506001816127f79190613b95565b6004819055506000634042994660e01b60008087600001513089604001518760018c60800151600001516040516024016128389897969594939291906137ac565b604051602081830303815290604052907bffffffffffffffffffffffffffffffffffffffffffffffffffffffff19166020820180517bffffffffffffffffffffffffffffffffffffffffffffffffffffffff838183161783525050505090506128a386838684612983565b925050509392505050565b6128b6613014565b6128c68560800151610100612b27565b508385600001818152505082856020019073ffffffffffffffffffffffffffffffffffffffff16908173ffffffffffffffffffffffffffffffffffffffff16815250508185604001907bffffffffffffffffffffffffffffffffffffffffffffffffffffffff191690817bffffffffffffffffffffffffffffffffffffffffffffffffffffffff191681525050849050949350505050565b61296b8260038351612b91565b61297e8183612d1690919063ffffffff16565b505050565b6000308460405160200161299892919061374a565b604051602081830303815290604052805190602001209050846005600083815260200190815260200160002060006101000a81548173ffffffffffffffffffffffffffffffffffffffff021916908373ffffffffffffffffffffffffffffffffffffffff160217905550807fb5e6e01e79f91267dc17b4e6314d5d4d03593d2ceee0fbb452b750bd70ea5af960405160405180910390a2600260009054906101000a900473ffffffffffffffffffffffffffffffffffffffff1673ffffffffffffffffffffffffffffffffffffffff16634000aea08685856040518463ffffffff1660e01b8152600401612a8e93929190613831565b602060405180830381600087803b158015612aa857600080fd5b505af1158015612abc573d6000803e3d6000fd5b505050506040513d601f19601f82011682018060405250810190612ae09190613241565b612b1f576040517f08c379a0000000000000000000000000000000000000000000000000000000008152600401612b169061393a565b60405180910390fd5b949350505050565b612b2f613081565b6000602083612b3e9190613ffd565b14612b6a57602082612b509190613ffd565b6020612b5c9190613de7565b82612b679190613b95565b91505b81836020018181525050604051808452600081528281016020016040525082905092915050565b60178167ffffffffffffffff1611612bc857612bc28160058460ff16901b60ff161784612d3890919063ffffffff16565b50612d11565b60ff8167ffffffffffffffff1611612c1e57612bf7601860058460ff16901b1784612d3890919063ffffffff16565b50612c188167ffffffffffffffff16600185612d589092919063ffffffff16565b50612d10565b61ffff8167ffffffffffffffff1611612c7557612c4e601960058460ff16901b1784612d3890919063ffffffff16565b50612c6f8167ffffffffffffffff16600285612d589092919063ffffffff16565b50612d0f565b63ffffffff8167ffffffffffffffff1611612cce57612ca7601a60058460ff16901b1784612d3890919063ffffffff16565b50612cc88167ffffffffffffffff16600485612d589092919063ffffffff16565b50612d0e565b612ceb601b60058460ff16901b1784612d3890919063ffffffff16565b50612d0c8167ffffffffffffffff16600885612d589092919063ffffffff16565b505b5b5b5b505050565b612d1e613081565b612d3083846000015151848551612d7a565b905092915050565b612d40613081565b612d508384600001515184612e69565b905092915050565b612d60613081565b612d71848560000151518585612ec0565b90509392505050565b612d82613081565b8251821115612d9057600080fd5b84602001518285612da19190613b95565b1115612dd657612dd5856002612dc688602001518887612dc19190613b95565b612f4e565b612dd09190613d8d565b612f6a565b5b600080865180518760208301019350808887011115612df55787860182525b60208701925050505b60208410612e3c5780518252602082612e179190613b95565b9150602081612e269190613b95565b9050602084612e359190613de7565b9350612dfe565b60006001856020036101000a03905080198251168184511681811785525050508692505050949350505050565b612e71613081565b83602001518310612e9757612e968460028660200151612e919190613d8d565b612f6a565b5b8351805160208583010184815381861415612eb3576001820183525b5050508390509392505050565b612ec8613081565b84602001518483612ed99190613b95565b1115612f0157612f008560028685612ef19190613b95565b612efb9190613d8d565b612f6a565b5b6000600183610100612f139190613c6f565b612f1d9190613de7565b90508551838682010185831982511617815281518588011115612f405784870182525b505085915050949350505050565b600081831115612f6057829050612f64565b8190505b92915050565b600082600001519050612f7d8383612b27565b50612f888382612d16565b50505050565b828054612f9a90613f23565b90600052602060002090601f016020900481019282612fbc5760008555613003565b82601f10612fd557805160ff1916838001178555613003565b82800160010185558215613003579182015b82811115613002578251825591602001919060010190612fe7565b5b509050613010919061309b565b5090565b6040518060a0016040528060008019168152602001600073ffffffffffffffffffffffffffffffffffffffff16815260200160007bffffffffffffffffffffffffffffffffffffffffffffffffffffffff191681526020016000815260200161307b613081565b81525090565b604051806040016040528060608152602001600081525090565b5b808211156130b457600081600090555060010161309c565b5090565b60006130cb6130c684613b2c565b613b07565b9050828152602081018484840111156130e7576130e6614157565b5b6130f2848285613ee1565b509392505050565b6000813590506131098161443b565b92915050565b60008135905061311e81614452565b92915050565b60008151905061313381614469565b92915050565b60008135905061314881614480565b92915050565b60008083601f8401126131645761316361414d565b5b8235905067ffffffffffffffff81111561318157613180614148565b5b60208301915083600182028301111561319d5761319c614152565b5b9250929050565b600082601f8301126131b9576131b861414d565b5b81356131c98482602086016130b8565b91505092915050565b6000813590506131e181614497565b92915050565b6000602082840312156131fd576131fc614161565b5b600061320b848285016130fa565b91505092915050565b60006020828403121561322a57613229614161565b5b60006132388482850161310f565b91505092915050565b60006020828403121561325757613256614161565b5b600061326584828501613124565b91505092915050565b60006020828403121561328457613283614161565b5b600061329284828501613139565b91505092915050565b600080604083850312156132b2576132b1614161565b5b60006132c085828601613139565b92505060206132d1858286016131d2565b9150509250929050565b600080602083850312156132f2576132f1614161565b5b600083013567ffffffffffffffff8111156133105761330f61415c565b5b61331c8582860161314e565b92509250509250929050565b6000806040838503121561333f5761333e614161565b5b600083013567ffffffffffffffff81111561335d5761335c61415c565b5b613369858286016131a4565b925050602061337a858286016131d2565b9150509250929050565b600080600080600060a086880312156133a05761339f614161565b5b600086013567ffffffffffffffff8111156133be576133bd61415c565b5b6133ca888289016131a4565b95505060206133db888289016131d2565b94505060406133ec888289016131d2565b93505060606133fd888289016131d2565b925050608061340e888289016131d2565b9150509295509295909350565b60006020828403121561343157613430614161565b5b600061343f848285016131d2565b91505092915050565b61345181613e2d565b82525050565b61346081613e1b565b82525050565b61346f81613e3f565b82525050565b61347e81613e4b565b82525050565b61348d81613e55565b82525050565b600061349e82613b5d565b6134a88185613b73565b93506134b8818560208601613ef0565b6134c181614166565b840191505092915050565b6134dd6134d882613eab565b613fcf565b82525050565b60006134ee82613b68565b6134f88185613b84565b9350613508818560208601613ef0565b61351181614166565b840191505092915050565b6000613529602683613b84565b915061353482614191565b604082019050919050565b600061354c600e83613b84565b9150613557826141e0565b602082019050919050565b600061356f601483613b84565b915061357a82614209565b602082019050919050565b6000613592601983613b84565b915061359d82614232565b602082019050919050565b60006135b5602383613b84565b91506135c08261425b565b604082019050919050565b60006135d8601a83613b84565b91506135e3826142aa565b602082019050919050565b60006135fb602383613b84565b9150613606826142d3565b604082019050919050565b600061361e601383613b84565b915061362982614322565b602082019050919050565b6000613641601583613b84565b915061364c8261434b565b602082019050919050565b6000613664602083613b84565b915061366f82614374565b602082019050919050565b6000613687602883613b84565b91506136928261439d565b604082019050919050565b60006136aa602383613b84565b91506136b5826143ec565b604082019050919050565b6080820160008201516136d66000850182613715565b5060208201516136e96020850182613715565b5060408201516136fc6040850182613715565b50606082015161370f6060850182613715565b50505050565b61371e81613ea1565b82525050565b61372d81613ea1565b82525050565b61374461373f82613ea1565b613ff3565b82525050565b600061375682856134cc565b6014820191506137668284613733565b6020820191508190509392505050565b600060208201905061378b6000830184613457565b92915050565b60006020820190506137a66000830184613448565b92915050565b6000610100820190506137c2600083018b613457565b6137cf602083018a613724565b6137dc6040830189613475565b6137e96060830188613457565b6137f66080830187613484565b61380360a0830186613724565b61381060c0830185613724565b81810360e08301526138228184613493565b90509998505050505050505050565b60006060820190506138466000830186613457565b6138536020830185613724565b81810360408301526138658184613493565b9050949350505050565b60006040820190506138846000830185613466565b81810360208301526138968184613493565b90509392505050565b60006020820190506138b46000830184613475565b92915050565b600060208201905081810360008301526138d38161351c565b9050919050565b600060208201905081810360008301526138f38161353f565b9050919050565b6000602082019050818103600083015261391381613562565b9050919050565b6000602082019050818103600083015261393381613585565b9050919050565b60006020820190508181036000830152613953816135a8565b9050919050565b60006020820190508181036000830152613973816135cb565b9050919050565b60006020820190508181036000830152613993816135ee565b9050919050565b600060208201905081810360008301526139b381613611565b9050919050565b600060208201905081810360008301526139d381613634565b9050919050565b600060208201905081810360008301526139f381613657565b9050919050565b60006020820190508181036000830152613a138161367a565b9050919050565b60006020820190508181036000830152613a338161369d565b9050919050565b6000602082019050613a4f6000830184613724565b92915050565b60006101c082019050613a6b600083018e613724565b613a78602083018d613448565b613a85604083018c613448565b8181036060830152613a97818b6134e3565b9050613aa6608083018a613724565b613ab360a0830189613724565b613ac060c0830188613466565b613acd60e0830187613466565b613adb610100830186613466565b613ae9610120830185613724565b613af76101408301846136c0565b9c9b505050505050505050505050565b6000613b11613b22565b9050613b1d8282613f55565b919050565b6000604051905090565b600067ffffffffffffffff821115613b4757613b46614119565b5b613b5082614166565b9050602081019050919050565b600081519050919050565b600081519050919050565b600082825260208201905092915050565b600082825260208201905092915050565b6000613ba082613ea1565b9150613bab83613ea1565b9250827fffffffffffffffffffffffffffffffffffffffffffffffffffffffffffffffff03821115613be057613bdf61402e565b5b828201905092915050565b6000613bf682613ea1565b9150613c0183613ea1565b925082613c1157613c1061405d565b5b828204905092915050565b6000808291508390505b6001851115613c6657808604811115613c4257613c4161402e565b5b6001851615613c515780820291505b8081029050613c5f85614184565b9450613c26565b94509492505050565b6000613c7a82613ea1565b9150613c8583613ea1565b9250613cb27fffffffffffffffffffffffffffffffffffffffffffffffffffffffffffffffff8484613cba565b905092915050565b600082613cca5760019050613d86565b81613cd85760009050613d86565b8160018114613cee5760028114613cf857613d27565b6001915050613d86565b60ff841115613d0a57613d0961402e565b5b8360020a915084821115613d2157613d2061402e565b5b50613d86565b5060208310610133831016604e8410600b8410161715613d5c5782820a905083811115613d5757613d5661402e565b5b613d86565b613d698484846001613c1c565b92509050818404811115613d8057613d7f61402e565b5b81810290505b9392505050565b6000613d9882613ea1565b9150613da383613ea1565b9250817fffffffffffffffffffffffffffffffffffffffffffffffffffffffffffffffff0483118215151615613ddc57613ddb61402e565b5b828202905092915050565b6000613df282613ea1565b9150613dfd83613ea1565b925082821015613e1057613e0f61402e565b5b828203905092915050565b6000613e2682613e81565b9050919050565b6000613e3882613e81565b9050919050565b60008115159050919050565b6000819050919050565b60007fffffffff0000000000000000000000000000000000000000000000000000000082169050919050565b600073ffffffffffffffffffffffffffffffffffffffff82169050919050565b6000819050919050565b6000613eb682613ebd565b9050919050565b6000613ec882613ecf565b9050919050565b6000613eda82613e81565b9050919050565b82818337600083830152505050565b60005b83811015613f0e578082015181840152602081019050613ef3565b83811115613f1d576000848401525b50505050565b60006002820490506001821680613f3b57607f821691505b60208210811415613f4f57613f4e61408c565b5b50919050565b613f5e82614166565b810181811067ffffffffffffffff82111715613f7d57613f7c614119565b5b80604052505050565b6000613f9182613ea1565b91507fffffffffffffffffffffffffffffffffffffffffffffffffffffffffffffffff821415613fc457613fc361402e565b5b600182019050919050565b6000613fda82613fe1565b9050919050565b6000613fec82614177565b9050919050565b6000819050919050565b600061400882613ea1565b915061401383613ea1565b9250826140235761402261405d565b5b828206905092915050565b7f4e487b7100000000000000000000000000000000000000000000000000000000600052601160045260246000fd5b7f4e487b7100000000000000000000000000000000000000000000000000000000600052601260045260246000fd5b7f4e487b7100000000000000000000000000000000000000000000000000000000600052602260045260246000fd5b7f4e487b7100000000000000000000000000000000000000000000000000000000600052603160045260246000fd5b7f4e487b7100000000000000000000000000000000000000000000000000000000600052603260045260246000fd5b7f4e487b7100000000000000000000000000000000000000000000000000000000600052604160045260246000fd5b600080fd5b600080fd5b600080fd5b600080fd5b600080fd5b600080fd5b6000601f19601f8301169050919050565b60008160601b9050919050565b60008160011c9050919050565b7f4f776e61626c653a206e6577206f776e657220697320746865207a65726f206160008201527f6464726573730000000000000000000000000000000000000000000000000000602082015250565b7f626574206e6f7420616374697665000000000000000000000000000000000000600082015250565b7f62657420616c7265616479206163636570746564000000000000000000000000600082015250565b7f6d696e696d756d20626574206e6f742073617469736669656400000000000000600082015250565b7f756e61626c6520746f207472616e73666572416e6443616c6c20746f206f726160008201527f636c650000000000000000000000000000000000000000000000000000000000602082015250565b7f6163636570746572206d6f6e6579206e6f7420636f7272656374000000000000600082015250565b7f6163636570742064617465206d757374206265206265666f726520656e64206460008201527f6174650000000000000000000000000000000000000000000000000000000000602082015250565b7f62657420686173206265656e20636c6f73656400000000000000000000000000600082015250565b7f54696d6520696e74657276616c206e6f74206d65740000000000000000000000600082015250565b7f4f776e61626c653a2063616c6c6572206973206e6f7420746865206f776e6572600082015250565b7f536f75726365206d75737420626520746865206f7261636c65206f662074686560008201527f2072657175657374000000000000000000000000000000000000000000000000602082015250565b7f626574206973206e6f206c6f6e676572206f70656e20666f722061636365707460008201527f696e670000000000000000000000000000000000000000000000000000000000602082015250565b61444481613e1b565b811461444f57600080fd5b50565b61445b81613e2d565b811461446657600080fd5b50565b61447281613e3f565b811461447d57600080fd5b50565b61448981613e4b565b811461449457600080fd5b50565b6144a081613ea1565b81146144ab57600080fd5b5056fea264697066735822122094019c0bf1c97f6ef05cf108d73fccde389c4ebef3093bdc7c30f21d3ffc9f5164736f6c63430008070033",
  "devdoc": {
    "kind": "dev",
    "methods": {
      "checkUpkeep(bytes)": {
        "details": "To ensure that it is never called, you may want to add the cannotExecute modifier from KeeperBase to your implementation of this method.",
        "params": {
          "checkData": "specified in the upkeep registration so it is always the same for a registered upkeep. This can easily be broken down into specific arguments using `abi.decode`, so multiple upkeeps can be registered on the same contract and easily differentiated by the contract."
        },
        "returns": {
          "performData": "bytes that the keeper should call performUpkeep with, if upkeep is needed. If you would like to encode data to decode later, try `abi.encode`.",
          "upkeepNeeded": "boolean to indicate whether the keeper should call performUpkeep or not."
        }
      },
      "owner()": {
        "details": "Returns the address of the current owner."
      },
      "performUpkeep(bytes)": {
        "details": "The input to this method should not be trusted, and the caller of the method should not even be restricted to any single registry. Anyone should be able call it, and the input should be validated, there is no guarantee that the data passed in is the performData returned from checkUpkeep. This could happen due to malicious keepers, racing keepers, or simply a state change while the performUpkeep transaction is waiting for confirmation. Always validate the data passed in.",
        "params": {
          "performData": "is the data which was passed back from the checkData simulation. If it is encoded, it can easily be decoded into other types by calling `abi.decode`. This data should not be trusted, and should be validated against the contract's current state."
        }
      },
      "renounceOwnership()": {
        "details": "Leaves the contract without owner. It will not be possible to call `onlyOwner` functions anymore. Can only be called by the current owner. NOTE: Renouncing ownership will leave the contract without an owner, thereby removing any functionality that is only available to the owner."
      },
      "transferOwnership(address)": {
        "details": "Transfers ownership of the contract to a new account (`newOwner`). Can only be called by the current owner."
      }
    },
    "version": 1
  },
  "userdoc": {
    "kind": "user",
    "methods": {
      "checkUpkeep(bytes)": {
        "notice": "method that is simulated by the keepers to see if any work actually needs to be performed. This method does does not actually need to be executable, and since it is only ever simulated it can consume lots of gas."
      },
      "performUpkeep(bytes)": {
        "notice": "method that is actually executed by the keepers, via the registry. The data returned by the checkUpkeep simulation will be passed into this method to actually be executed."
      }
    },
    "version": 1
  },
  "storageLayout": {
    "storage": [
      {
        "astId": 319,
        "contract": "contracts/BetGame.sol:BetGame",
        "label": "s_ens",
        "offset": 0,
        "slot": "0",
        "type": "t_contract(ENSInterface)1013"
      },
      {
        "astId": 321,
        "contract": "contracts/BetGame.sol:BetGame",
        "label": "s_ensNode",
        "offset": 0,
        "slot": "1",
        "type": "t_bytes32"
      },
      {
        "astId": 324,
        "contract": "contracts/BetGame.sol:BetGame",
        "label": "s_link",
        "offset": 0,
        "slot": "2",
        "type": "t_contract(LinkTokenInterface)1127"
      },
      {
        "astId": 327,
        "contract": "contracts/BetGame.sol:BetGame",
        "label": "s_oracle",
        "offset": 0,
        "slot": "3",
        "type": "t_contract(OperatorInterface)1207"
      },
      {
        "astId": 330,
        "contract": "contracts/BetGame.sol:BetGame",
        "label": "s_requestCount",
        "offset": 0,
        "slot": "4",
        "type": "t_uint256"
      },
      {
        "astId": 334,
        "contract": "contracts/BetGame.sol:BetGame",
        "label": "s_pendingRequests",
        "offset": 0,
        "slot": "5",
        "type": "t_mapping(t_bytes32,t_address)"
      },
      {
        "astId": 2241,
        "contract": "contracts/BetGame.sol:BetGame",
        "label": "_owner",
        "offset": 0,
        "slot": "6",
        "type": "t_address"
      },
      {
        "astId": 2499,
        "contract": "contracts/BetGame.sol:BetGame",
        "label": "serviceFee",
        "offset": 0,
        "slot": "7",
        "type": "t_uint256"
      },
      {
        "astId": 2501,
        "contract": "contracts/BetGame.sol:BetGame",
        "label": "minimumBet",
        "offset": 0,
        "slot": "8",
        "type": "t_uint256"
      },
      {
        "astId": 2503,
        "contract": "contracts/BetGame.sol:BetGame",
        "label": "devWallet",
        "offset": 0,
        "slot": "9",
        "type": "t_address_payable"
      },
      {
        "astId": 2538,
        "contract": "contracts/BetGame.sol:BetGame",
        "label": "globalId",
        "offset": 0,
        "slot": "10",
        "type": "t_uint256"
      },
      {
        "astId": 2543,
        "contract": "contracts/BetGame.sol:BetGame",
        "label": "allBets",
        "offset": 0,
        "slot": "11",
        "type": "t_mapping(t_uint256,t_struct(Bet)2536_storage)"
      },
      {
        "astId": 2546,
        "contract": "contracts/BetGame.sol:BetGame",
        "label": "activeBets",
        "offset": 0,
        "slot": "12",
        "type": "t_array(t_uint256)dyn_storage"
      },
      {
        "astId": 2549,
        "contract": "contracts/BetGame.sol:BetGame",
        "label": "acceptedBets",
        "offset": 0,
        "slot": "13",
        "type": "t_array(t_uint256)dyn_storage"
      },
      {
        "astId": 2551,
        "contract": "contracts/BetGame.sol:BetGame",
        "label": "oracle",
        "offset": 0,
        "slot": "14",
        "type": "t_address"
      },
      {
        "astId": 2553,
        "contract": "contracts/BetGame.sol:BetGame",
        "label": "jobId",
        "offset": 0,
        "slot": "15",
        "type": "t_bytes32"
      },
      {
        "astId": 2555,
        "contract": "contracts/BetGame.sol:BetGame",
        "label": "fee",
        "offset": 0,
        "slot": "16",
        "type": "t_uint256"
      },
      {
        "astId": 2559,
        "contract": "contracts/BetGame.sol:BetGame",
        "label": "requestToBet",
        "offset": 0,
        "slot": "17",
        "type": "t_mapping(t_bytes32,t_uint256)"
      },
      {
        "astId": 2561,
        "contract": "contracts/BetGame.sol:BetGame",
        "label": "interval",
        "offset": 0,
        "slot": "18",
        "type": "t_uint256"
      },
      {
        "astId": 2563,
        "contract": "contracts/BetGame.sol:BetGame",
        "label": "lastTimeStamp",
        "offset": 0,
        "slot": "19",
        "type": "t_uint256"
      }
    ],
    "types": {
      "t_address": {
        "encoding": "inplace",
        "label": "address",
        "numberOfBytes": "20"
      },
      "t_address_payable": {
        "encoding": "inplace",
        "label": "address payable",
        "numberOfBytes": "20"
      },
      "t_array(t_uint256)dyn_storage": {
        "base": "t_uint256",
        "encoding": "dynamic_array",
        "label": "uint256[]",
        "numberOfBytes": "32"
      },
      "t_bool": {
        "encoding": "inplace",
        "label": "bool",
        "numberOfBytes": "1"
      },
      "t_bytes32": {
        "encoding": "inplace",
        "label": "bytes32",
        "numberOfBytes": "32"
      },
      "t_contract(ENSInterface)1013": {
        "encoding": "inplace",
        "label": "contract ENSInterface",
        "numberOfBytes": "20"
      },
      "t_contract(LinkTokenInterface)1127": {
        "encoding": "inplace",
        "label": "contract LinkTokenInterface",
        "numberOfBytes": "20"
      },
      "t_contract(OperatorInterface)1207": {
        "encoding": "inplace",
        "label": "contract OperatorInterface",
        "numberOfBytes": "20"
      },
      "t_mapping(t_bytes32,t_address)": {
        "encoding": "mapping",
        "key": "t_bytes32",
        "label": "mapping(bytes32 => address)",
        "numberOfBytes": "32",
        "value": "t_address"
      },
      "t_mapping(t_bytes32,t_uint256)": {
        "encoding": "mapping",
        "key": "t_bytes32",
        "label": "mapping(bytes32 => uint256)",
        "numberOfBytes": "32",
        "value": "t_uint256"
      },
      "t_mapping(t_uint256,t_struct(Bet)2536_storage)": {
        "encoding": "mapping",
        "key": "t_uint256",
        "label": "mapping(uint256 => struct BetGame.Bet)",
        "numberOfBytes": "32",
        "value": "t_struct(Bet)2536_storage"
      },
      "t_string_storage": {
        "encoding": "bytes",
        "label": "string",
        "numberOfBytes": "32"
      },
      "t_struct(Bet)2536_storage": {
        "encoding": "inplace",
        "label": "struct BetGame.Bet",
        "members": [
          {
            "astId": 2514,
            "contract": "contracts/BetGame.sol:BetGame",
            "label": "id",
            "offset": 0,
            "slot": "0",
            "type": "t_uint256"
          },
          {
            "astId": 2516,
            "contract": "contracts/BetGame.sol:BetGame",
            "label": "creator",
            "offset": 0,
            "slot": "1",
            "type": "t_address_payable"
          },
          {
            "astId": 2518,
            "contract": "contracts/BetGame.sol:BetGame",
            "label": "acceptor",
            "offset": 0,
            "slot": "2",
            "type": "t_address_payable"
          },
          {
            "astId": 2520,
            "contract": "contracts/BetGame.sol:BetGame",
            "label": "apiURL",
            "offset": 0,
            "slot": "3",
            "type": "t_string_storage"
          },
          {
            "astId": 2522,
            "contract": "contracts/BetGame.sol:BetGame",
            "label": "amount",
            "offset": 0,
            "slot": "4",
            "type": "t_uint256"
          },
          {
            "astId": 2524,
            "contract": "contracts/BetGame.sol:BetGame",
            "label": "acceptValue",
            "offset": 0,
            "slot": "5",
            "type": "t_uint256"
          },
          {
            "astId": 2526,
            "contract": "contracts/BetGame.sol:BetGame",
            "label": "accepted",
            "offset": 0,
            "slot": "6",
            "type": "t_bool"
          },
          {
            "astId": 2528,
            "contract": "contracts/BetGame.sol:BetGame",
            "label": "active",
            "offset": 1,
            "slot": "6",
            "type": "t_bool"
          },
          {
            "astId": 2530,
            "contract": "contracts/BetGame.sol:BetGame",
            "label": "closed",
            "offset": 2,
            "slot": "6",
            "type": "t_bool"
          },
          {
            "astId": 2532,
            "contract": "contracts/BetGame.sol:BetGame",
            "label": "countArts",
            "offset": 0,
            "slot": "7",
            "type": "t_uint256"
          },
          {
            "astId": 2535,
            "contract": "contracts/BetGame.sol:BetGame",
            "label": "timeProps",
            "offset": 0,
            "slot": "8",
            "type": "t_struct(TimeProps)2512_storage"
          }
        ],
        "numberOfBytes": "384"
      },
      "t_struct(TimeProps)2512_storage": {
        "encoding": "inplace",
        "label": "struct BetGame.TimeProps",
        "members": [
          {
            "astId": 2505,
            "contract": "contracts/BetGame.sol:BetGame",
            "label": "createdDate",
            "offset": 0,
            "slot": "0",
            "type": "t_uint256"
          },
          {
            "astId": 2507,
            "contract": "contracts/BetGame.sol:BetGame",
            "label": "acceptByDate",
            "offset": 0,
            "slot": "1",
            "type": "t_uint256"
          },
          {
            "astId": 2509,
            "contract": "contracts/BetGame.sol:BetGame",
            "label": "startDate",
            "offset": 0,
            "slot": "2",
            "type": "t_uint256"
          },
          {
            "astId": 2511,
            "contract": "contracts/BetGame.sol:BetGame",
            "label": "expirationDate",
            "offset": 0,
            "slot": "3",
            "type": "t_uint256"
          }
        ],
        "numberOfBytes": "128"
      },
      "t_uint256": {
        "encoding": "inplace",
        "label": "uint256",
        "numberOfBytes": "32"
      }
    }
  }
}