{
  "address": "0x4A85ea09C7ED4C85DC6ee2875fc05B4c519C2f24",
  "abi": [
    {
      "inputs": [
        {
          "internalType": "uint256",
          "name": "_minimumBet",
          "type": "uint256"
        },
        {
          "internalType": "uint256",
          "name": "_interval",
          "type": "uint256"
        },
        {
          "internalType": "address",
          "name": "_link",
          "type": "address"
        },
        {
          "internalType": "address",
          "name": "_oracle",
          "type": "address"
        },
        {
          "internalType": "bytes32",
          "name": "_jobId",
          "type": "bytes32"
        },
        {
          "internalType": "uint256",
          "name": "_fee",
          "type": "uint256"
        }
      ],
      "stateMutability": "nonpayable",
      "type": "constructor"
    },
    {
      "anonymous": false,
      "inputs": [
        {
          "indexed": true,
          "internalType": "bytes32",
          "name": "id",
          "type": "bytes32"
        }
      ],
      "name": "ChainlinkCancelled",
      "type": "event"
    },
    {
      "anonymous": false,
      "inputs": [
        {
          "indexed": true,
          "internalType": "bytes32",
          "name": "id",
          "type": "bytes32"
        }
      ],
      "name": "ChainlinkFulfilled",
      "type": "event"
    },
    {
      "anonymous": false,
      "inputs": [
        {
          "indexed": true,
          "internalType": "bytes32",
          "name": "id",
          "type": "bytes32"
        }
      ],
      "name": "ChainlinkRequested",
      "type": "event"
    },
    {
      "anonymous": false,
      "inputs": [
        {
          "indexed": true,
          "internalType": "address",
          "name": "previousOwner",
          "type": "address"
        },
        {
          "indexed": true,
          "internalType": "address",
          "name": "newOwner",
          "type": "address"
        }
      ],
      "name": "OwnershipTransferred",
      "type": "event"
    },
    {
      "inputs": [
        {
          "internalType": "uint256",
          "name": "_betId",
          "type": "uint256"
        }
      ],
      "name": "acceptBet",
      "outputs": [],
      "stateMutability": "payable",
      "type": "function"
    },
    {
      "inputs": [
        {
          "internalType": "uint256",
          "name": "",
          "type": "uint256"
        }
      ],
      "name": "acceptedBets",
      "outputs": [
        {
          "internalType": "uint256",
          "name": "",
          "type": "uint256"
        }
      ],
      "stateMutability": "view",
      "type": "function"
    },
    {
      "inputs": [
        {
          "internalType": "uint256",
          "name": "",
          "type": "uint256"
        }
      ],
      "name": "activeBets",
      "outputs": [
        {
          "internalType": "uint256",
          "name": "",
          "type": "uint256"
        }
      ],
      "stateMutability": "view",
      "type": "function"
    },
    {
      "inputs": [
        {
          "internalType": "uint256",
          "name": "",
          "type": "uint256"
        }
      ],
      "name": "allBets",
      "outputs": [
        {
          "internalType": "uint256",
          "name": "id",
          "type": "uint256"
        },
        {
          "internalType": "address payable",
          "name": "creator",
          "type": "address"
        },
        {
          "internalType": "address payable",
          "name": "acceptor",
          "type": "address"
        },
        {
          "internalType": "string",
          "name": "apiURL",
          "type": "string"
        },
        {
          "internalType": "uint256",
          "name": "amount",
          "type": "uint256"
        },
        {
          "internalType": "uint256",
          "name": "acceptValue",
          "type": "uint256"
        },
        {
          "internalType": "bool",
          "name": "accepted",
          "type": "bool"
        },
        {
          "internalType": "bool",
          "name": "active",
          "type": "bool"
        },
        {
          "internalType": "bool",
          "name": "closed",
          "type": "bool"
        },
        {
          "internalType": "uint256",
          "name": "countArts",
          "type": "uint256"
        },
        {
          "components": [
            {
              "internalType": "uint256",
              "name": "createdDate",
              "type": "uint256"
            },
            {
              "internalType": "uint256",
              "name": "acceptByDate",
              "type": "uint256"
            },
            {
              "internalType": "uint256",
              "name": "startDate",
              "type": "uint256"
            },
            {
              "internalType": "uint256",
              "name": "expirationDate",
              "type": "uint256"
            }
          ],
          "internalType": "struct BetGame.TimeProps",
          "name": "timeProps",
          "type": "tuple"
        }
      ],
      "stateMutability": "view",
      "type": "function"
    },
    {
      "inputs": [
        {
          "internalType": "uint256",
          "name": "_id",
          "type": "uint256"
        }
      ],
      "name": "checkBet",
      "outputs": [],
      "stateMutability": "nonpayable",
      "type": "function"
    },
    {
      "inputs": [
        {
          "internalType": "bytes",
          "name": "checkData",
          "type": "bytes"
        }
      ],
      "name": "checkUpkeep",
      "outputs": [
        {
          "internalType": "bool",
          "name": "upkeepNeeded",
          "type": "bool"
        },
        {
          "internalType": "bytes",
          "name": "performData",
          "type": "bytes"
        }
      ],
      "stateMutability": "view",
      "type": "function"
    },
    {
      "inputs": [
        {
          "internalType": "string",
          "name": "_apiURL",
          "type": "string"
        },
        {
          "internalType": "uint256",
          "name": "_acceptValue",
          "type": "uint256"
        },
        {
          "internalType": "uint256",
          "name": "_countArts",
          "type": "uint256"
        },
        {
          "internalType": "uint256",
          "name": "_startdate",
          "type": "uint256"
        },
        {
          "internalType": "uint256",
          "name": "_endDate",
          "type": "uint256"
        },
        {
          "internalType": "uint256",
          "name": "_acceptdate",
          "type": "uint256"
        }
      ],
      "name": "createBet",
      "outputs": [],
      "stateMutability": "payable",
      "type": "function"
    },
    {
      "inputs": [],
      "name": "devWallet",
      "outputs": [
        {
          "internalType": "address payable",
          "name": "",
          "type": "address"
        }
      ],
      "stateMutability": "view",
      "type": "function"
    },
    {
      "inputs": [
        {
          "internalType": "bytes32",
          "name": "_requestId",
          "type": "bytes32"
        },
        {
          "internalType": "uint256",
          "name": "_volume",
          "type": "uint256"
        }
      ],
      "name": "fulfill",
      "outputs": [],
      "stateMutability": "nonpayable",
      "type": "function"
    },
    {
      "inputs": [],
      "name": "interval",
      "outputs": [
        {
          "internalType": "uint256",
          "name": "",
          "type": "uint256"
        }
      ],
      "stateMutability": "view",
      "type": "function"
    },
    {
      "inputs": [],
      "name": "lastTimeStamp",
      "outputs": [
        {
          "internalType": "uint256",
          "name": "",
          "type": "uint256"
        }
      ],
      "stateMutability": "view",
      "type": "function"
    },
    {
      "inputs": [],
      "name": "minimumBet",
      "outputs": [
        {
          "internalType": "uint256",
          "name": "",
          "type": "uint256"
        }
      ],
      "stateMutability": "view",
      "type": "function"
    },
    {
      "inputs": [],
      "name": "owner",
      "outputs": [
        {
          "internalType": "address",
          "name": "",
          "type": "address"
        }
      ],
      "stateMutability": "view",
      "type": "function"
    },
    {
      "inputs": [
        {
          "internalType": "bytes",
          "name": "performData",
          "type": "bytes"
        }
      ],
      "name": "performUpkeep",
      "outputs": [],
      "stateMutability": "nonpayable",
      "type": "function"
    },
    {
      "inputs": [],
      "name": "renounceOwnership",
      "outputs": [],
      "stateMutability": "nonpayable",
      "type": "function"
    },
    {
      "inputs": [
        {
          "internalType": "string",
          "name": "_apiURL",
          "type": "string"
        },
        {
          "internalType": "uint256",
          "name": "_id",
          "type": "uint256"
        }
      ],
      "name": "requestVolumeData",
      "outputs": [
        {
          "internalType": "bytes32",
          "name": "requestId",
          "type": "bytes32"
        }
      ],
      "stateMutability": "nonpayable",
      "type": "function"
    },
    {
      "inputs": [],
      "name": "serviceFee",
      "outputs": [
        {
          "internalType": "uint256",
          "name": "",
          "type": "uint256"
        }
      ],
      "stateMutability": "view",
      "type": "function"
    },
    {
      "inputs": [
        {
          "internalType": "address payable",
          "name": "_devWallet",
          "type": "address"
        }
      ],
      "name": "setDevWallet",
      "outputs": [],
      "stateMutability": "nonpayable",
      "type": "function"
    },
    {
      "inputs": [
        {
          "internalType": "bytes32",
          "name": "_jobId",
          "type": "bytes32"
        }
      ],
      "name": "setJobId",
      "outputs": [],
      "stateMutability": "nonpayable",
      "type": "function"
    },
    {
      "inputs": [
        {
          "internalType": "uint256",
          "name": "_minimumBet",
          "type": "uint256"
        }
      ],
      "name": "setMinimumBet",
      "outputs": [],
      "stateMutability": "nonpayable",
      "type": "function"
    },
    {
      "inputs": [
        {
          "internalType": "address",
          "name": "_oracle",
          "type": "address"
        }
      ],
      "name": "setOracle",
      "outputs": [],
      "stateMutability": "nonpayable",
      "type": "function"
    },
    {
      "inputs": [
        {
          "internalType": "address",
          "name": "newOwner",
          "type": "address"
        }
      ],
      "name": "transferOwnership",
      "outputs": [],
      "stateMutability": "nonpayable",
      "type": "function"
    }
  ],
  "transactionHash": "0x9a3ac51b88710a062c434ee3bca33e2a7f7c5277f75d74f4616297f0906c52a7",
  "args": [
    1,
    1,
    "0xa36085F69e2889c224210F603D836748e7dC0088",
    "0xc57b33452b4f7bb189bb5afae9cc4aba1f7a4fd8",
    {
      "0": 100,
      "1": 53,
      "2": 50,
      "3": 55,
      "4": 48,
      "5": 100,
      "6": 49,
      "7": 99,
      "8": 51,
      "9": 49,
      "10": 49,
      "11": 57,
      "12": 52,
      "13": 49,
      "14": 100,
      "15": 48,
      "16": 98,
      "17": 48,
      "18": 56,
      "19": 98,
      "20": 101,
      "21": 97,
      "22": 100,
      "23": 50,
      "24": 49,
      "25": 102,
      "26": 101,
      "27": 97,
      "28": 55,
      "29": 55,
      "30": 52,
      "31": 55
    },
    "100000000000000000"
  ],
  "numDeployments": 1,
  "solcInputHash": "2d3394de6828529bec905aeae27abd50",
  "bytecode": "0x60a060405260016004556000600a553480156200001b57600080fd5b50604051620046f6380380620046f6833981810160405281019062000041919062000361565b62000061620000556200013060201b60201c565b6200013860201b60201c565b85600881905550846080818152505042601281905550600073ffffffffffffffffffffffffffffffffffffffff168473ffffffffffffffffffffffffffffffffffffffff161415620000c357620000bd620001fe60201b60201c565b620000d5565b620000d484620002a660201b60201c565b5b82600e60006101000a81548173ffffffffffffffffffffffffffffffffffffffff021916908373ffffffffffffffffffffffffffffffffffffffff16021790555081600f819055508060108190555050505050505062000498565b600033905090565b6000600660009054906101000a900473ffffffffffffffffffffffffffffffffffffffff16905081600660006101000a81548173ffffffffffffffffffffffffffffffffffffffff021916908373ffffffffffffffffffffffffffffffffffffffff1602179055508173ffffffffffffffffffffffffffffffffffffffff168173ffffffffffffffffffffffffffffffffffffffff167f8be0079c531659141344cd1fd0a4f28419497f9722a3daafe3b4186f6b6457e060405160405180910390a35050565b620002a473c89bd4e1632d3a43cb03aaad5262cbe4038bc57173ffffffffffffffffffffffffffffffffffffffff166338cc48316040518163ffffffff1660e01b815260040160206040518083038186803b1580156200025d57600080fd5b505afa15801562000272573d6000803e3d6000fd5b505050506040513d601f19601f820116820180604052508101906200029891906200032f565b620002a660201b60201c565b565b80600260006101000a81548173ffffffffffffffffffffffffffffffffffffffff021916908373ffffffffffffffffffffffffffffffffffffffff16021790555050565b600081519050620002fb816200044a565b92915050565b600081519050620003128162000464565b92915050565b60008151905062000329816200047e565b92915050565b60006020828403121562000348576200034762000445565b5b60006200035884828501620002ea565b91505092915050565b60008060008060008060c0878903121562000381576200038062000445565b5b60006200039189828a0162000318565b9650506020620003a489828a0162000318565b9550506040620003b789828a01620002ea565b9450506060620003ca89828a01620002ea565b9350506080620003dd89828a0162000301565b92505060a0620003f089828a0162000318565b9150509295509295509295565b60006200040a826200041b565b9050919050565b6000819050919050565b600073ffffffffffffffffffffffffffffffffffffffff82169050919050565b6000819050919050565b600080fd5b6200045581620003fd565b81146200046157600080fd5b50565b6200046f8162000411565b81146200047b57600080fd5b50565b62000489816200043b565b81146200049557600080fd5b50565b608051614234620004c26000396000818161071901528181610d6a015261126a01526142346000f3fe6080604052600436106101355760003560e01c806387f7777d116100ab578063a06a30f81161006f578063a06a30f8146103de578063af768ee3146103fa578063b4c0a1d414610437578063c38a8afd14610474578063e0ced0e11461049f578063f2fde38b146104e657610135565b806387f7777d146103095780638abdf5aa146103325780638da5cb5b1461035d5780638ea5220f14610388578063947a36fb146103b357610135565b80636c0c27e1116100fd5780636c0c27e1146102095780636e04ff0d14610225578063711bc98314610263578063715018a6146102a05780637adbf973146102b75780638772ae3c146102e057610135565b80631f53ac021461013a5780633f3b3b27146101635780634357855e1461018e5780634585e33b146101b7578063508954f8146101e0575b600080fd5b34801561014657600080fd5b50610161600480360381019061015c91906130e2565b61050f565b005b34801561016f57600080fd5b506101786105cf565b6040516101859190613851565b60405180910390f35b34801561019a57600080fd5b506101b560048036038101906101b09190613169565b6105d5565b005b3480156101c357600080fd5b506101de60048036038101906101d991906131a9565b610717565b005b3480156101ec57600080fd5b506102076004803603810190610202919061313c565b610768565b005b610223600480360381019061021e91906132fb565b6107ee565b005b34801561023157600080fd5b5061024c600480360381019061024791906131a9565b610d64565b60405161025a9291906136e6565b60405180910390f35b34801561026f57600080fd5b5061028a600480360381019061028591906132fb565b610de8565b6040516102979190613851565b60405180910390f35b3480156102ac57600080fd5b506102b5610e0c565b005b3480156102c357600080fd5b506102de60048036038101906102d991906130b5565b610e94565b005b3480156102ec57600080fd5b50610307600480360381019061030291906132fb565b610f63565b005b34801561031557600080fd5b50610330600480360381019061032b91906132fb565b610fe9565b005b34801561033e57600080fd5b50610347611212565b6040516103549190613851565b60405180910390f35b34801561036957600080fd5b50610372611218565b60405161037f91906135ed565b60405180910390f35b34801561039457600080fd5b5061039d611242565b6040516103aa9190613608565b60405180910390f35b3480156103bf57600080fd5b506103c8611268565b6040516103d59190613851565b60405180910390f35b6103f860048036038101906103f39190613252565b61128c565b005b34801561040657600080fd5b50610421600480360381019061041c91906132fb565b611563565b60405161042e9190613851565b60405180910390f35b34801561044357600080fd5b5061045e600480360381019061045991906131f6565b611587565b60405161046b9190613716565b60405180910390f35b34801561048057600080fd5b506104896116b9565b6040516104969190613851565b60405180910390f35b3480156104ab57600080fd5b506104c660048036038101906104c191906132fb565b6116bf565b6040516104dd9b9a9998979695949392919061386c565b60405180910390f35b3480156104f257600080fd5b5061050d600480360381019061050891906130b5565b61183a565b005b610517611932565b73ffffffffffffffffffffffffffffffffffffffff16610535611218565b73ffffffffffffffffffffffffffffffffffffffff161461058b576040517f08c379a0000000000000000000000000000000000000000000000000000000008152600401610582906137f1565b60405180910390fd5b80600960006101000a81548173ffffffffffffffffffffffffffffffffffffffff021916908373ffffffffffffffffffffffffffffffffffffffff16021790555050565b60125481565b816005600082815260200190815260200160002060009054906101000a900473ffffffffffffffffffffffffffffffffffffffff1673ffffffffffffffffffffffffffffffffffffffff163373ffffffffffffffffffffffffffffffffffffffff1614610677576040517f08c379a000000000000000000000000000000000000000000000000000000000815260040161066e90613811565b60405180910390fd5b6005600082815260200190815260200160002060006101000a81549073ffffffffffffffffffffffffffffffffffffffff0219169055807f7cc135e0cebb02c3480ae5d74d377283180a2601f8f644edf7987b009316c63a60405160405180910390a260006064836106e99190613a02565b90506011600085815260200190815260200160002054600a81905550610711600a548261193a565b50505050565b7f0000000000000000000000000000000000000000000000000000000000000000601254426107469190613bfe565b1115610764574260128190555061075b611f89565b610763612225565b5b5050565b610770611932565b73ffffffffffffffffffffffffffffffffffffffff1661078e611218565b73ffffffffffffffffffffffffffffffffffffffff16146107e4576040517f08c379a00000000000000000000000000000000000000000000000000000000081526004016107db906137f1565b60405180910390fd5b80600f8190555050565b6000600b600083815260200190815260200160002060405180610160016040529081600082015481526020016001820160009054906101000a900473ffffffffffffffffffffffffffffffffffffffff1673ffffffffffffffffffffffffffffffffffffffff1673ffffffffffffffffffffffffffffffffffffffff1681526020016002820160009054906101000a900473ffffffffffffffffffffffffffffffffffffffff1673ffffffffffffffffffffffffffffffffffffffff1673ffffffffffffffffffffffffffffffffffffffff1681526020016003820180546108d590613d3a565b80601f016020809104026020016040519081016040528092919081815260200182805461090190613d3a565b801561094e5780601f106109235761010080835404028352916020019161094e565b820191906000526020600020905b81548152906001019060200180831161093157829003601f168201915b5050505050815260200160048201548152602001600582015481526020016006820160009054906101000a900460ff161515151581526020016006820160019054906101000a900460ff161515151581526020016006820160029054906101000a900460ff161515151581526020016007820154815260200160088201604051806080016040529081600082015481526020016001820154815260200160028201548152602001600382015481525050815250509050600115158160e00151151514610a4f576040517f08c379a0000000000000000000000000000000000000000000000000000000008152600401610a4690613751565b60405180910390fd5b600015158160c00151151514610a9a576040517f08c379a0000000000000000000000000000000000000000000000000000000008152600401610a9190613771565b60405180910390fd5b60001515816101000151151514610ae6576040517f08c379a0000000000000000000000000000000000000000000000000000000008152600401610add90613831565b60405180910390fd5b34662386f26fc100008260a00151610afe9190613ba4565b14610b3e576040517f08c379a0000000000000000000000000000000000000000000000000000000008152600401610b35906137d1565b60405180910390fd5b60018160c00190151590811515815250503481608001818151610b6191906139ac565b9150818152505033816040019073ffffffffffffffffffffffffffffffffffffffff16908173ffffffffffffffffffffffffffffffffffffffff1681525050610baf600c826000015161249e565b80600b6000836000015181526020019081526020016000206000820151816000015560208201518160010160006101000a81548173ffffffffffffffffffffffffffffffffffffffff021916908373ffffffffffffffffffffffffffffffffffffffff16021790555060408201518160020160006101000a81548173ffffffffffffffffffffffffffffffffffffffff021916908373ffffffffffffffffffffffffffffffffffffffff1602179055506060820151816003019080519060200190610c7b929190612e5c565b506080820151816004015560a0820151816005015560c08201518160060160006101000a81548160ff02191690831515021790555060e08201518160060160016101000a81548160ff0219169083151502179055506101008201518160060160026101000a81548160ff021916908315150217905550610120820151816007015561014082015181600801600082015181600001556020820151816001015560408201518160020155606082015181600301555050905050600d816000015190806001815401808255809150506001900390600052602060002001600090919091909150555050565b600060607f000000000000000000000000000000000000000000000000000000000000000060125442610d979190613bfe565b11915083838080601f016020809104026020016040519081016040528093929190818152602001838380828437600081840152601f19601f8201169050808301925050505050505090509250929050565b600d8181548110610df857600080fd5b906000526020600020016000915090505481565b610e14611932565b73ffffffffffffffffffffffffffffffffffffffff16610e32611218565b73ffffffffffffffffffffffffffffffffffffffff1614610e88576040517f08c379a0000000000000000000000000000000000000000000000000000000008152600401610e7f906137f1565b60405180910390fd5b610e926000612586565b565b610e9c611932565b73ffffffffffffffffffffffffffffffffffffffff16610eba611218565b73ffffffffffffffffffffffffffffffffffffffff1614610f10576040517f08c379a0000000000000000000000000000000000000000000000000000000008152600401610f07906137f1565b60405180910390fd5b80600e60006101000a81548173ffffffffffffffffffffffffffffffffffffffff021916908373ffffffffffffffffffffffffffffffffffffffff16021790555067016345785d8a000060108190555050565b610f6b611932565b73ffffffffffffffffffffffffffffffffffffffff16610f89611218565b73ffffffffffffffffffffffffffffffffffffffff1614610fdf576040517f08c379a0000000000000000000000000000000000000000000000000000000008152600401610fd6906137f1565b60405180910390fd5b8060088190555050565b6000600b600083815260200190815260200160002060405180610160016040529081600082015481526020016001820160009054906101000a900473ffffffffffffffffffffffffffffffffffffffff1673ffffffffffffffffffffffffffffffffffffffff1673ffffffffffffffffffffffffffffffffffffffff1681526020016002820160009054906101000a900473ffffffffffffffffffffffffffffffffffffffff1673ffffffffffffffffffffffffffffffffffffffff1673ffffffffffffffffffffffffffffffffffffffff1681526020016003820180546110d090613d3a565b80601f01602080910402602001604051908101604052809291908181526020018280546110fc90613d3a565b80156111495780601f1061111e57610100808354040283529160200191611149565b820191906000526020600020905b81548152906001019060200180831161112c57829003601f168201915b5050505050815260200160048201548152602001600582015481526020016006820160009054906101000a900460ff161515151581526020016006820160019054906101000a900460ff161515151581526020016006820160029054906101000a900460ff16151515158152602001600782015481526020016008820160405180608001604052908160008201548152602001600182015481526020016002820154815260200160038201548152505081525050905061120d816060015183611587565b505050565b60075481565b6000600660009054906101000a900473ffffffffffffffffffffffffffffffffffffffff16905090565b600960009054906101000a900473ffffffffffffffffffffffffffffffffffffffff1681565b7f000000000000000000000000000000000000000000000000000000000000000081565b662386f26fc100006008546112a19190613ba4565b3410156112e3576040517f08c379a00000000000000000000000000000000000000000000000000000000081526004016112da90613791565b60405180910390fd5b600060405180608001604052804281526020018381526020018581526020018481525090506000604051806101600160405280600a5481526020013373ffffffffffffffffffffffffffffffffffffffff168152602001600073ffffffffffffffffffffffffffffffffffffffff168152602001898152602001348152602001888152602001600015158152602001600115158152602001600015158152602001878152602001838152509050600a60008154809291906113a390613d9d565b9190505550600c8160000151908060018154018082558091505060019003906000526020600020016000909190919091505580600b6000836000015181526020019081526020016000206000820151816000015560208201518160010160006101000a81548173ffffffffffffffffffffffffffffffffffffffff021916908373ffffffffffffffffffffffffffffffffffffffff16021790555060408201518160020160006101000a81548173ffffffffffffffffffffffffffffffffffffffff021916908373ffffffffffffffffffffffffffffffffffffffff16021790555060608201518160030190805190602001906114a1929190612e5c565b506080820151816004015560a0820151816005015560c08201518160060160006101000a81548160ff02191690831515021790555060e08201518160060160016101000a81548160ff0219169083151502179055506101008201518160060160026101000a81548160ff0219169083151502179055506101208201518160070155610140820151816008016000820151816000015560208201518160010155604082015181600201556060820151816003015550509050505050505050505050565b600c818154811061157357600080fd5b906000526020600020016000915090505481565b60008061159e600f5430634357855e60e01b61264c565b90506115ea6040518060400160405280600381526020017f6765740000000000000000000000000000000000000000000000000000000000815250858361267d9092919063ffffffff16565b6116696040518060400160405280600481526020017f70617468000000000000000000000000000000000000000000000000000000008152506040518060400160405280600c81526020017f746f74616c526573756c747300000000000000000000000000000000000000008152508361267d9092919063ffffffff16565b611698600e60009054906101000a900473ffffffffffffffffffffffffffffffffffffffff16826010546126b0565b91508260116000848152602001908152602001600020819055505092915050565b60085481565b600b6020528060005260406000206000915090508060000154908060010160009054906101000a900473ffffffffffffffffffffffffffffffffffffffff16908060020160009054906101000a900473ffffffffffffffffffffffffffffffffffffffff169080600301805461173490613d3a565b80601f016020809104026020016040519081016040528092919081815260200182805461176090613d3a565b80156117ad5780601f10611782576101008083540402835291602001916117ad565b820191906000526020600020905b81548152906001019060200180831161179057829003601f168201915b5050505050908060040154908060050154908060060160009054906101000a900460ff16908060060160019054906101000a900460ff16908060060160029054906101000a900460ff16908060070154908060080160405180608001604052908160008201548152602001600182015481526020016002820154815260200160038201548152505090508b565b611842611932565b73ffffffffffffffffffffffffffffffffffffffff16611860611218565b73ffffffffffffffffffffffffffffffffffffffff16146118b6576040517f08c379a00000000000000000000000000000000000000000000000000000000081526004016118ad906137f1565b60405180910390fd5b600073ffffffffffffffffffffffffffffffffffffffff168173ffffffffffffffffffffffffffffffffffffffff161415611926576040517f08c379a000000000000000000000000000000000000000000000000000000000815260040161191d90613731565b60405180910390fd5b61192f81612586565b50565b600033905090565b6000600b600084815260200190815260200160002060405180610160016040529081600082015481526020016001820160009054906101000a900473ffffffffffffffffffffffffffffffffffffffff1673ffffffffffffffffffffffffffffffffffffffff1673ffffffffffffffffffffffffffffffffffffffff1681526020016002820160009054906101000a900473ffffffffffffffffffffffffffffffffffffffff1673ffffffffffffffffffffffffffffffffffffffff1673ffffffffffffffffffffffffffffffffffffffff168152602001600382018054611a2190613d3a565b80601f0160208091040260200160405190810160405280929190818152602001828054611a4d90613d3a565b8015611a9a5780601f10611a6f57610100808354040283529160200191611a9a565b820191906000526020600020905b815481529060010190602001808311611a7d57829003601f168201915b5050505050815260200160048201548152602001600582015481526020016006820160009054906101000a900460ff161515151581526020016006820160019054906101000a900460ff161515151581526020016006820160029054906101000a900460ff161515151581526020016007820154815260200160088201604051806080016040529081600082015481526020016001820154815260200160028201548152602001600382015481525050815250509050806101200151821115611d6a5760018161010001901515908115158152505060008160e0019015159081151581525050806020015173ffffffffffffffffffffffffffffffffffffffff166108fc82608001519081150290604051600060405180830381858888f19350505050158015611bce573d6000803e3d6000fd5b50611bda600c8461249e565b80600b60008581526020019081526020016000206000820151816000015560208201518160010160006101000a81548173ffffffffffffffffffffffffffffffffffffffff021916908373ffffffffffffffffffffffffffffffffffffffff16021790555060408201518160020160006101000a81548173ffffffffffffffffffffffffffffffffffffffff021916908373ffffffffffffffffffffffffffffffffffffffff1602179055506060820151816003019080519060200190611ca2929190612e5c565b506080820151816004015560a0820151816005015560c08201518160060160006101000a81548160ff02191690831515021790555060e08201518160060160016101000a81548160ff0219169083151502179055506101008201518160060160026101000a81548160ff021916908315150217905550610120820151816007015561014082015181600801600082015181600001556020820151816001015560408201518160020155606082015181600301555050905050611d65600d8461249e565b611f84565b806101400151606001514210611f835760018161010001901515908115158152505060008160e0019015159081151581525050806040015173ffffffffffffffffffffffffffffffffffffffff166108fc82608001519081150290604051600060405180830381858888f19350505050158015611deb573d6000803e3d6000fd5b50611df7600c8461249e565b80600b60008581526020019081526020016000206000820151816000015560208201518160010160006101000a81548173ffffffffffffffffffffffffffffffffffffffff021916908373ffffffffffffffffffffffffffffffffffffffff16021790555060408201518160020160006101000a81548173ffffffffffffffffffffffffffffffffffffffff021916908373ffffffffffffffffffffffffffffffffffffffff1602179055506060820151816003019080519060200190611ebf929190612e5c565b506080820151816004015560a0820151816005015560c08201518160060160006101000a81548160ff02191690831515021790555060e08201518160060160016101000a81548160ff0219169083151502179055506101008201518160060160026101000a81548160ff021916908315150217905550610120820151816007015561014082015181600801600082015181600001556020820151816001015560408201518160020155606082015181600301555050905050611f82600d8461249e565b5b5b505050565b60005b600c80549050811015612222576000600b6000600c8481548110611fb357611fb2613f01565b5b9060005260206000200154815260200190815260200160002060405180610160016040529081600082015481526020016001820160009054906101000a900473ffffffffffffffffffffffffffffffffffffffff1673ffffffffffffffffffffffffffffffffffffffff1673ffffffffffffffffffffffffffffffffffffffff1681526020016002820160009054906101000a900473ffffffffffffffffffffffffffffffffffffffff1673ffffffffffffffffffffffffffffffffffffffff1673ffffffffffffffffffffffffffffffffffffffff16815260200160038201805461209e90613d3a565b80601f01602080910402602001604051908101604052809291908181526020018280546120ca90613d3a565b80156121175780601f106120ec57610100808354040283529160200191612117565b820191906000526020600020905b8154815290600101906020018083116120fa57829003601f168201915b5050505050815260200160048201548152602001600582015481526020016006820160009054906101000a900460ff161515151581526020016006820160019054906101000a900460ff161515151581526020016006820160029054906101000a900460ff1615151515815260200160078201548152602001600882016040518060800160405290816000820154815260200160018201548152602001600282015481526020016003820154815250508152505090508060c001511580156121e85750428161014001516020015111155b1561220e5760008160e001901515908115158152505061220d600c826000015161249e565b5b50808061221a90613d9d565b915050611f8c565b50565b60005b600d8054905081101561249b576000600b6000600d848154811061224f5761224e613f01565b5b9060005260206000200154815260200190815260200160002060405180610160016040529081600082015481526020016001820160009054906101000a900473ffffffffffffffffffffffffffffffffffffffff1673ffffffffffffffffffffffffffffffffffffffff1673ffffffffffffffffffffffffffffffffffffffff1681526020016002820160009054906101000a900473ffffffffffffffffffffffffffffffffffffffff1673ffffffffffffffffffffffffffffffffffffffff1673ffffffffffffffffffffffffffffffffffffffff16815260200160038201805461233a90613d3a565b80601f016020809104026020016040519081016040528092919081815260200182805461236690613d3a565b80156123b35780601f10612388576101008083540402835291602001916123b3565b820191906000526020600020905b81548152906001019060200180831161239657829003601f168201915b5050505050815260200160048201548152602001600582015481526020016006820160009054906101000a900460ff161515151581526020016006820160019054906101000a900460ff161515151581526020016006820160029054906101000a900460ff161515151581526020016007820154815260200160088201604051806080016040529081600082015481526020016001820154815260200160028201548152602001600382015481525050815250509050428161014001516060015111612487576124868160000151610fe9565b5b50808061249390613d9d565b915050612228565b50565b60005b828054905081101561258157818382815481106124c1576124c0613f01565b5b9060005260206000200154141561256e578281815481106124e5576124e4613f01565b5b906000526020600020016000905582600184805490506125059190613bfe565b8154811061251657612515613f01565b5b906000526020600020015483828154811061253457612533613f01565b5b90600052602060002001819055508280548061255357612552613ed2565b5b60019003818190600052602060002001600090559055612581565b808061257990613d9d565b9150506124a1565b505050565b6000600660009054906101000a900473ffffffffffffffffffffffffffffffffffffffff16905081600660006101000a81548173ffffffffffffffffffffffffffffffffffffffff021916908373ffffffffffffffffffffffffffffffffffffffff1602179055508173ffffffffffffffffffffffffffffffffffffffff168173ffffffffffffffffffffffffffffffffffffffff167f8be0079c531659141344cd1fd0a4f28419497f9722a3daafe3b4186f6b6457e060405160405180910390a35050565b612654612ee2565b61265c612ee2565b6126738585858461277c909392919063ffffffff16565b9150509392505050565b61269482846080015161282c90919063ffffffff16565b6126ab81846080015161282c90919063ffffffff16565b505050565b60008060045490506001816126c591906139ac565b6004819055506000634042994660e01b60008087600001513089604001518760018c6080015160000151604051602401612706989796959493929190613623565b604051602081830303815290604052907bffffffffffffffffffffffffffffffffffffffffffffffffffffffff19166020820180517bffffffffffffffffffffffffffffffffffffffffffffffffffffffff8381831617835250505050905061277186838684612851565b925050509392505050565b612784612ee2565b61279485608001516101006129f5565b508385600001818152505082856020019073ffffffffffffffffffffffffffffffffffffffff16908173ffffffffffffffffffffffffffffffffffffffff16815250508185604001907bffffffffffffffffffffffffffffffffffffffffffffffffffffffff191690817bffffffffffffffffffffffffffffffffffffffffffffffffffffffff191681525050849050949350505050565b6128398260038351612a5f565b61284c8183612be490919063ffffffff16565b505050565b600030846040516020016128669291906135c1565b604051602081830303815290604052805190602001209050846005600083815260200190815260200160002060006101000a81548173ffffffffffffffffffffffffffffffffffffffff021916908373ffffffffffffffffffffffffffffffffffffffff160217905550807fb5e6e01e79f91267dc17b4e6314d5d4d03593d2ceee0fbb452b750bd70ea5af960405160405180910390a2600260009054906101000a900473ffffffffffffffffffffffffffffffffffffffff1673ffffffffffffffffffffffffffffffffffffffff16634000aea08685856040518463ffffffff1660e01b815260040161295c939291906136a8565b602060405180830381600087803b15801561297657600080fd5b505af115801561298a573d6000803e3d6000fd5b505050506040513d601f19601f820116820180604052508101906129ae919061310f565b6129ed576040517f08c379a00000000000000000000000000000000000000000000000000000000081526004016129e4906137b1565b60405180910390fd5b949350505050565b6129fd612f4f565b6000602083612a0c9190613e14565b14612a3857602082612a1e9190613e14565b6020612a2a9190613bfe565b82612a3591906139ac565b91505b81836020018181525050604051808452600081528281016020016040525082905092915050565b60178167ffffffffffffffff1611612a9657612a908160058460ff16901b60ff161784612c0690919063ffffffff16565b50612bdf565b60ff8167ffffffffffffffff1611612aec57612ac5601860058460ff16901b1784612c0690919063ffffffff16565b50612ae68167ffffffffffffffff16600185612c269092919063ffffffff16565b50612bde565b61ffff8167ffffffffffffffff1611612b4357612b1c601960058460ff16901b1784612c0690919063ffffffff16565b50612b3d8167ffffffffffffffff16600285612c269092919063ffffffff16565b50612bdd565b63ffffffff8167ffffffffffffffff1611612b9c57612b75601a60058460ff16901b1784612c0690919063ffffffff16565b50612b968167ffffffffffffffff16600485612c269092919063ffffffff16565b50612bdc565b612bb9601b60058460ff16901b1784612c0690919063ffffffff16565b50612bda8167ffffffffffffffff16600885612c269092919063ffffffff16565b505b5b5b5b505050565b612bec612f4f565b612bfe83846000015151848551612c48565b905092915050565b612c0e612f4f565b612c1e8384600001515184612d37565b905092915050565b612c2e612f4f565b612c3f848560000151518585612d8e565b90509392505050565b612c50612f4f565b8251821115612c5e57600080fd5b84602001518285612c6f91906139ac565b1115612ca457612ca3856002612c9488602001518887612c8f91906139ac565b612e1c565b612c9e9190613ba4565b612e38565b5b600080865180518760208301019350808887011115612cc35787860182525b60208701925050505b60208410612d0a5780518252602082612ce591906139ac565b9150602081612cf491906139ac565b9050602084612d039190613bfe565b9350612ccc565b60006001856020036101000a03905080198251168184511681811785525050508692505050949350505050565b612d3f612f4f565b83602001518310612d6557612d648460028660200151612d5f9190613ba4565b612e38565b5b8351805160208583010184815381861415612d81576001820183525b5050508390509392505050565b612d96612f4f565b84602001518483612da791906139ac565b1115612dcf57612dce8560028685612dbf91906139ac565b612dc99190613ba4565b612e38565b5b6000600183610100612de19190613a86565b612deb9190613bfe565b90508551838682010185831982511617815281518588011115612e0e5784870182525b505085915050949350505050565b600081831115612e2e57829050612e32565b8190505b92915050565b600082600001519050612e4b83836129f5565b50612e568382612be4565b50505050565b828054612e6890613d3a565b90600052602060002090601f016020900481019282612e8a5760008555612ed1565b82601f10612ea357805160ff1916838001178555612ed1565b82800160010185558215612ed1579182015b82811115612ed0578251825591602001919060010190612eb5565b5b509050612ede9190612f69565b5090565b6040518060a0016040528060008019168152602001600073ffffffffffffffffffffffffffffffffffffffff16815260200160007bffffffffffffffffffffffffffffffffffffffffffffffffffffffff1916815260200160008152602001612f49612f4f565b81525090565b604051806040016040528060608152602001600081525090565b5b80821115612f82576000816000905550600101612f6a565b5090565b6000612f99612f9484613943565b61391e565b905082815260208101848484011115612fb557612fb4613f6e565b5b612fc0848285613cf8565b509392505050565b600081359050612fd78161418b565b92915050565b600081359050612fec816141a2565b92915050565b600081519050613001816141b9565b92915050565b600081359050613016816141d0565b92915050565b60008083601f84011261303257613031613f64565b5b8235905067ffffffffffffffff81111561304f5761304e613f5f565b5b60208301915083600182028301111561306b5761306a613f69565b5b9250929050565b600082601f83011261308757613086613f64565b5b8135613097848260208601612f86565b91505092915050565b6000813590506130af816141e7565b92915050565b6000602082840312156130cb576130ca613f78565b5b60006130d984828501612fc8565b91505092915050565b6000602082840312156130f8576130f7613f78565b5b600061310684828501612fdd565b91505092915050565b60006020828403121561312557613124613f78565b5b600061313384828501612ff2565b91505092915050565b60006020828403121561315257613151613f78565b5b600061316084828501613007565b91505092915050565b600080604083850312156131805761317f613f78565b5b600061318e85828601613007565b925050602061319f858286016130a0565b9150509250929050565b600080602083850312156131c0576131bf613f78565b5b600083013567ffffffffffffffff8111156131de576131dd613f73565b5b6131ea8582860161301c565b92509250509250929050565b6000806040838503121561320d5761320c613f78565b5b600083013567ffffffffffffffff81111561322b5761322a613f73565b5b61323785828601613072565b9250506020613248858286016130a0565b9150509250929050565b60008060008060008060c0878903121561326f5761326e613f78565b5b600087013567ffffffffffffffff81111561328d5761328c613f73565b5b61329989828a01613072565b96505060206132aa89828a016130a0565b95505060406132bb89828a016130a0565b94505060606132cc89828a016130a0565b93505060806132dd89828a016130a0565b92505060a06132ee89828a016130a0565b9150509295509295509295565b60006020828403121561331157613310613f78565b5b600061331f848285016130a0565b91505092915050565b61333181613c44565b82525050565b61334081613c32565b82525050565b61334f81613c56565b82525050565b61335e81613c62565b82525050565b61336d81613c6c565b82525050565b600061337e82613974565b613388818561398a565b9350613398818560208601613d07565b6133a181613f7d565b840191505092915050565b6133bd6133b882613cc2565b613de6565b82525050565b60006133ce8261397f565b6133d8818561399b565b93506133e8818560208601613d07565b6133f181613f7d565b840191505092915050565b600061340960268361399b565b915061341482613fa8565b604082019050919050565b600061342c600e8361399b565b915061343782613ff7565b602082019050919050565b600061344f60148361399b565b915061345a82614020565b602082019050919050565b600061347260198361399b565b915061347d82614049565b602082019050919050565b600061349560238361399b565b91506134a082614072565b604082019050919050565b60006134b8601a8361399b565b91506134c3826140c1565b602082019050919050565b60006134db60208361399b565b91506134e6826140ea565b602082019050919050565b60006134fe60288361399b565b915061350982614113565b604082019050919050565b600061352160128361399b565b915061352c82614162565b602082019050919050565b60808201600082015161354d600085018261358c565b506020820151613560602085018261358c565b506040820151613573604085018261358c565b506060820151613586606085018261358c565b50505050565b61359581613cb8565b82525050565b6135a481613cb8565b82525050565b6135bb6135b682613cb8565b613e0a565b82525050565b60006135cd82856133ac565b6014820191506135dd82846135aa565b6020820191508190509392505050565b60006020820190506136026000830184613337565b92915050565b600060208201905061361d6000830184613328565b92915050565b600061010082019050613639600083018b613337565b613646602083018a61359b565b6136536040830189613355565b6136606060830188613337565b61366d6080830187613364565b61367a60a083018661359b565b61368760c083018561359b565b81810360e08301526136998184613373565b90509998505050505050505050565b60006060820190506136bd6000830186613337565b6136ca602083018561359b565b81810360408301526136dc8184613373565b9050949350505050565b60006040820190506136fb6000830185613346565b818103602083015261370d8184613373565b90509392505050565b600060208201905061372b6000830184613355565b92915050565b6000602082019050818103600083015261374a816133fc565b9050919050565b6000602082019050818103600083015261376a8161341f565b9050919050565b6000602082019050818103600083015261378a81613442565b9050919050565b600060208201905081810360008301526137aa81613465565b9050919050565b600060208201905081810360008301526137ca81613488565b9050919050565b600060208201905081810360008301526137ea816134ab565b9050919050565b6000602082019050818103600083015261380a816134ce565b9050919050565b6000602082019050818103600083015261382a816134f1565b9050919050565b6000602082019050818103600083015261384a81613514565b9050919050565b6000602082019050613866600083018461359b565b92915050565b60006101c082019050613882600083018e61359b565b61388f602083018d613328565b61389c604083018c613328565b81810360608301526138ae818b6133c3565b90506138bd608083018a61359b565b6138ca60a083018961359b565b6138d760c0830188613346565b6138e460e0830187613346565b6138f2610100830186613346565b61390061012083018561359b565b61390e610140830184613537565b9c9b505050505050505050505050565b6000613928613939565b90506139348282613d6c565b919050565b6000604051905090565b600067ffffffffffffffff82111561395e5761395d613f30565b5b61396782613f7d565b9050602081019050919050565b600081519050919050565b600081519050919050565b600082825260208201905092915050565b600082825260208201905092915050565b60006139b782613cb8565b91506139c283613cb8565b9250827fffffffffffffffffffffffffffffffffffffffffffffffffffffffffffffffff038211156139f7576139f6613e45565b5b828201905092915050565b6000613a0d82613cb8565b9150613a1883613cb8565b925082613a2857613a27613e74565b5b828204905092915050565b6000808291508390505b6001851115613a7d57808604811115613a5957613a58613e45565b5b6001851615613a685780820291505b8081029050613a7685613f9b565b9450613a3d565b94509492505050565b6000613a9182613cb8565b9150613a9c83613cb8565b9250613ac97fffffffffffffffffffffffffffffffffffffffffffffffffffffffffffffffff8484613ad1565b905092915050565b600082613ae15760019050613b9d565b81613aef5760009050613b9d565b8160018114613b055760028114613b0f57613b3e565b6001915050613b9d565b60ff841115613b2157613b20613e45565b5b8360020a915084821115613b3857613b37613e45565b5b50613b9d565b5060208310610133831016604e8410600b8410161715613b735782820a905083811115613b6e57613b6d613e45565b5b613b9d565b613b808484846001613a33565b92509050818404811115613b9757613b96613e45565b5b81810290505b9392505050565b6000613baf82613cb8565b9150613bba83613cb8565b9250817fffffffffffffffffffffffffffffffffffffffffffffffffffffffffffffffff0483118215151615613bf357613bf2613e45565b5b828202905092915050565b6000613c0982613cb8565b9150613c1483613cb8565b925082821015613c2757613c26613e45565b5b828203905092915050565b6000613c3d82613c98565b9050919050565b6000613c4f82613c98565b9050919050565b60008115159050919050565b6000819050919050565b60007fffffffff0000000000000000000000000000000000000000000000000000000082169050919050565b600073ffffffffffffffffffffffffffffffffffffffff82169050919050565b6000819050919050565b6000613ccd82613cd4565b9050919050565b6000613cdf82613ce6565b9050919050565b6000613cf182613c98565b9050919050565b82818337600083830152505050565b60005b83811015613d25578082015181840152602081019050613d0a565b83811115613d34576000848401525b50505050565b60006002820490506001821680613d5257607f821691505b60208210811415613d6657613d65613ea3565b5b50919050565b613d7582613f7d565b810181811067ffffffffffffffff82111715613d9457613d93613f30565b5b80604052505050565b6000613da882613cb8565b91507fffffffffffffffffffffffffffffffffffffffffffffffffffffffffffffffff821415613ddb57613dda613e45565b5b600182019050919050565b6000613df182613df8565b9050919050565b6000613e0382613f8e565b9050919050565b6000819050919050565b6000613e1f82613cb8565b9150613e2a83613cb8565b925082613e3a57613e39613e74565b5b828206905092915050565b7f4e487b7100000000000000000000000000000000000000000000000000000000600052601160045260246000fd5b7f4e487b7100000000000000000000000000000000000000000000000000000000600052601260045260246000fd5b7f4e487b7100000000000000000000000000000000000000000000000000000000600052602260045260246000fd5b7f4e487b7100000000000000000000000000000000000000000000000000000000600052603160045260246000fd5b7f4e487b7100000000000000000000000000000000000000000000000000000000600052603260045260246000fd5b7f4e487b7100000000000000000000000000000000000000000000000000000000600052604160045260246000fd5b600080fd5b600080fd5b600080fd5b600080fd5b600080fd5b600080fd5b6000601f19601f8301169050919050565b60008160601b9050919050565b60008160011c9050919050565b7f4f776e61626c653a206e6577206f776e657220697320746865207a65726f206160008201527f6464726573730000000000000000000000000000000000000000000000000000602082015250565b7f626574206e6f7420616374697665000000000000000000000000000000000000600082015250565b7f62657420616c7265616479206163636570746564000000000000000000000000600082015250565b7f6d696e696d756d20626574206e6f742073617469736669656400000000000000600082015250565b7f756e61626c6520746f207472616e73666572416e6443616c6c20746f206f726160008201527f636c650000000000000000000000000000000000000000000000000000000000602082015250565b7f6163636570746572206d6f6e6579206e6f7420636f7272656374000000000000600082015250565b7f4f776e61626c653a2063616c6c6572206973206e6f7420746865206f776e6572600082015250565b7f536f75726365206d75737420626520746865206f7261636c65206f662074686560008201527f2072657175657374000000000000000000000000000000000000000000000000602082015250565b7f62657420686173206265656e20636c6f73650000000000000000000000000000600082015250565b61419481613c32565b811461419f57600080fd5b50565b6141ab81613c44565b81146141b657600080fd5b50565b6141c281613c56565b81146141cd57600080fd5b50565b6141d981613c62565b81146141e457600080fd5b50565b6141f081613cb8565b81146141fb57600080fd5b5056fea26469706673582212208ff67bef45e1f2ab43975c5b447ca54e724e6ab43ad54e8c53d0c40bc63905e664736f6c63430008070033",
  "devdoc": {
    "kind": "dev",
    "methods": {
      "checkUpkeep(bytes)": {
        "details": "To ensure that it is never called, you may want to add the cannotExecute modifier from KeeperBase to your implementation of this method.",
        "params": {
          "checkData": "specified in the upkeep registration so it is always the same for a registered upkeep. This can easily be broken down into specific arguments using `abi.decode`, so multiple upkeeps can be registered on the same contract and easily differentiated by the contract."
        },
        "returns": {
          "performData": "bytes that the keeper should call performUpkeep with, if upkeep is needed. If you would like to encode data to decode later, try `abi.encode`.",
          "upkeepNeeded": "boolean to indicate whether the keeper should call performUpkeep or not."
        }
      },
      "owner()": {
        "details": "Returns the address of the current owner."
      },
      "performUpkeep(bytes)": {
        "details": "The input to this method should not be trusted, and the caller of the method should not even be restricted to any single registry. Anyone should be able call it, and the input should be validated, there is no guarantee that the data passed in is the performData returned from checkUpkeep. This could happen due to malicious keepers, racing keepers, or simply a state change while the performUpkeep transaction is waiting for confirmation. Always validate the data passed in.",
        "params": {
          "performData": "is the data which was passed back from the checkData simulation. If it is encoded, it can easily be decoded into other types by calling `abi.decode`. This data should not be trusted, and should be validated against the contract's current state."
        }
      },
      "renounceOwnership()": {
        "details": "Leaves the contract without owner. It will not be possible to call `onlyOwner` functions anymore. Can only be called by the current owner. NOTE: Renouncing ownership will leave the contract without an owner, thereby removing any functionality that is only available to the owner."
      },
      "transferOwnership(address)": {
        "details": "Transfers ownership of the contract to a new account (`newOwner`). Can only be called by the current owner."
      }
    },
    "version": 1
  },
  "userdoc": {
    "kind": "user",
    "methods": {
      "checkUpkeep(bytes)": {
        "notice": "method that is simulated by the keepers to see if any work actually needs to be performed. This method does does not actually need to be executable, and since it is only ever simulated it can consume lots of gas."
      },
      "performUpkeep(bytes)": {
        "notice": "method that is actually executed by the keepers, via the registry. The data returned by the checkUpkeep simulation will be passed into this method to actually be executed."
      }
    },
    "version": 1
  },
  "storageLayout": {
    "storage": [
      {
        "astId": 319,
        "contract": "contracts/BetGame.sol:BetGame",
        "label": "s_ens",
        "offset": 0,
        "slot": "0",
        "type": "t_contract(ENSInterface)1071"
      },
      {
        "astId": 321,
        "contract": "contracts/BetGame.sol:BetGame",
        "label": "s_ensNode",
        "offset": 0,
        "slot": "1",
        "type": "t_bytes32"
      },
      {
        "astId": 324,
        "contract": "contracts/BetGame.sol:BetGame",
        "label": "s_link",
        "offset": 0,
        "slot": "2",
        "type": "t_contract(LinkTokenInterface)1185"
      },
      {
        "astId": 327,
        "contract": "contracts/BetGame.sol:BetGame",
        "label": "s_oracle",
        "offset": 0,
        "slot": "3",
        "type": "t_contract(OperatorInterface)1265"
      },
      {
        "astId": 330,
        "contract": "contracts/BetGame.sol:BetGame",
        "label": "s_requestCount",
        "offset": 0,
        "slot": "4",
        "type": "t_uint256"
      },
      {
        "astId": 334,
        "contract": "contracts/BetGame.sol:BetGame",
        "label": "s_pendingRequests",
        "offset": 0,
        "slot": "5",
        "type": "t_mapping(t_bytes32,t_address)"
      },
      {
        "astId": 2967,
        "contract": "contracts/BetGame.sol:BetGame",
        "label": "_owner",
        "offset": 0,
        "slot": "6",
        "type": "t_address"
      },
      {
        "astId": 3248,
        "contract": "contracts/BetGame.sol:BetGame",
        "label": "serviceFee",
        "offset": 0,
        "slot": "7",
        "type": "t_uint256"
      },
      {
        "astId": 3250,
        "contract": "contracts/BetGame.sol:BetGame",
        "label": "minimumBet",
        "offset": 0,
        "slot": "8",
        "type": "t_uint256"
      },
      {
        "astId": 3252,
        "contract": "contracts/BetGame.sol:BetGame",
        "label": "devWallet",
        "offset": 0,
        "slot": "9",
        "type": "t_address_payable"
      },
      {
        "astId": 3288,
        "contract": "contracts/BetGame.sol:BetGame",
        "label": "betId",
        "offset": 0,
        "slot": "10",
        "type": "t_uint256"
      },
      {
        "astId": 3293,
        "contract": "contracts/BetGame.sol:BetGame",
        "label": "allBets",
        "offset": 0,
        "slot": "11",
        "type": "t_mapping(t_uint256,t_struct(Bet)3285_storage)"
      },
      {
        "astId": 3296,
        "contract": "contracts/BetGame.sol:BetGame",
        "label": "activeBets",
        "offset": 0,
        "slot": "12",
        "type": "t_array(t_uint256)dyn_storage"
      },
      {
        "astId": 3299,
        "contract": "contracts/BetGame.sol:BetGame",
        "label": "acceptedBets",
        "offset": 0,
        "slot": "13",
        "type": "t_array(t_uint256)dyn_storage"
      },
      {
        "astId": 3301,
        "contract": "contracts/BetGame.sol:BetGame",
        "label": "oracle",
        "offset": 0,
        "slot": "14",
        "type": "t_address"
      },
      {
        "astId": 3303,
        "contract": "contracts/BetGame.sol:BetGame",
        "label": "jobId",
        "offset": 0,
        "slot": "15",
        "type": "t_bytes32"
      },
      {
        "astId": 3305,
        "contract": "contracts/BetGame.sol:BetGame",
        "label": "fee",
        "offset": 0,
        "slot": "16",
        "type": "t_uint256"
      },
      {
        "astId": 3309,
        "contract": "contracts/BetGame.sol:BetGame",
        "label": "requestToBet",
        "offset": 0,
        "slot": "17",
        "type": "t_mapping(t_bytes32,t_uint256)"
      },
      {
        "astId": 3313,
        "contract": "contracts/BetGame.sol:BetGame",
        "label": "lastTimeStamp",
        "offset": 0,
        "slot": "18",
        "type": "t_uint256"
      }
    ],
    "types": {
      "t_address": {
        "encoding": "inplace",
        "label": "address",
        "numberOfBytes": "20"
      },
      "t_address_payable": {
        "encoding": "inplace",
        "label": "address payable",
        "numberOfBytes": "20"
      },
      "t_array(t_uint256)dyn_storage": {
        "base": "t_uint256",
        "encoding": "dynamic_array",
        "label": "uint256[]",
        "numberOfBytes": "32"
      },
      "t_bool": {
        "encoding": "inplace",
        "label": "bool",
        "numberOfBytes": "1"
      },
      "t_bytes32": {
        "encoding": "inplace",
        "label": "bytes32",
        "numberOfBytes": "32"
      },
      "t_contract(ENSInterface)1071": {
        "encoding": "inplace",
        "label": "contract ENSInterface",
        "numberOfBytes": "20"
      },
      "t_contract(LinkTokenInterface)1185": {
        "encoding": "inplace",
        "label": "contract LinkTokenInterface",
        "numberOfBytes": "20"
      },
      "t_contract(OperatorInterface)1265": {
        "encoding": "inplace",
        "label": "contract OperatorInterface",
        "numberOfBytes": "20"
      },
      "t_mapping(t_bytes32,t_address)": {
        "encoding": "mapping",
        "key": "t_bytes32",
        "label": "mapping(bytes32 => address)",
        "numberOfBytes": "32",
        "value": "t_address"
      },
      "t_mapping(t_bytes32,t_uint256)": {
        "encoding": "mapping",
        "key": "t_bytes32",
        "label": "mapping(bytes32 => uint256)",
        "numberOfBytes": "32",
        "value": "t_uint256"
      },
      "t_mapping(t_uint256,t_struct(Bet)3285_storage)": {
        "encoding": "mapping",
        "key": "t_uint256",
        "label": "mapping(uint256 => struct BetGame.Bet)",
        "numberOfBytes": "32",
        "value": "t_struct(Bet)3285_storage"
      },
      "t_string_storage": {
        "encoding": "bytes",
        "label": "string",
        "numberOfBytes": "32"
      },
      "t_struct(Bet)3285_storage": {
        "encoding": "inplace",
        "label": "struct BetGame.Bet",
        "members": [
          {
            "astId": 3263,
            "contract": "contracts/BetGame.sol:BetGame",
            "label": "id",
            "offset": 0,
            "slot": "0",
            "type": "t_uint256"
          },
          {
            "astId": 3265,
            "contract": "contracts/BetGame.sol:BetGame",
            "label": "creator",
            "offset": 0,
            "slot": "1",
            "type": "t_address_payable"
          },
          {
            "astId": 3267,
            "contract": "contracts/BetGame.sol:BetGame",
            "label": "acceptor",
            "offset": 0,
            "slot": "2",
            "type": "t_address_payable"
          },
          {
            "astId": 3269,
            "contract": "contracts/BetGame.sol:BetGame",
            "label": "apiURL",
            "offset": 0,
            "slot": "3",
            "type": "t_string_storage"
          },
          {
            "astId": 3271,
            "contract": "contracts/BetGame.sol:BetGame",
            "label": "amount",
            "offset": 0,
            "slot": "4",
            "type": "t_uint256"
          },
          {
            "astId": 3273,
            "contract": "contracts/BetGame.sol:BetGame",
            "label": "acceptValue",
            "offset": 0,
            "slot": "5",
            "type": "t_uint256"
          },
          {
            "astId": 3275,
            "contract": "contracts/BetGame.sol:BetGame",
            "label": "accepted",
            "offset": 0,
            "slot": "6",
            "type": "t_bool"
          },
          {
            "astId": 3277,
            "contract": "contracts/BetGame.sol:BetGame",
            "label": "active",
            "offset": 1,
            "slot": "6",
            "type": "t_bool"
          },
          {
            "astId": 3279,
            "contract": "contracts/BetGame.sol:BetGame",
            "label": "closed",
            "offset": 2,
            "slot": "6",
            "type": "t_bool"
          },
          {
            "astId": 3281,
            "contract": "contracts/BetGame.sol:BetGame",
            "label": "countArts",
            "offset": 0,
            "slot": "7",
            "type": "t_uint256"
          },
          {
            "astId": 3284,
            "contract": "contracts/BetGame.sol:BetGame",
            "label": "timeProps",
            "offset": 0,
            "slot": "8",
            "type": "t_struct(TimeProps)3261_storage"
          }
        ],
        "numberOfBytes": "384"
      },
      "t_struct(TimeProps)3261_storage": {
        "encoding": "inplace",
        "label": "struct BetGame.TimeProps",
        "members": [
          {
            "astId": 3254,
            "contract": "contracts/BetGame.sol:BetGame",
            "label": "createdDate",
            "offset": 0,
            "slot": "0",
            "type": "t_uint256"
          },
          {
            "astId": 3256,
            "contract": "contracts/BetGame.sol:BetGame",
            "label": "acceptByDate",
            "offset": 0,
            "slot": "1",
            "type": "t_uint256"
          },
          {
            "astId": 3258,
            "contract": "contracts/BetGame.sol:BetGame",
            "label": "startDate",
            "offset": 0,
            "slot": "2",
            "type": "t_uint256"
          },
          {
            "astId": 3260,
            "contract": "contracts/BetGame.sol:BetGame",
            "label": "expirationDate",
            "offset": 0,
            "slot": "3",
            "type": "t_uint256"
          }
        ],
        "numberOfBytes": "128"
      },
      "t_uint256": {
        "encoding": "inplace",
        "label": "uint256",
        "numberOfBytes": "32"
      }
    }
  }
}