{
  "address": "0x80948756228E8D986b96e7f1e242ac9f43EB2427",
  "abi": [
    {
      "inputs": [
        {
          "internalType": "uint256",
          "name": "_minimumBet",
          "type": "uint256"
        },
        {
          "internalType": "uint256",
          "name": "_interval",
          "type": "uint256"
        },
        {
          "internalType": "address",
          "name": "_link",
          "type": "address"
        },
        {
          "internalType": "address",
          "name": "_oracle",
          "type": "address"
        },
        {
          "internalType": "bytes32",
          "name": "_oracleJobId",
          "type": "bytes32"
        },
        {
          "internalType": "uint256",
          "name": "_oraclefee",
          "type": "uint256"
        },
        {
          "internalType": "uint256",
          "name": "_servicefee",
          "type": "uint256"
        },
        {
          "internalType": "address",
          "name": "_weth",
          "type": "address"
        }
      ],
      "stateMutability": "nonpayable",
      "type": "constructor"
    },
    {
      "anonymous": false,
      "inputs": [
        {
          "indexed": true,
          "internalType": "bytes32",
          "name": "id",
          "type": "bytes32"
        }
      ],
      "name": "ChainlinkCancelled",
      "type": "event"
    },
    {
      "anonymous": false,
      "inputs": [
        {
          "indexed": true,
          "internalType": "bytes32",
          "name": "id",
          "type": "bytes32"
        }
      ],
      "name": "ChainlinkFulfilled",
      "type": "event"
    },
    {
      "anonymous": false,
      "inputs": [
        {
          "indexed": true,
          "internalType": "bytes32",
          "name": "id",
          "type": "bytes32"
        }
      ],
      "name": "ChainlinkRequested",
      "type": "event"
    },
    {
      "anonymous": false,
      "inputs": [
        {
          "indexed": true,
          "internalType": "address",
          "name": "previousOwner",
          "type": "address"
        },
        {
          "indexed": true,
          "internalType": "address",
          "name": "newOwner",
          "type": "address"
        }
      ],
      "name": "OwnershipTransferred",
      "type": "event"
    },
    {
      "inputs": [
        {
          "internalType": "uint256",
          "name": "_betId",
          "type": "uint256"
        },
        {
          "internalType": "string",
          "name": "_apiURL",
          "type": "string"
        }
      ],
      "name": "acceptBet",
      "outputs": [],
      "stateMutability": "payable",
      "type": "function"
    },
    {
      "inputs": [
        {
          "internalType": "uint256",
          "name": "",
          "type": "uint256"
        }
      ],
      "name": "acceptedBets",
      "outputs": [
        {
          "internalType": "uint256",
          "name": "",
          "type": "uint256"
        }
      ],
      "stateMutability": "view",
      "type": "function"
    },
    {
      "inputs": [
        {
          "internalType": "uint256",
          "name": "",
          "type": "uint256"
        }
      ],
      "name": "activeBets",
      "outputs": [
        {
          "internalType": "uint256",
          "name": "",
          "type": "uint256"
        }
      ],
      "stateMutability": "view",
      "type": "function"
    },
    {
      "inputs": [
        {
          "internalType": "uint256",
          "name": "",
          "type": "uint256"
        }
      ],
      "name": "allBets",
      "outputs": [
        {
          "internalType": "uint256",
          "name": "id",
          "type": "uint256"
        },
        {
          "internalType": "string",
          "name": "title",
          "type": "string"
        },
        {
          "internalType": "address payable",
          "name": "creator",
          "type": "address"
        },
        {
          "internalType": "address payable",
          "name": "acceptor",
          "type": "address"
        },
        {
          "internalType": "string",
          "name": "apiURL",
          "type": "string"
        },
        {
          "internalType": "uint256",
          "name": "amount",
          "type": "uint256"
        },
        {
          "internalType": "uint256",
          "name": "acceptValue",
          "type": "uint256"
        },
        {
          "internalType": "bool",
          "name": "accepted",
          "type": "bool"
        },
        {
          "internalType": "bool",
          "name": "active",
          "type": "bool"
        },
        {
          "internalType": "bool",
          "name": "closed",
          "type": "bool"
        },
        {
          "internalType": "uint256",
          "name": "countArts",
          "type": "uint256"
        },
        {
          "components": [
            {
              "internalType": "uint256",
              "name": "createdDate",
              "type": "uint256"
            },
            {
              "internalType": "uint256",
              "name": "acceptByDate",
              "type": "uint256"
            },
            {
              "internalType": "uint256",
              "name": "startDate",
              "type": "uint256"
            },
            {
              "internalType": "uint256",
              "name": "expirationDate",
              "type": "uint256"
            }
          ],
          "internalType": "struct BetGame.TimeProps",
          "name": "timeProps",
          "type": "tuple"
        }
      ],
      "stateMutability": "view",
      "type": "function"
    },
    {
      "inputs": [
        {
          "internalType": "uint256",
          "name": "_id",
          "type": "uint256"
        }
      ],
      "name": "checkBet",
      "outputs": [],
      "stateMutability": "nonpayable",
      "type": "function"
    },
    {
      "inputs": [
        {
          "internalType": "bytes",
          "name": "checkData",
          "type": "bytes"
        }
      ],
      "name": "checkUpkeep",
      "outputs": [
        {
          "internalType": "bool",
          "name": "upkeepNeeded",
          "type": "bool"
        },
        {
          "internalType": "bytes",
          "name": "performData",
          "type": "bytes"
        }
      ],
      "stateMutability": "view",
      "type": "function"
    },
    {
      "inputs": [
        {
          "internalType": "uint256",
          "name": "_eth",
          "type": "uint256"
        }
      ],
      "name": "convertEthToLink",
      "outputs": [
        {
          "internalType": "uint256",
          "name": "",
          "type": "uint256"
        }
      ],
      "stateMutability": "nonpayable",
      "type": "function"
    },
    {
      "inputs": [
        {
          "internalType": "string",
          "name": "_apiURL",
          "type": "string"
        },
        {
          "internalType": "uint256",
          "name": "_acceptValue",
          "type": "uint256"
        },
        {
          "internalType": "uint256",
          "name": "_countArts",
          "type": "uint256"
        },
        {
          "internalType": "uint256",
          "name": "_endDate",
          "type": "uint256"
        },
        {
          "internalType": "uint256",
          "name": "_acceptdate",
          "type": "uint256"
        },
        {
          "internalType": "string",
          "name": "_title",
          "type": "string"
        }
      ],
      "name": "createBet",
      "outputs": [],
      "stateMutability": "payable",
      "type": "function"
    },
    {
      "inputs": [],
      "name": "devWallet",
      "outputs": [
        {
          "internalType": "address payable",
          "name": "",
          "type": "address"
        }
      ],
      "stateMutability": "view",
      "type": "function"
    },
    {
      "inputs": [
        {
          "internalType": "bytes32",
          "name": "_requestId",
          "type": "bytes32"
        },
        {
          "internalType": "uint256",
          "name": "_volume",
          "type": "uint256"
        }
      ],
      "name": "fulfill",
      "outputs": [],
      "stateMutability": "nonpayable",
      "type": "function"
    },
    {
      "inputs": [
        {
          "internalType": "uint256",
          "name": "_ethamount",
          "type": "uint256"
        }
      ],
      "name": "fundKeeper",
      "outputs": [],
      "stateMutability": "nonpayable",
      "type": "function"
    },
    {
      "inputs": [],
      "name": "getEthBalance",
      "outputs": [
        {
          "internalType": "uint256",
          "name": "",
          "type": "uint256"
        }
      ],
      "stateMutability": "view",
      "type": "function"
    },
    {
      "inputs": [],
      "name": "getLinkBalance",
      "outputs": [
        {
          "internalType": "uint256",
          "name": "",
          "type": "uint256"
        }
      ],
      "stateMutability": "view",
      "type": "function"
    },
    {
      "inputs": [],
      "name": "globalId",
      "outputs": [
        {
          "internalType": "uint256",
          "name": "",
          "type": "uint256"
        }
      ],
      "stateMutability": "view",
      "type": "function"
    },
    {
      "inputs": [],
      "name": "interval",
      "outputs": [
        {
          "internalType": "uint256",
          "name": "",
          "type": "uint256"
        }
      ],
      "stateMutability": "view",
      "type": "function"
    },
    {
      "inputs": [],
      "name": "keeperJobId",
      "outputs": [
        {
          "internalType": "uint256",
          "name": "",
          "type": "uint256"
        }
      ],
      "stateMutability": "view",
      "type": "function"
    },
    {
      "inputs": [],
      "name": "keeperRegistry",
      "outputs": [
        {
          "internalType": "contract KeeperRegistryInterface",
          "name": "",
          "type": "address"
        }
      ],
      "stateMutability": "view",
      "type": "function"
    },
    {
      "inputs": [],
      "name": "keeperRegistryAddress",
      "outputs": [
        {
          "internalType": "address",
          "name": "",
          "type": "address"
        }
      ],
      "stateMutability": "view",
      "type": "function"
    },
    {
      "inputs": [],
      "name": "lastTimeStamp",
      "outputs": [
        {
          "internalType": "uint256",
          "name": "",
          "type": "uint256"
        }
      ],
      "stateMutability": "view",
      "type": "function"
    },
    {
      "inputs": [],
      "name": "minimumBet",
      "outputs": [
        {
          "internalType": "uint256",
          "name": "",
          "type": "uint256"
        }
      ],
      "stateMutability": "view",
      "type": "function"
    },
    {
      "inputs": [],
      "name": "owner",
      "outputs": [
        {
          "internalType": "address",
          "name": "",
          "type": "address"
        }
      ],
      "stateMutability": "view",
      "type": "function"
    },
    {
      "inputs": [
        {
          "internalType": "bytes",
          "name": "performData",
          "type": "bytes"
        }
      ],
      "name": "performUpkeep",
      "outputs": [],
      "stateMutability": "nonpayable",
      "type": "function"
    },
    {
      "inputs": [],
      "name": "renounceOwnership",
      "outputs": [],
      "stateMutability": "nonpayable",
      "type": "function"
    },
    {
      "inputs": [
        {
          "internalType": "string",
          "name": "_apiURL",
          "type": "string"
        },
        {
          "internalType": "uint256",
          "name": "_id",
          "type": "uint256"
        }
      ],
      "name": "requestVolumeData",
      "outputs": [
        {
          "internalType": "bytes32",
          "name": "requestId",
          "type": "bytes32"
        }
      ],
      "stateMutability": "nonpayable",
      "type": "function"
    },
    {
      "inputs": [],
      "name": "serviceFee",
      "outputs": [
        {
          "internalType": "uint256",
          "name": "",
          "type": "uint256"
        }
      ],
      "stateMutability": "view",
      "type": "function"
    },
    {
      "inputs": [
        {
          "internalType": "address payable",
          "name": "_devWallet",
          "type": "address"
        }
      ],
      "name": "setDevWallet",
      "outputs": [],
      "stateMutability": "nonpayable",
      "type": "function"
    },
    {
      "inputs": [
        {
          "internalType": "uint256",
          "name": "_interval",
          "type": "uint256"
        }
      ],
      "name": "setInterval",
      "outputs": [],
      "stateMutability": "nonpayable",
      "type": "function"
    },
    {
      "inputs": [
        {
          "internalType": "uint256",
          "name": "jobId",
          "type": "uint256"
        }
      ],
      "name": "setKeeperJob",
      "outputs": [],
      "stateMutability": "nonpayable",
      "type": "function"
    },
    {
      "inputs": [
        {
          "internalType": "address",
          "name": "_add",
          "type": "address"
        }
      ],
      "name": "setKeeperRegistry",
      "outputs": [],
      "stateMutability": "nonpayable",
      "type": "function"
    },
    {
      "inputs": [
        {
          "internalType": "uint256",
          "name": "_minimumBet",
          "type": "uint256"
        }
      ],
      "name": "setMinimumBet",
      "outputs": [],
      "stateMutability": "nonpayable",
      "type": "function"
    },
    {
      "inputs": [
        {
          "internalType": "address",
          "name": "_oracle",
          "type": "address"
        }
      ],
      "name": "setOracle",
      "outputs": [],
      "stateMutability": "nonpayable",
      "type": "function"
    },
    {
      "inputs": [
        {
          "internalType": "bytes32",
          "name": "_oracleJobId",
          "type": "bytes32"
        }
      ],
      "name": "setOracleJobId",
      "outputs": [],
      "stateMutability": "nonpayable",
      "type": "function"
    },
    {
      "inputs": [
        {
          "internalType": "uint256",
          "name": "_eth",
          "type": "uint256"
        }
      ],
      "name": "setServiceFee",
      "outputs": [],
      "stateMutability": "nonpayable",
      "type": "function"
    },
    {
      "inputs": [
        {
          "internalType": "address",
          "name": "_router",
          "type": "address"
        }
      ],
      "name": "setSwapRouter",
      "outputs": [],
      "stateMutability": "nonpayable",
      "type": "function"
    },
    {
      "inputs": [
        {
          "internalType": "address",
          "name": "_weth",
          "type": "address"
        }
      ],
      "name": "setWETHAddress",
      "outputs": [],
      "stateMutability": "nonpayable",
      "type": "function"
    },
    {
      "inputs": [],
      "name": "swapRouter",
      "outputs": [
        {
          "internalType": "contract IUniswapV2Router02",
          "name": "",
          "type": "address"
        }
      ],
      "stateMutability": "view",
      "type": "function"
    },
    {
      "inputs": [
        {
          "internalType": "address",
          "name": "newOwner",
          "type": "address"
        }
      ],
      "name": "transferOwnership",
      "outputs": [],
      "stateMutability": "nonpayable",
      "type": "function"
    },
    {
      "inputs": [],
      "name": "upkeepcount",
      "outputs": [
        {
          "internalType": "uint256",
          "name": "",
          "type": "uint256"
        }
      ],
      "stateMutability": "view",
      "type": "function"
    },
    {
      "inputs": [],
      "name": "weth",
      "outputs": [
        {
          "internalType": "address",
          "name": "",
          "type": "address"
        }
      ],
      "stateMutability": "view",
      "type": "function"
    }
  ],
  "transactionHash": "0x7b6aeefa197888a9023fd50ca8209d84c75d6a75e8e6dc6160d43f360e74ebd4",
  "args": [
    1000000000000000,
    120,
    "0xa36085F69e2889c224210F603D836748e7dC0088",
    "0xc57b33452b4f7bb189bb5afae9cc4aba1f7a4fd8",
    {
      "0": 100,
      "1": 53,
      "2": 50,
      "3": 55,
      "4": 48,
      "5": 100,
      "6": 49,
      "7": 99,
      "8": 51,
      "9": 49,
      "10": 49,
      "11": 57,
      "12": 52,
      "13": 49,
      "14": 100,
      "15": 48,
      "16": 98,
      "17": 48,
      "18": 56,
      "19": 98,
      "20": 101,
      "21": 97,
      "22": 100,
      "23": 50,
      "24": 49,
      "25": 102,
      "26": 101,
      "27": 97,
      "28": 55,
      "29": 55,
      "30": 52,
      "31": 55
    },
    "100000000000000000",
    1000000000000000,
    "0xd0A1E359811322d97991E03f863a0C30C2cF029C"
  ],
  "numDeployments": 7,
  "solcInputHash": "d42801dee6aa28c74ee2d535f114a6e3",
  "bytecode": "0x6080604052600160045560006017553480156200001b57600080fd5b5060405162006347380380620063478339818101604052810190620000419190620003ff565b6200006162000055620001ce60201b60201c565b620001d660201b60201c565b876008819055508660148190555042601581905550600073ffffffffffffffffffffffffffffffffffffffff168673ffffffffffffffffffffffffffffffffffffffff161415620000c257620000bc6200029c60201b60201c565b620000d4565b620000d3866200034460201b60201c565b5b84600e60006101000a81548173ffffffffffffffffffffffffffffffffffffffff021916908373ffffffffffffffffffffffffffffffffffffffff16021790555083600f819055508260108190555081600781905550737a250d5630b4cf539739df2c5dacb4c659f2488d601860006101000a81548173ffffffffffffffffffffffffffffffffffffffff021916908373ffffffffffffffffffffffffffffffffffffffff16021790555080601960006101000a81548173ffffffffffffffffffffffffffffffffffffffff021916908373ffffffffffffffffffffffffffffffffffffffff160217905550505050505050505062000563565b600033905090565b6000600660009054906101000a900473ffffffffffffffffffffffffffffffffffffffff16905081600660006101000a81548173ffffffffffffffffffffffffffffffffffffffff021916908373ffffffffffffffffffffffffffffffffffffffff1602179055508173ffffffffffffffffffffffffffffffffffffffff168173ffffffffffffffffffffffffffffffffffffffff167f8be0079c531659141344cd1fd0a4f28419497f9722a3daafe3b4186f6b6457e060405160405180910390a35050565b6200034273c89bd4e1632d3a43cb03aaad5262cbe4038bc57173ffffffffffffffffffffffffffffffffffffffff166338cc48316040518163ffffffff1660e01b815260040160206040518083038186803b158015620002fb57600080fd5b505afa15801562000310573d6000803e3d6000fd5b505050506040513d601f19601f82011682018060405250810190620003369190620003cd565b6200034460201b60201c565b565b80600260006101000a81548173ffffffffffffffffffffffffffffffffffffffff021916908373ffffffffffffffffffffffffffffffffffffffff16021790555050565b600081519050620003998162000515565b92915050565b600081519050620003b0816200052f565b92915050565b600081519050620003c78162000549565b92915050565b600060208284031215620003e657620003e562000510565b5b6000620003f68482850162000388565b91505092915050565b600080600080600080600080610100898b03121562000423576200042262000510565b5b6000620004338b828c01620003b6565b9850506020620004468b828c01620003b6565b9750506040620004598b828c0162000388565b96505060606200046c8b828c0162000388565b95505060806200047f8b828c016200039f565b94505060a0620004928b828c01620003b6565b93505060c0620004a58b828c01620003b6565b92505060e0620004b88b828c0162000388565b9150509295985092959890939650565b6000620004d582620004e6565b9050919050565b6000819050919050565b600073ffffffffffffffffffffffffffffffffffffffff82169050919050565b6000819050919050565b600080fd5b6200052081620004c8565b81146200052c57600080fd5b50565b6200053a81620004dc565b81146200054657600080fd5b50565b620005548162000506565b81146200056057600080fd5b50565b615dd480620005736000396000f3fe6080604052600436106102305760003560e01c806383e227741161012e578063b4c0a1d4116100ab578063d05ef7ab1161006f578063d05ef7ab14610809578063df9776cf14610834578063e0ced0e11461085d578063ecab9698146108a5578063f2fde38b146108c157610230565b8063b4c0a1d414610722578063bb1edf821461075f578063c31c9c0714610788578063c38a8afd146107b3578063ca666823146107de57610230565b80638da5cb5b116100f25780638da5cb5b1461063b5780638ea5220f14610666578063947a36fb14610691578063a128c4d2146106bc578063af768ee3146106e557610230565b806383e227741461055657806384f4412f146105815780638772ae3c146105be57806387f7777d146105e75780638abdf5aa1461061057610230565b80634585e33b116101bc5780636e04ff0d116101805780636e04ff0d1461047057806370ed0ada146104ae578063711bc983146104d9578063715018a6146105165780637adbf9731461052d57610230565b80634585e33b146103ae57806350c5f975146103d75780635cdf76f8146104025780635cf54b041461042b5780636a4234eb1461044757610230565b80633f3b3b27116102035780633f3b3b27146102dd5780633fc8cef31461030857806341273657146103335780634357855e1461035c57806345777fee1461038557610230565b806306d2ddbf146102355780631e11004f146102605780631f53ac021461028b57806322a90082146102b4575b600080fd5b34801561024157600080fd5b5061024a6108ea565b60405161025791906151d7565b60405180910390f35b34801561026c57600080fd5b506102756108f0565b60405161028291906151d7565b60405180910390f35b34801561029757600080fd5b506102b260048036038101906102ad91906146f3565b6108f6565b005b3480156102c057600080fd5b506102db60048036038101906102d69190614971565b6109b6565b005b3480156102e957600080fd5b506102f2610a3c565b6040516102ff91906151d7565b60405180910390f35b34801561031457600080fd5b5061031d610a42565b60405161032a9190614e48565b60405180910390f35b34801561033f57600080fd5b5061035a600480360381019061035591906146c6565b610a68565b005b34801561036857600080fd5b50610383600480360381019061037e91906147c3565b610b28565b005b34801561039157600080fd5b506103ac60048036038101906103a79190614971565b610c67565b005b3480156103ba57600080fd5b506103d560048036038101906103d09190614803565b610e2c565b005b3480156103e357600080fd5b506103ec610eb2565b6040516103f991906151d7565b60405180910390f35b34801561040e57600080fd5b5061042960048036038101906104249190614971565b610f4e565b005b610445600480360381019061044091906149cb565b610fd4565b005b34801561045357600080fd5b5061046e600480360381019061046991906146c6565b6116e0565b005b34801561047c57600080fd5b5061049760048036038101906104929190614803565b6117a0565b6040516104a5929190614f6a565b60405180910390f35b3480156104ba57600080fd5b506104c3611806565b6040516104d091906151d7565b60405180910390f35b3480156104e557600080fd5b5061050060048036038101906104fb9190614971565b61180e565b60405161050d91906151d7565b60405180910390f35b34801561052257600080fd5b5061052b611832565b005b34801561053957600080fd5b50610554600480360381019061054f91906146c6565b6118ba565b005b34801561056257600080fd5b5061056b611989565b6040516105789190614fd0565b60405180910390f35b34801561058d57600080fd5b506105a860048036038101906105a39190614971565b6119af565b6040516105b591906151d7565b60405180910390f35b3480156105ca57600080fd5b506105e560048036038101906105e09190614971565b611bc0565b005b3480156105f357600080fd5b5061060e60048036038101906106099190614971565b611c46565b005b34801561061c57600080fd5b50610625611f6d565b60405161063291906151d7565b60405180910390f35b34801561064757600080fd5b50610650611f73565b60405161065d9190614e48565b60405180910390f35b34801561067257600080fd5b5061067b611f9d565b6040516106889190614e63565b60405180910390f35b34801561069d57600080fd5b506106a6611fc3565b6040516106b391906151d7565b60405180910390f35b3480156106c857600080fd5b506106e360048036038101906106de91906146c6565b611fc9565b005b3480156106f157600080fd5b5061070c60048036038101906107079190614971565b6120ca565b60405161071991906151d7565b60405180910390f35b34801561072e57600080fd5b5061074960048036038101906107449190614850565b6120ee565b6040516107569190614f9a565b60405180910390f35b34801561076b57600080fd5b5061078660048036038101906107819190614971565b612220565b005b34801561079457600080fd5b5061079d6122a6565b6040516107aa9190614fb5565b60405180910390f35b3480156107bf57600080fd5b506107c86122cc565b6040516107d591906151d7565b60405180910390f35b3480156107ea57600080fd5b506107f36122d2565b60405161080091906151d7565b60405180910390f35b34801561081557600080fd5b5061081e6122d8565b60405161082b9190614e48565b60405180910390f35b34801561084057600080fd5b5061085b60048036038101906108569190614796565b6122fe565b005b34801561086957600080fd5b50610884600480360381019061087f9190614971565b612384565b60405161089c9c9b9a999897969594939291906151f2565b60405180910390f35b6108bf60048036038101906108ba91906148ac565b61258d565b005b3480156108cd57600080fd5b506108e860048036038101906108e391906146c6565b61298c565b005b60175481565b60165481565b6108fe612a84565b73ffffffffffffffffffffffffffffffffffffffff1661091c611f73565b73ffffffffffffffffffffffffffffffffffffffff1614610972576040517f08c379a000000000000000000000000000000000000000000000000000000000815260040161096990615157565b60405180910390fd5b80600960006101000a81548173ffffffffffffffffffffffffffffffffffffffff021916908373ffffffffffffffffffffffffffffffffffffffff16021790555050565b6109be612a84565b73ffffffffffffffffffffffffffffffffffffffff166109dc611f73565b73ffffffffffffffffffffffffffffffffffffffff1614610a32576040517f08c379a0000000000000000000000000000000000000000000000000000000008152600401610a2990615157565b60405180910390fd5b8060148190555050565b60155481565b601960009054906101000a900473ffffffffffffffffffffffffffffffffffffffff1681565b610a70612a84565b73ffffffffffffffffffffffffffffffffffffffff16610a8e611f73565b73ffffffffffffffffffffffffffffffffffffffff1614610ae4576040517f08c379a0000000000000000000000000000000000000000000000000000000008152600401610adb90615157565b60405180910390fd5b80601860006101000a81548173ffffffffffffffffffffffffffffffffffffffff021916908373ffffffffffffffffffffffffffffffffffffffff16021790555050565b816005600082815260200190815260200160002060009054906101000a900473ffffffffffffffffffffffffffffffffffffffff1673ffffffffffffffffffffffffffffffffffffffff163373ffffffffffffffffffffffffffffffffffffffff1614610bca576040517f08c379a0000000000000000000000000000000000000000000000000000000008152600401610bc190615197565b60405180910390fd5b6005600082815260200190815260200160002060006101000a81549073ffffffffffffffffffffffffffffffffffffffff0219169055807f7cc135e0cebb02c3480ae5d74d377283180a2601f8f644edf7987b009316c63a60405160405180910390a26000606483610c3c919061542c565b9050600060116000868152602001908152602001600020549050610c608183612a8c565b5050505050565b600073ffffffffffffffffffffffffffffffffffffffff16601360009054906101000a900473ffffffffffffffffffffffffffffffffffffffff1673ffffffffffffffffffffffffffffffffffffffff161415610cc357600080fd5b60006016541415610cd357600080fd5b6000610cde826119af565b9050610ce8613195565b73ffffffffffffffffffffffffffffffffffffffff1663095ea7b3601360009054906101000a900473ffffffffffffffffffffffffffffffffffffffff16836040518363ffffffff1660e01b8152600401610d44929190614f41565b602060405180830381600087803b158015610d5e57600080fd5b505af1158015610d72573d6000803e3d6000fd5b505050506040513d601f19601f82011682018060405250810190610d969190614769565b50601260009054906101000a900473ffffffffffffffffffffffffffffffffffffffff1673ffffffffffffffffffffffffffffffffffffffff1663948108f7601654836040518363ffffffff1660e01b8152600401610df69291906152ba565b600060405180830381600087803b158015610e1057600080fd5b505af1158015610e24573d6000803e3d6000fd5b505050505050565b60145460155442610e3d9190615628565b11610e7d576040517f08c379a0000000000000000000000000000000000000000000000000000000008152600401610e7490615137565b60405180910390fd5b600160176000828254610e9091906153d6565b9250508190555042601581905550610ea66131bf565b610eae6136f1565b5050565b600080610ebd613195565b90508073ffffffffffffffffffffffffffffffffffffffff166370a08231306040518263ffffffff1660e01b8152600401610ef89190614e48565b60206040518083038186803b158015610f1057600080fd5b505afa158015610f24573d6000803e3d6000fd5b505050506040513d601f19601f82011682018060405250810190610f48919061499e565b91505090565b610f56612a84565b73ffffffffffffffffffffffffffffffffffffffff16610f74611f73565b73ffffffffffffffffffffffffffffffffffffffff1614610fca576040517f08c379a0000000000000000000000000000000000000000000000000000000008152600401610fc190615157565b60405180910390fd5b8060078190555050565b600073ffffffffffffffffffffffffffffffffffffffff16601360009054906101000a900473ffffffffffffffffffffffffffffffffffffffff1673ffffffffffffffffffffffffffffffffffffffff16141561103057600080fd5b6000601654141561104057600080fd5b6000600b6000848152602001908152602001600020604051806101800160405290816000820154815260200160018201805461107b906157c4565b80601f01602080910402602001604051908101604052809291908181526020018280546110a7906157c4565b80156110f45780601f106110c9576101008083540402835291602001916110f4565b820191906000526020600020905b8154815290600101906020018083116110d757829003601f168201915b505050505081526020016002820160009054906101000a900473ffffffffffffffffffffffffffffffffffffffff1673ffffffffffffffffffffffffffffffffffffffff1673ffffffffffffffffffffffffffffffffffffffff1681526020016003820160009054906101000a900473ffffffffffffffffffffffffffffffffffffffff1673ffffffffffffffffffffffffffffffffffffffff1673ffffffffffffffffffffffffffffffffffffffff1681526020016004820180546111b9906157c4565b80601f01602080910402602001604051908101604052809291908181526020018280546111e5906157c4565b80156112325780601f1061120757610100808354040283529160200191611232565b820191906000526020600020905b81548152906001019060200180831161121557829003601f168201915b5050505050815260200160058201548152602001600682015481526020016007820160009054906101000a900460ff161515151581526020016007820160019054906101000a900460ff161515151581526020016007820160029054906101000a900460ff16151515158152602001600882015481526020016009820160405180608001604052908160008201548152602001600182015481526020016002820154815260200160038201548152505081525050905060011515816101000151151514611334576040517f08c379a000000000000000000000000000000000000000000000000000000000815260040161132b90615057565b60405180910390fd5b600015158160e0015115151461137f576040517f08c379a000000000000000000000000000000000000000000000000000000000815260040161137690615077565b60405180910390fd5b600015158161012001511515146113cb576040517f08c379a00000000000000000000000000000000000000000000000000000000081526004016113c290615117565b60405180910390fd5b346007548260c001516113de91906153d6565b1461141e576040517f08c379a0000000000000000000000000000000000000000000000000000000008152600401611415906150d7565b60405180910390fd5b8061016001516020015142111561146a576040517f08c379a0000000000000000000000000000000000000000000000000000000008152600401611461906151b7565b60405180910390fd5b42816101600151604001818152505060018160e0019015159081151581525050818160800181905250600754346114a19190615628565b8160a0018181516114b291906153d6565b9150818152505033816060019073ffffffffffffffffffffffffffffffffffffffff16908173ffffffffffffffffffffffffffffffffffffffff1681525050611500600c82600001516139fc565b80600b60008360000151815260200190815260200160002060008201518160000155602082015181600101908051906020019061153e9291906143ba565b5060408201518160020160006101000a81548173ffffffffffffffffffffffffffffffffffffffff021916908373ffffffffffffffffffffffffffffffffffffffff16021790555060608201518160030160006101000a81548173ffffffffffffffffffffffffffffffffffffffff021916908373ffffffffffffffffffffffffffffffffffffffff16021790555060808201518160040190805190602001906115e99291906143ba565b5060a0820151816005015560c0820151816006015560e08201518160070160006101000a81548160ff0219169083151502179055506101008201518160070160016101000a81548160ff0219169083151502179055506101208201518160070160026101000a81548160ff021916908315150217905550610140820151816008015561016082015181600901600082015181600001556020820151816001015560408201518160020155606082015181600301555050905050600d816000015190806001815401808255809150506001900390600052602060002001600090919091909150556116da6007546119af565b50505050565b6116e8612a84565b73ffffffffffffffffffffffffffffffffffffffff16611706611f73565b73ffffffffffffffffffffffffffffffffffffffff161461175c576040517f08c379a000000000000000000000000000000000000000000000000000000000815260040161175390615157565b60405180910390fd5b80601960006101000a81548173ffffffffffffffffffffffffffffffffffffffff021916908373ffffffffffffffffffffffffffffffffffffffff16021790555050565b60006060601454601554426117b59190615628565b11915083838080601f016020809104026020016040519081016040528093929190818152602001838380828437600081840152601f19601f8201169050808301925050505050505090509250929050565b600047905090565b600d818154811061181e57600080fd5b906000526020600020016000915090505481565b61183a612a84565b73ffffffffffffffffffffffffffffffffffffffff16611858611f73565b73ffffffffffffffffffffffffffffffffffffffff16146118ae576040517f08c379a00000000000000000000000000000000000000000000000000000000081526004016118a590615157565b60405180910390fd5b6118b86000613ae4565b565b6118c2612a84565b73ffffffffffffffffffffffffffffffffffffffff166118e0611f73565b73ffffffffffffffffffffffffffffffffffffffff1614611936576040517f08c379a000000000000000000000000000000000000000000000000000000000815260040161192d90615157565b60405180910390fd5b80600e60006101000a81548173ffffffffffffffffffffffffffffffffffffffff021916908373ffffffffffffffffffffffffffffffffffffffff16021790555067016345785d8a000060108190555050565b601260009054906101000a900473ffffffffffffffffffffffffffffffffffffffff1681565b6000806064426119bf91906153d6565b90506000600267ffffffffffffffff8111156119de576119dd6159ba565b5b604051908082528060200260200182016040528015611a0c5781602001602082028036833780820191505090505b509050601960009054906101000a900473ffffffffffffffffffffffffffffffffffffffff1681600081518110611a4657611a4561598b565b5b602002602001019073ffffffffffffffffffffffffffffffffffffffff16908173ffffffffffffffffffffffffffffffffffffffff1681525050611a88613195565b81600181518110611a9c57611a9b61598b565b5b602002602001019073ffffffffffffffffffffffffffffffffffffffff16908173ffffffffffffffffffffffffffffffffffffffff168152505060008490506000601860009054906101000a900473ffffffffffffffffffffffffffffffffffffffff1673ffffffffffffffffffffffffffffffffffffffff16637ff36ab58360008630896040518663ffffffff1660e01b8152600401611b409493929190614feb565b6000604051808303818588803b158015611b5957600080fd5b505af1158015611b6d573d6000803e3d6000fd5b50505050506040513d6000823e3d601f19601f82011682018060405250810190611b979190614720565b905080600181518110611bad57611bac61598b565b5b6020026020010151945050505050919050565b611bc8612a84565b73ffffffffffffffffffffffffffffffffffffffff16611be6611f73565b73ffffffffffffffffffffffffffffffffffffffff1614611c3c576040517f08c379a0000000000000000000000000000000000000000000000000000000008152600401611c3390615157565b60405180910390fd5b8060088190555050565b600073ffffffffffffffffffffffffffffffffffffffff16601360009054906101000a900473ffffffffffffffffffffffffffffffffffffffff1673ffffffffffffffffffffffffffffffffffffffff161415611ca257600080fd5b60006016541415611cb257600080fd5b6000600b60008381526020019081526020016000206040518061018001604052908160008201548152602001600182018054611ced906157c4565b80601f0160208091040260200160405190810160405280929190818152602001828054611d19906157c4565b8015611d665780601f10611d3b57610100808354040283529160200191611d66565b820191906000526020600020905b815481529060010190602001808311611d4957829003601f168201915b505050505081526020016002820160009054906101000a900473ffffffffffffffffffffffffffffffffffffffff1673ffffffffffffffffffffffffffffffffffffffff1673ffffffffffffffffffffffffffffffffffffffff1681526020016003820160009054906101000a900473ffffffffffffffffffffffffffffffffffffffff1673ffffffffffffffffffffffffffffffffffffffff1673ffffffffffffffffffffffffffffffffffffffff168152602001600482018054611e2b906157c4565b80601f0160208091040260200160405190810160405280929190818152602001828054611e57906157c4565b8015611ea45780601f10611e7957610100808354040283529160200191611ea4565b820191906000526020600020905b815481529060010190602001808311611e8757829003601f168201915b5050505050815260200160058201548152602001600682015481526020016007820160009054906101000a900460ff161515151581526020016007820160019054906101000a900460ff161515151581526020016007820160029054906101000a900460ff161515151581526020016008820154815260200160098201604051806080016040529081600082015481526020016001820154815260200160028201548152602001600382015481525050815250509050611f688160800151836120ee565b505050565b60075481565b6000600660009054906101000a900473ffffffffffffffffffffffffffffffffffffffff16905090565b600960009054906101000a900473ffffffffffffffffffffffffffffffffffffffff1681565b60145481565b611fd1612a84565b73ffffffffffffffffffffffffffffffffffffffff16611fef611f73565b73ffffffffffffffffffffffffffffffffffffffff1614612045576040517f08c379a000000000000000000000000000000000000000000000000000000000815260040161203c90615157565b60405180910390fd5b80601360006101000a81548173ffffffffffffffffffffffffffffffffffffffff021916908373ffffffffffffffffffffffffffffffffffffffff16021790555080601260006101000a81548173ffffffffffffffffffffffffffffffffffffffff021916908373ffffffffffffffffffffffffffffffffffffffff16021790555050565b600c81815481106120da57600080fd5b906000526020600020016000915090505481565b600080612105600f5430634357855e60e01b613baa565b90506121516040518060400160405280600381526020017f67657400000000000000000000000000000000000000000000000000000000008152508583613bdb9092919063ffffffff16565b6121d06040518060400160405280600481526020017f70617468000000000000000000000000000000000000000000000000000000008152506040518060400160405280600c81526020017f746f74616c526573756c7473000000000000000000000000000000000000000081525083613bdb9092919063ffffffff16565b6121ff600e60009054906101000a900473ffffffffffffffffffffffffffffffffffffffff1682601054613c0e565b91508260116000848152602001908152602001600020819055505092915050565b612228612a84565b73ffffffffffffffffffffffffffffffffffffffff16612246611f73565b73ffffffffffffffffffffffffffffffffffffffff161461229c576040517f08c379a000000000000000000000000000000000000000000000000000000000815260040161229390615157565b60405180910390fd5b8060168190555050565b601860009054906101000a900473ffffffffffffffffffffffffffffffffffffffff1681565b60085481565b600a5481565b601360009054906101000a900473ffffffffffffffffffffffffffffffffffffffff1681565b612306612a84565b73ffffffffffffffffffffffffffffffffffffffff16612324611f73565b73ffffffffffffffffffffffffffffffffffffffff161461237a576040517f08c379a000000000000000000000000000000000000000000000000000000000815260040161237190615157565b60405180910390fd5b80600f8190555050565b600b6020528060005260406000206000915090508060000154908060010180546123ad906157c4565b80601f01602080910402602001604051908101604052809291908181526020018280546123d9906157c4565b80156124265780601f106123fb57610100808354040283529160200191612426565b820191906000526020600020905b81548152906001019060200180831161240957829003601f168201915b5050505050908060020160009054906101000a900473ffffffffffffffffffffffffffffffffffffffff16908060030160009054906101000a900473ffffffffffffffffffffffffffffffffffffffff1690806004018054612487906157c4565b80601f01602080910402602001604051908101604052809291908181526020018280546124b3906157c4565b80156125005780601f106124d557610100808354040283529160200191612500565b820191906000526020600020905b8154815290600101906020018083116124e357829003601f168201915b5050505050908060050154908060060154908060070160009054906101000a900460ff16908060070160019054906101000a900460ff16908060070160029054906101000a900460ff16908060080154908060090160405180608001604052908160008201548152602001600182015481526020016002820154815260200160038201548152505090508c565b600073ffffffffffffffffffffffffffffffffffffffff16601360009054906101000a900473ffffffffffffffffffffffffffffffffffffffff1673ffffffffffffffffffffffffffffffffffffffff1614156125e957600080fd5b600060165414156125f957600080fd5b60075460085461260991906153d6565b34101561264b576040517f08c379a000000000000000000000000000000000000000000000000000000000815260040161264290615097565b60405180910390fd5b600854851015612690576040517f08c379a000000000000000000000000000000000000000000000000000000000815260040161268790615177565b60405180910390fd5b8282106126d2576040517f08c379a00000000000000000000000000000000000000000000000000000000081526004016126c9906150f7565b60405180910390fd5b60006040518060800160405280428152602001848152602001600081526020018581525090506000604051806101800160405280600a5481526020018481526020013373ffffffffffffffffffffffffffffffffffffffff168152602001600073ffffffffffffffffffffffffffffffffffffffff168152602001898152602001600754346127619190615628565b81526020018881526020016000151581526020016001151581526020016000151581526020018781526020018381525090506001600a546127a291906153d6565b600a81905550600c8160000151908060018154018082558091505060019003906000526020600020016000909190919091505580600b6000836000015181526020019081526020016000206000820151816000015560208201518160010190805190602001906128139291906143ba565b5060408201518160020160006101000a81548173ffffffffffffffffffffffffffffffffffffffff021916908373ffffffffffffffffffffffffffffffffffffffff16021790555060608201518160030160006101000a81548173ffffffffffffffffffffffffffffffffffffffff021916908373ffffffffffffffffffffffffffffffffffffffff16021790555060808201518160040190805190602001906128be9291906143ba565b5060a0820151816005015560c0820151816006015560e08201518160070160006101000a81548160ff0219169083151502179055506101008201518160070160016101000a81548160ff0219169083151502179055506101208201518160070160026101000a81548160ff021916908315150217905550610140820151816008015561016082015181600901600082015181600001556020820151816001015560408201518160020155606082015181600301555050905050612982600754610c67565b5050505050505050565b612994612a84565b73ffffffffffffffffffffffffffffffffffffffff166129b2611f73565b73ffffffffffffffffffffffffffffffffffffffff1614612a08576040517f08c379a00000000000000000000000000000000000000000000000000000000081526004016129ff90615157565b60405180910390fd5b600073ffffffffffffffffffffffffffffffffffffffff168173ffffffffffffffffffffffffffffffffffffffff161415612a78576040517f08c379a0000000000000000000000000000000000000000000000000000000008152600401612a6f90615037565b60405180910390fd5b612a8181613ae4565b50565b600033905090565b6000600b60008481526020019081526020016000206040518061018001604052908160008201548152602001600182018054612ac7906157c4565b80601f0160208091040260200160405190810160405280929190818152602001828054612af3906157c4565b8015612b405780601f10612b1557610100808354040283529160200191612b40565b820191906000526020600020905b815481529060010190602001808311612b2357829003601f168201915b505050505081526020016002820160009054906101000a900473ffffffffffffffffffffffffffffffffffffffff1673ffffffffffffffffffffffffffffffffffffffff1673ffffffffffffffffffffffffffffffffffffffff1681526020016003820160009054906101000a900473ffffffffffffffffffffffffffffffffffffffff1673ffffffffffffffffffffffffffffffffffffffff1673ffffffffffffffffffffffffffffffffffffffff168152602001600482018054612c05906157c4565b80601f0160208091040260200160405190810160405280929190818152602001828054612c31906157c4565b8015612c7e5780601f10612c5357610100808354040283529160200191612c7e565b820191906000526020600020905b815481529060010190602001808311612c6157829003601f168201915b5050505050815260200160058201548152602001600682015481526020016007820160009054906101000a900460ff161515151581526020016007820160019054906101000a900460ff161515151581526020016007820160029054906101000a900460ff161515151581526020016008820154815260200160098201604051806080016040529081600082015481526020016001820154815260200160028201548152602001600382015481525050815250509050806101400151821115612f6257600181610120019015159081151581525050600081610100019015159081151581525050806040015173ffffffffffffffffffffffffffffffffffffffff166108fc8260a001519081150290604051600060405180830381858888f19350505050158015612db3573d6000803e3d6000fd5b5080600b6000858152602001908152602001600020600082015181600001556020820151816001019080519060200190612dee9291906143ba565b5060408201518160020160006101000a81548173ffffffffffffffffffffffffffffffffffffffff021916908373ffffffffffffffffffffffffffffffffffffffff16021790555060608201518160030160006101000a81548173ffffffffffffffffffffffffffffffffffffffff021916908373ffffffffffffffffffffffffffffffffffffffff1602179055506080820151816004019080519060200190612e999291906143ba565b5060a0820151816005015560c0820151816006015560e08201518160070160006101000a81548160ff0219169083151502179055506101008201518160070160016101000a81548160ff0219169083151502179055506101208201518160070160026101000a81548160ff021916908315150217905550610140820151816008015561016082015181600901600082015181600001556020820151816001015560408201518160020155606082015181600301555050905050612f5d600d846139fc565b613190565b80610160015160600151421061318f57600181610120019015159081151581525050600081610100019015159081151581525050806060015173ffffffffffffffffffffffffffffffffffffffff166108fc8260a001519081150290604051600060405180830381858888f19350505050158015612fe4573d6000803e3d6000fd5b5080600b600085815260200190815260200160002060008201518160000155602082015181600101908051906020019061301f9291906143ba565b5060408201518160020160006101000a81548173ffffffffffffffffffffffffffffffffffffffff021916908373ffffffffffffffffffffffffffffffffffffffff16021790555060608201518160030160006101000a81548173ffffffffffffffffffffffffffffffffffffffff021916908373ffffffffffffffffffffffffffffffffffffffff16021790555060808201518160040190805190602001906130ca9291906143ba565b5060a0820151816005015560c0820151816006015560e08201518160070160006101000a81548160ff0219169083151502179055506101008201518160070160016101000a81548160ff0219169083151502179055506101208201518160070160026101000a81548160ff02191690831515021790555061014082015181600801556101608201518160090160008201518160000155602082015181600101556040820151816002015560608201518160030155505090505061318e600d846139fc565b5b5b505050565b6000600260009054906101000a900473ffffffffffffffffffffffffffffffffffffffff16905090565b60005b600c805490508110156136ee576000600b6000600c84815481106131e9576131e861598b565b5b906000526020600020015481526020019081526020016000206040518061018001604052908160008201548152602001600182018054613228906157c4565b80601f0160208091040260200160405190810160405280929190818152602001828054613254906157c4565b80156132a15780601f10613276576101008083540402835291602001916132a1565b820191906000526020600020905b81548152906001019060200180831161328457829003601f168201915b505050505081526020016002820160009054906101000a900473ffffffffffffffffffffffffffffffffffffffff1673ffffffffffffffffffffffffffffffffffffffff1673ffffffffffffffffffffffffffffffffffffffff1681526020016003820160009054906101000a900473ffffffffffffffffffffffffffffffffffffffff1673ffffffffffffffffffffffffffffffffffffffff1673ffffffffffffffffffffffffffffffffffffffff168152602001600482018054613366906157c4565b80601f0160208091040260200160405190810160405280929190818152602001828054613392906157c4565b80156133df5780601f106133b4576101008083540402835291602001916133df565b820191906000526020600020905b8154815290600101906020018083116133c257829003601f168201915b5050505050815260200160058201548152602001600682015481526020016007820160009054906101000a900460ff161515151581526020016007820160019054906101000a900460ff161515151581526020016007820160029054906101000a900460ff1615151515815260200160088201548152602001600982016040518060800160405290816000820154815260200160018201548152602001600282015481526020016003820154815250508152505090508060e001511580156134b05750428161016001516020015111155b156136da5760008161010001901515908115158152505060018161012001901515908115158152505080600b6000836000015181526020019081526020016000206000820151816000015560208201518160010190805190602001906135179291906143ba565b5060408201518160020160006101000a81548173ffffffffffffffffffffffffffffffffffffffff021916908373ffffffffffffffffffffffffffffffffffffffff16021790555060608201518160030160006101000a81548173ffffffffffffffffffffffffffffffffffffffff021916908373ffffffffffffffffffffffffffffffffffffffff16021790555060808201518160040190805190602001906135c29291906143ba565b5060a0820151816005015560c0820151816006015560e08201518160070160006101000a81548160ff0219169083151502179055506101008201518160070160016101000a81548160ff0219169083151502179055506101208201518160070160026101000a81548160ff02191690831515021790555061014082015181600801556101608201518160090160008201518160000155602082015181600101556040820151816002015560608201518160030155505090505061368a600c82600001516139fc565b806040015173ffffffffffffffffffffffffffffffffffffffff166108fc8260a001519081150290604051600060405180830381858888f193505050501580156136d8573d6000803e3d6000fd5b505b5080806136e690615827565b9150506131c2565b50565b60005b600d805490508110156139f9576000600b6000600d848154811061371b5761371a61598b565b5b90600052602060002001548152602001908152602001600020604051806101800160405290816000820154815260200160018201805461375a906157c4565b80601f0160208091040260200160405190810160405280929190818152602001828054613786906157c4565b80156137d35780601f106137a8576101008083540402835291602001916137d3565b820191906000526020600020905b8154815290600101906020018083116137b657829003601f168201915b505050505081526020016002820160009054906101000a900473ffffffffffffffffffffffffffffffffffffffff1673ffffffffffffffffffffffffffffffffffffffff1673ffffffffffffffffffffffffffffffffffffffff1681526020016003820160009054906101000a900473ffffffffffffffffffffffffffffffffffffffff1673ffffffffffffffffffffffffffffffffffffffff1673ffffffffffffffffffffffffffffffffffffffff168152602001600482018054613898906157c4565b80601f01602080910402602001604051908101604052809291908181526020018280546138c4906157c4565b80156139115780601f106138e657610100808354040283529160200191613911565b820191906000526020600020905b8154815290600101906020018083116138f457829003601f168201915b5050505050815260200160058201548152602001600682015481526020016007820160009054906101000a900460ff161515151581526020016007820160019054906101000a900460ff161515151581526020016007820160029054906101000a900460ff1615151515815260200160088201548152602001600982016040518060800160405290816000820154815260200160018201548152602001600282015481526020016003820154815250508152505090504281610160015160600151116139e5576139e48160000151611c46565b5b5080806139f190615827565b9150506136f4565b50565b60005b8280549050811015613adf5781838281548110613a1f57613a1e61598b565b5b90600052602060002001541415613acc57828181548110613a4357613a4261598b565b5b90600052602060002001600090558260018480549050613a639190615628565b81548110613a7457613a7361598b565b5b9060005260206000200154838281548110613a9257613a9161598b565b5b906000526020600020018190555082805480613ab157613ab061595c565b5b60019003818190600052602060002001600090559055613adf565b8080613ad790615827565b9150506139ff565b505050565b6000600660009054906101000a900473ffffffffffffffffffffffffffffffffffffffff16905081600660006101000a81548173ffffffffffffffffffffffffffffffffffffffff021916908373ffffffffffffffffffffffffffffffffffffffff1602179055508173ffffffffffffffffffffffffffffffffffffffff168173ffffffffffffffffffffffffffffffffffffffff167f8be0079c531659141344cd1fd0a4f28419497f9722a3daafe3b4186f6b6457e060405160405180910390a35050565b613bb2614440565b613bba614440565b613bd185858584613cda909392919063ffffffff16565b9150509392505050565b613bf2828460800151613d8a90919063ffffffff16565b613c09818460800151613d8a90919063ffffffff16565b505050565b6000806004549050600181613c2391906153d6565b6004819055506000634042994660e01b60008087600001513089604001518760018c6080015160000151604051602401613c64989796959493929190614e7e565b604051602081830303815290604052907bffffffffffffffffffffffffffffffffffffffffffffffffffffffff19166020820180517bffffffffffffffffffffffffffffffffffffffffffffffffffffffff83818316178352505050509050613ccf86838684613daf565b925050509392505050565b613ce2614440565b613cf28560800151610100613f53565b508385600001818152505082856020019073ffffffffffffffffffffffffffffffffffffffff16908173ffffffffffffffffffffffffffffffffffffffff16815250508185604001907bffffffffffffffffffffffffffffffffffffffffffffffffffffffff191690817bffffffffffffffffffffffffffffffffffffffffffffffffffffffff191681525050849050949350505050565b613d978260038351613fbd565b613daa818361414290919063ffffffff16565b505050565b60003084604051602001613dc4929190614e1c565b604051602081830303815290604052805190602001209050846005600083815260200190815260200160002060006101000a81548173ffffffffffffffffffffffffffffffffffffffff021916908373ffffffffffffffffffffffffffffffffffffffff160217905550807fb5e6e01e79f91267dc17b4e6314d5d4d03593d2ceee0fbb452b750bd70ea5af960405160405180910390a2600260009054906101000a900473ffffffffffffffffffffffffffffffffffffffff1673ffffffffffffffffffffffffffffffffffffffff16634000aea08685856040518463ffffffff1660e01b8152600401613eba93929190614f03565b602060405180830381600087803b158015613ed457600080fd5b505af1158015613ee8573d6000803e3d6000fd5b505050506040513d601f19601f82011682018060405250810190613f0c9190614769565b613f4b576040517f08c379a0000000000000000000000000000000000000000000000000000000008152600401613f42906150b7565b60405180910390fd5b949350505050565b613f5b6144ad565b6000602083613f6a919061589e565b14613f9657602082613f7c919061589e565b6020613f889190615628565b82613f9391906153d6565b91505b81836020018181525050604051808452600081528281016020016040525082905092915050565b60178167ffffffffffffffff1611613ff457613fee8160058460ff16901b60ff16178461416490919063ffffffff16565b5061413d565b60ff8167ffffffffffffffff161161404a57614023601860058460ff16901b178461416490919063ffffffff16565b506140448167ffffffffffffffff166001856141849092919063ffffffff16565b5061413c565b61ffff8167ffffffffffffffff16116140a15761407a601960058460ff16901b178461416490919063ffffffff16565b5061409b8167ffffffffffffffff166002856141849092919063ffffffff16565b5061413b565b63ffffffff8167ffffffffffffffff16116140fa576140d3601a60058460ff16901b178461416490919063ffffffff16565b506140f48167ffffffffffffffff166004856141849092919063ffffffff16565b5061413a565b614117601b60058460ff16901b178461416490919063ffffffff16565b506141388167ffffffffffffffff166008856141849092919063ffffffff16565b505b5b5b5b505050565b61414a6144ad565b61415c838460000151518485516141a6565b905092915050565b61416c6144ad565b61417c8384600001515184614295565b905092915050565b61418c6144ad565b61419d8485600001515185856142ec565b90509392505050565b6141ae6144ad565b82518211156141bc57600080fd5b846020015182856141cd91906153d6565b1115614202576142018560026141f2886020015188876141ed91906153d6565b61437a565b6141fc91906155ce565b614396565b5b6000808651805187602083010193508088870111156142215787860182525b60208701925050505b60208410614268578051825260208261424391906153d6565b915060208161425291906153d6565b90506020846142619190615628565b935061422a565b60006001856020036101000a03905080198251168184511681811785525050508692505050949350505050565b61429d6144ad565b836020015183106142c3576142c284600286602001516142bd91906155ce565b614396565b5b83518051602085830101848153818614156142df576001820183525b5050508390509392505050565b6142f46144ad565b8460200151848361430591906153d6565b111561432d5761432c856002868561431d91906153d6565b61432791906155ce565b614396565b5b600060018361010061433f91906154b0565b6143499190615628565b9050855183868201018583198251161781528151858801111561436c5784870182525b505085915050949350505050565b60008183111561438c57829050614390565b8190505b92915050565b6000826000015190506143a98383613f53565b506143b48382614142565b50505050565b8280546143c6906157c4565b90600052602060002090601f0160209004810192826143e8576000855561442f565b82601f1061440157805160ff191683800117855561442f565b8280016001018555821561442f579182015b8281111561442e578251825591602001919060010190614413565b5b50905061443c91906144c7565b5090565b6040518060a0016040528060008019168152602001600073ffffffffffffffffffffffffffffffffffffffff16815260200160007bffffffffffffffffffffffffffffffffffffffffffffffffffffffff19168152602001600081526020016144a76144ad565b81525090565b604051806040016040528060608152602001600081525090565b5b808211156144e05760008160009055506001016144c8565b5090565b60006144f76144f284615308565b6152e3565b9050808382526020820190508285602086028201111561451a576145196159f3565b5b60005b8581101561454a578161453088826146b1565b84526020840193506020830192505060018101905061451d565b5050509392505050565b600061456761456284615334565b6152e3565b905082815260208101848484011115614583576145826159f8565b5b61458e848285615782565b509392505050565b6000813590506145a581615d2b565b92915050565b6000813590506145ba81615d42565b92915050565b600082601f8301126145d5576145d46159ee565b5b81516145e58482602086016144e4565b91505092915050565b6000815190506145fd81615d59565b92915050565b60008135905061461281615d70565b92915050565b60008083601f84011261462e5761462d6159ee565b5b8235905067ffffffffffffffff81111561464b5761464a6159e9565b5b602083019150836001820283011115614667576146666159f3565b5b9250929050565b600082601f830112614683576146826159ee565b5b8135614693848260208601614554565b91505092915050565b6000813590506146ab81615d87565b92915050565b6000815190506146c081615d87565b92915050565b6000602082840312156146dc576146db615a02565b5b60006146ea84828501614596565b91505092915050565b60006020828403121561470957614708615a02565b5b6000614717848285016145ab565b91505092915050565b60006020828403121561473657614735615a02565b5b600082015167ffffffffffffffff811115614754576147536159fd565b5b614760848285016145c0565b91505092915050565b60006020828403121561477f5761477e615a02565b5b600061478d848285016145ee565b91505092915050565b6000602082840312156147ac576147ab615a02565b5b60006147ba84828501614603565b91505092915050565b600080604083850312156147da576147d9615a02565b5b60006147e885828601614603565b92505060206147f98582860161469c565b9150509250929050565b6000806020838503121561481a57614819615a02565b5b600083013567ffffffffffffffff811115614838576148376159fd565b5b61484485828601614618565b92509250509250929050565b6000806040838503121561486757614866615a02565b5b600083013567ffffffffffffffff811115614885576148846159fd565b5b6148918582860161466e565b92505060206148a28582860161469c565b9150509250929050565b60008060008060008060c087890312156148c9576148c8615a02565b5b600087013567ffffffffffffffff8111156148e7576148e66159fd565b5b6148f389828a0161466e565b965050602061490489828a0161469c565b955050604061491589828a0161469c565b945050606061492689828a0161469c565b935050608061493789828a0161469c565b92505060a087013567ffffffffffffffff811115614958576149576159fd565b5b61496489828a0161466e565b9150509295509295509295565b60006020828403121561498757614986615a02565b5b60006149958482850161469c565b91505092915050565b6000602082840312156149b4576149b3615a02565b5b60006149c2848285016146b1565b91505092915050565b600080604083850312156149e2576149e1615a02565b5b60006149f08582860161469c565b925050602083013567ffffffffffffffff811115614a1157614a106159fd565b5b614a1d8582860161466e565b9150509250929050565b6000614a338383614a4e565b60208301905092915050565b614a488161566e565b82525050565b614a578161565c565b82525050565b614a668161565c565b82525050565b6000614a7782615375565b614a8181856153a3565b9350614a8c83615365565b8060005b83811015614abd578151614aa48882614a27565b9750614aaf83615396565b925050600181019050614a90565b5085935050505092915050565b614ad381615680565b82525050565b614ae28161568c565b82525050565b614af181615696565b82525050565b6000614b0282615380565b614b0c81856153b4565b9350614b1c818560208601615791565b614b2581615a07565b840191505092915050565b614b41614b3c82615704565b615870565b82525050565b614b5081615716565b82525050565b614b5f81615728565b82525050565b614b6e8161573a565b82525050565b6000614b7f8261538b565b614b8981856153c5565b9350614b99818560208601615791565b614ba281615a07565b840191505092915050565b6000614bba6026836153c5565b9150614bc582615a32565b604082019050919050565b6000614bdd600e836153c5565b9150614be882615a81565b602082019050919050565b6000614c006014836153c5565b9150614c0b82615aaa565b602082019050919050565b6000614c236019836153c5565b9150614c2e82615ad3565b602082019050919050565b6000614c466023836153c5565b9150614c5182615afc565b604082019050919050565b6000614c69601a836153c5565b9150614c7482615b4b565b602082019050919050565b6000614c8c6023836153c5565b9150614c9782615b74565b604082019050919050565b6000614caf6013836153c5565b9150614cba82615bc3565b602082019050919050565b6000614cd26015836153c5565b9150614cdd82615bec565b602082019050919050565b6000614cf56020836153c5565b9150614d0082615c15565b602082019050919050565b6000614d18602a836153c5565b9150614d2382615c3e565b604082019050919050565b6000614d3b6028836153c5565b9150614d4682615c8d565b604082019050919050565b6000614d5e6023836153c5565b9150614d6982615cdc565b604082019050919050565b608082016000820151614d8a6000850182614dc9565b506020820151614d9d6020850182614dc9565b506040820151614db06040850182614dc9565b506060820151614dc36060850182614dc9565b50505050565b614dd2816156e2565b82525050565b614de1816156e2565b82525050565b614df8614df3826156e2565b615894565b82525050565b614e0781615770565b82525050565b614e16816156ec565b82525050565b6000614e288285614b30565b601482019150614e388284614de7565b6020820191508190509392505050565b6000602082019050614e5d6000830184614a5d565b92915050565b6000602082019050614e786000830184614a3f565b92915050565b600061010082019050614e94600083018b614a5d565b614ea1602083018a614dd8565b614eae6040830189614ad9565b614ebb6060830188614a5d565b614ec86080830187614ae8565b614ed560a0830186614dd8565b614ee260c0830185614dd8565b81810360e0830152614ef48184614af7565b90509998505050505050505050565b6000606082019050614f186000830186614a5d565b614f256020830185614dd8565b8181036040830152614f378184614af7565b9050949350505050565b6000604082019050614f566000830185614a5d565b614f636020830184614dfe565b9392505050565b6000604082019050614f7f6000830185614aca565b8181036020830152614f918184614af7565b90509392505050565b6000602082019050614faf6000830184614ad9565b92915050565b6000602082019050614fca6000830184614b47565b92915050565b6000602082019050614fe56000830184614b56565b92915050565b60006080820190506150006000830187614b65565b81810360208301526150128186614a6c565b90506150216040830185614a5d565b61502e6060830184614dd8565b95945050505050565b6000602082019050818103600083015261505081614bad565b9050919050565b6000602082019050818103600083015261507081614bd0565b9050919050565b6000602082019050818103600083015261509081614bf3565b9050919050565b600060208201905081810360008301526150b081614c16565b9050919050565b600060208201905081810360008301526150d081614c39565b9050919050565b600060208201905081810360008301526150f081614c5c565b9050919050565b6000602082019050818103600083015261511081614c7f565b9050919050565b6000602082019050818103600083015261513081614ca2565b9050919050565b6000602082019050818103600083015261515081614cc5565b9050919050565b6000602082019050818103600083015261517081614ce8565b9050919050565b6000602082019050818103600083015261519081614d0b565b9050919050565b600060208201905081810360008301526151b081614d2e565b9050919050565b600060208201905081810360008301526151d081614d51565b9050919050565b60006020820190506151ec6000830184614dd8565b92915050565b60006101e082019050615208600083018f614dd8565b818103602083015261521a818e614b74565b9050615229604083018d614a3f565b615236606083018c614a3f565b8181036080830152615248818b614b74565b905061525760a083018a614dd8565b61526460c0830189614dd8565b61527160e0830188614aca565b61527f610100830187614aca565b61528d610120830186614aca565b61529b610140830185614dd8565b6152a9610160830184614d74565b9d9c50505050505050505050505050565b60006040820190506152cf6000830185614dd8565b6152dc6020830184614e0d565b9392505050565b60006152ed6152fe565b90506152f982826157f6565b919050565b6000604051905090565b600067ffffffffffffffff821115615323576153226159ba565b5b602082029050602081019050919050565b600067ffffffffffffffff82111561534f5761534e6159ba565b5b61535882615a07565b9050602081019050919050565b6000819050602082019050919050565b600081519050919050565b600081519050919050565b600081519050919050565b6000602082019050919050565b600082825260208201905092915050565b600082825260208201905092915050565b600082825260208201905092915050565b60006153e1826156e2565b91506153ec836156e2565b9250827fffffffffffffffffffffffffffffffffffffffffffffffffffffffffffffffff03821115615421576154206158cf565b5b828201905092915050565b6000615437826156e2565b9150615442836156e2565b925082615452576154516158fe565b5b828204905092915050565b6000808291508390505b60018511156154a757808604811115615483576154826158cf565b5b60018516156154925780820291505b80810290506154a085615a25565b9450615467565b94509492505050565b60006154bb826156e2565b91506154c6836156e2565b92506154f37fffffffffffffffffffffffffffffffffffffffffffffffffffffffffffffffff84846154fb565b905092915050565b60008261550b57600190506155c7565b8161551957600090506155c7565b816001811461552f576002811461553957615568565b60019150506155c7565b60ff84111561554b5761554a6158cf565b5b8360020a915084821115615562576155616158cf565b5b506155c7565b5060208310610133831016604e8410600b841016171561559d5782820a905083811115615598576155976158cf565b5b6155c7565b6155aa848484600161545d565b925090508184048111156155c1576155c06158cf565b5b81810290505b9392505050565b60006155d9826156e2565b91506155e4836156e2565b9250817fffffffffffffffffffffffffffffffffffffffffffffffffffffffffffffffff048311821515161561561d5761561c6158cf565b5b828202905092915050565b6000615633826156e2565b915061563e836156e2565b925082821015615651576156506158cf565b5b828203905092915050565b6000615667826156c2565b9050919050565b6000615679826156c2565b9050919050565b60008115159050919050565b6000819050919050565b60007fffffffff0000000000000000000000000000000000000000000000000000000082169050919050565b600073ffffffffffffffffffffffffffffffffffffffff82169050919050565b6000819050919050565b60006bffffffffffffffffffffffff82169050919050565b600061570f8261574c565b9050919050565b60006157218261574c565b9050919050565b60006157338261574c565b9050919050565b6000615745826156e2565b9050919050565b60006157578261575e565b9050919050565b6000615769826156c2565b9050919050565b600061577b826156ec565b9050919050565b82818337600083830152505050565b60005b838110156157af578082015181840152602081019050615794565b838111156157be576000848401525b50505050565b600060028204905060018216806157dc57607f821691505b602082108114156157f0576157ef61592d565b5b50919050565b6157ff82615a07565b810181811067ffffffffffffffff8211171561581e5761581d6159ba565b5b80604052505050565b6000615832826156e2565b91507fffffffffffffffffffffffffffffffffffffffffffffffffffffffffffffffff821415615865576158646158cf565b5b600182019050919050565b600061587b82615882565b9050919050565b600061588d82615a18565b9050919050565b6000819050919050565b60006158a9826156e2565b91506158b4836156e2565b9250826158c4576158c36158fe565b5b828206905092915050565b7f4e487b7100000000000000000000000000000000000000000000000000000000600052601160045260246000fd5b7f4e487b7100000000000000000000000000000000000000000000000000000000600052601260045260246000fd5b7f4e487b7100000000000000000000000000000000000000000000000000000000600052602260045260246000fd5b7f4e487b7100000000000000000000000000000000000000000000000000000000600052603160045260246000fd5b7f4e487b7100000000000000000000000000000000000000000000000000000000600052603260045260246000fd5b7f4e487b7100000000000000000000000000000000000000000000000000000000600052604160045260246000fd5b600080fd5b600080fd5b600080fd5b600080fd5b600080fd5b600080fd5b6000601f19601f8301169050919050565b60008160601b9050919050565b60008160011c9050919050565b7f4f776e61626c653a206e6577206f776e657220697320746865207a65726f206160008201527f6464726573730000000000000000000000000000000000000000000000000000602082015250565b7f626574206e6f7420616374697665000000000000000000000000000000000000600082015250565b7f62657420616c7265616479206163636570746564000000000000000000000000600082015250565b7f6d696e696d756d20626574206e6f742073617469736669656400000000000000600082015250565b7f756e61626c6520746f207472616e73666572416e6443616c6c20746f206f726160008201527f636c650000000000000000000000000000000000000000000000000000000000602082015250565b7f6163636570746572206d6f6e6579206e6f7420636f7272656374000000000000600082015250565b7f6163636570742064617465206d757374206265206265666f726520656e64206460008201527f6174650000000000000000000000000000000000000000000000000000000000602082015250565b7f62657420686173206265656e20636c6f73656400000000000000000000000000600082015250565b7f54696d6520696e74657276616c206e6f74206d65740000000000000000000000600082015250565b7f4f776e61626c653a2063616c6c6572206973206e6f7420746865206f776e6572600082015250565b7f6d696e696d756d20626574206e6f742073617469736669656420666f7220616360008201527f636570742076616c756500000000000000000000000000000000000000000000602082015250565b7f536f75726365206d75737420626520746865206f7261636c65206f662074686560008201527f2072657175657374000000000000000000000000000000000000000000000000602082015250565b7f626574206973206e6f206c6f6e676572206f70656e20666f722061636365707460008201527f696e670000000000000000000000000000000000000000000000000000000000602082015250565b615d348161565c565b8114615d3f57600080fd5b50565b615d4b8161566e565b8114615d5657600080fd5b50565b615d6281615680565b8114615d6d57600080fd5b50565b615d798161568c565b8114615d8457600080fd5b50565b615d90816156e2565b8114615d9b57600080fd5b5056fea2646970667358221220590f9b05229d446c18b3c4150b2e77bff5db023bc55595cd7c4c7e9130c9f6b264736f6c63430008070033",
  "devdoc": {
    "kind": "dev",
    "methods": {
      "checkUpkeep(bytes)": {
        "details": "To ensure that it is never called, you may want to add the cannotExecute modifier from KeeperBase to your implementation of this method.",
        "params": {
          "checkData": "specified in the upkeep registration so it is always the same for a registered upkeep. This can easily be broken down into specific arguments using `abi.decode`, so multiple upkeeps can be registered on the same contract and easily differentiated by the contract."
        },
        "returns": {
          "performData": "bytes that the keeper should call performUpkeep with, if upkeep is needed. If you would like to encode data to decode later, try `abi.encode`.",
          "upkeepNeeded": "boolean to indicate whether the keeper should call performUpkeep or not."
        }
      },
      "owner()": {
        "details": "Returns the address of the current owner."
      },
      "performUpkeep(bytes)": {
        "details": "The input to this method should not be trusted, and the caller of the method should not even be restricted to any single registry. Anyone should be able call it, and the input should be validated, there is no guarantee that the data passed in is the performData returned from checkUpkeep. This could happen due to malicious keepers, racing keepers, or simply a state change while the performUpkeep transaction is waiting for confirmation. Always validate the data passed in.",
        "params": {
          "performData": "is the data which was passed back from the checkData simulation. If it is encoded, it can easily be decoded into other types by calling `abi.decode`. This data should not be trusted, and should be validated against the contract's current state."
        }
      },
      "renounceOwnership()": {
        "details": "Leaves the contract without owner. It will not be possible to call `onlyOwner` functions anymore. Can only be called by the current owner. NOTE: Renouncing ownership will leave the contract without an owner, thereby removing any functionality that is only available to the owner."
      },
      "transferOwnership(address)": {
        "details": "Transfers ownership of the contract to a new account (`newOwner`). Can only be called by the current owner."
      }
    },
    "version": 1
  },
  "userdoc": {
    "kind": "user",
    "methods": {
      "checkUpkeep(bytes)": {
        "notice": "method that is simulated by the keepers to see if any work actually needs to be performed. This method does does not actually need to be executable, and since it is only ever simulated it can consume lots of gas."
      },
      "performUpkeep(bytes)": {
        "notice": "method that is actually executed by the keepers, via the registry. The data returned by the checkUpkeep simulation will be passed into this method to actually be executed."
      }
    },
    "version": 1
  },
  "storageLayout": {
    "storage": [
      {
        "astId": 319,
        "contract": "contracts/BetGame.sol:BetGame",
        "label": "s_ens",
        "offset": 0,
        "slot": "0",
        "type": "t_contract(ENSInterface)1013"
      },
      {
        "astId": 321,
        "contract": "contracts/BetGame.sol:BetGame",
        "label": "s_ensNode",
        "offset": 0,
        "slot": "1",
        "type": "t_bytes32"
      },
      {
        "astId": 324,
        "contract": "contracts/BetGame.sol:BetGame",
        "label": "s_link",
        "offset": 0,
        "slot": "2",
        "type": "t_contract(LinkTokenInterface)1127"
      },
      {
        "astId": 327,
        "contract": "contracts/BetGame.sol:BetGame",
        "label": "s_oracle",
        "offset": 0,
        "slot": "3",
        "type": "t_contract(OperatorInterface)1207"
      },
      {
        "astId": 330,
        "contract": "contracts/BetGame.sol:BetGame",
        "label": "s_requestCount",
        "offset": 0,
        "slot": "4",
        "type": "t_uint256"
      },
      {
        "astId": 334,
        "contract": "contracts/BetGame.sol:BetGame",
        "label": "s_pendingRequests",
        "offset": 0,
        "slot": "5",
        "type": "t_mapping(t_bytes32,t_address)"
      },
      {
        "astId": 2241,
        "contract": "contracts/BetGame.sol:BetGame",
        "label": "_owner",
        "offset": 0,
        "slot": "6",
        "type": "t_address"
      },
      {
        "astId": 2854,
        "contract": "contracts/BetGame.sol:BetGame",
        "label": "serviceFee",
        "offset": 0,
        "slot": "7",
        "type": "t_uint256"
      },
      {
        "astId": 2856,
        "contract": "contracts/BetGame.sol:BetGame",
        "label": "minimumBet",
        "offset": 0,
        "slot": "8",
        "type": "t_uint256"
      },
      {
        "astId": 2858,
        "contract": "contracts/BetGame.sol:BetGame",
        "label": "devWallet",
        "offset": 0,
        "slot": "9",
        "type": "t_address_payable"
      },
      {
        "astId": 2895,
        "contract": "contracts/BetGame.sol:BetGame",
        "label": "globalId",
        "offset": 0,
        "slot": "10",
        "type": "t_uint256"
      },
      {
        "astId": 2900,
        "contract": "contracts/BetGame.sol:BetGame",
        "label": "allBets",
        "offset": 0,
        "slot": "11",
        "type": "t_mapping(t_uint256,t_struct(Bet)2893_storage)"
      },
      {
        "astId": 2903,
        "contract": "contracts/BetGame.sol:BetGame",
        "label": "activeBets",
        "offset": 0,
        "slot": "12",
        "type": "t_array(t_uint256)dyn_storage"
      },
      {
        "astId": 2906,
        "contract": "contracts/BetGame.sol:BetGame",
        "label": "acceptedBets",
        "offset": 0,
        "slot": "13",
        "type": "t_array(t_uint256)dyn_storage"
      },
      {
        "astId": 2908,
        "contract": "contracts/BetGame.sol:BetGame",
        "label": "oracle",
        "offset": 0,
        "slot": "14",
        "type": "t_address"
      },
      {
        "astId": 2910,
        "contract": "contracts/BetGame.sol:BetGame",
        "label": "oracleJobId",
        "offset": 0,
        "slot": "15",
        "type": "t_bytes32"
      },
      {
        "astId": 2912,
        "contract": "contracts/BetGame.sol:BetGame",
        "label": "fee",
        "offset": 0,
        "slot": "16",
        "type": "t_uint256"
      },
      {
        "astId": 2916,
        "contract": "contracts/BetGame.sol:BetGame",
        "label": "requestToBet",
        "offset": 0,
        "slot": "17",
        "type": "t_mapping(t_bytes32,t_uint256)"
      },
      {
        "astId": 2919,
        "contract": "contracts/BetGame.sol:BetGame",
        "label": "keeperRegistry",
        "offset": 0,
        "slot": "18",
        "type": "t_contract(KeeperRegistryInterface)3978"
      },
      {
        "astId": 2921,
        "contract": "contracts/BetGame.sol:BetGame",
        "label": "keeperRegistryAddress",
        "offset": 0,
        "slot": "19",
        "type": "t_address"
      },
      {
        "astId": 2923,
        "contract": "contracts/BetGame.sol:BetGame",
        "label": "interval",
        "offset": 0,
        "slot": "20",
        "type": "t_uint256"
      },
      {
        "astId": 2925,
        "contract": "contracts/BetGame.sol:BetGame",
        "label": "lastTimeStamp",
        "offset": 0,
        "slot": "21",
        "type": "t_uint256"
      },
      {
        "astId": 2927,
        "contract": "contracts/BetGame.sol:BetGame",
        "label": "keeperJobId",
        "offset": 0,
        "slot": "22",
        "type": "t_uint256"
      },
      {
        "astId": 2930,
        "contract": "contracts/BetGame.sol:BetGame",
        "label": "upkeepcount",
        "offset": 0,
        "slot": "23",
        "type": "t_uint256"
      },
      {
        "astId": 2933,
        "contract": "contracts/BetGame.sol:BetGame",
        "label": "swapRouter",
        "offset": 0,
        "slot": "24",
        "type": "t_contract(IUniswapV2Router02)2834"
      },
      {
        "astId": 2935,
        "contract": "contracts/BetGame.sol:BetGame",
        "label": "weth",
        "offset": 0,
        "slot": "25",
        "type": "t_address"
      }
    ],
    "types": {
      "t_address": {
        "encoding": "inplace",
        "label": "address",
        "numberOfBytes": "20"
      },
      "t_address_payable": {
        "encoding": "inplace",
        "label": "address payable",
        "numberOfBytes": "20"
      },
      "t_array(t_uint256)dyn_storage": {
        "base": "t_uint256",
        "encoding": "dynamic_array",
        "label": "uint256[]",
        "numberOfBytes": "32"
      },
      "t_bool": {
        "encoding": "inplace",
        "label": "bool",
        "numberOfBytes": "1"
      },
      "t_bytes32": {
        "encoding": "inplace",
        "label": "bytes32",
        "numberOfBytes": "32"
      },
      "t_contract(ENSInterface)1013": {
        "encoding": "inplace",
        "label": "contract ENSInterface",
        "numberOfBytes": "20"
      },
      "t_contract(IUniswapV2Router02)2834": {
        "encoding": "inplace",
        "label": "contract IUniswapV2Router02",
        "numberOfBytes": "20"
      },
      "t_contract(KeeperRegistryInterface)3978": {
        "encoding": "inplace",
        "label": "contract KeeperRegistryInterface",
        "numberOfBytes": "20"
      },
      "t_contract(LinkTokenInterface)1127": {
        "encoding": "inplace",
        "label": "contract LinkTokenInterface",
        "numberOfBytes": "20"
      },
      "t_contract(OperatorInterface)1207": {
        "encoding": "inplace",
        "label": "contract OperatorInterface",
        "numberOfBytes": "20"
      },
      "t_mapping(t_bytes32,t_address)": {
        "encoding": "mapping",
        "key": "t_bytes32",
        "label": "mapping(bytes32 => address)",
        "numberOfBytes": "32",
        "value": "t_address"
      },
      "t_mapping(t_bytes32,t_uint256)": {
        "encoding": "mapping",
        "key": "t_bytes32",
        "label": "mapping(bytes32 => uint256)",
        "numberOfBytes": "32",
        "value": "t_uint256"
      },
      "t_mapping(t_uint256,t_struct(Bet)2893_storage)": {
        "encoding": "mapping",
        "key": "t_uint256",
        "label": "mapping(uint256 => struct BetGame.Bet)",
        "numberOfBytes": "32",
        "value": "t_struct(Bet)2893_storage"
      },
      "t_string_storage": {
        "encoding": "bytes",
        "label": "string",
        "numberOfBytes": "32"
      },
      "t_struct(Bet)2893_storage": {
        "encoding": "inplace",
        "label": "struct BetGame.Bet",
        "members": [
          {
            "astId": 2869,
            "contract": "contracts/BetGame.sol:BetGame",
            "label": "id",
            "offset": 0,
            "slot": "0",
            "type": "t_uint256"
          },
          {
            "astId": 2871,
            "contract": "contracts/BetGame.sol:BetGame",
            "label": "title",
            "offset": 0,
            "slot": "1",
            "type": "t_string_storage"
          },
          {
            "astId": 2873,
            "contract": "contracts/BetGame.sol:BetGame",
            "label": "creator",
            "offset": 0,
            "slot": "2",
            "type": "t_address_payable"
          },
          {
            "astId": 2875,
            "contract": "contracts/BetGame.sol:BetGame",
            "label": "acceptor",
            "offset": 0,
            "slot": "3",
            "type": "t_address_payable"
          },
          {
            "astId": 2877,
            "contract": "contracts/BetGame.sol:BetGame",
            "label": "apiURL",
            "offset": 0,
            "slot": "4",
            "type": "t_string_storage"
          },
          {
            "astId": 2879,
            "contract": "contracts/BetGame.sol:BetGame",
            "label": "amount",
            "offset": 0,
            "slot": "5",
            "type": "t_uint256"
          },
          {
            "astId": 2881,
            "contract": "contracts/BetGame.sol:BetGame",
            "label": "acceptValue",
            "offset": 0,
            "slot": "6",
            "type": "t_uint256"
          },
          {
            "astId": 2883,
            "contract": "contracts/BetGame.sol:BetGame",
            "label": "accepted",
            "offset": 0,
            "slot": "7",
            "type": "t_bool"
          },
          {
            "astId": 2885,
            "contract": "contracts/BetGame.sol:BetGame",
            "label": "active",
            "offset": 1,
            "slot": "7",
            "type": "t_bool"
          },
          {
            "astId": 2887,
            "contract": "contracts/BetGame.sol:BetGame",
            "label": "closed",
            "offset": 2,
            "slot": "7",
            "type": "t_bool"
          },
          {
            "astId": 2889,
            "contract": "contracts/BetGame.sol:BetGame",
            "label": "countArts",
            "offset": 0,
            "slot": "8",
            "type": "t_uint256"
          },
          {
            "astId": 2892,
            "contract": "contracts/BetGame.sol:BetGame",
            "label": "timeProps",
            "offset": 0,
            "slot": "9",
            "type": "t_struct(TimeProps)2867_storage"
          }
        ],
        "numberOfBytes": "416"
      },
      "t_struct(TimeProps)2867_storage": {
        "encoding": "inplace",
        "label": "struct BetGame.TimeProps",
        "members": [
          {
            "astId": 2860,
            "contract": "contracts/BetGame.sol:BetGame",
            "label": "createdDate",
            "offset": 0,
            "slot": "0",
            "type": "t_uint256"
          },
          {
            "astId": 2862,
            "contract": "contracts/BetGame.sol:BetGame",
            "label": "acceptByDate",
            "offset": 0,
            "slot": "1",
            "type": "t_uint256"
          },
          {
            "astId": 2864,
            "contract": "contracts/BetGame.sol:BetGame",
            "label": "startDate",
            "offset": 0,
            "slot": "2",
            "type": "t_uint256"
          },
          {
            "astId": 2866,
            "contract": "contracts/BetGame.sol:BetGame",
            "label": "expirationDate",
            "offset": 0,
            "slot": "3",
            "type": "t_uint256"
          }
        ],
        "numberOfBytes": "128"
      },
      "t_uint256": {
        "encoding": "inplace",
        "label": "uint256",
        "numberOfBytes": "32"
      }
    }
  }
}