{
  "address": "0x01CC0aaA7ad725d08059372E1fA7DDf366f51092",
  "abi": [
    {
      "inputs": [
        {
          "internalType": "uint256",
          "name": "_minimumBet",
          "type": "uint256"
        },
        {
          "internalType": "uint256",
          "name": "_interval",
          "type": "uint256"
        },
        {
          "internalType": "address",
          "name": "_link",
          "type": "address"
        },
        {
          "internalType": "address",
          "name": "_oracle",
          "type": "address"
        },
        {
          "internalType": "bytes32",
          "name": "_oracleJobId",
          "type": "bytes32"
        },
        {
          "internalType": "uint256",
          "name": "_oracleFee",
          "type": "uint256"
        },
        {
          "internalType": "uint256",
          "name": "_servicefee",
          "type": "uint256"
        },
        {
          "internalType": "address",
          "name": "_weth",
          "type": "address"
        }
      ],
      "stateMutability": "nonpayable",
      "type": "constructor"
    },
    {
      "anonymous": false,
      "inputs": [
        {
          "indexed": true,
          "internalType": "bytes32",
          "name": "id",
          "type": "bytes32"
        }
      ],
      "name": "ChainlinkCancelled",
      "type": "event"
    },
    {
      "anonymous": false,
      "inputs": [
        {
          "indexed": true,
          "internalType": "bytes32",
          "name": "id",
          "type": "bytes32"
        }
      ],
      "name": "ChainlinkFulfilled",
      "type": "event"
    },
    {
      "anonymous": false,
      "inputs": [
        {
          "indexed": true,
          "internalType": "bytes32",
          "name": "id",
          "type": "bytes32"
        }
      ],
      "name": "ChainlinkRequested",
      "type": "event"
    },
    {
      "anonymous": false,
      "inputs": [
        {
          "indexed": true,
          "internalType": "address",
          "name": "previousOwner",
          "type": "address"
        },
        {
          "indexed": true,
          "internalType": "address",
          "name": "newOwner",
          "type": "address"
        }
      ],
      "name": "OwnershipTransferred",
      "type": "event"
    },
    {
      "inputs": [
        {
          "internalType": "uint256",
          "name": "_betId",
          "type": "uint256"
        },
        {
          "internalType": "string",
          "name": "_apiURL",
          "type": "string"
        }
      ],
      "name": "acceptBet",
      "outputs": [],
      "stateMutability": "payable",
      "type": "function"
    },
    {
      "inputs": [
        {
          "internalType": "uint256",
          "name": "",
          "type": "uint256"
        }
      ],
      "name": "acceptedBets",
      "outputs": [
        {
          "internalType": "uint256",
          "name": "",
          "type": "uint256"
        }
      ],
      "stateMutability": "view",
      "type": "function"
    },
    {
      "inputs": [
        {
          "internalType": "uint256",
          "name": "",
          "type": "uint256"
        }
      ],
      "name": "activeBets",
      "outputs": [
        {
          "internalType": "uint256",
          "name": "",
          "type": "uint256"
        }
      ],
      "stateMutability": "view",
      "type": "function"
    },
    {
      "inputs": [
        {
          "internalType": "uint256",
          "name": "",
          "type": "uint256"
        }
      ],
      "name": "allBets",
      "outputs": [
        {
          "internalType": "uint256",
          "name": "id",
          "type": "uint256"
        },
        {
          "internalType": "string",
          "name": "title",
          "type": "string"
        },
        {
          "internalType": "address payable",
          "name": "creator",
          "type": "address"
        },
        {
          "internalType": "address payable",
          "name": "acceptor",
          "type": "address"
        },
        {
          "internalType": "string",
          "name": "apiURL",
          "type": "string"
        },
        {
          "internalType": "uint256",
          "name": "amount",
          "type": "uint256"
        },
        {
          "internalType": "uint256",
          "name": "acceptValue",
          "type": "uint256"
        },
        {
          "internalType": "bool",
          "name": "accepted",
          "type": "bool"
        },
        {
          "internalType": "bool",
          "name": "active",
          "type": "bool"
        },
        {
          "internalType": "bool",
          "name": "closed",
          "type": "bool"
        },
        {
          "internalType": "uint256",
          "name": "countArts",
          "type": "uint256"
        },
        {
          "components": [
            {
              "internalType": "uint256",
              "name": "createdDate",
              "type": "uint256"
            },
            {
              "internalType": "uint256",
              "name": "acceptByDate",
              "type": "uint256"
            },
            {
              "internalType": "uint256",
              "name": "startDate",
              "type": "uint256"
            },
            {
              "internalType": "uint256",
              "name": "expirationDate",
              "type": "uint256"
            }
          ],
          "internalType": "struct BetGame.TimeProps",
          "name": "timeProps",
          "type": "tuple"
        }
      ],
      "stateMutability": "view",
      "type": "function"
    },
    {
      "inputs": [
        {
          "internalType": "uint256",
          "name": "_id",
          "type": "uint256"
        }
      ],
      "name": "checkBet",
      "outputs": [],
      "stateMutability": "nonpayable",
      "type": "function"
    },
    {
      "inputs": [
        {
          "internalType": "bytes",
          "name": "checkData",
          "type": "bytes"
        }
      ],
      "name": "checkUpkeep",
      "outputs": [
        {
          "internalType": "bool",
          "name": "upkeepNeeded",
          "type": "bool"
        },
        {
          "internalType": "bytes",
          "name": "performData",
          "type": "bytes"
        }
      ],
      "stateMutability": "view",
      "type": "function"
    },
    {
      "inputs": [
        {
          "internalType": "uint256",
          "name": "_eth",
          "type": "uint256"
        }
      ],
      "name": "convertEthToLink",
      "outputs": [
        {
          "internalType": "uint256",
          "name": "",
          "type": "uint256"
        }
      ],
      "stateMutability": "nonpayable",
      "type": "function"
    },
    {
      "inputs": [
        {
          "internalType": "string",
          "name": "_apiURL",
          "type": "string"
        },
        {
          "internalType": "uint256",
          "name": "_acceptValue",
          "type": "uint256"
        },
        {
          "internalType": "uint256",
          "name": "_countArts",
          "type": "uint256"
        },
        {
          "internalType": "uint256",
          "name": "_endDate",
          "type": "uint256"
        },
        {
          "internalType": "uint256",
          "name": "_acceptdate",
          "type": "uint256"
        },
        {
          "internalType": "string",
          "name": "_title",
          "type": "string"
        }
      ],
      "name": "createBet",
      "outputs": [],
      "stateMutability": "payable",
      "type": "function"
    },
    {
      "inputs": [],
      "name": "devWallet",
      "outputs": [
        {
          "internalType": "address payable",
          "name": "",
          "type": "address"
        }
      ],
      "stateMutability": "view",
      "type": "function"
    },
    {
      "inputs": [
        {
          "internalType": "bytes32",
          "name": "_requestId",
          "type": "bytes32"
        },
        {
          "internalType": "uint256",
          "name": "_volume",
          "type": "uint256"
        }
      ],
      "name": "fulfill",
      "outputs": [],
      "stateMutability": "nonpayable",
      "type": "function"
    },
    {
      "inputs": [
        {
          "internalType": "uint256",
          "name": "_ethamount",
          "type": "uint256"
        }
      ],
      "name": "fundKeeper",
      "outputs": [],
      "stateMutability": "nonpayable",
      "type": "function"
    },
    {
      "inputs": [],
      "name": "getAcceptedBets",
      "outputs": [
        {
          "internalType": "uint256[]",
          "name": "",
          "type": "uint256[]"
        }
      ],
      "stateMutability": "view",
      "type": "function"
    },
    {
      "inputs": [],
      "name": "getActiveBets",
      "outputs": [
        {
          "internalType": "uint256[]",
          "name": "",
          "type": "uint256[]"
        }
      ],
      "stateMutability": "view",
      "type": "function"
    },
    {
      "inputs": [],
      "name": "getEthBalance",
      "outputs": [
        {
          "internalType": "uint256",
          "name": "",
          "type": "uint256"
        }
      ],
      "stateMutability": "view",
      "type": "function"
    },
    {
      "inputs": [],
      "name": "getLinkBalance",
      "outputs": [
        {
          "internalType": "uint256",
          "name": "",
          "type": "uint256"
        }
      ],
      "stateMutability": "view",
      "type": "function"
    },
    {
      "inputs": [],
      "name": "getServiceFee",
      "outputs": [
        {
          "internalType": "uint256",
          "name": "",
          "type": "uint256"
        }
      ],
      "stateMutability": "view",
      "type": "function"
    },
    {
      "inputs": [],
      "name": "globalId",
      "outputs": [
        {
          "internalType": "uint256",
          "name": "",
          "type": "uint256"
        }
      ],
      "stateMutability": "view",
      "type": "function"
    },
    {
      "inputs": [],
      "name": "interval",
      "outputs": [
        {
          "internalType": "uint256",
          "name": "",
          "type": "uint256"
        }
      ],
      "stateMutability": "view",
      "type": "function"
    },
    {
      "inputs": [],
      "name": "keeperJobId",
      "outputs": [
        {
          "internalType": "uint256",
          "name": "",
          "type": "uint256"
        }
      ],
      "stateMutability": "view",
      "type": "function"
    },
    {
      "inputs": [],
      "name": "keeperRegistry",
      "outputs": [
        {
          "internalType": "contract KeeperRegistryInterface",
          "name": "",
          "type": "address"
        }
      ],
      "stateMutability": "view",
      "type": "function"
    },
    {
      "inputs": [],
      "name": "keeperRegistryAddress",
      "outputs": [
        {
          "internalType": "address",
          "name": "",
          "type": "address"
        }
      ],
      "stateMutability": "view",
      "type": "function"
    },
    {
      "inputs": [],
      "name": "lastTimeStamp",
      "outputs": [
        {
          "internalType": "uint256",
          "name": "",
          "type": "uint256"
        }
      ],
      "stateMutability": "view",
      "type": "function"
    },
    {
      "inputs": [],
      "name": "minimumBet",
      "outputs": [
        {
          "internalType": "uint256",
          "name": "",
          "type": "uint256"
        }
      ],
      "stateMutability": "view",
      "type": "function"
    },
    {
      "inputs": [],
      "name": "owner",
      "outputs": [
        {
          "internalType": "address",
          "name": "",
          "type": "address"
        }
      ],
      "stateMutability": "view",
      "type": "function"
    },
    {
      "inputs": [
        {
          "internalType": "bytes",
          "name": "performData",
          "type": "bytes"
        }
      ],
      "name": "performUpkeep",
      "outputs": [],
      "stateMutability": "nonpayable",
      "type": "function"
    },
    {
      "inputs": [],
      "name": "renounceOwnership",
      "outputs": [],
      "stateMutability": "nonpayable",
      "type": "function"
    },
    {
      "inputs": [
        {
          "internalType": "string",
          "name": "_apiURL",
          "type": "string"
        },
        {
          "internalType": "uint256",
          "name": "_id",
          "type": "uint256"
        }
      ],
      "name": "requestVolumeData",
      "outputs": [
        {
          "internalType": "bytes32",
          "name": "requestId",
          "type": "bytes32"
        }
      ],
      "stateMutability": "nonpayable",
      "type": "function"
    },
    {
      "inputs": [],
      "name": "serviceFee",
      "outputs": [
        {
          "internalType": "uint256",
          "name": "",
          "type": "uint256"
        }
      ],
      "stateMutability": "view",
      "type": "function"
    },
    {
      "inputs": [
        {
          "internalType": "address payable",
          "name": "_devWallet",
          "type": "address"
        }
      ],
      "name": "setDevWallet",
      "outputs": [],
      "stateMutability": "nonpayable",
      "type": "function"
    },
    {
      "inputs": [
        {
          "internalType": "uint256",
          "name": "_interval",
          "type": "uint256"
        }
      ],
      "name": "setInterval",
      "outputs": [],
      "stateMutability": "nonpayable",
      "type": "function"
    },
    {
      "inputs": [
        {
          "internalType": "uint256",
          "name": "jobId",
          "type": "uint256"
        }
      ],
      "name": "setKeeperJob",
      "outputs": [],
      "stateMutability": "nonpayable",
      "type": "function"
    },
    {
      "inputs": [
        {
          "internalType": "address",
          "name": "_add",
          "type": "address"
        }
      ],
      "name": "setKeeperRegistry",
      "outputs": [],
      "stateMutability": "nonpayable",
      "type": "function"
    },
    {
      "inputs": [
        {
          "internalType": "uint256",
          "name": "_keeperJobId",
          "type": "uint256"
        }
      ],
      "name": "setKeeperJob",
      "outputs": [],
      "stateMutability": "nonpayable",
      "type": "function"
    },
    {
      "inputs": [
        {
          "internalType": "address",
          "name": "_add",
          "type": "address"
        }
      ],
      "name": "setKeeperRegistry",
      "outputs": [],
      "stateMutability": "nonpayable",
      "type": "function"
    },
    {
      "inputs": [
        {
          "internalType": "uint256",
          "name": "_minimumBet",
          "type": "uint256"
        }
      ],
      "name": "setMinimumBet",
      "outputs": [],
      "stateMutability": "nonpayable",
      "type": "function"
    },
    {
      "inputs": [
        {
          "internalType": "address",
          "name": "_oracle",
          "type": "address"
        }
      ],
      "name": "setOracle",
      "outputs": [],
      "stateMutability": "nonpayable",
      "type": "function"
    },
    {
      "inputs": [
        {
          "internalType": "bytes32",
          "name": "_oracleJobId",
          "type": "bytes32"
        }
      ],
      "name": "setOracleJobId",
      "outputs": [],
      "stateMutability": "nonpayable",
      "type": "function"
    },
    {
      "inputs": [
        {
          "internalType": "uint256",
          "name": "_eth",
          "type": "uint256"
        }
      ],
      "name": "setServiceFee",
      "outputs": [],
      "stateMutability": "nonpayable",
      "type": "function"
    },
    {
      "inputs": [
        {
          "internalType": "address",
          "name": "_router",
          "type": "address"
        }
      ],
      "name": "setSwapRouter",
      "outputs": [],
      "stateMutability": "nonpayable",
      "type": "function"
    },
    {
      "inputs": [
        {
          "internalType": "address",
          "name": "_weth",
          "type": "address"
        }
      ],
      "name": "setWETHAddress",
      "outputs": [],
      "stateMutability": "nonpayable",
      "type": "function"
    },
    {
      "inputs": [],
      "name": "swapRouter",
      "outputs": [
        {
          "internalType": "contract IUniswapV2Router02",
          "name": "",
          "type": "address"
        }
      ],
      "stateMutability": "view",
      "type": "function"
    },
    {
      "inputs": [
        {
          "internalType": "address",
          "name": "newOwner",
          "type": "address"
        }
      ],
      "name": "transferOwnership",
      "outputs": [],
      "stateMutability": "nonpayable",
      "type": "function"
    },
    {
      "inputs": [],
      "name": "upkeepcount",
      "outputs": [
        {
          "internalType": "uint256",
          "name": "",
          "type": "uint256"
        }
      ],
      "stateMutability": "view",
      "type": "function"
    },
    {
      "inputs": [],
      "name": "weth",
      "outputs": [
        {
          "internalType": "address",
          "name": "",
          "type": "address"
        }
      ],
      "stateMutability": "view",
      "type": "function"
    }
  ],
  "transactionHash": "0x93177299502058c5a44bbcb1236bd82e0aa1dbd093551939588d20a5eb7ac9b4",
  "args": [
    1000000000000000,
    1,
    "0xa36085F69e2889c224210F603D836748e7dC0088",
    "0xc57b33452b4f7bb189bb5afae9cc4aba1f7a4fd8",
    {
      "0": 100,
      "1": 53,
      "2": 50,
      "3": 55,
      "4": 48,
      "5": 100,
      "6": 49,
      "7": 99,
      "8": 51,
      "9": 49,
      "10": 49,
      "11": 57,
      "12": 52,
      "13": 49,
      "14": 100,
      "15": 48,
      "16": 98,
      "17": 48,
      "18": 56,
      "19": 98,
      "20": 101,
      "21": 97,
      "22": 100,
      "23": 50,
      "24": 49,
      "25": 102,
      "26": 101,
      "27": 97,
      "28": 55,
      "29": 55,
      "30": 52,
      "31": 55
    },
    "100000000000000000",
    1000000000000000,
    "0xd0A1E359811322d97991E03f863a0C30C2cF029C"
  ],
  "numDeployments": 6,
  "solcInputHash": "f2f3ef3e4433aea0cbc1362c681d9fdd",
  "bytecode": "0x608060405260016004553480156200001657600080fd5b50604051620061e8380380620061e883398181016040528101906200003c9190620004c0565b6200005c620000506200028f60201b60201c565b6200029760201b60201c565b856008819055508460148190555042601581905550600073ffffffffffffffffffffffffffffffffffffffff168473ffffffffffffffffffffffffffffffffffffffff161415620000bd57620000b76200035d60201b60201c565b620000cf565b620000ce846200040560201b60201c565b5b82600e60006101000a81548173ffffffffffffffffffffffffffffffffffffffff021916908373ffffffffffffffffffffffffffffffffffffffff16021790555081600f81905550806010819055506000600781905550737a250d5630b4cf539739df2c5dacb4c659f2488d601760006101000a81548173ffffffffffffffffffffffffffffffffffffffff021916908373ffffffffffffffffffffffffffffffffffffffff16021790555073d0a1e359811322d97991e03f863a0c30c2cf029c601860006101000a81548173ffffffffffffffffffffffffffffffffffffffff021916908373ffffffffffffffffffffffffffffffffffffffff160217905550734cb093f226983713164a62138c3f718a5b595f73601360006101000a81548173ffffffffffffffffffffffffffffffffffffffff021916908373ffffffffffffffffffffffffffffffffffffffff160217905550734cb093f226983713164a62138c3f718a5b595f73601260006101000a81548173ffffffffffffffffffffffffffffffffffffffff021916908373ffffffffffffffffffffffffffffffffffffffff160217905550610c22601681905550505050505050620005f7565b600033905090565b6000600660009054906101000a900473ffffffffffffffffffffffffffffffffffffffff16905081600660006101000a81548173ffffffffffffffffffffffffffffffffffffffff021916908373ffffffffffffffffffffffffffffffffffffffff1602179055508173ffffffffffffffffffffffffffffffffffffffff168173ffffffffffffffffffffffffffffffffffffffff167f8be0079c531659141344cd1fd0a4f28419497f9722a3daafe3b4186f6b6457e060405160405180910390a35050565b6200040373c89bd4e1632d3a43cb03aaad5262cbe4038bc57173ffffffffffffffffffffffffffffffffffffffff166338cc48316040518163ffffffff1660e01b815260040160206040518083038186803b158015620003bc57600080fd5b505afa158015620003d1573d6000803e3d6000fd5b505050506040513d601f19601f82011682018060405250810190620003f791906200048e565b6200040560201b60201c565b565b80600260006101000a81548173ffffffffffffffffffffffffffffffffffffffff021916908373ffffffffffffffffffffffffffffffffffffffff16021790555050565b6000815190506200045a81620005a9565b92915050565b6000815190506200047181620005c3565b92915050565b6000815190506200048881620005dd565b92915050565b600060208284031215620004a757620004a6620005a4565b5b6000620004b78482850162000449565b91505092915050565b60008060008060008060c08789031215620004e057620004df620005a4565b5b6000620004f089828a0162000477565b96505060206200050389828a0162000477565b95505060406200051689828a0162000449565b94505060606200052989828a0162000449565b93505060806200053c89828a0162000460565b92505060a06200054f89828a0162000477565b9150509295509295509295565b600062000569826200057a565b9050919050565b6000819050919050565b600073ffffffffffffffffffffffffffffffffffffffff82169050919050565b6000819050919050565b600080fd5b620005b4816200055c565b8114620005c057600080fd5b50565b620005ce8162000570565b8114620005da57600080fd5b50565b620005e8816200059a565b8114620005f457600080fd5b50565b615be180620006076000396000f3fe6080604052600436106102465760003560e01c806383e2277411610139578063af768ee3116100b6578063ca6668231161007a578063ca66682314610848578063cc9af96414610873578063d05ef7ab1461089e578063e0ced0e1146108c9578063ecab969814610911578063f2fde38b1461092d57610246565b8063af768ee31461074f578063b4c0a1d41461078c578063bb1edf82146107c9578063c31c9c07146107f2578063c38a8afd1461081d57610246565b80638da5cb5b116100fd5780638da5cb5b1461067a5780638ea5220f146106a5578063947a36fb146106d0578063a128c4d2146106fb578063ada730201461072457610246565b806383e227741461059557806384f4412f146105c05780638772ae3c146105fd57806387f7777d146106265780638abdf5aa1461064f57610246565b8063508954f8116101c75780636e04ff0d1161018b5780636e04ff0d146104af57806370ed0ada146104ed578063711bc98314610518578063715018a6146105555780637adbf9731461056c57610246565b8063508954f8146103ed57806350c5f975146104165780635cdf76f8146104415780635cf54b041461046a5780636a4234eb1461048657610246565b80633fc8cef31161020e5780633fc8cef31461031e57806341273657146103495780634357855e1461037257806345777fee1461039b5780634585e33b146103c457610246565b806311a1933c1461024b5780631e11004f146102765780631f53ac02146102a157806322a90082146102ca5780633f3b3b27146102f3575b600080fd5b34801561025757600080fd5b50610260610956565b60405161026d9190614fab565b60405180910390f35b34801561028257600080fd5b5061028b610960565b6040516102989190614fab565b60405180910390f35b3480156102ad57600080fd5b506102c860048036038101906102c3919061442f565b610966565b005b3480156102d657600080fd5b506102f160048036038101906102ec91906146ad565b610a26565b005b3480156102ff57600080fd5b50610308610aac565b6040516103159190614fab565b60405180910390f35b34801561032a57600080fd5b50610333610ab2565b6040516103409190614bfa565b60405180910390f35b34801561035557600080fd5b50610370600480360381019061036b9190614402565b610ad8565b005b34801561037e57600080fd5b50610399600480360381019061039491906144ff565b610b98565b005b3480156103a757600080fd5b506103c260048036038101906103bd91906146ad565b610cd7565b005b3480156103d057600080fd5b506103eb60048036038101906103e6919061453f565b610e30565b005b3480156103f957600080fd5b50610414600480360381019061040f91906144d2565b610e9c565b005b34801561042257600080fd5b5061042b610f22565b6040516104389190614fab565b60405180910390f35b34801561044d57600080fd5b50610468600480360381019061046391906146ad565b610fbe565b005b610484600480360381019061047f9190614707565b611044565b005b34801561049257600080fd5b506104ad60048036038101906104a89190614402565b6116d8565b005b3480156104bb57600080fd5b506104d660048036038101906104d1919061453f565b611798565b6040516104e4929190614d3e565b60405180910390f35b3480156104f957600080fd5b506105026117fe565b60405161050f9190614fab565b60405180910390f35b34801561052457600080fd5b5061053f600480360381019061053a91906146ad565b611806565b60405161054c9190614fab565b60405180910390f35b34801561056157600080fd5b5061056a61182a565b005b34801561057857600080fd5b50610593600480360381019061058e9190614402565b6118b2565b005b3480156105a157600080fd5b506105aa611981565b6040516105b79190614da4565b60405180910390f35b3480156105cc57600080fd5b506105e760048036038101906105e291906146ad565b6119a7565b6040516105f49190614fab565b60405180910390f35b34801561060957600080fd5b50610624600480360381019061061f91906146ad565b611bb8565b005b34801561063257600080fd5b5061064d600480360381019061064891906146ad565b611c3e565b005b34801561065b57600080fd5b50610664611ef9565b6040516106719190614fab565b60405180910390f35b34801561068657600080fd5b5061068f611eff565b60405161069c9190614bfa565b60405180910390f35b3480156106b157600080fd5b506106ba611f29565b6040516106c79190614c15565b60405180910390f35b3480156106dc57600080fd5b506106e5611f4f565b6040516106f29190614fab565b60405180910390f35b34801561070757600080fd5b50610722600480360381019061071d9190614402565b611f55565b005b34801561073057600080fd5b50610739612056565b6040516107469190614d1c565b60405180910390f35b34801561075b57600080fd5b50610776600480360381019061077191906146ad565b6120ae565b6040516107839190614fab565b60405180910390f35b34801561079857600080fd5b506107b360048036038101906107ae919061458c565b6120d2565b6040516107c09190614d6e565b60405180910390f35b3480156107d557600080fd5b506107f060048036038101906107eb91906146ad565b612204565b005b3480156107fe57600080fd5b5061080761228a565b6040516108149190614d89565b60405180910390f35b34801561082957600080fd5b506108326122b0565b60405161083f9190614fab565b60405180910390f35b34801561085457600080fd5b5061085d6122b6565b60405161086a9190614fab565b60405180910390f35b34801561087f57600080fd5b506108886122bc565b6040516108959190614d1c565b60405180910390f35b3480156108aa57600080fd5b506108b3612314565b6040516108c09190614bfa565b60405180910390f35b3480156108d557600080fd5b506108f060048036038101906108eb91906146ad565b61233a565b6040516109089c9b9a99989796959493929190614fc6565b60405180910390f35b61092b600480360381019061092691906145e8565b612543565b005b34801561093957600080fd5b50610954600480360381019061094f9190614402565b6128cb565b005b6000600754905090565b60165481565b61096e6129c3565b73ffffffffffffffffffffffffffffffffffffffff1661098c611eff565b73ffffffffffffffffffffffffffffffffffffffff16146109e2576040517f08c379a00000000000000000000000000000000000000000000000000000000081526004016109d990614f2b565b60405180910390fd5b80600960006101000a81548173ffffffffffffffffffffffffffffffffffffffff021916908373ffffffffffffffffffffffffffffffffffffffff16021790555050565b610a2e6129c3565b73ffffffffffffffffffffffffffffffffffffffff16610a4c611eff565b73ffffffffffffffffffffffffffffffffffffffff1614610aa2576040517f08c379a0000000000000000000000000000000000000000000000000000000008152600401610a9990614f2b565b60405180910390fd5b8060148190555050565b60155481565b601860009054906101000a900473ffffffffffffffffffffffffffffffffffffffff1681565b610ae06129c3565b73ffffffffffffffffffffffffffffffffffffffff16610afe611eff565b73ffffffffffffffffffffffffffffffffffffffff1614610b54576040517f08c379a0000000000000000000000000000000000000000000000000000000008152600401610b4b90614f2b565b60405180910390fd5b80601760006101000a81548173ffffffffffffffffffffffffffffffffffffffff021916908373ffffffffffffffffffffffffffffffffffffffff16021790555050565b816005600082815260200190815260200160002060009054906101000a900473ffffffffffffffffffffffffffffffffffffffff1673ffffffffffffffffffffffffffffffffffffffff163373ffffffffffffffffffffffffffffffffffffffff1614610c3a576040517f08c379a0000000000000000000000000000000000000000000000000000000008152600401610c3190614f6b565b60405180910390fd5b6005600082815260200190815260200160002060006101000a81549073ffffffffffffffffffffffffffffffffffffffff0219169055807f7cc135e0cebb02c3480ae5d74d377283180a2601f8f644edf7987b009316c63a60405160405180910390a26000606483610cac9190615239565b9050600060116000868152602001908152602001600020549050610cd081836129cb565b5050505050565b6000610ce2826119a7565b9050610cec6130d4565b73ffffffffffffffffffffffffffffffffffffffff1663095ea7b3601360009054906101000a900473ffffffffffffffffffffffffffffffffffffffff16836040518363ffffffff1660e01b8152600401610d48929190614cf3565b602060405180830381600087803b158015610d6257600080fd5b505af1158015610d76573d6000803e3d6000fd5b505050506040513d601f19601f82011682018060405250810190610d9a91906144a5565b50601260009054906101000a900473ffffffffffffffffffffffffffffffffffffffff1673ffffffffffffffffffffffffffffffffffffffff1663948108f7601654836040518363ffffffff1660e01b8152600401610dfa92919061508e565b600060405180830381600087803b158015610e1457600080fd5b505af1158015610e28573d6000803e3d6000fd5b505050505050565b60145460155442610e419190615435565b11610e81576040517f08c379a0000000000000000000000000000000000000000000000000000000008152600401610e7890614f0b565b60405180910390fd5b42601581905550610e906130fe565b610e9861342d565b5050565b610ea46129c3565b73ffffffffffffffffffffffffffffffffffffffff16610ec2611eff565b73ffffffffffffffffffffffffffffffffffffffff1614610f18576040517f08c379a0000000000000000000000000000000000000000000000000000000008152600401610f0f90614f2b565b60405180910390fd5b80600f8190555050565b600080610f2d6130d4565b90508073ffffffffffffffffffffffffffffffffffffffff166370a08231306040518263ffffffff1660e01b8152600401610f689190614bfa565b60206040518083038186803b158015610f8057600080fd5b505afa158015610f94573d6000803e3d6000fd5b505050506040513d601f19601f82011682018060405250810190610fb891906146da565b91505090565b610fc66129c3565b73ffffffffffffffffffffffffffffffffffffffff16610fe4611eff565b73ffffffffffffffffffffffffffffffffffffffff161461103a576040517f08c379a000000000000000000000000000000000000000000000000000000000815260040161103190614f2b565b60405180910390fd5b8060078190555050565b6000600b6000848152602001908152602001600020604051806101800160405290816000820154815260200160018201805461107f906155d1565b80601f01602080910402602001604051908101604052809291908181526020018280546110ab906155d1565b80156110f85780601f106110cd576101008083540402835291602001916110f8565b820191906000526020600020905b8154815290600101906020018083116110db57829003601f168201915b505050505081526020016002820160009054906101000a900473ffffffffffffffffffffffffffffffffffffffff1673ffffffffffffffffffffffffffffffffffffffff1673ffffffffffffffffffffffffffffffffffffffff1681526020016003820160009054906101000a900473ffffffffffffffffffffffffffffffffffffffff1673ffffffffffffffffffffffffffffffffffffffff1673ffffffffffffffffffffffffffffffffffffffff1681526020016004820180546111bd906155d1565b80601f01602080910402602001604051908101604052809291908181526020018280546111e9906155d1565b80156112365780601f1061120b57610100808354040283529160200191611236565b820191906000526020600020905b81548152906001019060200180831161121957829003601f168201915b5050505050815260200160058201548152602001600682015481526020016007820160009054906101000a900460ff161515151581526020016007820160019054906101000a900460ff161515151581526020016007820160029054906101000a900460ff16151515158152602001600882015481526020016009820160405180608001604052908160008201548152602001600182015481526020016002820154815260200160038201548152505081525050905060011515816101000151151514611338576040517f08c379a000000000000000000000000000000000000000000000000000000000815260040161132f90614e2b565b60405180910390fd5b600015158160e00151151514611383576040517f08c379a000000000000000000000000000000000000000000000000000000000815260040161137a90614e4b565b60405180910390fd5b600015158161012001511515146113cf576040517f08c379a00000000000000000000000000000000000000000000000000000000081526004016113c690614eeb565b60405180910390fd5b346007548260c001516113e291906151e3565b14611422576040517f08c379a000000000000000000000000000000000000000000000000000000000815260040161141990614eab565b60405180910390fd5b8061016001516020015142111561146e576040517f08c379a000000000000000000000000000000000000000000000000000000000815260040161146590614f8b565b60405180910390fd5b42816101600151604001818152505060018160e0019015159081151581525050818160800181905250600754346114a59190615435565b8160a0018181516114b691906151e3565b9150818152505033816060019073ffffffffffffffffffffffffffffffffffffffff16908173ffffffffffffffffffffffffffffffffffffffff1681525050611504600c8260000151613738565b80600b6000836000015181526020019081526020016000206000820151816000015560208201518160010190805190602001906115429291906140f6565b5060408201518160020160006101000a81548173ffffffffffffffffffffffffffffffffffffffff021916908373ffffffffffffffffffffffffffffffffffffffff16021790555060608201518160030160006101000a81548173ffffffffffffffffffffffffffffffffffffffff021916908373ffffffffffffffffffffffffffffffffffffffff16021790555060808201518160040190805190602001906115ed9291906140f6565b5060a0820151816005015560c0820151816006015560e08201518160070160006101000a81548160ff0219169083151502179055506101008201518160070160016101000a81548160ff0219169083151502179055506101208201518160070160026101000a81548160ff021916908315150217905550610140820151816008015561016082015181600901600082015181600001556020820151816001015560408201518160020155606082015181600301555050905050600d81600001519080600181540180825580915050600190039060005260206000200160009091909190915055505050565b6116e06129c3565b73ffffffffffffffffffffffffffffffffffffffff166116fe611eff565b73ffffffffffffffffffffffffffffffffffffffff1614611754576040517f08c379a000000000000000000000000000000000000000000000000000000000815260040161174b90614f2b565b60405180910390fd5b80601860006101000a81548173ffffffffffffffffffffffffffffffffffffffff021916908373ffffffffffffffffffffffffffffffffffffffff16021790555050565b60006060601454601554426117ad9190615435565b11915083838080601f016020809104026020016040519081016040528093929190818152602001838380828437600081840152601f19601f8201169050808301925050505050505090509250929050565b600047905090565b600d818154811061181657600080fd5b906000526020600020016000915090505481565b6118326129c3565b73ffffffffffffffffffffffffffffffffffffffff16611850611eff565b73ffffffffffffffffffffffffffffffffffffffff16146118a6576040517f08c379a000000000000000000000000000000000000000000000000000000000815260040161189d90614f2b565b60405180910390fd5b6118b06000613820565b565b6118ba6129c3565b73ffffffffffffffffffffffffffffffffffffffff166118d8611eff565b73ffffffffffffffffffffffffffffffffffffffff161461192e576040517f08c379a000000000000000000000000000000000000000000000000000000000815260040161192590614f2b565b60405180910390fd5b80600e60006101000a81548173ffffffffffffffffffffffffffffffffffffffff021916908373ffffffffffffffffffffffffffffffffffffffff16021790555067016345785d8a000060108190555050565b601260009054906101000a900473ffffffffffffffffffffffffffffffffffffffff1681565b6000806064426119b791906151e3565b90506000600267ffffffffffffffff8111156119d6576119d56157c7565b5b604051908082528060200260200182016040528015611a045781602001602082028036833780820191505090505b509050601860009054906101000a900473ffffffffffffffffffffffffffffffffffffffff1681600081518110611a3e57611a3d615798565b5b602002602001019073ffffffffffffffffffffffffffffffffffffffff16908173ffffffffffffffffffffffffffffffffffffffff1681525050611a806130d4565b81600181518110611a9457611a93615798565b5b602002602001019073ffffffffffffffffffffffffffffffffffffffff16908173ffffffffffffffffffffffffffffffffffffffff168152505060008490506000601760009054906101000a900473ffffffffffffffffffffffffffffffffffffffff1673ffffffffffffffffffffffffffffffffffffffff16637ff36ab58360008630896040518663ffffffff1660e01b8152600401611b389493929190614dbf565b6000604051808303818588803b158015611b5157600080fd5b505af1158015611b65573d6000803e3d6000fd5b50505050506040513d6000823e3d601f19601f82011682018060405250810190611b8f919061445c565b905080600181518110611ba557611ba4615798565b5b6020026020010151945050505050919050565b611bc06129c3565b73ffffffffffffffffffffffffffffffffffffffff16611bde611eff565b73ffffffffffffffffffffffffffffffffffffffff1614611c34576040517f08c379a0000000000000000000000000000000000000000000000000000000008152600401611c2b90614f2b565b60405180910390fd5b8060088190555050565b6000600b60008381526020019081526020016000206040518061018001604052908160008201548152602001600182018054611c79906155d1565b80601f0160208091040260200160405190810160405280929190818152602001828054611ca5906155d1565b8015611cf25780601f10611cc757610100808354040283529160200191611cf2565b820191906000526020600020905b815481529060010190602001808311611cd557829003601f168201915b505050505081526020016002820160009054906101000a900473ffffffffffffffffffffffffffffffffffffffff1673ffffffffffffffffffffffffffffffffffffffff1673ffffffffffffffffffffffffffffffffffffffff1681526020016003820160009054906101000a900473ffffffffffffffffffffffffffffffffffffffff1673ffffffffffffffffffffffffffffffffffffffff1673ffffffffffffffffffffffffffffffffffffffff168152602001600482018054611db7906155d1565b80601f0160208091040260200160405190810160405280929190818152602001828054611de3906155d1565b8015611e305780601f10611e0557610100808354040283529160200191611e30565b820191906000526020600020905b815481529060010190602001808311611e1357829003601f168201915b5050505050815260200160058201548152602001600682015481526020016007820160009054906101000a900460ff161515151581526020016007820160019054906101000a900460ff161515151581526020016007820160029054906101000a900460ff161515151581526020016008820154815260200160098201604051806080016040529081600082015481526020016001820154815260200160028201548152602001600382015481525050815250509050611ef48160800151836120d2565b505050565b60075481565b6000600660009054906101000a900473ffffffffffffffffffffffffffffffffffffffff16905090565b600960009054906101000a900473ffffffffffffffffffffffffffffffffffffffff1681565b60145481565b611f5d6129c3565b73ffffffffffffffffffffffffffffffffffffffff16611f7b611eff565b73ffffffffffffffffffffffffffffffffffffffff1614611fd1576040517f08c379a0000000000000000000000000000000000000000000000000000000008152600401611fc890614f2b565b60405180910390fd5b80601360006101000a81548173ffffffffffffffffffffffffffffffffffffffff021916908373ffffffffffffffffffffffffffffffffffffffff16021790555080601260006101000a81548173ffffffffffffffffffffffffffffffffffffffff021916908373ffffffffffffffffffffffffffffffffffffffff16021790555050565b6060600c8054806020026020016040519081016040528092919081815260200182805480156120a457602002820191906000526020600020905b815481526020019060010190808311612090575b5050505050905090565b600c81815481106120be57600080fd5b906000526020600020016000915090505481565b6000806120e9600f5430634357855e60e01b6138e6565b90506121356040518060400160405280600381526020017f676574000000000000000000000000000000000000000000000000000000000081525085836139179092919063ffffffff16565b6121b46040518060400160405280600481526020017f70617468000000000000000000000000000000000000000000000000000000008152506040518060400160405280600c81526020017f746f74616c526573756c74730000000000000000000000000000000000000000815250836139179092919063ffffffff16565b6121e3600e60009054906101000a900473ffffffffffffffffffffffffffffffffffffffff168260105461394a565b91508260116000848152602001908152602001600020819055505092915050565b61220c6129c3565b73ffffffffffffffffffffffffffffffffffffffff1661222a611eff565b73ffffffffffffffffffffffffffffffffffffffff1614612280576040517f08c379a000000000000000000000000000000000000000000000000000000000815260040161227790614f2b565b60405180910390fd5b8060168190555050565b601760009054906101000a900473ffffffffffffffffffffffffffffffffffffffff1681565b60085481565b600a5481565b6060600d80548060200260200160405190810160405280929190818152602001828054801561230a57602002820191906000526020600020905b8154815260200190600101908083116122f6575b5050505050905090565b601360009054906101000a900473ffffffffffffffffffffffffffffffffffffffff1681565b600b602052806000526040600020600091509050806000015490806001018054612363906155d1565b80601f016020809104026020016040519081016040528092919081815260200182805461238f906155d1565b80156123dc5780601f106123b1576101008083540402835291602001916123dc565b820191906000526020600020905b8154815290600101906020018083116123bf57829003601f168201915b5050505050908060020160009054906101000a900473ffffffffffffffffffffffffffffffffffffffff16908060030160009054906101000a900473ffffffffffffffffffffffffffffffffffffffff169080600401805461243d906155d1565b80601f0160208091040260200160405190810160405280929190818152602001828054612469906155d1565b80156124b65780601f1061248b576101008083540402835291602001916124b6565b820191906000526020600020905b81548152906001019060200180831161249957829003601f168201915b5050505050908060050154908060060154908060070160009054906101000a900460ff16908060070160019054906101000a900460ff16908060070160029054906101000a900460ff16908060080154908060090160405180608001604052908160008201548152602001600182015481526020016002820154815260200160038201548152505090508c565b60075460085461255391906151e3565b341015612595576040517f08c379a000000000000000000000000000000000000000000000000000000000815260040161258c90614e6b565b60405180910390fd5b6008548510156125da576040517f08c379a00000000000000000000000000000000000000000000000000000000081526004016125d190614f4b565b60405180910390fd5b82821061261c576040517f08c379a000000000000000000000000000000000000000000000000000000000815260040161261390614ecb565b60405180910390fd5b60006040518060800160405280428152602001848152602001600081526020018581525090506000604051806101800160405280600a5481526020018481526020013373ffffffffffffffffffffffffffffffffffffffff168152602001600073ffffffffffffffffffffffffffffffffffffffff168152602001898152602001600754346126ab9190615435565b81526020018881526020016000151581526020016001151581526020016000151581526020018781526020018381525090506001600a546126ec91906151e3565b600a81905550600c8160000151908060018154018082558091505060019003906000526020600020016000909190919091505580600b60008360000151815260200190815260200160002060008201518160000155602082015181600101908051906020019061275d9291906140f6565b5060408201518160020160006101000a81548173ffffffffffffffffffffffffffffffffffffffff021916908373ffffffffffffffffffffffffffffffffffffffff16021790555060608201518160030160006101000a81548173ffffffffffffffffffffffffffffffffffffffff021916908373ffffffffffffffffffffffffffffffffffffffff16021790555060808201518160040190805190602001906128089291906140f6565b5060a0820151816005015560c0820151816006015560e08201518160070160006101000a81548160ff0219169083151502179055506101008201518160070160016101000a81548160ff0219169083151502179055506101208201518160070160026101000a81548160ff0219169083151502179055506101408201518160080155610160820151816009016000820151816000015560208201518160010155604082015181600201556060820151816003015550509050505050505050505050565b6128d36129c3565b73ffffffffffffffffffffffffffffffffffffffff166128f1611eff565b73ffffffffffffffffffffffffffffffffffffffff1614612947576040517f08c379a000000000000000000000000000000000000000000000000000000000815260040161293e90614f2b565b60405180910390fd5b600073ffffffffffffffffffffffffffffffffffffffff168173ffffffffffffffffffffffffffffffffffffffff1614156129b7576040517f08c379a00000000000000000000000000000000000000000000000000000000081526004016129ae90614e0b565b60405180910390fd5b6129c081613820565b50565b600033905090565b6000600b60008481526020019081526020016000206040518061018001604052908160008201548152602001600182018054612a06906155d1565b80601f0160208091040260200160405190810160405280929190818152602001828054612a32906155d1565b8015612a7f5780601f10612a5457610100808354040283529160200191612a7f565b820191906000526020600020905b815481529060010190602001808311612a6257829003601f168201915b505050505081526020016002820160009054906101000a900473ffffffffffffffffffffffffffffffffffffffff1673ffffffffffffffffffffffffffffffffffffffff1673ffffffffffffffffffffffffffffffffffffffff1681526020016003820160009054906101000a900473ffffffffffffffffffffffffffffffffffffffff1673ffffffffffffffffffffffffffffffffffffffff1673ffffffffffffffffffffffffffffffffffffffff168152602001600482018054612b44906155d1565b80601f0160208091040260200160405190810160405280929190818152602001828054612b70906155d1565b8015612bbd5780601f10612b9257610100808354040283529160200191612bbd565b820191906000526020600020905b815481529060010190602001808311612ba057829003601f168201915b5050505050815260200160058201548152602001600682015481526020016007820160009054906101000a900460ff161515151581526020016007820160019054906101000a900460ff161515151581526020016007820160029054906101000a900460ff161515151581526020016008820154815260200160098201604051806080016040529081600082015481526020016001820154815260200160028201548152602001600382015481525050815250509050806101400151821115612ea157600181610120019015159081151581525050600081610100019015159081151581525050806040015173ffffffffffffffffffffffffffffffffffffffff166108fc8260a001519081150290604051600060405180830381858888f19350505050158015612cf2573d6000803e3d6000fd5b5080600b6000858152602001908152602001600020600082015181600001556020820151816001019080519060200190612d2d9291906140f6565b5060408201518160020160006101000a81548173ffffffffffffffffffffffffffffffffffffffff021916908373ffffffffffffffffffffffffffffffffffffffff16021790555060608201518160030160006101000a81548173ffffffffffffffffffffffffffffffffffffffff021916908373ffffffffffffffffffffffffffffffffffffffff1602179055506080820151816004019080519060200190612dd89291906140f6565b5060a0820151816005015560c0820151816006015560e08201518160070160006101000a81548160ff0219169083151502179055506101008201518160070160016101000a81548160ff0219169083151502179055506101208201518160070160026101000a81548160ff021916908315150217905550610140820151816008015561016082015181600901600082015181600001556020820151816001015560408201518160020155606082015181600301555050905050612e9c600d84613738565b6130cf565b8061016001516060015142106130ce57600181610120019015159081151581525050600081610100019015159081151581525050806060015173ffffffffffffffffffffffffffffffffffffffff166108fc8260a001519081150290604051600060405180830381858888f19350505050158015612f23573d6000803e3d6000fd5b5080600b6000858152602001908152602001600020600082015181600001556020820151816001019080519060200190612f5e9291906140f6565b5060408201518160020160006101000a81548173ffffffffffffffffffffffffffffffffffffffff021916908373ffffffffffffffffffffffffffffffffffffffff16021790555060608201518160030160006101000a81548173ffffffffffffffffffffffffffffffffffffffff021916908373ffffffffffffffffffffffffffffffffffffffff16021790555060808201518160040190805190602001906130099291906140f6565b5060a0820151816005015560c0820151816006015560e08201518160070160006101000a81548160ff0219169083151502179055506101008201518160070160016101000a81548160ff0219169083151502179055506101208201518160070160026101000a81548160ff0219169083151502179055506101408201518160080155610160820151816009016000820151816000015560208201518160010155604082015181600201556060820151816003015550509050506130cd600d84613738565b5b5b505050565b6000600260009054906101000a900473ffffffffffffffffffffffffffffffffffffffff16905090565b60005b600c8054905081101561342a576000600b6000600c848154811061312857613127615798565b5b906000526020600020015481526020019081526020016000206040518061018001604052908160008201548152602001600182018054613167906155d1565b80601f0160208091040260200160405190810160405280929190818152602001828054613193906155d1565b80156131e05780601f106131b5576101008083540402835291602001916131e0565b820191906000526020600020905b8154815290600101906020018083116131c357829003601f168201915b505050505081526020016002820160009054906101000a900473ffffffffffffffffffffffffffffffffffffffff1673ffffffffffffffffffffffffffffffffffffffff1673ffffffffffffffffffffffffffffffffffffffff1681526020016003820160009054906101000a900473ffffffffffffffffffffffffffffffffffffffff1673ffffffffffffffffffffffffffffffffffffffff1673ffffffffffffffffffffffffffffffffffffffff1681526020016004820180546132a5906155d1565b80601f01602080910402602001604051908101604052809291908181526020018280546132d1906155d1565b801561331e5780601f106132f35761010080835404028352916020019161331e565b820191906000526020600020905b81548152906001019060200180831161330157829003601f168201915b5050505050815260200160058201548152602001600682015481526020016007820160009054906101000a900460ff161515151581526020016007820160019054906101000a900460ff161515151581526020016007820160029054906101000a900460ff1615151515815260200160088201548152602001600982016040518060800160405290816000820154815260200160018201548152602001600282015481526020016003820154815250508152505090508060e001511580156133ef5750428161016001516020015111155b1561341657600081610100019015159081151581525050613415600c8260000151613738565b5b50808061342290615634565b915050613101565b50565b60005b600d80549050811015613735576000600b6000600d848154811061345757613456615798565b5b906000526020600020015481526020019081526020016000206040518061018001604052908160008201548152602001600182018054613496906155d1565b80601f01602080910402602001604051908101604052809291908181526020018280546134c2906155d1565b801561350f5780601f106134e45761010080835404028352916020019161350f565b820191906000526020600020905b8154815290600101906020018083116134f257829003601f168201915b505050505081526020016002820160009054906101000a900473ffffffffffffffffffffffffffffffffffffffff1673ffffffffffffffffffffffffffffffffffffffff1673ffffffffffffffffffffffffffffffffffffffff1681526020016003820160009054906101000a900473ffffffffffffffffffffffffffffffffffffffff1673ffffffffffffffffffffffffffffffffffffffff1673ffffffffffffffffffffffffffffffffffffffff1681526020016004820180546135d4906155d1565b80601f0160208091040260200160405190810160405280929190818152602001828054613600906155d1565b801561364d5780601f106136225761010080835404028352916020019161364d565b820191906000526020600020905b81548152906001019060200180831161363057829003601f168201915b5050505050815260200160058201548152602001600682015481526020016007820160009054906101000a900460ff161515151581526020016007820160019054906101000a900460ff161515151581526020016007820160029054906101000a900460ff161515151581526020016008820154815260200160098201604051806080016040529081600082015481526020016001820154815260200160028201548152602001600382015481525050815250509050428161016001516060015111613721576137208160000151611c3e565b5b50808061372d90615634565b915050613430565b50565b60005b828054905081101561381b578183828154811061375b5761375a615798565b5b906000526020600020015414156138085782818154811061377f5761377e615798565b5b9060005260206000200160009055826001848054905061379f9190615435565b815481106137b0576137af615798565b5b90600052602060002001548382815481106137ce576137cd615798565b5b9060005260206000200181905550828054806137ed576137ec615769565b5b6001900381819060005260206000200160009055905561381b565b808061381390615634565b91505061373b565b505050565b6000600660009054906101000a900473ffffffffffffffffffffffffffffffffffffffff16905081600660006101000a81548173ffffffffffffffffffffffffffffffffffffffff021916908373ffffffffffffffffffffffffffffffffffffffff1602179055508173ffffffffffffffffffffffffffffffffffffffff168173ffffffffffffffffffffffffffffffffffffffff167f8be0079c531659141344cd1fd0a4f28419497f9722a3daafe3b4186f6b6457e060405160405180910390a35050565b6138ee61417c565b6138f661417c565b61390d85858584613a16909392919063ffffffff16565b9150509392505050565b61392e828460800151613ac690919063ffffffff16565b613945818460800151613ac690919063ffffffff16565b505050565b600080600454905060018161395f91906151e3565b6004819055506000634042994660e01b60008087600001513089604001518760018c60800151600001516040516024016139a0989796959493929190614c30565b604051602081830303815290604052907bffffffffffffffffffffffffffffffffffffffffffffffffffffffff19166020820180517bffffffffffffffffffffffffffffffffffffffffffffffffffffffff83818316178352505050509050613a0b86838684613aeb565b925050509392505050565b613a1e61417c565b613a2e8560800151610100613c8f565b508385600001818152505082856020019073ffffffffffffffffffffffffffffffffffffffff16908173ffffffffffffffffffffffffffffffffffffffff16815250508185604001907bffffffffffffffffffffffffffffffffffffffffffffffffffffffff191690817bffffffffffffffffffffffffffffffffffffffffffffffffffffffff191681525050849050949350505050565b613ad38260038351613cf9565b613ae68183613e7e90919063ffffffff16565b505050565b60003084604051602001613b00929190614bce565b604051602081830303815290604052805190602001209050846005600083815260200190815260200160002060006101000a81548173ffffffffffffffffffffffffffffffffffffffff021916908373ffffffffffffffffffffffffffffffffffffffff160217905550807fb5e6e01e79f91267dc17b4e6314d5d4d03593d2ceee0fbb452b750bd70ea5af960405160405180910390a2600260009054906101000a900473ffffffffffffffffffffffffffffffffffffffff1673ffffffffffffffffffffffffffffffffffffffff16634000aea08685856040518463ffffffff1660e01b8152600401613bf693929190614cb5565b602060405180830381600087803b158015613c1057600080fd5b505af1158015613c24573d6000803e3d6000fd5b505050506040513d601f19601f82011682018060405250810190613c4891906144a5565b613c87576040517f08c379a0000000000000000000000000000000000000000000000000000000008152600401613c7e90614e8b565b60405180910390fd5b949350505050565b613c976141e9565b6000602083613ca691906156ab565b14613cd257602082613cb891906156ab565b6020613cc49190615435565b82613ccf91906151e3565b91505b81836020018181525050604051808452600081528281016020016040525082905092915050565b60178167ffffffffffffffff1611613d3057613d2a8160058460ff16901b60ff161784613ea090919063ffffffff16565b50613e79565b60ff8167ffffffffffffffff1611613d8657613d5f601860058460ff16901b1784613ea090919063ffffffff16565b50613d808167ffffffffffffffff16600185613ec09092919063ffffffff16565b50613e78565b61ffff8167ffffffffffffffff1611613ddd57613db6601960058460ff16901b1784613ea090919063ffffffff16565b50613dd78167ffffffffffffffff16600285613ec09092919063ffffffff16565b50613e77565b63ffffffff8167ffffffffffffffff1611613e3657613e0f601a60058460ff16901b1784613ea090919063ffffffff16565b50613e308167ffffffffffffffff16600485613ec09092919063ffffffff16565b50613e76565b613e53601b60058460ff16901b1784613ea090919063ffffffff16565b50613e748167ffffffffffffffff16600885613ec09092919063ffffffff16565b505b5b5b5b505050565b613e866141e9565b613e9883846000015151848551613ee2565b905092915050565b613ea86141e9565b613eb88384600001515184613fd1565b905092915050565b613ec86141e9565b613ed9848560000151518585614028565b90509392505050565b613eea6141e9565b8251821115613ef857600080fd5b84602001518285613f0991906151e3565b1115613f3e57613f3d856002613f2e88602001518887613f2991906151e3565b6140b6565b613f3891906153db565b6140d2565b5b600080865180518760208301019350808887011115613f5d5787860182525b60208701925050505b60208410613fa45780518252602082613f7f91906151e3565b9150602081613f8e91906151e3565b9050602084613f9d9190615435565b9350613f66565b60006001856020036101000a03905080198251168184511681811785525050508692505050949350505050565b613fd96141e9565b83602001518310613fff57613ffe8460028660200151613ff991906153db565b6140d2565b5b835180516020858301018481538186141561401b576001820183525b5050508390509392505050565b6140306141e9565b8460200151848361404191906151e3565b111561406957614068856002868561405991906151e3565b61406391906153db565b6140d2565b5b600060018361010061407b91906152bd565b6140859190615435565b905085518386820101858319825116178152815185880111156140a85784870182525b505085915050949350505050565b6000818311156140c8578290506140cc565b8190505b92915050565b6000826000015190506140e58383613c8f565b506140f08382613e7e565b50505050565b828054614102906155d1565b90600052602060002090601f016020900481019282614124576000855561416b565b82601f1061413d57805160ff191683800117855561416b565b8280016001018555821561416b579182015b8281111561416a57825182559160200191906001019061414f565b5b5090506141789190614203565b5090565b6040518060a0016040528060008019168152602001600073ffffffffffffffffffffffffffffffffffffffff16815260200160007bffffffffffffffffffffffffffffffffffffffffffffffffffffffff19168152602001600081526020016141e36141e9565b81525090565b604051806040016040528060608152602001600081525090565b5b8082111561421c576000816000905550600101614204565b5090565b600061423361422e846150dc565b6150b7565b9050808382526020820190508285602086028201111561425657614255615800565b5b60005b85811015614286578161426c88826143ed565b845260208401935060208301925050600181019050614259565b5050509392505050565b60006142a361429e84615108565b6150b7565b9050828152602081018484840111156142bf576142be615805565b5b6142ca84828561558f565b509392505050565b6000813590506142e181615b38565b92915050565b6000813590506142f681615b4f565b92915050565b600082601f830112614311576143106157fb565b5b8151614321848260208601614220565b91505092915050565b60008151905061433981615b66565b92915050565b60008135905061434e81615b7d565b92915050565b60008083601f84011261436a576143696157fb565b5b8235905067ffffffffffffffff811115614387576143866157f6565b5b6020830191508360018202830111156143a3576143a2615800565b5b9250929050565b600082601f8301126143bf576143be6157fb565b5b81356143cf848260208601614290565b91505092915050565b6000813590506143e781615b94565b92915050565b6000815190506143fc81615b94565b92915050565b6000602082840312156144185761441761580f565b5b6000614426848285016142d2565b91505092915050565b6000602082840312156144455761444461580f565b5b6000614453848285016142e7565b91505092915050565b6000602082840312156144725761447161580f565b5b600082015167ffffffffffffffff8111156144905761448f61580a565b5b61449c848285016142fc565b91505092915050565b6000602082840312156144bb576144ba61580f565b5b60006144c98482850161432a565b91505092915050565b6000602082840312156144e8576144e761580f565b5b60006144f68482850161433f565b91505092915050565b600080604083850312156145165761451561580f565b5b60006145248582860161433f565b9250506020614535858286016143d8565b9150509250929050565b600080602083850312156145565761455561580f565b5b600083013567ffffffffffffffff8111156145745761457361580a565b5b61458085828601614354565b92509250509250929050565b600080604083850312156145a3576145a261580f565b5b600083013567ffffffffffffffff8111156145c1576145c061580a565b5b6145cd858286016143aa565b92505060206145de858286016143d8565b9150509250929050565b60008060008060008060c087890312156146055761460461580f565b5b600087013567ffffffffffffffff8111156146235761462261580a565b5b61462f89828a016143aa565b965050602061464089828a016143d8565b955050604061465189828a016143d8565b945050606061466289828a016143d8565b935050608061467389828a016143d8565b92505060a087013567ffffffffffffffff8111156146945761469361580a565b5b6146a089828a016143aa565b9150509295509295509295565b6000602082840312156146c3576146c261580f565b5b60006146d1848285016143d8565b91505092915050565b6000602082840312156146f0576146ef61580f565b5b60006146fe848285016143ed565b91505092915050565b6000806040838503121561471e5761471d61580f565b5b600061472c858286016143d8565b925050602083013567ffffffffffffffff81111561474d5761474c61580a565b5b614759858286016143aa565b9150509250929050565b600061476f83836147a2565b60208301905092915050565b60006147878383614b7b565b60208301905092915050565b61479c8161547b565b82525050565b6147ab81615469565b82525050565b6147ba81615469565b82525050565b60006147cb82615159565b6147d5818561519f565b93506147e083615139565b8060005b838110156148115781516147f88882614763565b975061480383615185565b9250506001810190506147e4565b5085935050505092915050565b600061482982615164565b61483381856151b0565b935061483e83615149565b8060005b8381101561486f578151614856888261477b565b975061486183615192565b925050600181019050614842565b5085935050505092915050565b6148858161548d565b82525050565b61489481615499565b82525050565b6148a3816154a3565b82525050565b60006148b48261516f565b6148be81856151c1565b93506148ce81856020860161559e565b6148d781615814565b840191505092915050565b6148f36148ee82615511565b61567d565b82525050565b61490281615523565b82525050565b61491181615535565b82525050565b61492081615547565b82525050565b60006149318261517a565b61493b81856151d2565b935061494b81856020860161559e565b61495481615814565b840191505092915050565b600061496c6026836151d2565b91506149778261583f565b604082019050919050565b600061498f600e836151d2565b915061499a8261588e565b602082019050919050565b60006149b26014836151d2565b91506149bd826158b7565b602082019050919050565b60006149d56019836151d2565b91506149e0826158e0565b602082019050919050565b60006149f86023836151d2565b9150614a0382615909565b604082019050919050565b6000614a1b601a836151d2565b9150614a2682615958565b602082019050919050565b6000614a3e6023836151d2565b9150614a4982615981565b604082019050919050565b6000614a616013836151d2565b9150614a6c826159d0565b602082019050919050565b6000614a846015836151d2565b9150614a8f826159f9565b602082019050919050565b6000614aa76020836151d2565b9150614ab282615a22565b602082019050919050565b6000614aca602a836151d2565b9150614ad582615a4b565b604082019050919050565b6000614aed6028836151d2565b9150614af882615a9a565b604082019050919050565b6000614b106023836151d2565b9150614b1b82615ae9565b604082019050919050565b608082016000820151614b3c6000850182614b7b565b506020820151614b4f6020850182614b7b565b506040820151614b626040850182614b7b565b506060820151614b756060850182614b7b565b50505050565b614b84816154ef565b82525050565b614b93816154ef565b82525050565b614baa614ba5826154ef565b6156a1565b82525050565b614bb98161557d565b82525050565b614bc8816154f9565b82525050565b6000614bda82856148e2565b601482019150614bea8284614b99565b6020820191508190509392505050565b6000602082019050614c0f60008301846147b1565b92915050565b6000602082019050614c2a6000830184614793565b92915050565b600061010082019050614c46600083018b6147b1565b614c53602083018a614b8a565b614c60604083018961488b565b614c6d60608301886147b1565b614c7a608083018761489a565b614c8760a0830186614b8a565b614c9460c0830185614b8a565b81810360e0830152614ca681846148a9565b90509998505050505050505050565b6000606082019050614cca60008301866147b1565b614cd76020830185614b8a565b8181036040830152614ce981846148a9565b9050949350505050565b6000604082019050614d0860008301856147b1565b614d156020830184614bb0565b9392505050565b60006020820190508181036000830152614d36818461481e565b905092915050565b6000604082019050614d53600083018561487c565b8181036020830152614d6581846148a9565b90509392505050565b6000602082019050614d83600083018461488b565b92915050565b6000602082019050614d9e60008301846148f9565b92915050565b6000602082019050614db96000830184614908565b92915050565b6000608082019050614dd46000830187614917565b8181036020830152614de681866147c0565b9050614df560408301856147b1565b614e026060830184614b8a565b95945050505050565b60006020820190508181036000830152614e248161495f565b9050919050565b60006020820190508181036000830152614e4481614982565b9050919050565b60006020820190508181036000830152614e64816149a5565b9050919050565b60006020820190508181036000830152614e84816149c8565b9050919050565b60006020820190508181036000830152614ea4816149eb565b9050919050565b60006020820190508181036000830152614ec481614a0e565b9050919050565b60006020820190508181036000830152614ee481614a31565b9050919050565b60006020820190508181036000830152614f0481614a54565b9050919050565b60006020820190508181036000830152614f2481614a77565b9050919050565b60006020820190508181036000830152614f4481614a9a565b9050919050565b60006020820190508181036000830152614f6481614abd565b9050919050565b60006020820190508181036000830152614f8481614ae0565b9050919050565b60006020820190508181036000830152614fa481614b03565b9050919050565b6000602082019050614fc06000830184614b8a565b92915050565b60006101e082019050614fdc600083018f614b8a565b8181036020830152614fee818e614926565b9050614ffd604083018d614793565b61500a606083018c614793565b818103608083015261501c818b614926565b905061502b60a083018a614b8a565b61503860c0830189614b8a565b61504560e083018861487c565b61505361010083018761487c565b61506161012083018661487c565b61506f610140830185614b8a565b61507d610160830184614b26565b9d9c50505050505050505050505050565b60006040820190506150a36000830185614b8a565b6150b06020830184614bbf565b9392505050565b60006150c16150d2565b90506150cd8282615603565b919050565b6000604051905090565b600067ffffffffffffffff8211156150f7576150f66157c7565b5b602082029050602081019050919050565b600067ffffffffffffffff821115615123576151226157c7565b5b61512c82615814565b9050602081019050919050565b6000819050602082019050919050565b6000819050602082019050919050565b600081519050919050565b600081519050919050565b600081519050919050565b600081519050919050565b6000602082019050919050565b6000602082019050919050565b600082825260208201905092915050565b600082825260208201905092915050565b600082825260208201905092915050565b600082825260208201905092915050565b60006151ee826154ef565b91506151f9836154ef565b9250827fffffffffffffffffffffffffffffffffffffffffffffffffffffffffffffffff0382111561522e5761522d6156dc565b5b828201905092915050565b6000615244826154ef565b915061524f836154ef565b92508261525f5761525e61570b565b5b828204905092915050565b6000808291508390505b60018511156152b4578086048111156152905761528f6156dc565b5b600185161561529f5780820291505b80810290506152ad85615832565b9450615274565b94509492505050565b60006152c8826154ef565b91506152d3836154ef565b92506153007fffffffffffffffffffffffffffffffffffffffffffffffffffffffffffffffff8484615308565b905092915050565b60008261531857600190506153d4565b8161532657600090506153d4565b816001811461533c576002811461534657615375565b60019150506153d4565b60ff841115615358576153576156dc565b5b8360020a91508482111561536f5761536e6156dc565b5b506153d4565b5060208310610133831016604e8410600b84101617156153aa5782820a9050838111156153a5576153a46156dc565b5b6153d4565b6153b7848484600161526a565b925090508184048111156153ce576153cd6156dc565b5b81810290505b9392505050565b60006153e6826154ef565b91506153f1836154ef565b9250817fffffffffffffffffffffffffffffffffffffffffffffffffffffffffffffffff048311821515161561542a576154296156dc565b5b828202905092915050565b6000615440826154ef565b915061544b836154ef565b92508282101561545e5761545d6156dc565b5b828203905092915050565b6000615474826154cf565b9050919050565b6000615486826154cf565b9050919050565b60008115159050919050565b6000819050919050565b60007fffffffff0000000000000000000000000000000000000000000000000000000082169050919050565b600073ffffffffffffffffffffffffffffffffffffffff82169050919050565b6000819050919050565b60006bffffffffffffffffffffffff82169050919050565b600061551c82615559565b9050919050565b600061552e82615559565b9050919050565b600061554082615559565b9050919050565b6000615552826154ef565b9050919050565b60006155648261556b565b9050919050565b6000615576826154cf565b9050919050565b6000615588826154f9565b9050919050565b82818337600083830152505050565b60005b838110156155bc5780820151818401526020810190506155a1565b838111156155cb576000848401525b50505050565b600060028204905060018216806155e957607f821691505b602082108114156155fd576155fc61573a565b5b50919050565b61560c82615814565b810181811067ffffffffffffffff8211171561562b5761562a6157c7565b5b80604052505050565b600061563f826154ef565b91507fffffffffffffffffffffffffffffffffffffffffffffffffffffffffffffffff821415615672576156716156dc565b5b600182019050919050565b60006156888261568f565b9050919050565b600061569a82615825565b9050919050565b6000819050919050565b60006156b6826154ef565b91506156c1836154ef565b9250826156d1576156d061570b565b5b828206905092915050565b7f4e487b7100000000000000000000000000000000000000000000000000000000600052601160045260246000fd5b7f4e487b7100000000000000000000000000000000000000000000000000000000600052601260045260246000fd5b7f4e487b7100000000000000000000000000000000000000000000000000000000600052602260045260246000fd5b7f4e487b7100000000000000000000000000000000000000000000000000000000600052603160045260246000fd5b7f4e487b7100000000000000000000000000000000000000000000000000000000600052603260045260246000fd5b7f4e487b7100000000000000000000000000000000000000000000000000000000600052604160045260246000fd5b600080fd5b600080fd5b600080fd5b600080fd5b600080fd5b600080fd5b6000601f19601f8301169050919050565b60008160601b9050919050565b60008160011c9050919050565b7f4f776e61626c653a206e6577206f776e657220697320746865207a65726f206160008201527f6464726573730000000000000000000000000000000000000000000000000000602082015250565b7f626574206e6f7420616374697665000000000000000000000000000000000000600082015250565b7f62657420616c7265616479206163636570746564000000000000000000000000600082015250565b7f6d696e696d756d20626574206e6f742073617469736669656400000000000000600082015250565b7f756e61626c6520746f207472616e73666572416e6443616c6c20746f206f726160008201527f636c650000000000000000000000000000000000000000000000000000000000602082015250565b7f6163636570746572206d6f6e6579206e6f7420636f7272656374000000000000600082015250565b7f6163636570742064617465206d757374206265206265666f726520656e64206460008201527f6174650000000000000000000000000000000000000000000000000000000000602082015250565b7f62657420686173206265656e20636c6f73656400000000000000000000000000600082015250565b7f54696d6520696e74657276616c206e6f74206d65740000000000000000000000600082015250565b7f4f776e61626c653a2063616c6c6572206973206e6f7420746865206f776e6572600082015250565b7f6d696e696d756d20626574206e6f742073617469736669656420666f7220616360008201527f636570742076616c756500000000000000000000000000000000000000000000602082015250565b7f536f75726365206d75737420626520746865206f7261636c65206f662074686560008201527f2072657175657374000000000000000000000000000000000000000000000000602082015250565b7f626574206973206e6f206c6f6e676572206f70656e20666f722061636365707460008201527f696e670000000000000000000000000000000000000000000000000000000000602082015250565b615b4181615469565b8114615b4c57600080fd5b50565b615b588161547b565b8114615b6357600080fd5b50565b615b6f8161548d565b8114615b7a57600080fd5b50565b615b8681615499565b8114615b9157600080fd5b50565b615b9d816154ef565b8114615ba857600080fd5b5056fea2646970667358221220e0c0af396cf95381a0f5dde43ad0a25a45176248d28bc4c3a434161bfaf6a2aa64736f6c63430008070033",
  "devdoc": {
    "kind": "dev",
    "methods": {
      "checkUpkeep(bytes)": {
        "details": "To ensure that it is never called, you may want to add the cannotExecute modifier from KeeperBase to your implementation of this method.",
        "params": {
          "checkData": "specified in the upkeep registration so it is always the same for a registered upkeep. This can easily be broken down into specific arguments using `abi.decode`, so multiple upkeeps can be registered on the same contract and easily differentiated by the contract."
        },
        "returns": {
          "performData": "bytes that the keeper should call performUpkeep with, if upkeep is needed. If you would like to encode data to decode later, try `abi.encode`.",
          "upkeepNeeded": "boolean to indicate whether the keeper should call performUpkeep or not."
        }
      },
      "owner()": {
        "details": "Returns the address of the current owner."
      },
      "performUpkeep(bytes)": {
        "details": "The input to this method should not be trusted, and the caller of the method should not even be restricted to any single registry. Anyone should be able call it, and the input should be validated, there is no guarantee that the data passed in is the performData returned from checkUpkeep. This could happen due to malicious keepers, racing keepers, or simply a state change while the performUpkeep transaction is waiting for confirmation. Always validate the data passed in.",
        "params": {
          "performData": "is the data which was passed back from the checkData simulation. If it is encoded, it can easily be decoded into other types by calling `abi.decode`. This data should not be trusted, and should be validated against the contract's current state."
        }
      },
      "renounceOwnership()": {
        "details": "Leaves the contract without owner. It will not be possible to call `onlyOwner` functions anymore. Can only be called by the current owner. NOTE: Renouncing ownership will leave the contract without an owner, thereby removing any functionality that is only available to the owner."
      },
      "transferOwnership(address)": {
        "details": "Transfers ownership of the contract to a new account (`newOwner`). Can only be called by the current owner."
      }
    },
    "version": 1
  },
  "userdoc": {
    "kind": "user",
    "methods": {
      "checkUpkeep(bytes)": {
        "notice": "method that is simulated by the keepers to see if any work actually needs to be performed. This method does does not actually need to be executable, and since it is only ever simulated it can consume lots of gas."
      },
      "performUpkeep(bytes)": {
        "notice": "method that is actually executed by the keepers, via the registry. The data returned by the checkUpkeep simulation will be passed into this method to actually be executed."
      }
    },
    "version": 1
  },
  "storageLayout": {
    "storage": [
      {
        "astId": 319,
        "contract": "contracts/BetGame.sol:BetGame",
        "label": "s_ens",
        "offset": 0,
        "slot": "0",
        "type": "t_contract(ENSInterface)1013"
      },
      {
        "astId": 321,
        "contract": "contracts/BetGame.sol:BetGame",
        "label": "s_ensNode",
        "offset": 0,
        "slot": "1",
        "type": "t_bytes32"
      },
      {
        "astId": 324,
        "contract": "contracts/BetGame.sol:BetGame",
        "label": "s_link",
        "offset": 0,
        "slot": "2",
        "type": "t_contract(LinkTokenInterface)1127"
      },
      {
        "astId": 327,
        "contract": "contracts/BetGame.sol:BetGame",
        "label": "s_oracle",
        "offset": 0,
        "slot": "3",
        "type": "t_contract(OperatorInterface)1207"
      },
      {
        "astId": 330,
        "contract": "contracts/BetGame.sol:BetGame",
        "label": "s_requestCount",
        "offset": 0,
        "slot": "4",
        "type": "t_uint256"
      },
      {
        "astId": 334,
        "contract": "contracts/BetGame.sol:BetGame",
        "label": "s_pendingRequests",
        "offset": 0,
        "slot": "5",
        "type": "t_mapping(t_bytes32,t_address)"
      },
      {
        "astId": 2241,
        "contract": "contracts/BetGame.sol:BetGame",
        "label": "_owner",
        "offset": 0,
        "slot": "6",
        "type": "t_address"
      },
      {
        "astId": 2854,
        "contract": "contracts/BetGame.sol:BetGame",
        "label": "serviceFee",
        "offset": 0,
        "slot": "7",
        "type": "t_uint256"
      },
      {
        "astId": 2856,
        "contract": "contracts/BetGame.sol:BetGame",
        "label": "minimumBet",
        "offset": 0,
        "slot": "8",
        "type": "t_uint256"
      },
      {
        "astId": 2858,
        "contract": "contracts/BetGame.sol:BetGame",
        "label": "devWallet",
        "offset": 0,
        "slot": "9",
        "type": "t_address_payable"
      },
      {
        "astId": 2895,
        "contract": "contracts/BetGame.sol:BetGame",
        "label": "globalId",
        "offset": 0,
        "slot": "10",
        "type": "t_uint256"
      },
      {
        "astId": 2900,
        "contract": "contracts/BetGame.sol:BetGame",
        "label": "allBets",
        "offset": 0,
        "slot": "11",
        "type": "t_mapping(t_uint256,t_struct(Bet)2893_storage)"
      },
      {
        "astId": 2903,
        "contract": "contracts/BetGame.sol:BetGame",
        "label": "activeBets",
        "offset": 0,
        "slot": "12",
        "type": "t_array(t_uint256)dyn_storage"
      },
      {
        "astId": 2906,
        "contract": "contracts/BetGame.sol:BetGame",
        "label": "acceptedBets",
        "offset": 0,
        "slot": "13",
        "type": "t_array(t_uint256)dyn_storage"
      },
      {
        "astId": 2908,
        "contract": "contracts/BetGame.sol:BetGame",
        "label": "oracle",
        "offset": 0,
        "slot": "14",
        "type": "t_address"
      },
      {
        "astId": 2910,
        "contract": "contracts/BetGame.sol:BetGame",
        "label": "oracleJobId",
        "offset": 0,
        "slot": "15",
        "type": "t_bytes32"
      },
      {
        "astId": 2912,
        "contract": "contracts/BetGame.sol:BetGame",
        "label": "oracleFee",
        "offset": 0,
        "slot": "16",
        "type": "t_uint256"
      },
      {
        "astId": 2916,
        "contract": "contracts/BetGame.sol:BetGame",
        "label": "requestToBet",
        "offset": 0,
        "slot": "17",
        "type": "t_mapping(t_bytes32,t_uint256)"
      },
      {
        "astId": 2919,
        "contract": "contracts/BetGame.sol:BetGame",
        "label": "keeperRegistry",
        "offset": 0,
        "slot": "18",
        "type": "t_contract(KeeperRegistryInterface)3950"
      },
      {
        "astId": 2921,
        "contract": "contracts/BetGame.sol:BetGame",
        "label": "keeperRegistryAddress",
        "offset": 0,
        "slot": "19",
        "type": "t_address"
      },
      {
        "astId": 2923,
        "contract": "contracts/BetGame.sol:BetGame",
        "label": "interval",
        "offset": 0,
        "slot": "20",
        "type": "t_uint256"
      },
      {
        "astId": 2925,
        "contract": "contracts/BetGame.sol:BetGame",
        "label": "lastTimeStamp",
        "offset": 0,
        "slot": "21",
        "type": "t_uint256"
      },
      {
        "astId": 2927,
        "contract": "contracts/BetGame.sol:BetGame",
        "label": "keeperJobId",
        "offset": 0,
        "slot": "22",
        "type": "t_uint256"
      },
      {
        "astId": 2930,
        "contract": "contracts/BetGame.sol:BetGame",
        "label": "upkeepcount",
        "offset": 0,
        "slot": "23",
        "type": "t_uint256"
      },
      {
        "astId": 2933,
        "contract": "contracts/BetGame.sol:BetGame",
        "label": "swapRouter",
        "offset": 0,
        "slot": "24",
        "type": "t_contract(IUniswapV2Router02)2834"
      },
      {
        "astId": 2935,
        "contract": "contracts/BetGame.sol:BetGame",
        "label": "weth",
        "offset": 0,
        "slot": "25",
        "type": "t_address"
      }
    ],
    "types": {
      "t_address": {
        "encoding": "inplace",
        "label": "address",
        "numberOfBytes": "20"
      },
      "t_address_payable": {
        "encoding": "inplace",
        "label": "address payable",
        "numberOfBytes": "20"
      },
      "t_array(t_uint256)dyn_storage": {
        "base": "t_uint256",
        "encoding": "dynamic_array",
        "label": "uint256[]",
        "numberOfBytes": "32"
      },
      "t_bool": {
        "encoding": "inplace",
        "label": "bool",
        "numberOfBytes": "1"
      },
      "t_bytes32": {
        "encoding": "inplace",
        "label": "bytes32",
        "numberOfBytes": "32"
      },
      "t_contract(ENSInterface)1013": {
        "encoding": "inplace",
        "label": "contract ENSInterface",
        "numberOfBytes": "20"
      },
      "t_contract(IUniswapV2Router02)2834": {
        "encoding": "inplace",
        "label": "contract IUniswapV2Router02",
        "numberOfBytes": "20"
      },
      "t_contract(KeeperRegistryInterface)3950": {
        "encoding": "inplace",
        "label": "contract KeeperRegistryInterface",
        "numberOfBytes": "20"
      },
      "t_contract(LinkTokenInterface)1127": {
        "encoding": "inplace",
        "label": "contract LinkTokenInterface",
        "numberOfBytes": "20"
      },
      "t_contract(OperatorInterface)1207": {
        "encoding": "inplace",
        "label": "contract OperatorInterface",
        "numberOfBytes": "20"
      },
      "t_mapping(t_bytes32,t_address)": {
        "encoding": "mapping",
        "key": "t_bytes32",
        "label": "mapping(bytes32 => address)",
        "numberOfBytes": "32",
        "value": "t_address"
      },
      "t_mapping(t_bytes32,t_uint256)": {
        "encoding": "mapping",
        "key": "t_bytes32",
        "label": "mapping(bytes32 => uint256)",
        "numberOfBytes": "32",
        "value": "t_uint256"
      },
      "t_mapping(t_uint256,t_struct(Bet)2893_storage)": {
        "encoding": "mapping",
        "key": "t_uint256",
        "label": "mapping(uint256 => struct BetGame.Bet)",
        "numberOfBytes": "32",
        "value": "t_struct(Bet)2893_storage"
      },
      "t_string_storage": {
        "encoding": "bytes",
        "label": "string",
        "numberOfBytes": "32"
      },
      "t_struct(Bet)2893_storage": {
        "encoding": "inplace",
        "label": "struct BetGame.Bet",
        "members": [
          {
            "astId": 2869,
            "contract": "contracts/BetGame.sol:BetGame",
            "label": "id",
            "offset": 0,
            "slot": "0",
            "type": "t_uint256"
          },
          {
            "astId": 2871,
            "contract": "contracts/BetGame.sol:BetGame",
            "label": "title",
            "offset": 0,
            "slot": "1",
            "type": "t_string_storage"
          },
          {
            "astId": 2873,
            "contract": "contracts/BetGame.sol:BetGame",
            "label": "creator",
            "offset": 0,
            "slot": "2",
            "type": "t_address_payable"
          },
          {
            "astId": 2875,
            "contract": "contracts/BetGame.sol:BetGame",
            "label": "acceptor",
            "offset": 0,
            "slot": "3",
            "type": "t_address_payable"
          },
          {
            "astId": 2877,
            "contract": "contracts/BetGame.sol:BetGame",
            "label": "apiURL",
            "offset": 0,
            "slot": "4",
            "type": "t_string_storage"
          },
          {
            "astId": 2879,
            "contract": "contracts/BetGame.sol:BetGame",
            "label": "amount",
            "offset": 0,
            "slot": "5",
            "type": "t_uint256"
          },
          {
            "astId": 2881,
            "contract": "contracts/BetGame.sol:BetGame",
            "label": "acceptValue",
            "offset": 0,
            "slot": "6",
            "type": "t_uint256"
          },
          {
            "astId": 2883,
            "contract": "contracts/BetGame.sol:BetGame",
            "label": "accepted",
            "offset": 0,
            "slot": "7",
            "type": "t_bool"
          },
          {
            "astId": 2885,
            "contract": "contracts/BetGame.sol:BetGame",
            "label": "active",
            "offset": 1,
            "slot": "7",
            "type": "t_bool"
          },
          {
            "astId": 2887,
            "contract": "contracts/BetGame.sol:BetGame",
            "label": "closed",
            "offset": 2,
            "slot": "7",
            "type": "t_bool"
          },
          {
            "astId": 2889,
            "contract": "contracts/BetGame.sol:BetGame",
            "label": "countArts",
            "offset": 0,
            "slot": "8",
            "type": "t_uint256"
          },
          {
            "astId": 2892,
            "contract": "contracts/BetGame.sol:BetGame",
            "label": "timeProps",
            "offset": 0,
            "slot": "9",
            "type": "t_struct(TimeProps)2867_storage"
          }
        ],
        "numberOfBytes": "416"
      },
      "t_struct(TimeProps)2867_storage": {
        "encoding": "inplace",
        "label": "struct BetGame.TimeProps",
        "members": [
          {
            "astId": 2860,
            "contract": "contracts/BetGame.sol:BetGame",
            "label": "createdDate",
            "offset": 0,
            "slot": "0",
            "type": "t_uint256"
          },
          {
            "astId": 2862,
            "contract": "contracts/BetGame.sol:BetGame",
            "label": "acceptByDate",
            "offset": 0,
            "slot": "1",
            "type": "t_uint256"
          },
          {
            "astId": 2864,
            "contract": "contracts/BetGame.sol:BetGame",
            "label": "startDate",
            "offset": 0,
            "slot": "2",
            "type": "t_uint256"
          },
          {
            "astId": 2866,
            "contract": "contracts/BetGame.sol:BetGame",
            "label": "expirationDate",
            "offset": 0,
            "slot": "3",
            "type": "t_uint256"
          }
        ],
        "numberOfBytes": "128"
      },
      "t_uint256": {
        "encoding": "inplace",
        "label": "uint256",
        "numberOfBytes": "32"
      }
    }
  }
}