{
  "address": "0xc2E23072144C98499CAD036484b2d6b35De5A77C",
  "abi": [
    {
      "inputs": [
        {
          "internalType": "uint256",
          "name": "_minimumBet",
          "type": "uint256"
        },
        {
          "internalType": "uint256",
          "name": "_interval",
          "type": "uint256"
        },
        {
          "internalType": "address",
          "name": "_link",
          "type": "address"
        },
        {
          "internalType": "address",
          "name": "_oracle",
          "type": "address"
        },
        {
          "internalType": "bytes32",
          "name": "_jobId",
          "type": "bytes32"
        },
        {
          "internalType": "uint256",
          "name": "_oracleFee",
          "type": "uint256"
        }
      ],
      "stateMutability": "nonpayable",
      "type": "constructor"
    },
    {
      "anonymous": false,
      "inputs": [
        {
          "indexed": true,
          "internalType": "bytes32",
          "name": "id",
          "type": "bytes32"
        }
      ],
      "name": "ChainlinkCancelled",
      "type": "event"
    },
    {
      "anonymous": false,
      "inputs": [
        {
          "indexed": true,
          "internalType": "bytes32",
          "name": "id",
          "type": "bytes32"
        }
      ],
      "name": "ChainlinkFulfilled",
      "type": "event"
    },
    {
      "anonymous": false,
      "inputs": [
        {
          "indexed": true,
          "internalType": "bytes32",
          "name": "id",
          "type": "bytes32"
        }
      ],
      "name": "ChainlinkRequested",
      "type": "event"
    },
    {
      "anonymous": false,
      "inputs": [
        {
          "indexed": true,
          "internalType": "address",
          "name": "previousOwner",
          "type": "address"
        },
        {
          "indexed": true,
          "internalType": "address",
          "name": "newOwner",
          "type": "address"
        }
      ],
      "name": "OwnershipTransferred",
      "type": "event"
    },
    {
      "inputs": [
        {
          "internalType": "uint256",
          "name": "_betId",
          "type": "uint256"
        },
        {
          "internalType": "string",
          "name": "_apiURL",
          "type": "string"
        }
      ],
      "name": "acceptBet",
      "outputs": [],
      "stateMutability": "payable",
      "type": "function"
    },
    {
      "inputs": [
        {
          "internalType": "uint256",
          "name": "",
          "type": "uint256"
        }
      ],
      "name": "acceptedBets",
      "outputs": [
        {
          "internalType": "uint256",
          "name": "",
          "type": "uint256"
        }
      ],
      "stateMutability": "view",
      "type": "function"
    },
    {
      "inputs": [
        {
          "internalType": "uint256",
          "name": "",
          "type": "uint256"
        }
      ],
      "name": "activeBets",
      "outputs": [
        {
          "internalType": "uint256",
          "name": "",
          "type": "uint256"
        }
      ],
      "stateMutability": "view",
      "type": "function"
    },
    {
      "inputs": [
        {
          "internalType": "uint256",
          "name": "",
          "type": "uint256"
        }
      ],
      "name": "allBets",
      "outputs": [
        {
          "internalType": "uint256",
          "name": "id",
          "type": "uint256"
        },
        {
          "internalType": "string",
          "name": "title",
          "type": "string"
        },
        {
          "internalType": "address payable",
          "name": "creator",
          "type": "address"
        },
        {
          "internalType": "address payable",
          "name": "acceptor",
          "type": "address"
        },
        {
          "internalType": "string",
          "name": "apiURL",
          "type": "string"
        },
        {
          "internalType": "uint256",
          "name": "amount",
          "type": "uint256"
        },
        {
          "internalType": "uint256",
          "name": "acceptValue",
          "type": "uint256"
        },
        {
          "internalType": "bool",
          "name": "accepted",
          "type": "bool"
        },
        {
          "internalType": "bool",
          "name": "active",
          "type": "bool"
        },
        {
          "internalType": "bool",
          "name": "closed",
          "type": "bool"
        },
        {
          "internalType": "uint256",
          "name": "countArts",
          "type": "uint256"
        },
        {
          "components": [
            {
              "internalType": "uint256",
              "name": "createdDate",
              "type": "uint256"
            },
            {
              "internalType": "uint256",
              "name": "acceptByDate",
              "type": "uint256"
            },
            {
              "internalType": "uint256",
              "name": "startDate",
              "type": "uint256"
            },
            {
              "internalType": "uint256",
              "name": "expirationDate",
              "type": "uint256"
            }
          ],
          "internalType": "struct BetGame.TimeProps",
          "name": "timeProps",
          "type": "tuple"
        }
      ],
      "stateMutability": "view",
      "type": "function"
    },
    {
      "inputs": [
        {
          "internalType": "uint256",
          "name": "_id",
          "type": "uint256"
        }
      ],
      "name": "checkBet",
      "outputs": [],
      "stateMutability": "nonpayable",
      "type": "function"
    },
    {
      "inputs": [
        {
          "internalType": "bytes",
          "name": "checkData",
          "type": "bytes"
        }
      ],
      "name": "checkUpkeep",
      "outputs": [
        {
          "internalType": "bool",
          "name": "upkeepNeeded",
          "type": "bool"
        },
        {
          "internalType": "bytes",
          "name": "performData",
          "type": "bytes"
        }
      ],
      "stateMutability": "view",
      "type": "function"
    },
    {
      "inputs": [
        {
          "internalType": "uint256",
          "name": "_eth",
          "type": "uint256"
        }
      ],
      "name": "convertEthToLink",
      "outputs": [
        {
          "internalType": "uint256",
          "name": "",
          "type": "uint256"
        }
      ],
      "stateMutability": "nonpayable",
      "type": "function"
    },
    {
      "inputs": [
        {
          "internalType": "string",
          "name": "_apiURL",
          "type": "string"
        },
        {
          "internalType": "uint256",
          "name": "_acceptValue",
          "type": "uint256"
        },
        {
          "internalType": "uint256",
          "name": "_countArts",
          "type": "uint256"
        },
        {
          "internalType": "uint256",
          "name": "_endDate",
          "type": "uint256"
        },
        {
          "internalType": "uint256",
          "name": "_acceptdate",
          "type": "uint256"
        },
        {
          "internalType": "string",
          "name": "_title",
          "type": "string"
        }
      ],
      "name": "createBet",
      "outputs": [],
      "stateMutability": "payable",
      "type": "function"
    },
    {
      "inputs": [],
      "name": "devWallet",
      "outputs": [
        {
          "internalType": "address payable",
          "name": "",
          "type": "address"
        }
      ],
      "stateMutability": "view",
      "type": "function"
    },
    {
      "inputs": [
        {
          "internalType": "bytes32",
          "name": "_requestId",
          "type": "bytes32"
        },
        {
          "internalType": "uint256",
          "name": "_volume",
          "type": "uint256"
        }
      ],
      "name": "fulfill",
      "outputs": [],
      "stateMutability": "nonpayable",
      "type": "function"
    },
    {
      "inputs": [
        {
          "internalType": "uint256",
          "name": "_ethamount",
          "type": "uint256"
        }
      ],
      "name": "fundKeeper",
      "outputs": [],
      "stateMutability": "nonpayable",
      "type": "function"
    },
    {
      "inputs": [],
      "name": "getEthBalance",
      "outputs": [
        {
          "internalType": "uint256",
          "name": "",
          "type": "uint256"
        }
      ],
      "stateMutability": "view",
      "type": "function"
    },
    {
      "inputs": [],
      "name": "getLinkBalance",
      "outputs": [
        {
          "internalType": "uint256",
          "name": "",
          "type": "uint256"
        }
      ],
      "stateMutability": "view",
      "type": "function"
    },
    {
      "inputs": [],
      "name": "getServiceFee",
      "outputs": [
        {
          "internalType": "uint256",
          "name": "",
          "type": "uint256"
        }
      ],
      "stateMutability": "view",
      "type": "function"
    },
    {
      "inputs": [],
      "name": "globalId",
      "outputs": [
        {
          "internalType": "uint256",
          "name": "",
          "type": "uint256"
        }
      ],
      "stateMutability": "view",
      "type": "function"
    },
    {
      "inputs": [],
      "name": "interval",
      "outputs": [
        {
          "internalType": "uint256",
          "name": "",
          "type": "uint256"
        }
      ],
      "stateMutability": "view",
      "type": "function"
    },
    {
      "inputs": [],
      "name": "keeperJobId",
      "outputs": [
        {
          "internalType": "uint256",
          "name": "",
          "type": "uint256"
        }
      ],
      "stateMutability": "view",
      "type": "function"
    },
    {
      "inputs": [],
      "name": "keeperRegistry",
      "outputs": [
        {
          "internalType": "contract KeeperRegistryInterface",
          "name": "",
          "type": "address"
        }
      ],
      "stateMutability": "view",
      "type": "function"
    },
    {
      "inputs": [],
      "name": "keeperRegistryAddress",
      "outputs": [
        {
          "internalType": "address",
          "name": "",
          "type": "address"
        }
      ],
      "stateMutability": "view",
      "type": "function"
    },
    {
      "inputs": [],
      "name": "lastTimeStamp",
      "outputs": [
        {
          "internalType": "uint256",
          "name": "",
          "type": "uint256"
        }
      ],
      "stateMutability": "view",
      "type": "function"
    },
    {
      "inputs": [],
      "name": "minimumBet",
      "outputs": [
        {
          "internalType": "uint256",
          "name": "",
          "type": "uint256"
        }
      ],
      "stateMutability": "view",
      "type": "function"
    },
    {
      "inputs": [],
      "name": "owner",
      "outputs": [
        {
          "internalType": "address",
          "name": "",
          "type": "address"
        }
      ],
      "stateMutability": "view",
      "type": "function"
    },
    {
      "inputs": [
        {
          "internalType": "bytes",
          "name": "performData",
          "type": "bytes"
        }
      ],
      "name": "performUpkeep",
      "outputs": [],
      "stateMutability": "nonpayable",
      "type": "function"
    },
    {
      "inputs": [],
      "name": "renounceOwnership",
      "outputs": [],
      "stateMutability": "nonpayable",
      "type": "function"
    },
    {
      "inputs": [
        {
          "internalType": "string",
          "name": "_apiURL",
          "type": "string"
        },
        {
          "internalType": "uint256",
          "name": "_id",
          "type": "uint256"
        }
      ],
      "name": "requestVolumeData",
      "outputs": [
        {
          "internalType": "bytes32",
          "name": "requestId",
          "type": "bytes32"
        }
      ],
      "stateMutability": "nonpayable",
      "type": "function"
    },
    {
      "inputs": [],
      "name": "serviceFee",
      "outputs": [
        {
          "internalType": "uint256",
          "name": "",
          "type": "uint256"
        }
      ],
      "stateMutability": "view",
      "type": "function"
    },
    {
      "inputs": [
        {
          "internalType": "address payable",
          "name": "_devWallet",
          "type": "address"
        }
      ],
      "name": "setDevWallet",
      "outputs": [],
      "stateMutability": "nonpayable",
      "type": "function"
    },
    {
      "inputs": [
        {
          "internalType": "uint256",
          "name": "_interval",
          "type": "uint256"
        }
      ],
      "name": "setInterval",
      "outputs": [],
      "stateMutability": "nonpayable",
      "type": "function"
    },
    {
      "inputs": [
        {
          "internalType": "bytes32",
          "name": "_jobId",
          "type": "bytes32"
        }
      ],
      "name": "setJobId",
      "outputs": [],
      "stateMutability": "nonpayable",
      "type": "function"
    },
    {
      "inputs": [
        {
          "internalType": "uint256",
          "name": "_keeperJobId",
          "type": "uint256"
        }
      ],
      "name": "setKeeperJob",
      "outputs": [],
      "stateMutability": "nonpayable",
      "type": "function"
    },
    {
      "inputs": [
        {
          "internalType": "address",
          "name": "_add",
          "type": "address"
        }
      ],
      "name": "setKeeperRegistry",
      "outputs": [],
      "stateMutability": "nonpayable",
      "type": "function"
    },
    {
      "inputs": [
        {
          "internalType": "uint256",
          "name": "_minimumBet",
          "type": "uint256"
        }
      ],
      "name": "setMinimumBet",
      "outputs": [],
      "stateMutability": "nonpayable",
      "type": "function"
    },
    {
      "inputs": [
        {
          "internalType": "address",
          "name": "_oracle",
          "type": "address"
        }
      ],
      "name": "setOracle",
      "outputs": [],
      "stateMutability": "nonpayable",
      "type": "function"
    },
    {
      "inputs": [
        {
          "internalType": "uint256",
          "name": "_eth",
          "type": "uint256"
        }
      ],
      "name": "setServiceFee",
      "outputs": [],
      "stateMutability": "nonpayable",
      "type": "function"
    },
    {
      "inputs": [
        {
          "internalType": "address",
          "name": "_router",
          "type": "address"
        }
      ],
      "name": "setSwapRouter",
      "outputs": [],
      "stateMutability": "nonpayable",
      "type": "function"
    },
    {
      "inputs": [
        {
          "internalType": "address",
          "name": "_weth",
          "type": "address"
        }
      ],
      "name": "setWETHAddress",
      "outputs": [],
      "stateMutability": "nonpayable",
      "type": "function"
    },
    {
      "inputs": [],
      "name": "swapRouter",
      "outputs": [
        {
          "internalType": "contract IUniswapV2Router02",
          "name": "",
          "type": "address"
        }
      ],
      "stateMutability": "view",
      "type": "function"
    },
    {
      "inputs": [
        {
          "internalType": "address",
          "name": "newOwner",
          "type": "address"
        }
      ],
      "name": "transferOwnership",
      "outputs": [],
      "stateMutability": "nonpayable",
      "type": "function"
    },
    {
      "inputs": [],
      "name": "weth",
      "outputs": [
        {
          "internalType": "address",
          "name": "",
          "type": "address"
        }
      ],
      "stateMutability": "view",
      "type": "function"
    }
  ],
  "transactionHash": "0xda52685bc3186cd7b3b7e0792f7bda930291acc9914a8aacae72252dcca786ac",
  "args": [
    1000000000000000,
    1,
    "0xa36085F69e2889c224210F603D836748e7dC0088",
    "0xc57b33452b4f7bb189bb5afae9cc4aba1f7a4fd8",
    {
      "0": 100,
      "1": 53,
      "2": 50,
      "3": 55,
      "4": 48,
      "5": 100,
      "6": 49,
      "7": 99,
      "8": 51,
      "9": 49,
      "10": 49,
      "11": 57,
      "12": 52,
      "13": 49,
      "14": 100,
      "15": 48,
      "16": 98,
      "17": 48,
      "18": 56,
      "19": 98,
      "20": 101,
      "21": 97,
      "22": 100,
      "23": 50,
      "24": 49,
      "25": 102,
      "26": 101,
      "27": 97,
      "28": 55,
      "29": 55,
      "30": 52,
      "31": 55
    },
    "100000000000000000"
  ],
  "numDeployments": 5,
  "solcInputHash": "80a84b1c552d0ebce9ed35eaf54d24dd",
  "bytecode": "0x608060405260016004553480156200001657600080fd5b5060405162005ffb38038062005ffb83398181016040528101906200003c9190620004c0565b6200005c620000506200028f60201b60201c565b6200029760201b60201c565b856008819055508460148190555042601581905550600073ffffffffffffffffffffffffffffffffffffffff168473ffffffffffffffffffffffffffffffffffffffff161415620000bd57620000b76200035d60201b60201c565b620000cf565b620000ce846200040560201b60201c565b5b82600e60006101000a81548173ffffffffffffffffffffffffffffffffffffffff021916908373ffffffffffffffffffffffffffffffffffffffff16021790555081600f81905550806010819055506000600781905550737a250d5630b4cf539739df2c5dacb4c659f2488d601760006101000a81548173ffffffffffffffffffffffffffffffffffffffff021916908373ffffffffffffffffffffffffffffffffffffffff16021790555073d0a1e359811322d97991e03f863a0c30c2cf029c601860006101000a81548173ffffffffffffffffffffffffffffffffffffffff021916908373ffffffffffffffffffffffffffffffffffffffff160217905550734cb093f226983713164a62138c3f718a5b595f73601360006101000a81548173ffffffffffffffffffffffffffffffffffffffff021916908373ffffffffffffffffffffffffffffffffffffffff160217905550734cb093f226983713164a62138c3f718a5b595f73601260006101000a81548173ffffffffffffffffffffffffffffffffffffffff021916908373ffffffffffffffffffffffffffffffffffffffff160217905550610c22601681905550505050505050620005f7565b600033905090565b6000600660009054906101000a900473ffffffffffffffffffffffffffffffffffffffff16905081600660006101000a81548173ffffffffffffffffffffffffffffffffffffffff021916908373ffffffffffffffffffffffffffffffffffffffff1602179055508173ffffffffffffffffffffffffffffffffffffffff168173ffffffffffffffffffffffffffffffffffffffff167f8be0079c531659141344cd1fd0a4f28419497f9722a3daafe3b4186f6b6457e060405160405180910390a35050565b6200040373c89bd4e1632d3a43cb03aaad5262cbe4038bc57173ffffffffffffffffffffffffffffffffffffffff166338cc48316040518163ffffffff1660e01b815260040160206040518083038186803b158015620003bc57600080fd5b505afa158015620003d1573d6000803e3d6000fd5b505050506040513d601f19601f82011682018060405250810190620003f791906200048e565b6200040560201b60201c565b565b80600260006101000a81548173ffffffffffffffffffffffffffffffffffffffff021916908373ffffffffffffffffffffffffffffffffffffffff16021790555050565b6000815190506200045a81620005a9565b92915050565b6000815190506200047181620005c3565b92915050565b6000815190506200048881620005dd565b92915050565b600060208284031215620004a757620004a6620005a4565b5b6000620004b78482850162000449565b91505092915050565b60008060008060008060c08789031215620004e057620004df620005a4565b5b6000620004f089828a0162000477565b96505060206200050389828a0162000477565b95505060406200051689828a0162000449565b94505060606200052989828a0162000449565b93505060806200053c89828a0162000460565b92505060a06200054f89828a0162000477565b9150509295509295509295565b600062000569826200057a565b9050919050565b6000819050919050565b600073ffffffffffffffffffffffffffffffffffffffff82169050919050565b6000819050919050565b600080fd5b620005b4816200055c565b8114620005c057600080fd5b50565b620005ce8162000570565b8114620005da57600080fd5b50565b620005e8816200059a565b8114620005f457600080fd5b50565b6159f480620006076000396000f3fe6080604052600436106102305760003560e01c80637adbf9731161012e578063af768ee3116100ab578063ca6668231161006f578063ca66682314610807578063d05ef7ab14610832578063e0ced0e11461085d578063ecab9698146108a5578063f2fde38b146108c157610230565b8063af768ee31461070e578063b4c0a1d41461074b578063bb1edf8214610788578063c31c9c07146107b1578063c38a8afd146107dc57610230565b80638abdf5aa116100f25780638abdf5aa146106395780638da5cb5b146106645780638ea5220f1461068f578063947a36fb146106ba578063a128c4d2146106e557610230565b80637adbf9731461055657806383e227741461057f57806384f4412f146105aa5780638772ae3c146105e757806387f7777d1461061057610230565b80634585e33b116101bc5780636a4234eb116101805780636a4234eb146104705780636e04ff0d1461049957806370ed0ada146104d7578063711bc98314610502578063715018a61461053f57610230565b80634585e33b146103ae578063508954f8146103d757806350c5f975146104005780635cdf76f81461042b5780635cf54b041461045457610230565b80633f3b3b27116102035780633f3b3b27146102dd5780633fc8cef31461030857806341273657146103335780634357855e1461035c57806345777fee1461038557610230565b806311a1933c146102355780631e11004f146102605780631f53ac021461028b57806322a90082146102b4575b600080fd5b34801561024157600080fd5b5061024a6108ea565b6040516102579190614df7565b60405180910390f35b34801561026c57600080fd5b506102756108f4565b6040516102829190614df7565b60405180910390f35b34801561029757600080fd5b506102b260048036038101906102ad9190614313565b6108fa565b005b3480156102c057600080fd5b506102db60048036038101906102d69190614591565b6109ba565b005b3480156102e957600080fd5b506102f2610a40565b6040516102ff9190614df7565b60405180910390f35b34801561031457600080fd5b5061031d610a46565b60405161032a9190614a68565b60405180910390f35b34801561033f57600080fd5b5061035a600480360381019061035591906142e6565b610a6c565b005b34801561036857600080fd5b50610383600480360381019061037e91906143e3565b610b2c565b005b34801561039157600080fd5b506103ac60048036038101906103a79190614591565b610c6b565b005b3480156103ba57600080fd5b506103d560048036038101906103d09190614423565b610dc4565b005b3480156103e357600080fd5b506103fe60048036038101906103f991906143b6565b610e30565b005b34801561040c57600080fd5b50610415610eb6565b6040516104229190614df7565b60405180910390f35b34801561043757600080fd5b50610452600480360381019061044d9190614591565b610f52565b005b61046e600480360381019061046991906145eb565b610fd8565b005b34801561047c57600080fd5b50610497600480360381019061049291906142e6565b61166c565b005b3480156104a557600080fd5b506104c060048036038101906104bb9190614423565b61172c565b6040516104ce929190614b8a565b60405180910390f35b3480156104e357600080fd5b506104ec611792565b6040516104f99190614df7565b60405180910390f35b34801561050e57600080fd5b5061052960048036038101906105249190614591565b61179a565b6040516105369190614df7565b60405180910390f35b34801561054b57600080fd5b506105546117be565b005b34801561056257600080fd5b5061057d600480360381019061057891906142e6565b611846565b005b34801561058b57600080fd5b50610594611915565b6040516105a19190614bf0565b60405180910390f35b3480156105b657600080fd5b506105d160048036038101906105cc9190614591565b61193b565b6040516105de9190614df7565b60405180910390f35b3480156105f357600080fd5b5061060e60048036038101906106099190614591565b611b4c565b005b34801561061c57600080fd5b5061063760048036038101906106329190614591565b611bd2565b005b34801561064557600080fd5b5061064e611e8d565b60405161065b9190614df7565b60405180910390f35b34801561067057600080fd5b50610679611e93565b6040516106869190614a68565b60405180910390f35b34801561069b57600080fd5b506106a4611ebd565b6040516106b19190614a83565b60405180910390f35b3480156106c657600080fd5b506106cf611ee3565b6040516106dc9190614df7565b60405180910390f35b3480156106f157600080fd5b5061070c600480360381019061070791906142e6565b611ee9565b005b34801561071a57600080fd5b5061073560048036038101906107309190614591565b611fea565b6040516107429190614df7565b60405180910390f35b34801561075757600080fd5b50610772600480360381019061076d9190614470565b61200e565b60405161077f9190614bba565b60405180910390f35b34801561079457600080fd5b506107af60048036038101906107aa9190614591565b612140565b005b3480156107bd57600080fd5b506107c66121c6565b6040516107d39190614bd5565b60405180910390f35b3480156107e857600080fd5b506107f16121ec565b6040516107fe9190614df7565b60405180910390f35b34801561081357600080fd5b5061081c6121f2565b6040516108299190614df7565b60405180910390f35b34801561083e57600080fd5b506108476121f8565b6040516108549190614a68565b60405180910390f35b34801561086957600080fd5b50610884600480360381019061087f9190614591565b61221e565b60405161089c9c9b9a99989796959493929190614e12565b60405180910390f35b6108bf60048036038101906108ba91906144cc565b612427565b005b3480156108cd57600080fd5b506108e860048036038101906108e391906142e6565b6127af565b005b6000600754905090565b60165481565b6109026128a7565b73ffffffffffffffffffffffffffffffffffffffff16610920611e93565b73ffffffffffffffffffffffffffffffffffffffff1614610976576040517f08c379a000000000000000000000000000000000000000000000000000000000815260040161096d90614d77565b60405180910390fd5b80600960006101000a81548173ffffffffffffffffffffffffffffffffffffffff021916908373ffffffffffffffffffffffffffffffffffffffff16021790555050565b6109c26128a7565b73ffffffffffffffffffffffffffffffffffffffff166109e0611e93565b73ffffffffffffffffffffffffffffffffffffffff1614610a36576040517f08c379a0000000000000000000000000000000000000000000000000000000008152600401610a2d90614d77565b60405180910390fd5b8060148190555050565b60155481565b601860009054906101000a900473ffffffffffffffffffffffffffffffffffffffff1681565b610a746128a7565b73ffffffffffffffffffffffffffffffffffffffff16610a92611e93565b73ffffffffffffffffffffffffffffffffffffffff1614610ae8576040517f08c379a0000000000000000000000000000000000000000000000000000000008152600401610adf90614d77565b60405180910390fd5b80601760006101000a81548173ffffffffffffffffffffffffffffffffffffffff021916908373ffffffffffffffffffffffffffffffffffffffff16021790555050565b816005600082815260200190815260200160002060009054906101000a900473ffffffffffffffffffffffffffffffffffffffff1673ffffffffffffffffffffffffffffffffffffffff163373ffffffffffffffffffffffffffffffffffffffff1614610bce576040517f08c379a0000000000000000000000000000000000000000000000000000000008152600401610bc590614db7565b60405180910390fd5b6005600082815260200190815260200160002060006101000a81549073ffffffffffffffffffffffffffffffffffffffff0219169055807f7cc135e0cebb02c3480ae5d74d377283180a2601f8f644edf7987b009316c63a60405160405180910390a26000606483610c40919061504c565b9050600060116000868152602001908152602001600020549050610c6481836128af565b5050505050565b6000610c768261193b565b9050610c80612fb8565b73ffffffffffffffffffffffffffffffffffffffff1663095ea7b3601360009054906101000a900473ffffffffffffffffffffffffffffffffffffffff16836040518363ffffffff1660e01b8152600401610cdc929190614b61565b602060405180830381600087803b158015610cf657600080fd5b505af1158015610d0a573d6000803e3d6000fd5b505050506040513d601f19601f82011682018060405250810190610d2e9190614389565b50601260009054906101000a900473ffffffffffffffffffffffffffffffffffffffff1673ffffffffffffffffffffffffffffffffffffffff1663948108f7601654836040518363ffffffff1660e01b8152600401610d8e929190614eda565b600060405180830381600087803b158015610da857600080fd5b505af1158015610dbc573d6000803e3d6000fd5b505050505050565b60145460155442610dd59190615248565b11610e15576040517f08c379a0000000000000000000000000000000000000000000000000000000008152600401610e0c90614d57565b60405180910390fd5b42601581905550610e24612fe2565b610e2c613311565b5050565b610e386128a7565b73ffffffffffffffffffffffffffffffffffffffff16610e56611e93565b73ffffffffffffffffffffffffffffffffffffffff1614610eac576040517f08c379a0000000000000000000000000000000000000000000000000000000008152600401610ea390614d77565b60405180910390fd5b80600f8190555050565b600080610ec1612fb8565b90508073ffffffffffffffffffffffffffffffffffffffff166370a08231306040518263ffffffff1660e01b8152600401610efc9190614a68565b60206040518083038186803b158015610f1457600080fd5b505afa158015610f28573d6000803e3d6000fd5b505050506040513d601f19601f82011682018060405250810190610f4c91906145be565b91505090565b610f5a6128a7565b73ffffffffffffffffffffffffffffffffffffffff16610f78611e93565b73ffffffffffffffffffffffffffffffffffffffff1614610fce576040517f08c379a0000000000000000000000000000000000000000000000000000000008152600401610fc590614d77565b60405180910390fd5b8060078190555050565b6000600b60008481526020019081526020016000206040518061018001604052908160008201548152602001600182018054611013906153e4565b80601f016020809104026020016040519081016040528092919081815260200182805461103f906153e4565b801561108c5780601f106110615761010080835404028352916020019161108c565b820191906000526020600020905b81548152906001019060200180831161106f57829003601f168201915b505050505081526020016002820160009054906101000a900473ffffffffffffffffffffffffffffffffffffffff1673ffffffffffffffffffffffffffffffffffffffff1673ffffffffffffffffffffffffffffffffffffffff1681526020016003820160009054906101000a900473ffffffffffffffffffffffffffffffffffffffff1673ffffffffffffffffffffffffffffffffffffffff1673ffffffffffffffffffffffffffffffffffffffff168152602001600482018054611151906153e4565b80601f016020809104026020016040519081016040528092919081815260200182805461117d906153e4565b80156111ca5780601f1061119f576101008083540402835291602001916111ca565b820191906000526020600020905b8154815290600101906020018083116111ad57829003601f168201915b5050505050815260200160058201548152602001600682015481526020016007820160009054906101000a900460ff161515151581526020016007820160019054906101000a900460ff161515151581526020016007820160029054906101000a900460ff161515151581526020016008820154815260200160098201604051806080016040529081600082015481526020016001820154815260200160028201548152602001600382015481525050815250509050600115158161010001511515146112cc576040517f08c379a00000000000000000000000000000000000000000000000000000000081526004016112c390614c77565b60405180910390fd5b600015158160e00151151514611317576040517f08c379a000000000000000000000000000000000000000000000000000000000815260040161130e90614c97565b60405180910390fd5b60001515816101200151151514611363576040517f08c379a000000000000000000000000000000000000000000000000000000000815260040161135a90614d37565b60405180910390fd5b346007548260c001516113769190614ff6565b146113b6576040517f08c379a00000000000000000000000000000000000000000000000000000000081526004016113ad90614cf7565b60405180910390fd5b80610160015160200151421115611402576040517f08c379a00000000000000000000000000000000000000000000000000000000081526004016113f990614dd7565b60405180910390fd5b42816101600151604001818152505060018160e0019015159081151581525050818160800181905250600754346114399190615248565b8160a00181815161144a9190614ff6565b9150818152505033816060019073ffffffffffffffffffffffffffffffffffffffff16908173ffffffffffffffffffffffffffffffffffffffff1681525050611498600c826000015161361c565b80600b6000836000015181526020019081526020016000206000820151816000015560208201518160010190805190602001906114d6929190613fda565b5060408201518160020160006101000a81548173ffffffffffffffffffffffffffffffffffffffff021916908373ffffffffffffffffffffffffffffffffffffffff16021790555060608201518160030160006101000a81548173ffffffffffffffffffffffffffffffffffffffff021916908373ffffffffffffffffffffffffffffffffffffffff1602179055506080820151816004019080519060200190611581929190613fda565b5060a0820151816005015560c0820151816006015560e08201518160070160006101000a81548160ff0219169083151502179055506101008201518160070160016101000a81548160ff0219169083151502179055506101208201518160070160026101000a81548160ff021916908315150217905550610140820151816008015561016082015181600901600082015181600001556020820151816001015560408201518160020155606082015181600301555050905050600d81600001519080600181540180825580915050600190039060005260206000200160009091909190915055505050565b6116746128a7565b73ffffffffffffffffffffffffffffffffffffffff16611692611e93565b73ffffffffffffffffffffffffffffffffffffffff16146116e8576040517f08c379a00000000000000000000000000000000000000000000000000000000081526004016116df90614d77565b60405180910390fd5b80601860006101000a81548173ffffffffffffffffffffffffffffffffffffffff021916908373ffffffffffffffffffffffffffffffffffffffff16021790555050565b60006060601454601554426117419190615248565b11915083838080601f016020809104026020016040519081016040528093929190818152602001838380828437600081840152601f19601f8201169050808301925050505050505090509250929050565b600047905090565b600d81815481106117aa57600080fd5b906000526020600020016000915090505481565b6117c66128a7565b73ffffffffffffffffffffffffffffffffffffffff166117e4611e93565b73ffffffffffffffffffffffffffffffffffffffff161461183a576040517f08c379a000000000000000000000000000000000000000000000000000000000815260040161183190614d77565b60405180910390fd5b6118446000613704565b565b61184e6128a7565b73ffffffffffffffffffffffffffffffffffffffff1661186c611e93565b73ffffffffffffffffffffffffffffffffffffffff16146118c2576040517f08c379a00000000000000000000000000000000000000000000000000000000081526004016118b990614d77565b60405180910390fd5b80600e60006101000a81548173ffffffffffffffffffffffffffffffffffffffff021916908373ffffffffffffffffffffffffffffffffffffffff16021790555067016345785d8a000060108190555050565b601260009054906101000a900473ffffffffffffffffffffffffffffffffffffffff1681565b60008060644261194b9190614ff6565b90506000600267ffffffffffffffff81111561196a576119696155da565b5b6040519080825280602002602001820160405280156119985781602001602082028036833780820191505090505b509050601860009054906101000a900473ffffffffffffffffffffffffffffffffffffffff16816000815181106119d2576119d16155ab565b5b602002602001019073ffffffffffffffffffffffffffffffffffffffff16908173ffffffffffffffffffffffffffffffffffffffff1681525050611a14612fb8565b81600181518110611a2857611a276155ab565b5b602002602001019073ffffffffffffffffffffffffffffffffffffffff16908173ffffffffffffffffffffffffffffffffffffffff168152505060008490506000601760009054906101000a900473ffffffffffffffffffffffffffffffffffffffff1673ffffffffffffffffffffffffffffffffffffffff16637ff36ab58360008630896040518663ffffffff1660e01b8152600401611acc9493929190614c0b565b6000604051808303818588803b158015611ae557600080fd5b505af1158015611af9573d6000803e3d6000fd5b50505050506040513d6000823e3d601f19601f82011682018060405250810190611b239190614340565b905080600181518110611b3957611b386155ab565b5b6020026020010151945050505050919050565b611b546128a7565b73ffffffffffffffffffffffffffffffffffffffff16611b72611e93565b73ffffffffffffffffffffffffffffffffffffffff1614611bc8576040517f08c379a0000000000000000000000000000000000000000000000000000000008152600401611bbf90614d77565b60405180910390fd5b8060088190555050565b6000600b60008381526020019081526020016000206040518061018001604052908160008201548152602001600182018054611c0d906153e4565b80601f0160208091040260200160405190810160405280929190818152602001828054611c39906153e4565b8015611c865780601f10611c5b57610100808354040283529160200191611c86565b820191906000526020600020905b815481529060010190602001808311611c6957829003601f168201915b505050505081526020016002820160009054906101000a900473ffffffffffffffffffffffffffffffffffffffff1673ffffffffffffffffffffffffffffffffffffffff1673ffffffffffffffffffffffffffffffffffffffff1681526020016003820160009054906101000a900473ffffffffffffffffffffffffffffffffffffffff1673ffffffffffffffffffffffffffffffffffffffff1673ffffffffffffffffffffffffffffffffffffffff168152602001600482018054611d4b906153e4565b80601f0160208091040260200160405190810160405280929190818152602001828054611d77906153e4565b8015611dc45780601f10611d9957610100808354040283529160200191611dc4565b820191906000526020600020905b815481529060010190602001808311611da757829003601f168201915b5050505050815260200160058201548152602001600682015481526020016007820160009054906101000a900460ff161515151581526020016007820160019054906101000a900460ff161515151581526020016007820160029054906101000a900460ff161515151581526020016008820154815260200160098201604051806080016040529081600082015481526020016001820154815260200160028201548152602001600382015481525050815250509050611e8881608001518361200e565b505050565b60075481565b6000600660009054906101000a900473ffffffffffffffffffffffffffffffffffffffff16905090565b600960009054906101000a900473ffffffffffffffffffffffffffffffffffffffff1681565b60145481565b611ef16128a7565b73ffffffffffffffffffffffffffffffffffffffff16611f0f611e93565b73ffffffffffffffffffffffffffffffffffffffff1614611f65576040517f08c379a0000000000000000000000000000000000000000000000000000000008152600401611f5c90614d77565b60405180910390fd5b80601360006101000a81548173ffffffffffffffffffffffffffffffffffffffff021916908373ffffffffffffffffffffffffffffffffffffffff16021790555080601260006101000a81548173ffffffffffffffffffffffffffffffffffffffff021916908373ffffffffffffffffffffffffffffffffffffffff16021790555050565b600c8181548110611ffa57600080fd5b906000526020600020016000915090505481565b600080612025600f5430634357855e60e01b6137ca565b90506120716040518060400160405280600381526020017f676574000000000000000000000000000000000000000000000000000000000081525085836137fb9092919063ffffffff16565b6120f06040518060400160405280600481526020017f70617468000000000000000000000000000000000000000000000000000000008152506040518060400160405280600c81526020017f746f74616c526573756c74730000000000000000000000000000000000000000815250836137fb9092919063ffffffff16565b61211f600e60009054906101000a900473ffffffffffffffffffffffffffffffffffffffff168260105461382e565b91508260116000848152602001908152602001600020819055505092915050565b6121486128a7565b73ffffffffffffffffffffffffffffffffffffffff16612166611e93565b73ffffffffffffffffffffffffffffffffffffffff16146121bc576040517f08c379a00000000000000000000000000000000000000000000000000000000081526004016121b390614d77565b60405180910390fd5b8060168190555050565b601760009054906101000a900473ffffffffffffffffffffffffffffffffffffffff1681565b60085481565b600a5481565b601360009054906101000a900473ffffffffffffffffffffffffffffffffffffffff1681565b600b602052806000526040600020600091509050806000015490806001018054612247906153e4565b80601f0160208091040260200160405190810160405280929190818152602001828054612273906153e4565b80156122c05780601f10612295576101008083540402835291602001916122c0565b820191906000526020600020905b8154815290600101906020018083116122a357829003601f168201915b5050505050908060020160009054906101000a900473ffffffffffffffffffffffffffffffffffffffff16908060030160009054906101000a900473ffffffffffffffffffffffffffffffffffffffff1690806004018054612321906153e4565b80601f016020809104026020016040519081016040528092919081815260200182805461234d906153e4565b801561239a5780601f1061236f5761010080835404028352916020019161239a565b820191906000526020600020905b81548152906001019060200180831161237d57829003601f168201915b5050505050908060050154908060060154908060070160009054906101000a900460ff16908060070160019054906101000a900460ff16908060070160029054906101000a900460ff16908060080154908060090160405180608001604052908160008201548152602001600182015481526020016002820154815260200160038201548152505090508c565b6007546008546124379190614ff6565b341015612479576040517f08c379a000000000000000000000000000000000000000000000000000000000815260040161247090614cb7565b60405180910390fd5b6008548510156124be576040517f08c379a00000000000000000000000000000000000000000000000000000000081526004016124b590614d97565b60405180910390fd5b828210612500576040517f08c379a00000000000000000000000000000000000000000000000000000000081526004016124f790614d17565b60405180910390fd5b60006040518060800160405280428152602001848152602001600081526020018581525090506000604051806101800160405280600a5481526020018481526020013373ffffffffffffffffffffffffffffffffffffffff168152602001600073ffffffffffffffffffffffffffffffffffffffff1681526020018981526020016007543461258f9190615248565b81526020018881526020016000151581526020016001151581526020016000151581526020018781526020018381525090506001600a546125d09190614ff6565b600a81905550600c8160000151908060018154018082558091505060019003906000526020600020016000909190919091505580600b600083600001518152602001908152602001600020600082015181600001556020820151816001019080519060200190612641929190613fda565b5060408201518160020160006101000a81548173ffffffffffffffffffffffffffffffffffffffff021916908373ffffffffffffffffffffffffffffffffffffffff16021790555060608201518160030160006101000a81548173ffffffffffffffffffffffffffffffffffffffff021916908373ffffffffffffffffffffffffffffffffffffffff16021790555060808201518160040190805190602001906126ec929190613fda565b5060a0820151816005015560c0820151816006015560e08201518160070160006101000a81548160ff0219169083151502179055506101008201518160070160016101000a81548160ff0219169083151502179055506101208201518160070160026101000a81548160ff0219169083151502179055506101408201518160080155610160820151816009016000820151816000015560208201518160010155604082015181600201556060820151816003015550509050505050505050505050565b6127b76128a7565b73ffffffffffffffffffffffffffffffffffffffff166127d5611e93565b73ffffffffffffffffffffffffffffffffffffffff161461282b576040517f08c379a000000000000000000000000000000000000000000000000000000000815260040161282290614d77565b60405180910390fd5b600073ffffffffffffffffffffffffffffffffffffffff168173ffffffffffffffffffffffffffffffffffffffff16141561289b576040517f08c379a000000000000000000000000000000000000000000000000000000000815260040161289290614c57565b60405180910390fd5b6128a481613704565b50565b600033905090565b6000600b600084815260200190815260200160002060405180610180016040529081600082015481526020016001820180546128ea906153e4565b80601f0160208091040260200160405190810160405280929190818152602001828054612916906153e4565b80156129635780601f1061293857610100808354040283529160200191612963565b820191906000526020600020905b81548152906001019060200180831161294657829003601f168201915b505050505081526020016002820160009054906101000a900473ffffffffffffffffffffffffffffffffffffffff1673ffffffffffffffffffffffffffffffffffffffff1673ffffffffffffffffffffffffffffffffffffffff1681526020016003820160009054906101000a900473ffffffffffffffffffffffffffffffffffffffff1673ffffffffffffffffffffffffffffffffffffffff1673ffffffffffffffffffffffffffffffffffffffff168152602001600482018054612a28906153e4565b80601f0160208091040260200160405190810160405280929190818152602001828054612a54906153e4565b8015612aa15780601f10612a7657610100808354040283529160200191612aa1565b820191906000526020600020905b815481529060010190602001808311612a8457829003601f168201915b5050505050815260200160058201548152602001600682015481526020016007820160009054906101000a900460ff161515151581526020016007820160019054906101000a900460ff161515151581526020016007820160029054906101000a900460ff161515151581526020016008820154815260200160098201604051806080016040529081600082015481526020016001820154815260200160028201548152602001600382015481525050815250509050806101400151821115612d8557600181610120019015159081151581525050600081610100019015159081151581525050806040015173ffffffffffffffffffffffffffffffffffffffff166108fc8260a001519081150290604051600060405180830381858888f19350505050158015612bd6573d6000803e3d6000fd5b5080600b6000858152602001908152602001600020600082015181600001556020820151816001019080519060200190612c11929190613fda565b5060408201518160020160006101000a81548173ffffffffffffffffffffffffffffffffffffffff021916908373ffffffffffffffffffffffffffffffffffffffff16021790555060608201518160030160006101000a81548173ffffffffffffffffffffffffffffffffffffffff021916908373ffffffffffffffffffffffffffffffffffffffff1602179055506080820151816004019080519060200190612cbc929190613fda565b5060a0820151816005015560c0820151816006015560e08201518160070160006101000a81548160ff0219169083151502179055506101008201518160070160016101000a81548160ff0219169083151502179055506101208201518160070160026101000a81548160ff021916908315150217905550610140820151816008015561016082015181600901600082015181600001556020820151816001015560408201518160020155606082015181600301555050905050612d80600d8461361c565b612fb3565b806101600151606001514210612fb257600181610120019015159081151581525050600081610100019015159081151581525050806060015173ffffffffffffffffffffffffffffffffffffffff166108fc8260a001519081150290604051600060405180830381858888f19350505050158015612e07573d6000803e3d6000fd5b5080600b6000858152602001908152602001600020600082015181600001556020820151816001019080519060200190612e42929190613fda565b5060408201518160020160006101000a81548173ffffffffffffffffffffffffffffffffffffffff021916908373ffffffffffffffffffffffffffffffffffffffff16021790555060608201518160030160006101000a81548173ffffffffffffffffffffffffffffffffffffffff021916908373ffffffffffffffffffffffffffffffffffffffff1602179055506080820151816004019080519060200190612eed929190613fda565b5060a0820151816005015560c0820151816006015560e08201518160070160006101000a81548160ff0219169083151502179055506101008201518160070160016101000a81548160ff0219169083151502179055506101208201518160070160026101000a81548160ff021916908315150217905550610140820151816008015561016082015181600901600082015181600001556020820151816001015560408201518160020155606082015181600301555050905050612fb1600d8461361c565b5b5b505050565b6000600260009054906101000a900473ffffffffffffffffffffffffffffffffffffffff16905090565b60005b600c8054905081101561330e576000600b6000600c848154811061300c5761300b6155ab565b5b90600052602060002001548152602001908152602001600020604051806101800160405290816000820154815260200160018201805461304b906153e4565b80601f0160208091040260200160405190810160405280929190818152602001828054613077906153e4565b80156130c45780601f10613099576101008083540402835291602001916130c4565b820191906000526020600020905b8154815290600101906020018083116130a757829003601f168201915b505050505081526020016002820160009054906101000a900473ffffffffffffffffffffffffffffffffffffffff1673ffffffffffffffffffffffffffffffffffffffff1673ffffffffffffffffffffffffffffffffffffffff1681526020016003820160009054906101000a900473ffffffffffffffffffffffffffffffffffffffff1673ffffffffffffffffffffffffffffffffffffffff1673ffffffffffffffffffffffffffffffffffffffff168152602001600482018054613189906153e4565b80601f01602080910402602001604051908101604052809291908181526020018280546131b5906153e4565b80156132025780601f106131d757610100808354040283529160200191613202565b820191906000526020600020905b8154815290600101906020018083116131e557829003601f168201915b5050505050815260200160058201548152602001600682015481526020016007820160009054906101000a900460ff161515151581526020016007820160019054906101000a900460ff161515151581526020016007820160029054906101000a900460ff1615151515815260200160088201548152602001600982016040518060800160405290816000820154815260200160018201548152602001600282015481526020016003820154815250508152505090508060e001511580156132d35750428161016001516020015111155b156132fa576000816101000190151590811515815250506132f9600c826000015161361c565b5b50808061330690615447565b915050612fe5565b50565b60005b600d80549050811015613619576000600b6000600d848154811061333b5761333a6155ab565b5b90600052602060002001548152602001908152602001600020604051806101800160405290816000820154815260200160018201805461337a906153e4565b80601f01602080910402602001604051908101604052809291908181526020018280546133a6906153e4565b80156133f35780601f106133c8576101008083540402835291602001916133f3565b820191906000526020600020905b8154815290600101906020018083116133d657829003601f168201915b505050505081526020016002820160009054906101000a900473ffffffffffffffffffffffffffffffffffffffff1673ffffffffffffffffffffffffffffffffffffffff1673ffffffffffffffffffffffffffffffffffffffff1681526020016003820160009054906101000a900473ffffffffffffffffffffffffffffffffffffffff1673ffffffffffffffffffffffffffffffffffffffff1673ffffffffffffffffffffffffffffffffffffffff1681526020016004820180546134b8906153e4565b80601f01602080910402602001604051908101604052809291908181526020018280546134e4906153e4565b80156135315780601f1061350657610100808354040283529160200191613531565b820191906000526020600020905b81548152906001019060200180831161351457829003601f168201915b5050505050815260200160058201548152602001600682015481526020016007820160009054906101000a900460ff161515151581526020016007820160019054906101000a900460ff161515151581526020016007820160029054906101000a900460ff161515151581526020016008820154815260200160098201604051806080016040529081600082015481526020016001820154815260200160028201548152602001600382015481525050815250509050428161016001516060015111613605576136048160000151611bd2565b5b50808061361190615447565b915050613314565b50565b60005b82805490508110156136ff578183828154811061363f5761363e6155ab565b5b906000526020600020015414156136ec57828181548110613663576136626155ab565b5b906000526020600020016000905582600184805490506136839190615248565b81548110613694576136936155ab565b5b90600052602060002001548382815481106136b2576136b16155ab565b5b9060005260206000200181905550828054806136d1576136d061557c565b5b600190038181906000526020600020016000905590556136ff565b80806136f790615447565b91505061361f565b505050565b6000600660009054906101000a900473ffffffffffffffffffffffffffffffffffffffff16905081600660006101000a81548173ffffffffffffffffffffffffffffffffffffffff021916908373ffffffffffffffffffffffffffffffffffffffff1602179055508173ffffffffffffffffffffffffffffffffffffffff168173ffffffffffffffffffffffffffffffffffffffff167f8be0079c531659141344cd1fd0a4f28419497f9722a3daafe3b4186f6b6457e060405160405180910390a35050565b6137d2614060565b6137da614060565b6137f1858585846138fa909392919063ffffffff16565b9150509392505050565b6138128284608001516139aa90919063ffffffff16565b6138298184608001516139aa90919063ffffffff16565b505050565b60008060045490506001816138439190614ff6565b6004819055506000634042994660e01b60008087600001513089604001518760018c6080015160000151604051602401613884989796959493929190614a9e565b604051602081830303815290604052907bffffffffffffffffffffffffffffffffffffffffffffffffffffffff19166020820180517bffffffffffffffffffffffffffffffffffffffffffffffffffffffff838183161783525050505090506138ef868386846139cf565b925050509392505050565b613902614060565b6139128560800151610100613b73565b508385600001818152505082856020019073ffffffffffffffffffffffffffffffffffffffff16908173ffffffffffffffffffffffffffffffffffffffff16815250508185604001907bffffffffffffffffffffffffffffffffffffffffffffffffffffffff191690817bffffffffffffffffffffffffffffffffffffffffffffffffffffffff191681525050849050949350505050565b6139b78260038351613bdd565b6139ca8183613d6290919063ffffffff16565b505050565b600030846040516020016139e4929190614a3c565b604051602081830303815290604052805190602001209050846005600083815260200190815260200160002060006101000a81548173ffffffffffffffffffffffffffffffffffffffff021916908373ffffffffffffffffffffffffffffffffffffffff160217905550807fb5e6e01e79f91267dc17b4e6314d5d4d03593d2ceee0fbb452b750bd70ea5af960405160405180910390a2600260009054906101000a900473ffffffffffffffffffffffffffffffffffffffff1673ffffffffffffffffffffffffffffffffffffffff16634000aea08685856040518463ffffffff1660e01b8152600401613ada93929190614b23565b602060405180830381600087803b158015613af457600080fd5b505af1158015613b08573d6000803e3d6000fd5b505050506040513d601f19601f82011682018060405250810190613b2c9190614389565b613b6b576040517f08c379a0000000000000000000000000000000000000000000000000000000008152600401613b6290614cd7565b60405180910390fd5b949350505050565b613b7b6140cd565b6000602083613b8a91906154be565b14613bb657602082613b9c91906154be565b6020613ba89190615248565b82613bb39190614ff6565b91505b81836020018181525050604051808452600081528281016020016040525082905092915050565b60178167ffffffffffffffff1611613c1457613c0e8160058460ff16901b60ff161784613d8490919063ffffffff16565b50613d5d565b60ff8167ffffffffffffffff1611613c6a57613c43601860058460ff16901b1784613d8490919063ffffffff16565b50613c648167ffffffffffffffff16600185613da49092919063ffffffff16565b50613d5c565b61ffff8167ffffffffffffffff1611613cc157613c9a601960058460ff16901b1784613d8490919063ffffffff16565b50613cbb8167ffffffffffffffff16600285613da49092919063ffffffff16565b50613d5b565b63ffffffff8167ffffffffffffffff1611613d1a57613cf3601a60058460ff16901b1784613d8490919063ffffffff16565b50613d148167ffffffffffffffff16600485613da49092919063ffffffff16565b50613d5a565b613d37601b60058460ff16901b1784613d8490919063ffffffff16565b50613d588167ffffffffffffffff16600885613da49092919063ffffffff16565b505b5b5b5b505050565b613d6a6140cd565b613d7c83846000015151848551613dc6565b905092915050565b613d8c6140cd565b613d9c8384600001515184613eb5565b905092915050565b613dac6140cd565b613dbd848560000151518585613f0c565b90509392505050565b613dce6140cd565b8251821115613ddc57600080fd5b84602001518285613ded9190614ff6565b1115613e2257613e21856002613e1288602001518887613e0d9190614ff6565b613f9a565b613e1c91906151ee565b613fb6565b5b600080865180518760208301019350808887011115613e415787860182525b60208701925050505b60208410613e885780518252602082613e639190614ff6565b9150602081613e729190614ff6565b9050602084613e819190615248565b9350613e4a565b60006001856020036101000a03905080198251168184511681811785525050508692505050949350505050565b613ebd6140cd565b83602001518310613ee357613ee28460028660200151613edd91906151ee565b613fb6565b5b8351805160208583010184815381861415613eff576001820183525b5050508390509392505050565b613f146140cd565b84602001518483613f259190614ff6565b1115613f4d57613f4c8560028685613f3d9190614ff6565b613f4791906151ee565b613fb6565b5b6000600183610100613f5f91906150d0565b613f699190615248565b90508551838682010185831982511617815281518588011115613f8c5784870182525b505085915050949350505050565b600081831115613fac57829050613fb0565b8190505b92915050565b600082600001519050613fc98383613b73565b50613fd48382613d62565b50505050565b828054613fe6906153e4565b90600052602060002090601f016020900481019282614008576000855561404f565b82601f1061402157805160ff191683800117855561404f565b8280016001018555821561404f579182015b8281111561404e578251825591602001919060010190614033565b5b50905061405c91906140e7565b5090565b6040518060a0016040528060008019168152602001600073ffffffffffffffffffffffffffffffffffffffff16815260200160007bffffffffffffffffffffffffffffffffffffffffffffffffffffffff19168152602001600081526020016140c76140cd565b81525090565b604051806040016040528060608152602001600081525090565b5b808211156141005760008160009055506001016140e8565b5090565b600061411761411284614f28565b614f03565b9050808382526020820190508285602086028201111561413a57614139615613565b5b60005b8581101561416a578161415088826142d1565b84526020840193506020830192505060018101905061413d565b5050509392505050565b600061418761418284614f54565b614f03565b9050828152602081018484840111156141a3576141a2615618565b5b6141ae8482856153a2565b509392505050565b6000813590506141c58161594b565b92915050565b6000813590506141da81615962565b92915050565b600082601f8301126141f5576141f461560e565b5b8151614205848260208601614104565b91505092915050565b60008151905061421d81615979565b92915050565b60008135905061423281615990565b92915050565b60008083601f84011261424e5761424d61560e565b5b8235905067ffffffffffffffff81111561426b5761426a615609565b5b60208301915083600182028301111561428757614286615613565b5b9250929050565b600082601f8301126142a3576142a261560e565b5b81356142b3848260208601614174565b91505092915050565b6000813590506142cb816159a7565b92915050565b6000815190506142e0816159a7565b92915050565b6000602082840312156142fc576142fb615622565b5b600061430a848285016141b6565b91505092915050565b60006020828403121561432957614328615622565b5b6000614337848285016141cb565b91505092915050565b60006020828403121561435657614355615622565b5b600082015167ffffffffffffffff8111156143745761437361561d565b5b614380848285016141e0565b91505092915050565b60006020828403121561439f5761439e615622565b5b60006143ad8482850161420e565b91505092915050565b6000602082840312156143cc576143cb615622565b5b60006143da84828501614223565b91505092915050565b600080604083850312156143fa576143f9615622565b5b600061440885828601614223565b9250506020614419858286016142bc565b9150509250929050565b6000806020838503121561443a57614439615622565b5b600083013567ffffffffffffffff8111156144585761445761561d565b5b61446485828601614238565b92509250509250929050565b6000806040838503121561448757614486615622565b5b600083013567ffffffffffffffff8111156144a5576144a461561d565b5b6144b18582860161428e565b92505060206144c2858286016142bc565b9150509250929050565b60008060008060008060c087890312156144e9576144e8615622565b5b600087013567ffffffffffffffff8111156145075761450661561d565b5b61451389828a0161428e565b965050602061452489828a016142bc565b955050604061453589828a016142bc565b945050606061454689828a016142bc565b935050608061455789828a016142bc565b92505060a087013567ffffffffffffffff8111156145785761457761561d565b5b61458489828a0161428e565b9150509295509295509295565b6000602082840312156145a7576145a6615622565b5b60006145b5848285016142bc565b91505092915050565b6000602082840312156145d4576145d3615622565b5b60006145e2848285016142d1565b91505092915050565b6000806040838503121561460257614601615622565b5b6000614610858286016142bc565b925050602083013567ffffffffffffffff8111156146315761463061561d565b5b61463d8582860161428e565b9150509250929050565b6000614653838361466e565b60208301905092915050565b6146688161528e565b82525050565b6146778161527c565b82525050565b6146868161527c565b82525050565b600061469782614f95565b6146a18185614fc3565b93506146ac83614f85565b8060005b838110156146dd5781516146c48882614647565b97506146cf83614fb6565b9250506001810190506146b0565b5085935050505092915050565b6146f3816152a0565b82525050565b614702816152ac565b82525050565b614711816152b6565b82525050565b600061472282614fa0565b61472c8185614fd4565b935061473c8185602086016153b1565b61474581615627565b840191505092915050565b61476161475c82615324565b615490565b82525050565b61477081615336565b82525050565b61477f81615348565b82525050565b61478e8161535a565b82525050565b600061479f82614fab565b6147a98185614fe5565b93506147b98185602086016153b1565b6147c281615627565b840191505092915050565b60006147da602683614fe5565b91506147e582615652565b604082019050919050565b60006147fd600e83614fe5565b9150614808826156a1565b602082019050919050565b6000614820601483614fe5565b915061482b826156ca565b602082019050919050565b6000614843601983614fe5565b915061484e826156f3565b602082019050919050565b6000614866602383614fe5565b91506148718261571c565b604082019050919050565b6000614889601a83614fe5565b91506148948261576b565b602082019050919050565b60006148ac602383614fe5565b91506148b782615794565b604082019050919050565b60006148cf601383614fe5565b91506148da826157e3565b602082019050919050565b60006148f2601583614fe5565b91506148fd8261580c565b602082019050919050565b6000614915602083614fe5565b915061492082615835565b602082019050919050565b6000614938602a83614fe5565b91506149438261585e565b604082019050919050565b600061495b602883614fe5565b9150614966826158ad565b604082019050919050565b600061497e602383614fe5565b9150614989826158fc565b604082019050919050565b6080820160008201516149aa60008501826149e9565b5060208201516149bd60208501826149e9565b5060408201516149d060408501826149e9565b5060608201516149e360608501826149e9565b50505050565b6149f281615302565b82525050565b614a0181615302565b82525050565b614a18614a1382615302565b6154b4565b82525050565b614a2781615390565b82525050565b614a368161530c565b82525050565b6000614a488285614750565b601482019150614a588284614a07565b6020820191508190509392505050565b6000602082019050614a7d600083018461467d565b92915050565b6000602082019050614a98600083018461465f565b92915050565b600061010082019050614ab4600083018b61467d565b614ac1602083018a6149f8565b614ace60408301896146f9565b614adb606083018861467d565b614ae86080830187614708565b614af560a08301866149f8565b614b0260c08301856149f8565b81810360e0830152614b148184614717565b90509998505050505050505050565b6000606082019050614b38600083018661467d565b614b4560208301856149f8565b8181036040830152614b578184614717565b9050949350505050565b6000604082019050614b76600083018561467d565b614b836020830184614a1e565b9392505050565b6000604082019050614b9f60008301856146ea565b8181036020830152614bb18184614717565b90509392505050565b6000602082019050614bcf60008301846146f9565b92915050565b6000602082019050614bea6000830184614767565b92915050565b6000602082019050614c056000830184614776565b92915050565b6000608082019050614c206000830187614785565b8181036020830152614c32818661468c565b9050614c41604083018561467d565b614c4e60608301846149f8565b95945050505050565b60006020820190508181036000830152614c70816147cd565b9050919050565b60006020820190508181036000830152614c90816147f0565b9050919050565b60006020820190508181036000830152614cb081614813565b9050919050565b60006020820190508181036000830152614cd081614836565b9050919050565b60006020820190508181036000830152614cf081614859565b9050919050565b60006020820190508181036000830152614d108161487c565b9050919050565b60006020820190508181036000830152614d308161489f565b9050919050565b60006020820190508181036000830152614d50816148c2565b9050919050565b60006020820190508181036000830152614d70816148e5565b9050919050565b60006020820190508181036000830152614d9081614908565b9050919050565b60006020820190508181036000830152614db08161492b565b9050919050565b60006020820190508181036000830152614dd08161494e565b9050919050565b60006020820190508181036000830152614df081614971565b9050919050565b6000602082019050614e0c60008301846149f8565b92915050565b60006101e082019050614e28600083018f6149f8565b8181036020830152614e3a818e614794565b9050614e49604083018d61465f565b614e56606083018c61465f565b8181036080830152614e68818b614794565b9050614e7760a083018a6149f8565b614e8460c08301896149f8565b614e9160e08301886146ea565b614e9f6101008301876146ea565b614ead6101208301866146ea565b614ebb6101408301856149f8565b614ec9610160830184614994565b9d9c50505050505050505050505050565b6000604082019050614eef60008301856149f8565b614efc6020830184614a2d565b9392505050565b6000614f0d614f1e565b9050614f198282615416565b919050565b6000604051905090565b600067ffffffffffffffff821115614f4357614f426155da565b5b602082029050602081019050919050565b600067ffffffffffffffff821115614f6f57614f6e6155da565b5b614f7882615627565b9050602081019050919050565b6000819050602082019050919050565b600081519050919050565b600081519050919050565b600081519050919050565b6000602082019050919050565b600082825260208201905092915050565b600082825260208201905092915050565b600082825260208201905092915050565b600061500182615302565b915061500c83615302565b9250827fffffffffffffffffffffffffffffffffffffffffffffffffffffffffffffffff03821115615041576150406154ef565b5b828201905092915050565b600061505782615302565b915061506283615302565b9250826150725761507161551e565b5b828204905092915050565b6000808291508390505b60018511156150c7578086048111156150a3576150a26154ef565b5b60018516156150b25780820291505b80810290506150c085615645565b9450615087565b94509492505050565b60006150db82615302565b91506150e683615302565b92506151137fffffffffffffffffffffffffffffffffffffffffffffffffffffffffffffffff848461511b565b905092915050565b60008261512b57600190506151e7565b8161513957600090506151e7565b816001811461514f576002811461515957615188565b60019150506151e7565b60ff84111561516b5761516a6154ef565b5b8360020a915084821115615182576151816154ef565b5b506151e7565b5060208310610133831016604e8410600b84101617156151bd5782820a9050838111156151b8576151b76154ef565b5b6151e7565b6151ca848484600161507d565b925090508184048111156151e1576151e06154ef565b5b81810290505b9392505050565b60006151f982615302565b915061520483615302565b9250817fffffffffffffffffffffffffffffffffffffffffffffffffffffffffffffffff048311821515161561523d5761523c6154ef565b5b828202905092915050565b600061525382615302565b915061525e83615302565b925082821015615271576152706154ef565b5b828203905092915050565b6000615287826152e2565b9050919050565b6000615299826152e2565b9050919050565b60008115159050919050565b6000819050919050565b60007fffffffff0000000000000000000000000000000000000000000000000000000082169050919050565b600073ffffffffffffffffffffffffffffffffffffffff82169050919050565b6000819050919050565b60006bffffffffffffffffffffffff82169050919050565b600061532f8261536c565b9050919050565b60006153418261536c565b9050919050565b60006153538261536c565b9050919050565b600061536582615302565b9050919050565b60006153778261537e565b9050919050565b6000615389826152e2565b9050919050565b600061539b8261530c565b9050919050565b82818337600083830152505050565b60005b838110156153cf5780820151818401526020810190506153b4565b838111156153de576000848401525b50505050565b600060028204905060018216806153fc57607f821691505b602082108114156154105761540f61554d565b5b50919050565b61541f82615627565b810181811067ffffffffffffffff8211171561543e5761543d6155da565b5b80604052505050565b600061545282615302565b91507fffffffffffffffffffffffffffffffffffffffffffffffffffffffffffffffff821415615485576154846154ef565b5b600182019050919050565b600061549b826154a2565b9050919050565b60006154ad82615638565b9050919050565b6000819050919050565b60006154c982615302565b91506154d483615302565b9250826154e4576154e361551e565b5b828206905092915050565b7f4e487b7100000000000000000000000000000000000000000000000000000000600052601160045260246000fd5b7f4e487b7100000000000000000000000000000000000000000000000000000000600052601260045260246000fd5b7f4e487b7100000000000000000000000000000000000000000000000000000000600052602260045260246000fd5b7f4e487b7100000000000000000000000000000000000000000000000000000000600052603160045260246000fd5b7f4e487b7100000000000000000000000000000000000000000000000000000000600052603260045260246000fd5b7f4e487b7100000000000000000000000000000000000000000000000000000000600052604160045260246000fd5b600080fd5b600080fd5b600080fd5b600080fd5b600080fd5b600080fd5b6000601f19601f8301169050919050565b60008160601b9050919050565b60008160011c9050919050565b7f4f776e61626c653a206e6577206f776e657220697320746865207a65726f206160008201527f6464726573730000000000000000000000000000000000000000000000000000602082015250565b7f626574206e6f7420616374697665000000000000000000000000000000000000600082015250565b7f62657420616c7265616479206163636570746564000000000000000000000000600082015250565b7f6d696e696d756d20626574206e6f742073617469736669656400000000000000600082015250565b7f756e61626c6520746f207472616e73666572416e6443616c6c20746f206f726160008201527f636c650000000000000000000000000000000000000000000000000000000000602082015250565b7f6163636570746572206d6f6e6579206e6f7420636f7272656374000000000000600082015250565b7f6163636570742064617465206d757374206265206265666f726520656e64206460008201527f6174650000000000000000000000000000000000000000000000000000000000602082015250565b7f62657420686173206265656e20636c6f73656400000000000000000000000000600082015250565b7f54696d6520696e74657276616c206e6f74206d65740000000000000000000000600082015250565b7f4f776e61626c653a2063616c6c6572206973206e6f7420746865206f776e6572600082015250565b7f6d696e696d756d20626574206e6f742073617469736669656420666f7220616360008201527f636570742076616c756500000000000000000000000000000000000000000000602082015250565b7f536f75726365206d75737420626520746865206f7261636c65206f662074686560008201527f2072657175657374000000000000000000000000000000000000000000000000602082015250565b7f626574206973206e6f206c6f6e676572206f70656e20666f722061636365707460008201527f696e670000000000000000000000000000000000000000000000000000000000602082015250565b6159548161527c565b811461595f57600080fd5b50565b61596b8161528e565b811461597657600080fd5b50565b615982816152a0565b811461598d57600080fd5b50565b615999816152ac565b81146159a457600080fd5b50565b6159b081615302565b81146159bb57600080fd5b5056fea2646970667358221220ca737e4d0794d9548d57e7d2dd281493c06b467fef02c6645135faf83041c8c864736f6c63430008070033",
  "devdoc": {
    "kind": "dev",
    "methods": {
      "checkUpkeep(bytes)": {
        "details": "To ensure that it is never called, you may want to add the cannotExecute modifier from KeeperBase to your implementation of this method.",
        "params": {
          "checkData": "specified in the upkeep registration so it is always the same for a registered upkeep. This can easily be broken down into specific arguments using `abi.decode`, so multiple upkeeps can be registered on the same contract and easily differentiated by the contract."
        },
        "returns": {
          "performData": "bytes that the keeper should call performUpkeep with, if upkeep is needed. If you would like to encode data to decode later, try `abi.encode`.",
          "upkeepNeeded": "boolean to indicate whether the keeper should call performUpkeep or not."
        }
      },
      "owner()": {
        "details": "Returns the address of the current owner."
      },
      "performUpkeep(bytes)": {
        "details": "The input to this method should not be trusted, and the caller of the method should not even be restricted to any single registry. Anyone should be able call it, and the input should be validated, there is no guarantee that the data passed in is the performData returned from checkUpkeep. This could happen due to malicious keepers, racing keepers, or simply a state change while the performUpkeep transaction is waiting for confirmation. Always validate the data passed in.",
        "params": {
          "performData": "is the data which was passed back from the checkData simulation. If it is encoded, it can easily be decoded into other types by calling `abi.decode`. This data should not be trusted, and should be validated against the contract's current state."
        }
      },
      "renounceOwnership()": {
        "details": "Leaves the contract without owner. It will not be possible to call `onlyOwner` functions anymore. Can only be called by the current owner. NOTE: Renouncing ownership will leave the contract without an owner, thereby removing any functionality that is only available to the owner."
      },
      "transferOwnership(address)": {
        "details": "Transfers ownership of the contract to a new account (`newOwner`). Can only be called by the current owner."
      }
    },
    "version": 1
  },
  "userdoc": {
    "kind": "user",
    "methods": {
      "checkUpkeep(bytes)": {
        "notice": "method that is simulated by the keepers to see if any work actually needs to be performed. This method does does not actually need to be executable, and since it is only ever simulated it can consume lots of gas."
      },
      "performUpkeep(bytes)": {
        "notice": "method that is actually executed by the keepers, via the registry. The data returned by the checkUpkeep simulation will be passed into this method to actually be executed."
      }
    },
    "version": 1
  },
  "storageLayout": {
    "storage": [
      {
        "astId": 319,
        "contract": "contracts/BetGame.sol:BetGame",
        "label": "s_ens",
        "offset": 0,
        "slot": "0",
        "type": "t_contract(ENSInterface)1013"
      },
      {
        "astId": 321,
        "contract": "contracts/BetGame.sol:BetGame",
        "label": "s_ensNode",
        "offset": 0,
        "slot": "1",
        "type": "t_bytes32"
      },
      {
        "astId": 324,
        "contract": "contracts/BetGame.sol:BetGame",
        "label": "s_link",
        "offset": 0,
        "slot": "2",
        "type": "t_contract(LinkTokenInterface)1127"
      },
      {
        "astId": 327,
        "contract": "contracts/BetGame.sol:BetGame",
        "label": "s_oracle",
        "offset": 0,
        "slot": "3",
        "type": "t_contract(OperatorInterface)1207"
      },
      {
        "astId": 330,
        "contract": "contracts/BetGame.sol:BetGame",
        "label": "s_requestCount",
        "offset": 0,
        "slot": "4",
        "type": "t_uint256"
      },
      {
        "astId": 334,
        "contract": "contracts/BetGame.sol:BetGame",
        "label": "s_pendingRequests",
        "offset": 0,
        "slot": "5",
        "type": "t_mapping(t_bytes32,t_address)"
      },
      {
        "astId": 2241,
        "contract": "contracts/BetGame.sol:BetGame",
        "label": "_owner",
        "offset": 0,
        "slot": "6",
        "type": "t_address"
      },
      {
        "astId": 2854,
        "contract": "contracts/BetGame.sol:BetGame",
        "label": "serviceFee",
        "offset": 0,
        "slot": "7",
        "type": "t_uint256"
      },
      {
        "astId": 2856,
        "contract": "contracts/BetGame.sol:BetGame",
        "label": "minimumBet",
        "offset": 0,
        "slot": "8",
        "type": "t_uint256"
      },
      {
        "astId": 2858,
        "contract": "contracts/BetGame.sol:BetGame",
        "label": "devWallet",
        "offset": 0,
        "slot": "9",
        "type": "t_address_payable"
      },
      {
        "astId": 2895,
        "contract": "contracts/BetGame.sol:BetGame",
        "label": "globalId",
        "offset": 0,
        "slot": "10",
        "type": "t_uint256"
      },
      {
        "astId": 2900,
        "contract": "contracts/BetGame.sol:BetGame",
        "label": "allBets",
        "offset": 0,
        "slot": "11",
        "type": "t_mapping(t_uint256,t_struct(Bet)2893_storage)"
      },
      {
        "astId": 2903,
        "contract": "contracts/BetGame.sol:BetGame",
        "label": "activeBets",
        "offset": 0,
        "slot": "12",
        "type": "t_array(t_uint256)dyn_storage"
      },
      {
        "astId": 2906,
        "contract": "contracts/BetGame.sol:BetGame",
        "label": "acceptedBets",
        "offset": 0,
        "slot": "13",
        "type": "t_array(t_uint256)dyn_storage"
      },
      {
        "astId": 2908,
        "contract": "contracts/BetGame.sol:BetGame",
        "label": "oracle",
        "offset": 0,
        "slot": "14",
        "type": "t_address"
      },
      {
        "astId": 2910,
        "contract": "contracts/BetGame.sol:BetGame",
        "label": "jobId",
        "offset": 0,
        "slot": "15",
        "type": "t_bytes32"
      },
      {
        "astId": 2912,
        "contract": "contracts/BetGame.sol:BetGame",
        "label": "oracleFee",
        "offset": 0,
        "slot": "16",
        "type": "t_uint256"
      },
      {
        "astId": 2916,
        "contract": "contracts/BetGame.sol:BetGame",
        "label": "requestToBet",
        "offset": 0,
        "slot": "17",
        "type": "t_mapping(t_bytes32,t_uint256)"
      },
      {
        "astId": 2919,
        "contract": "contracts/BetGame.sol:BetGame",
        "label": "keeperRegistry",
        "offset": 0,
        "slot": "18",
        "type": "t_contract(KeeperRegistryInterface)3932"
      },
      {
        "astId": 2921,
        "contract": "contracts/BetGame.sol:BetGame",
        "label": "keeperRegistryAddress",
        "offset": 0,
        "slot": "19",
        "type": "t_address"
      },
      {
        "astId": 2923,
        "contract": "contracts/BetGame.sol:BetGame",
        "label": "interval",
        "offset": 0,
        "slot": "20",
        "type": "t_uint256"
      },
      {
        "astId": 2925,
        "contract": "contracts/BetGame.sol:BetGame",
        "label": "lastTimeStamp",
        "offset": 0,
        "slot": "21",
        "type": "t_uint256"
      },
      {
        "astId": 2927,
        "contract": "contracts/BetGame.sol:BetGame",
        "label": "keeperJobId",
        "offset": 0,
        "slot": "22",
        "type": "t_uint256"
      },
      {
        "astId": 2930,
        "contract": "contracts/BetGame.sol:BetGame",
        "label": "swapRouter",
        "offset": 0,
        "slot": "23",
        "type": "t_contract(IUniswapV2Router02)2834"
      },
      {
        "astId": 2932,
        "contract": "contracts/BetGame.sol:BetGame",
        "label": "weth",
        "offset": 0,
        "slot": "24",
        "type": "t_address"
      }
    ],
    "types": {
      "t_address": {
        "encoding": "inplace",
        "label": "address",
        "numberOfBytes": "20"
      },
      "t_address_payable": {
        "encoding": "inplace",
        "label": "address payable",
        "numberOfBytes": "20"
      },
      "t_array(t_uint256)dyn_storage": {
        "base": "t_uint256",
        "encoding": "dynamic_array",
        "label": "uint256[]",
        "numberOfBytes": "32"
      },
      "t_bool": {
        "encoding": "inplace",
        "label": "bool",
        "numberOfBytes": "1"
      },
      "t_bytes32": {
        "encoding": "inplace",
        "label": "bytes32",
        "numberOfBytes": "32"
      },
      "t_contract(ENSInterface)1013": {
        "encoding": "inplace",
        "label": "contract ENSInterface",
        "numberOfBytes": "20"
      },
      "t_contract(IUniswapV2Router02)2834": {
        "encoding": "inplace",
        "label": "contract IUniswapV2Router02",
        "numberOfBytes": "20"
      },
      "t_contract(KeeperRegistryInterface)3932": {
        "encoding": "inplace",
        "label": "contract KeeperRegistryInterface",
        "numberOfBytes": "20"
      },
      "t_contract(LinkTokenInterface)1127": {
        "encoding": "inplace",
        "label": "contract LinkTokenInterface",
        "numberOfBytes": "20"
      },
      "t_contract(OperatorInterface)1207": {
        "encoding": "inplace",
        "label": "contract OperatorInterface",
        "numberOfBytes": "20"
      },
      "t_mapping(t_bytes32,t_address)": {
        "encoding": "mapping",
        "key": "t_bytes32",
        "label": "mapping(bytes32 => address)",
        "numberOfBytes": "32",
        "value": "t_address"
      },
      "t_mapping(t_bytes32,t_uint256)": {
        "encoding": "mapping",
        "key": "t_bytes32",
        "label": "mapping(bytes32 => uint256)",
        "numberOfBytes": "32",
        "value": "t_uint256"
      },
      "t_mapping(t_uint256,t_struct(Bet)2893_storage)": {
        "encoding": "mapping",
        "key": "t_uint256",
        "label": "mapping(uint256 => struct BetGame.Bet)",
        "numberOfBytes": "32",
        "value": "t_struct(Bet)2893_storage"
      },
      "t_string_storage": {
        "encoding": "bytes",
        "label": "string",
        "numberOfBytes": "32"
      },
      "t_struct(Bet)2893_storage": {
        "encoding": "inplace",
        "label": "struct BetGame.Bet",
        "members": [
          {
            "astId": 2869,
            "contract": "contracts/BetGame.sol:BetGame",
            "label": "id",
            "offset": 0,
            "slot": "0",
            "type": "t_uint256"
          },
          {
            "astId": 2871,
            "contract": "contracts/BetGame.sol:BetGame",
            "label": "title",
            "offset": 0,
            "slot": "1",
            "type": "t_string_storage"
          },
          {
            "astId": 2873,
            "contract": "contracts/BetGame.sol:BetGame",
            "label": "creator",
            "offset": 0,
            "slot": "2",
            "type": "t_address_payable"
          },
          {
            "astId": 2875,
            "contract": "contracts/BetGame.sol:BetGame",
            "label": "acceptor",
            "offset": 0,
            "slot": "3",
            "type": "t_address_payable"
          },
          {
            "astId": 2877,
            "contract": "contracts/BetGame.sol:BetGame",
            "label": "apiURL",
            "offset": 0,
            "slot": "4",
            "type": "t_string_storage"
          },
          {
            "astId": 2879,
            "contract": "contracts/BetGame.sol:BetGame",
            "label": "amount",
            "offset": 0,
            "slot": "5",
            "type": "t_uint256"
          },
          {
            "astId": 2881,
            "contract": "contracts/BetGame.sol:BetGame",
            "label": "acceptValue",
            "offset": 0,
            "slot": "6",
            "type": "t_uint256"
          },
          {
            "astId": 2883,
            "contract": "contracts/BetGame.sol:BetGame",
            "label": "accepted",
            "offset": 0,
            "slot": "7",
            "type": "t_bool"
          },
          {
            "astId": 2885,
            "contract": "contracts/BetGame.sol:BetGame",
            "label": "active",
            "offset": 1,
            "slot": "7",
            "type": "t_bool"
          },
          {
            "astId": 2887,
            "contract": "contracts/BetGame.sol:BetGame",
            "label": "closed",
            "offset": 2,
            "slot": "7",
            "type": "t_bool"
          },
          {
            "astId": 2889,
            "contract": "contracts/BetGame.sol:BetGame",
            "label": "countArts",
            "offset": 0,
            "slot": "8",
            "type": "t_uint256"
          },
          {
            "astId": 2892,
            "contract": "contracts/BetGame.sol:BetGame",
            "label": "timeProps",
            "offset": 0,
            "slot": "9",
            "type": "t_struct(TimeProps)2867_storage"
          }
        ],
        "numberOfBytes": "416"
      },
      "t_struct(TimeProps)2867_storage": {
        "encoding": "inplace",
        "label": "struct BetGame.TimeProps",
        "members": [
          {
            "astId": 2860,
            "contract": "contracts/BetGame.sol:BetGame",
            "label": "createdDate",
            "offset": 0,
            "slot": "0",
            "type": "t_uint256"
          },
          {
            "astId": 2862,
            "contract": "contracts/BetGame.sol:BetGame",
            "label": "acceptByDate",
            "offset": 0,
            "slot": "1",
            "type": "t_uint256"
          },
          {
            "astId": 2864,
            "contract": "contracts/BetGame.sol:BetGame",
            "label": "startDate",
            "offset": 0,
            "slot": "2",
            "type": "t_uint256"
          },
          {
            "astId": 2866,
            "contract": "contracts/BetGame.sol:BetGame",
            "label": "expirationDate",
            "offset": 0,
            "slot": "3",
            "type": "t_uint256"
          }
        ],
        "numberOfBytes": "128"
      },
      "t_uint256": {
        "encoding": "inplace",
        "label": "uint256",
        "numberOfBytes": "32"
      }
    }
  }
}