{
  "address": "0xb2F618395e147e264CdE12C500C54fC3AFd41e4d",
  "abi": [
    {
      "inputs": [
        {
          "internalType": "uint256",
          "name": "_minimumBet",
          "type": "uint256"
        },
        {
          "internalType": "uint256",
          "name": "_interval",
          "type": "uint256"
        },
        {
          "internalType": "address",
          "name": "_link",
          "type": "address"
        },
        {
          "internalType": "address",
          "name": "_oracle",
          "type": "address"
        },
        {
          "internalType": "bytes32",
          "name": "_jobId",
          "type": "bytes32"
        },
        {
          "internalType": "uint256",
          "name": "_fee",
          "type": "uint256"
        }
      ],
      "stateMutability": "nonpayable",
      "type": "constructor"
    },
    {
      "anonymous": false,
      "inputs": [
        {
          "indexed": true,
          "internalType": "bytes32",
          "name": "id",
          "type": "bytes32"
        }
      ],
      "name": "ChainlinkCancelled",
      "type": "event"
    },
    {
      "anonymous": false,
      "inputs": [
        {
          "indexed": true,
          "internalType": "bytes32",
          "name": "id",
          "type": "bytes32"
        }
      ],
      "name": "ChainlinkFulfilled",
      "type": "event"
    },
    {
      "anonymous": false,
      "inputs": [
        {
          "indexed": true,
          "internalType": "bytes32",
          "name": "id",
          "type": "bytes32"
        }
      ],
      "name": "ChainlinkRequested",
      "type": "event"
    },
    {
      "anonymous": false,
      "inputs": [
        {
          "indexed": true,
          "internalType": "address",
          "name": "previousOwner",
          "type": "address"
        },
        {
          "indexed": true,
          "internalType": "address",
          "name": "newOwner",
          "type": "address"
        }
      ],
      "name": "OwnershipTransferred",
      "type": "event"
    },
    {
      "inputs": [
        {
          "internalType": "uint256",
          "name": "_betId",
          "type": "uint256"
        }
      ],
      "name": "acceptBet",
      "outputs": [],
      "stateMutability": "payable",
      "type": "function"
    },
    {
      "inputs": [
        {
          "internalType": "uint256",
          "name": "",
          "type": "uint256"
        }
      ],
      "name": "acceptedBets",
      "outputs": [
        {
          "internalType": "uint256",
          "name": "",
          "type": "uint256"
        }
      ],
      "stateMutability": "view",
      "type": "function"
    },
    {
      "inputs": [
        {
          "internalType": "uint256",
          "name": "",
          "type": "uint256"
        }
      ],
      "name": "activeBets",
      "outputs": [
        {
          "internalType": "uint256",
          "name": "",
          "type": "uint256"
        }
      ],
      "stateMutability": "view",
      "type": "function"
    },
    {
      "inputs": [
        {
          "internalType": "uint256",
          "name": "",
          "type": "uint256"
        }
      ],
      "name": "allBets",
      "outputs": [
        {
          "internalType": "uint256",
          "name": "id",
          "type": "uint256"
        },
        {
          "internalType": "address payable",
          "name": "creator",
          "type": "address"
        },
        {
          "internalType": "address payable",
          "name": "acceptor",
          "type": "address"
        },
        {
          "internalType": "string",
          "name": "apiURL",
          "type": "string"
        },
        {
          "internalType": "uint256",
          "name": "amount",
          "type": "uint256"
        },
        {
          "internalType": "uint256",
          "name": "acceptValue",
          "type": "uint256"
        },
        {
          "internalType": "bool",
          "name": "accepted",
          "type": "bool"
        },
        {
          "internalType": "bool",
          "name": "active",
          "type": "bool"
        },
        {
          "internalType": "bool",
          "name": "closed",
          "type": "bool"
        },
        {
          "internalType": "uint256",
          "name": "countArts",
          "type": "uint256"
        },
        {
          "components": [
            {
              "internalType": "uint256",
              "name": "createdDate",
              "type": "uint256"
            },
            {
              "internalType": "uint256",
              "name": "acceptByDate",
              "type": "uint256"
            },
            {
              "internalType": "uint256",
              "name": "startDate",
              "type": "uint256"
            },
            {
              "internalType": "uint256",
              "name": "expirationDate",
              "type": "uint256"
            }
          ],
          "internalType": "struct BetGame.TimeProps",
          "name": "timeProps",
          "type": "tuple"
        }
      ],
      "stateMutability": "view",
      "type": "function"
    },
    {
      "inputs": [
        {
          "internalType": "uint256",
          "name": "_id",
          "type": "uint256"
        }
      ],
      "name": "checkBet",
      "outputs": [],
      "stateMutability": "nonpayable",
      "type": "function"
    },
    {
      "inputs": [
        {
          "internalType": "bytes",
          "name": "checkData",
          "type": "bytes"
        }
      ],
      "name": "checkUpkeep",
      "outputs": [
        {
          "internalType": "bool",
          "name": "upkeepNeeded",
          "type": "bool"
        },
        {
          "internalType": "bytes",
          "name": "performData",
          "type": "bytes"
        }
      ],
      "stateMutability": "view",
      "type": "function"
    },
    {
      "inputs": [
        {
          "internalType": "string",
          "name": "_apiURL",
          "type": "string"
        },
        {
          "internalType": "uint256",
          "name": "_acceptValue",
          "type": "uint256"
        },
        {
          "internalType": "uint256",
          "name": "_countArts",
          "type": "uint256"
        },
        {
          "internalType": "uint256",
          "name": "_endDate",
          "type": "uint256"
        },
        {
          "internalType": "uint256",
          "name": "_acceptdate",
          "type": "uint256"
        }
      ],
      "name": "createBet",
      "outputs": [],
      "stateMutability": "payable",
      "type": "function"
    },
    {
      "inputs": [],
      "name": "devWallet",
      "outputs": [
        {
          "internalType": "address payable",
          "name": "",
          "type": "address"
        }
      ],
      "stateMutability": "view",
      "type": "function"
    },
    {
      "inputs": [
        {
          "internalType": "bytes32",
          "name": "_requestId",
          "type": "bytes32"
        },
        {
          "internalType": "uint256",
          "name": "_volume",
          "type": "uint256"
        }
      ],
      "name": "fulfill",
      "outputs": [],
      "stateMutability": "nonpayable",
      "type": "function"
    },
    {
      "inputs": [],
      "name": "getAcceptedBets",
      "outputs": [
        {
          "internalType": "uint256[]",
          "name": "",
          "type": "uint256[]"
        }
      ],
      "stateMutability": "view",
      "type": "function"
    },
    {
      "inputs": [],
      "name": "getActiveBets",
      "outputs": [
        {
          "internalType": "uint256[]",
          "name": "",
          "type": "uint256[]"
        }
      ],
      "stateMutability": "view",
      "type": "function"
    },
    {
      "inputs": [],
      "name": "globalId",
      "outputs": [
        {
          "internalType": "uint256",
          "name": "",
          "type": "uint256"
        }
      ],
      "stateMutability": "view",
      "type": "function"
    },
    {
      "inputs": [],
      "name": "interval",
      "outputs": [
        {
          "internalType": "uint256",
          "name": "",
          "type": "uint256"
        }
      ],
      "stateMutability": "view",
      "type": "function"
    },
    {
      "inputs": [],
      "name": "lastTimeStamp",
      "outputs": [
        {
          "internalType": "uint256",
          "name": "",
          "type": "uint256"
        }
      ],
      "stateMutability": "view",
      "type": "function"
    },
    {
      "inputs": [],
      "name": "minimumBet",
      "outputs": [
        {
          "internalType": "uint256",
          "name": "",
          "type": "uint256"
        }
      ],
      "stateMutability": "view",
      "type": "function"
    },
    {
      "inputs": [],
      "name": "owner",
      "outputs": [
        {
          "internalType": "address",
          "name": "",
          "type": "address"
        }
      ],
      "stateMutability": "view",
      "type": "function"
    },
    {
      "inputs": [
        {
          "internalType": "bytes",
          "name": "performData",
          "type": "bytes"
        }
      ],
      "name": "performUpkeep",
      "outputs": [],
      "stateMutability": "nonpayable",
      "type": "function"
    },
    {
      "inputs": [],
      "name": "renounceOwnership",
      "outputs": [],
      "stateMutability": "nonpayable",
      "type": "function"
    },
    {
      "inputs": [
        {
          "internalType": "string",
          "name": "_apiURL",
          "type": "string"
        },
        {
          "internalType": "uint256",
          "name": "_id",
          "type": "uint256"
        }
      ],
      "name": "requestVolumeData",
      "outputs": [
        {
          "internalType": "bytes32",
          "name": "requestId",
          "type": "bytes32"
        }
      ],
      "stateMutability": "nonpayable",
      "type": "function"
    },
    {
      "inputs": [],
      "name": "serviceFee",
      "outputs": [
        {
          "internalType": "uint256",
          "name": "",
          "type": "uint256"
        }
      ],
      "stateMutability": "view",
      "type": "function"
    },
    {
      "inputs": [
        {
          "internalType": "address payable",
          "name": "_devWallet",
          "type": "address"
        }
      ],
      "name": "setDevWallet",
      "outputs": [],
      "stateMutability": "nonpayable",
      "type": "function"
    },
    {
      "inputs": [
        {
          "internalType": "uint256",
          "name": "_interval",
          "type": "uint256"
        }
      ],
      "name": "setInterval",
      "outputs": [],
      "stateMutability": "nonpayable",
      "type": "function"
    },
    {
      "inputs": [
        {
          "internalType": "bytes32",
          "name": "_jobId",
          "type": "bytes32"
        }
      ],
      "name": "setJobId",
      "outputs": [],
      "stateMutability": "nonpayable",
      "type": "function"
    },
    {
      "inputs": [
        {
          "internalType": "uint256",
          "name": "_minimumBet",
          "type": "uint256"
        }
      ],
      "name": "setMinimumBet",
      "outputs": [],
      "stateMutability": "nonpayable",
      "type": "function"
    },
    {
      "inputs": [
        {
          "internalType": "address",
          "name": "_oracle",
          "type": "address"
        }
      ],
      "name": "setOracle",
      "outputs": [],
      "stateMutability": "nonpayable",
      "type": "function"
    },
    {
      "inputs": [
        {
          "internalType": "address",
          "name": "newOwner",
          "type": "address"
        }
      ],
      "name": "transferOwnership",
      "outputs": [],
      "stateMutability": "nonpayable",
      "type": "function"
    }
  ],
  "transactionHash": "0x2780e6f39894f7e78190a5467fb74025efa7c932d9522a1b16e7ff7e296b45d0",
  "args": [
    1000000000000000,
    1,
    "0xa36085F69e2889c224210F603D836748e7dC0088",
    "0xc57b33452b4f7bb189bb5afae9cc4aba1f7a4fd8",
    {
      "0": 100,
      "1": 53,
      "2": 50,
      "3": 55,
      "4": 48,
      "5": 100,
      "6": 49,
      "7": 99,
      "8": 51,
      "9": 49,
      "10": 49,
      "11": 57,
      "12": 52,
      "13": 49,
      "14": 100,
      "15": 48,
      "16": 98,
      "17": 48,
      "18": 56,
      "19": 98,
      "20": 101,
      "21": 97,
      "22": 100,
      "23": 50,
      "24": 49,
      "25": 102,
      "26": 101,
      "27": 97,
      "28": 55,
      "29": 55,
      "30": 52,
      "31": 55
    },
    "100000000000000000"
  ],
  "numDeployments": 3,
  "solcInputHash": "8c7a474f1fcd8b18eb198437e93e988c",
  "bytecode": "0x608060405260016004553480156200001657600080fd5b5060405162004b9338038062004b9383398181016040528101906200003c91906200035b565b6200005c620000506200012a60201b60201c565b6200013260201b60201c565b856008819055508460128190555042601381905550600073ffffffffffffffffffffffffffffffffffffffff168473ffffffffffffffffffffffffffffffffffffffff161415620000bd57620000b7620001f860201b60201c565b620000cf565b620000ce84620002a060201b60201c565b5b82600e60006101000a81548173ffffffffffffffffffffffffffffffffffffffff021916908373ffffffffffffffffffffffffffffffffffffffff16021790555081600f819055508060108190555050505050505062000492565b600033905090565b6000600660009054906101000a900473ffffffffffffffffffffffffffffffffffffffff16905081600660006101000a81548173ffffffffffffffffffffffffffffffffffffffff021916908373ffffffffffffffffffffffffffffffffffffffff1602179055508173ffffffffffffffffffffffffffffffffffffffff168173ffffffffffffffffffffffffffffffffffffffff167f8be0079c531659141344cd1fd0a4f28419497f9722a3daafe3b4186f6b6457e060405160405180910390a35050565b6200029e73c89bd4e1632d3a43cb03aaad5262cbe4038bc57173ffffffffffffffffffffffffffffffffffffffff166338cc48316040518163ffffffff1660e01b815260040160206040518083038186803b1580156200025757600080fd5b505afa1580156200026c573d6000803e3d6000fd5b505050506040513d601f19601f8201168201806040525081019062000292919062000329565b620002a060201b60201c565b565b80600260006101000a81548173ffffffffffffffffffffffffffffffffffffffff021916908373ffffffffffffffffffffffffffffffffffffffff16021790555050565b600081519050620002f58162000444565b92915050565b6000815190506200030c816200045e565b92915050565b600081519050620003238162000478565b92915050565b6000602082840312156200034257620003416200043f565b5b60006200035284828501620002e4565b91505092915050565b60008060008060008060c087890312156200037b576200037a6200043f565b5b60006200038b89828a0162000312565b96505060206200039e89828a0162000312565b9550506040620003b189828a01620002e4565b9450506060620003c489828a01620002e4565b9350506080620003d789828a01620002fb565b92505060a0620003ea89828a0162000312565b9150509295509295509295565b6000620004048262000415565b9050919050565b6000819050919050565b600073ffffffffffffffffffffffffffffffffffffffff82169050919050565b6000819050919050565b600080fd5b6200044f81620003f7565b81146200045b57600080fd5b50565b62000469816200040b565b81146200047557600080fd5b50565b620004838162000435565b81146200048f57600080fd5b50565b6146f180620004a26000396000f3fe6080604052600436106101815760003560e01c806387f7777d116100d1578063af768ee31161008a578063ca66682311610064578063ca6668231461053f578063cc9af9641461056a578063e0ced0e114610595578063f2fde38b146105dc57610181565b8063af768ee31461049a578063b4c0a1d4146104d7578063c38a8afd1461051457610181565b806387f7777d1461039a5780638abdf5aa146103c35780638da5cb5b146103ee5780638ea5220f14610419578063947a36fb14610444578063ada730201461046f57610181565b8063508954f81161013e578063711bc98311610118578063711bc983146102f4578063715018a6146103315780637adbf973146103485780638772ae3c1461037157610181565b8063508954f8146102715780636c0c27e11461029a5780636e04ff0d146102b657610181565b80631f53ac02146101865780631f796b57146101af57806322a90082146101cb5780633f3b3b27146101f45780634357855e1461021f5780634585e33b14610248575b600080fd5b34801561019257600080fd5b506101ad60048036038101906101a89190613350565b610605565b005b6101c960048036038101906101c491906134c0565b6106c5565b005b3480156101d757600080fd5b506101f260048036038101906101ed9190613557565b6109c9565b005b34801561020057600080fd5b50610209610a4f565b6040516102169190613c0e565b60405180910390f35b34801561022b57600080fd5b50610246600480360381019061024191906133d7565b610a55565b005b34801561025457600080fd5b5061026f600480360381019061026a9190613417565b610b94565b005b34801561027d57600080fd5b50610298600480360381019061029391906133aa565b610c00565b005b6102b460048036038101906102af9190613557565b610c86565b005b3480156102c257600080fd5b506102dd60048036038101906102d89190613417565b611245565b6040516102eb929190613a43565b60405180910390f35b34801561030057600080fd5b5061031b60048036038101906103169190613557565b6112ab565b6040516103289190613c0e565b60405180910390f35b34801561033d57600080fd5b506103466112cf565b005b34801561035457600080fd5b5061036f600480360381019061036a9190613323565b611357565b005b34801561037d57600080fd5b5061039860048036038101906103939190613557565b611426565b005b3480156103a657600080fd5b506103c160048036038101906103bc9190613557565b6114ac565b005b3480156103cf57600080fd5b506103d86116d5565b6040516103e59190613c0e565b60405180910390f35b3480156103fa57600080fd5b506104036116db565b6040516104109190613928565b60405180910390f35b34801561042557600080fd5b5061042e611705565b60405161043b9190613943565b60405180910390f35b34801561045057600080fd5b5061045961172b565b6040516104669190613c0e565b60405180910390f35b34801561047b57600080fd5b50610484611731565b6040516104919190613a21565b60405180910390f35b3480156104a657600080fd5b506104c160048036038101906104bc9190613557565b611789565b6040516104ce9190613c0e565b60405180910390f35b3480156104e357600080fd5b506104fe60048036038101906104f99190613464565b6117ad565b60405161050b9190613a73565b60405180910390f35b34801561052057600080fd5b506105296118df565b6040516105369190613c0e565b60405180910390f35b34801561054b57600080fd5b506105546118e5565b6040516105619190613c0e565b60405180910390f35b34801561057657600080fd5b5061057f6118eb565b60405161058c9190613a21565b60405180910390f35b3480156105a157600080fd5b506105bc60048036038101906105b79190613557565b611943565b6040516105d39b9a99989796959493929190613c29565b60405180910390f35b3480156105e857600080fd5b5061060360048036038101906105fe9190613323565b611abe565b005b61060d611bb6565b73ffffffffffffffffffffffffffffffffffffffff1661062b6116db565b73ffffffffffffffffffffffffffffffffffffffff1614610681576040517f08c379a000000000000000000000000000000000000000000000000000000000815260040161067890613bae565b60405180910390fd5b80600960006101000a81548173ffffffffffffffffffffffffffffffffffffffff021916908373ffffffffffffffffffffffffffffffffffffffff16021790555050565b60085434101561070a576040517f08c379a000000000000000000000000000000000000000000000000000000000815260040161070190613aee565b60405180910390fd5b81811061074c576040517f08c379a000000000000000000000000000000000000000000000000000000000815260040161074390613b4e565b60405180910390fd5b60006040518060800160405280428152602001838152602001600081526020018481525090506000604051806101600160405280600a5481526020013373ffffffffffffffffffffffffffffffffffffffff168152602001600073ffffffffffffffffffffffffffffffffffffffff1681526020018881526020013481526020018781526020016000151581526020016001151581526020016000151581526020018681526020018381525090506001600a546108099190613da2565b600a81905550600c8160000151908060018154018082558091505060019003906000526020600020016000909190919091505580600b6000836000015181526020019081526020016000206000820151816000015560208201518160010160006101000a81548173ffffffffffffffffffffffffffffffffffffffff021916908373ffffffffffffffffffffffffffffffffffffffff16021790555060408201518160020160006101000a81548173ffffffffffffffffffffffffffffffffffffffff021916908373ffffffffffffffffffffffffffffffffffffffff16021790555060608201518160030190805190602001906109089291906130ca565b506080820151816004015560a0820151816005015560c08201518160060160006101000a81548160ff02191690831515021790555060e08201518160060160016101000a81548160ff0219169083151502179055506101008201518160060160026101000a81548160ff02191690831515021790555061012082015181600701556101408201518160080160008201518160000155602082015181600101556040820151816002015560608201518160030155505090505050505050505050565b6109d1611bb6565b73ffffffffffffffffffffffffffffffffffffffff166109ef6116db565b73ffffffffffffffffffffffffffffffffffffffff1614610a45576040517f08c379a0000000000000000000000000000000000000000000000000000000008152600401610a3c90613bae565b60405180910390fd5b8060128190555050565b60135481565b816005600082815260200190815260200160002060009054906101000a900473ffffffffffffffffffffffffffffffffffffffff1673ffffffffffffffffffffffffffffffffffffffff163373ffffffffffffffffffffffffffffffffffffffff1614610af7576040517f08c379a0000000000000000000000000000000000000000000000000000000008152600401610aee90613bce565b60405180910390fd5b6005600082815260200190815260200160002060006101000a81549073ffffffffffffffffffffffffffffffffffffffff0219169055807f7cc135e0cebb02c3480ae5d74d377283180a2601f8f644edf7987b009316c63a60405160405180910390a26000606483610b699190613df8565b9050600060116000868152602001908152602001600020549050610b8d8183611bbe565b5050505050565b60125460135442610ba59190613ff4565b11610be5576040517f08c379a0000000000000000000000000000000000000000000000000000000008152600401610bdc90613b8e565b60405180910390fd5b42601381905550610bf46121f7565b610bfc612493565b5050565b610c08611bb6565b73ffffffffffffffffffffffffffffffffffffffff16610c266116db565b73ffffffffffffffffffffffffffffffffffffffff1614610c7c576040517f08c379a0000000000000000000000000000000000000000000000000000000008152600401610c7390613bae565b60405180910390fd5b80600f8190555050565b6000600b600083815260200190815260200160002060405180610160016040529081600082015481526020016001820160009054906101000a900473ffffffffffffffffffffffffffffffffffffffff1673ffffffffffffffffffffffffffffffffffffffff1673ffffffffffffffffffffffffffffffffffffffff1681526020016002820160009054906101000a900473ffffffffffffffffffffffffffffffffffffffff1673ffffffffffffffffffffffffffffffffffffffff1673ffffffffffffffffffffffffffffffffffffffff168152602001600382018054610d6d90614130565b80601f0160208091040260200160405190810160405280929190818152602001828054610d9990614130565b8015610de65780601f10610dbb57610100808354040283529160200191610de6565b820191906000526020600020905b815481529060010190602001808311610dc957829003601f168201915b5050505050815260200160048201548152602001600582015481526020016006820160009054906101000a900460ff161515151581526020016006820160019054906101000a900460ff161515151581526020016006820160029054906101000a900460ff161515151581526020016007820154815260200160088201604051806080016040529081600082015481526020016001820154815260200160028201548152602001600382015481525050815250509050600115158160e00151151514610ee7576040517f08c379a0000000000000000000000000000000000000000000000000000000008152600401610ede90613aae565b60405180910390fd5b600015158160c00151151514610f32576040517f08c379a0000000000000000000000000000000000000000000000000000000008152600401610f2990613ace565b60405180910390fd5b60001515816101000151151514610f7e576040517f08c379a0000000000000000000000000000000000000000000000000000000008152600401610f7590613b6e565b60405180910390fd5b348160a0015114610fc4576040517f08c379a0000000000000000000000000000000000000000000000000000000008152600401610fbb90613b2e565b60405180910390fd5b80610140015160200151421115611010576040517f08c379a000000000000000000000000000000000000000000000000000000000815260040161100790613bee565b60405180910390fd5b42816101400151604001818152505060018160c001901515908115158152505034816080018181516110429190613da2565b9150818152505033816040019073ffffffffffffffffffffffffffffffffffffffff16908173ffffffffffffffffffffffffffffffffffffffff1681525050611090600c826000015161270c565b80600b6000836000015181526020019081526020016000206000820151816000015560208201518160010160006101000a81548173ffffffffffffffffffffffffffffffffffffffff021916908373ffffffffffffffffffffffffffffffffffffffff16021790555060408201518160020160006101000a81548173ffffffffffffffffffffffffffffffffffffffff021916908373ffffffffffffffffffffffffffffffffffffffff160217905550606082015181600301908051906020019061115c9291906130ca565b506080820151816004015560a0820151816005015560c08201518160060160006101000a81548160ff02191690831515021790555060e08201518160060160016101000a81548160ff0219169083151502179055506101008201518160060160026101000a81548160ff021916908315150217905550610120820151816007015561014082015181600801600082015181600001556020820151816001015560408201518160020155606082015181600301555050905050600d816000015190806001815401808255809150506001900390600052602060002001600090919091909150555050565b600060606012546013544261125a9190613ff4565b11915083838080601f016020809104026020016040519081016040528093929190818152602001838380828437600081840152601f19601f8201169050808301925050505050505090509250929050565b600d81815481106112bb57600080fd5b906000526020600020016000915090505481565b6112d7611bb6565b73ffffffffffffffffffffffffffffffffffffffff166112f56116db565b73ffffffffffffffffffffffffffffffffffffffff161461134b576040517f08c379a000000000000000000000000000000000000000000000000000000000815260040161134290613bae565b60405180910390fd5b61135560006127f4565b565b61135f611bb6565b73ffffffffffffffffffffffffffffffffffffffff1661137d6116db565b73ffffffffffffffffffffffffffffffffffffffff16146113d3576040517f08c379a00000000000000000000000000000000000000000000000000000000081526004016113ca90613bae565b60405180910390fd5b80600e60006101000a81548173ffffffffffffffffffffffffffffffffffffffff021916908373ffffffffffffffffffffffffffffffffffffffff16021790555067016345785d8a000060108190555050565b61142e611bb6565b73ffffffffffffffffffffffffffffffffffffffff1661144c6116db565b73ffffffffffffffffffffffffffffffffffffffff16146114a2576040517f08c379a000000000000000000000000000000000000000000000000000000000815260040161149990613bae565b60405180910390fd5b8060088190555050565b6000600b600083815260200190815260200160002060405180610160016040529081600082015481526020016001820160009054906101000a900473ffffffffffffffffffffffffffffffffffffffff1673ffffffffffffffffffffffffffffffffffffffff1673ffffffffffffffffffffffffffffffffffffffff1681526020016002820160009054906101000a900473ffffffffffffffffffffffffffffffffffffffff1673ffffffffffffffffffffffffffffffffffffffff1673ffffffffffffffffffffffffffffffffffffffff16815260200160038201805461159390614130565b80601f01602080910402602001604051908101604052809291908181526020018280546115bf90614130565b801561160c5780601f106115e15761010080835404028352916020019161160c565b820191906000526020600020905b8154815290600101906020018083116115ef57829003601f168201915b5050505050815260200160048201548152602001600582015481526020016006820160009054906101000a900460ff161515151581526020016006820160019054906101000a900460ff161515151581526020016006820160029054906101000a900460ff1615151515815260200160078201548152602001600882016040518060800160405290816000820154815260200160018201548152602001600282015481526020016003820154815250508152505090506116d08160600151836117ad565b505050565b60075481565b6000600660009054906101000a900473ffffffffffffffffffffffffffffffffffffffff16905090565b600960009054906101000a900473ffffffffffffffffffffffffffffffffffffffff1681565b60125481565b6060600c80548060200260200160405190810160405280929190818152602001828054801561177f57602002820191906000526020600020905b81548152602001906001019080831161176b575b5050505050905090565b600c818154811061179957600080fd5b906000526020600020016000915090505481565b6000806117c4600f5430634357855e60e01b6128ba565b90506118106040518060400160405280600381526020017f676574000000000000000000000000000000000000000000000000000000000081525085836128eb9092919063ffffffff16565b61188f6040518060400160405280600481526020017f70617468000000000000000000000000000000000000000000000000000000008152506040518060400160405280600c81526020017f746f74616c526573756c74730000000000000000000000000000000000000000815250836128eb9092919063ffffffff16565b6118be600e60009054906101000a900473ffffffffffffffffffffffffffffffffffffffff168260105461291e565b91508260116000848152602001908152602001600020819055505092915050565b60085481565b600a5481565b6060600d80548060200260200160405190810160405280929190818152602001828054801561193957602002820191906000526020600020905b815481526020019060010190808311611925575b5050505050905090565b600b6020528060005260406000206000915090508060000154908060010160009054906101000a900473ffffffffffffffffffffffffffffffffffffffff16908060020160009054906101000a900473ffffffffffffffffffffffffffffffffffffffff16908060030180546119b890614130565b80601f01602080910402602001604051908101604052809291908181526020018280546119e490614130565b8015611a315780601f10611a0657610100808354040283529160200191611a31565b820191906000526020600020905b815481529060010190602001808311611a1457829003601f168201915b5050505050908060040154908060050154908060060160009054906101000a900460ff16908060060160019054906101000a900460ff16908060060160029054906101000a900460ff16908060070154908060080160405180608001604052908160008201548152602001600182015481526020016002820154815260200160038201548152505090508b565b611ac6611bb6565b73ffffffffffffffffffffffffffffffffffffffff16611ae46116db565b73ffffffffffffffffffffffffffffffffffffffff1614611b3a576040517f08c379a0000000000000000000000000000000000000000000000000000000008152600401611b3190613bae565b60405180910390fd5b600073ffffffffffffffffffffffffffffffffffffffff168173ffffffffffffffffffffffffffffffffffffffff161415611baa576040517f08c379a0000000000000000000000000000000000000000000000000000000008152600401611ba190613a8e565b60405180910390fd5b611bb3816127f4565b50565b600033905090565b6000600b600084815260200190815260200160002060405180610160016040529081600082015481526020016001820160009054906101000a900473ffffffffffffffffffffffffffffffffffffffff1673ffffffffffffffffffffffffffffffffffffffff1673ffffffffffffffffffffffffffffffffffffffff1681526020016002820160009054906101000a900473ffffffffffffffffffffffffffffffffffffffff1673ffffffffffffffffffffffffffffffffffffffff1673ffffffffffffffffffffffffffffffffffffffff168152602001600382018054611ca590614130565b80601f0160208091040260200160405190810160405280929190818152602001828054611cd190614130565b8015611d1e5780601f10611cf357610100808354040283529160200191611d1e565b820191906000526020600020905b815481529060010190602001808311611d0157829003601f168201915b5050505050815260200160048201548152602001600582015481526020016006820160009054906101000a900460ff161515151581526020016006820160019054906101000a900460ff161515151581526020016006820160029054906101000a900460ff161515151581526020016007820154815260200160088201604051806080016040529081600082015481526020016001820154815260200160028201548152602001600382015481525050815250509050806101200151821115611fe35760018161010001901515908115158152505060008160e0019015159081151581525050806020015173ffffffffffffffffffffffffffffffffffffffff166108fc82608001519081150290604051600060405180830381858888f19350505050158015611e52573d6000803e3d6000fd5b5080600b60008581526020019081526020016000206000820151816000015560208201518160010160006101000a81548173ffffffffffffffffffffffffffffffffffffffff021916908373ffffffffffffffffffffffffffffffffffffffff16021790555060408201518160020160006101000a81548173ffffffffffffffffffffffffffffffffffffffff021916908373ffffffffffffffffffffffffffffffffffffffff1602179055506060820151816003019080519060200190611f1b9291906130ca565b506080820151816004015560a0820151816005015560c08201518160060160006101000a81548160ff02191690831515021790555060e08201518160060160016101000a81548160ff0219169083151502179055506101008201518160060160026101000a81548160ff021916908315150217905550610120820151816007015561014082015181600801600082015181600001556020820151816001015560408201518160020155606082015181600301555050905050611fde600d8461270c565b6121f2565b8061014001516060015142106121f15760018161010001901515908115158152505060008160e0019015159081151581525050806040015173ffffffffffffffffffffffffffffffffffffffff166108fc82608001519081150290604051600060405180830381858888f19350505050158015612064573d6000803e3d6000fd5b5080600b60008581526020019081526020016000206000820151816000015560208201518160010160006101000a81548173ffffffffffffffffffffffffffffffffffffffff021916908373ffffffffffffffffffffffffffffffffffffffff16021790555060408201518160020160006101000a81548173ffffffffffffffffffffffffffffffffffffffff021916908373ffffffffffffffffffffffffffffffffffffffff160217905550606082015181600301908051906020019061212d9291906130ca565b506080820151816004015560a0820151816005015560c08201518160060160006101000a81548160ff02191690831515021790555060e08201518160060160016101000a81548160ff0219169083151502179055506101008201518160060160026101000a81548160ff0219169083151502179055506101208201518160070155610140820151816008016000820151816000015560208201518160010155604082015181600201556060820151816003015550509050506121f0600d8461270c565b5b5b505050565b60005b600c80549050811015612490576000600b6000600c8481548110612221576122206142f7565b5b9060005260206000200154815260200190815260200160002060405180610160016040529081600082015481526020016001820160009054906101000a900473ffffffffffffffffffffffffffffffffffffffff1673ffffffffffffffffffffffffffffffffffffffff1673ffffffffffffffffffffffffffffffffffffffff1681526020016002820160009054906101000a900473ffffffffffffffffffffffffffffffffffffffff1673ffffffffffffffffffffffffffffffffffffffff1673ffffffffffffffffffffffffffffffffffffffff16815260200160038201805461230c90614130565b80601f016020809104026020016040519081016040528092919081815260200182805461233890614130565b80156123855780601f1061235a57610100808354040283529160200191612385565b820191906000526020600020905b81548152906001019060200180831161236857829003601f168201915b5050505050815260200160048201548152602001600582015481526020016006820160009054906101000a900460ff161515151581526020016006820160019054906101000a900460ff161515151581526020016006820160029054906101000a900460ff1615151515815260200160078201548152602001600882016040518060800160405290816000820154815260200160018201548152602001600282015481526020016003820154815250508152505090508060c001511580156124565750428161014001516020015111155b1561247c5760008160e001901515908115158152505061247b600c826000015161270c565b5b50808061248890614193565b9150506121fa565b50565b60005b600d80549050811015612709576000600b6000600d84815481106124bd576124bc6142f7565b5b9060005260206000200154815260200190815260200160002060405180610160016040529081600082015481526020016001820160009054906101000a900473ffffffffffffffffffffffffffffffffffffffff1673ffffffffffffffffffffffffffffffffffffffff1673ffffffffffffffffffffffffffffffffffffffff1681526020016002820160009054906101000a900473ffffffffffffffffffffffffffffffffffffffff1673ffffffffffffffffffffffffffffffffffffffff1673ffffffffffffffffffffffffffffffffffffffff1681526020016003820180546125a890614130565b80601f01602080910402602001604051908101604052809291908181526020018280546125d490614130565b80156126215780601f106125f657610100808354040283529160200191612621565b820191906000526020600020905b81548152906001019060200180831161260457829003601f168201915b5050505050815260200160048201548152602001600582015481526020016006820160009054906101000a900460ff161515151581526020016006820160019054906101000a900460ff161515151581526020016006820160029054906101000a900460ff1615151515815260200160078201548152602001600882016040518060800160405290816000820154815260200160018201548152602001600282015481526020016003820154815250508152505090504281610140015160600151116126f5576126f481600001516114ac565b5b50808061270190614193565b915050612496565b50565b60005b82805490508110156127ef578183828154811061272f5761272e6142f7565b5b906000526020600020015414156127dc57828181548110612753576127526142f7565b5b906000526020600020016000905582600184805490506127739190613ff4565b81548110612784576127836142f7565b5b90600052602060002001548382815481106127a2576127a16142f7565b5b9060005260206000200181905550828054806127c1576127c06142c8565b5b600190038181906000526020600020016000905590556127ef565b80806127e790614193565b91505061270f565b505050565b6000600660009054906101000a900473ffffffffffffffffffffffffffffffffffffffff16905081600660006101000a81548173ffffffffffffffffffffffffffffffffffffffff021916908373ffffffffffffffffffffffffffffffffffffffff1602179055508173ffffffffffffffffffffffffffffffffffffffff168173ffffffffffffffffffffffffffffffffffffffff167f8be0079c531659141344cd1fd0a4f28419497f9722a3daafe3b4186f6b6457e060405160405180910390a35050565b6128c2613150565b6128ca613150565b6128e1858585846129ea909392919063ffffffff16565b9150509392505050565b612902828460800151612a9a90919063ffffffff16565b612919818460800151612a9a90919063ffffffff16565b505050565b60008060045490506001816129339190613da2565b6004819055506000634042994660e01b60008087600001513089604001518760018c608001516000015160405160240161297498979695949392919061395e565b604051602081830303815290604052907bffffffffffffffffffffffffffffffffffffffffffffffffffffffff19166020820180517bffffffffffffffffffffffffffffffffffffffffffffffffffffffff838183161783525050505090506129df86838684612abf565b925050509392505050565b6129f2613150565b612a028560800151610100612c63565b508385600001818152505082856020019073ffffffffffffffffffffffffffffffffffffffff16908173ffffffffffffffffffffffffffffffffffffffff16815250508185604001907bffffffffffffffffffffffffffffffffffffffffffffffffffffffff191690817bffffffffffffffffffffffffffffffffffffffffffffffffffffffff191681525050849050949350505050565b612aa78260038351612ccd565b612aba8183612e5290919063ffffffff16565b505050565b60003084604051602001612ad49291906138fc565b604051602081830303815290604052805190602001209050846005600083815260200190815260200160002060006101000a81548173ffffffffffffffffffffffffffffffffffffffff021916908373ffffffffffffffffffffffffffffffffffffffff160217905550807fb5e6e01e79f91267dc17b4e6314d5d4d03593d2ceee0fbb452b750bd70ea5af960405160405180910390a2600260009054906101000a900473ffffffffffffffffffffffffffffffffffffffff1673ffffffffffffffffffffffffffffffffffffffff16634000aea08685856040518463ffffffff1660e01b8152600401612bca939291906139e3565b602060405180830381600087803b158015612be457600080fd5b505af1158015612bf8573d6000803e3d6000fd5b505050506040513d601f19601f82011682018060405250810190612c1c919061337d565b612c5b576040517f08c379a0000000000000000000000000000000000000000000000000000000008152600401612c5290613b0e565b60405180910390fd5b949350505050565b612c6b6131bd565b6000602083612c7a919061420a565b14612ca657602082612c8c919061420a565b6020612c989190613ff4565b82612ca39190613da2565b91505b81836020018181525050604051808452600081528281016020016040525082905092915050565b60178167ffffffffffffffff1611612d0457612cfe8160058460ff16901b60ff161784612e7490919063ffffffff16565b50612e4d565b60ff8167ffffffffffffffff1611612d5a57612d33601860058460ff16901b1784612e7490919063ffffffff16565b50612d548167ffffffffffffffff16600185612e949092919063ffffffff16565b50612e4c565b61ffff8167ffffffffffffffff1611612db157612d8a601960058460ff16901b1784612e7490919063ffffffff16565b50612dab8167ffffffffffffffff16600285612e949092919063ffffffff16565b50612e4b565b63ffffffff8167ffffffffffffffff1611612e0a57612de3601a60058460ff16901b1784612e7490919063ffffffff16565b50612e048167ffffffffffffffff16600485612e949092919063ffffffff16565b50612e4a565b612e27601b60058460ff16901b1784612e7490919063ffffffff16565b50612e488167ffffffffffffffff16600885612e949092919063ffffffff16565b505b5b5b5b505050565b612e5a6131bd565b612e6c83846000015151848551612eb6565b905092915050565b612e7c6131bd565b612e8c8384600001515184612fa5565b905092915050565b612e9c6131bd565b612ead848560000151518585612ffc565b90509392505050565b612ebe6131bd565b8251821115612ecc57600080fd5b84602001518285612edd9190613da2565b1115612f1257612f11856002612f0288602001518887612efd9190613da2565b61308a565b612f0c9190613f9a565b6130a6565b5b600080865180518760208301019350808887011115612f315787860182525b60208701925050505b60208410612f785780518252602082612f539190613da2565b9150602081612f629190613da2565b9050602084612f719190613ff4565b9350612f3a565b60006001856020036101000a03905080198251168184511681811785525050508692505050949350505050565b612fad6131bd565b83602001518310612fd357612fd28460028660200151612fcd9190613f9a565b6130a6565b5b8351805160208583010184815381861415612fef576001820183525b5050508390509392505050565b6130046131bd565b846020015184836130159190613da2565b111561303d5761303c856002868561302d9190613da2565b6130379190613f9a565b6130a6565b5b600060018361010061304f9190613e7c565b6130599190613ff4565b9050855183868201018583198251161781528151858801111561307c5784870182525b505085915050949350505050565b60008183111561309c578290506130a0565b8190505b92915050565b6000826000015190506130b98383612c63565b506130c48382612e52565b50505050565b8280546130d690614130565b90600052602060002090601f0160209004810192826130f8576000855561313f565b82601f1061311157805160ff191683800117855561313f565b8280016001018555821561313f579182015b8281111561313e578251825591602001919060010190613123565b5b50905061314c91906131d7565b5090565b6040518060a0016040528060008019168152602001600073ffffffffffffffffffffffffffffffffffffffff16815260200160007bffffffffffffffffffffffffffffffffffffffffffffffffffffffff19168152602001600081526020016131b76131bd565b81525090565b604051806040016040528060608152602001600081525090565b5b808211156131f05760008160009055506001016131d8565b5090565b600061320761320284613d00565b613cdb565b90508281526020810184848401111561322357613222614364565b5b61322e8482856140ee565b509392505050565b60008135905061324581614648565b92915050565b60008135905061325a8161465f565b92915050565b60008151905061326f81614676565b92915050565b6000813590506132848161468d565b92915050565b60008083601f8401126132a05761329f61435a565b5b8235905067ffffffffffffffff8111156132bd576132bc614355565b5b6020830191508360018202830111156132d9576132d861435f565b5b9250929050565b600082601f8301126132f5576132f461435a565b5b81356133058482602086016131f4565b91505092915050565b60008135905061331d816146a4565b92915050565b6000602082840312156133395761333861436e565b5b600061334784828501613236565b91505092915050565b6000602082840312156133665761336561436e565b5b60006133748482850161324b565b91505092915050565b6000602082840312156133935761339261436e565b5b60006133a184828501613260565b91505092915050565b6000602082840312156133c0576133bf61436e565b5b60006133ce84828501613275565b91505092915050565b600080604083850312156133ee576133ed61436e565b5b60006133fc85828601613275565b925050602061340d8582860161330e565b9150509250929050565b6000806020838503121561342e5761342d61436e565b5b600083013567ffffffffffffffff81111561344c5761344b614369565b5b6134588582860161328a565b92509250509250929050565b6000806040838503121561347b5761347a61436e565b5b600083013567ffffffffffffffff81111561349957613498614369565b5b6134a5858286016132e0565b92505060206134b68582860161330e565b9150509250929050565b600080600080600060a086880312156134dc576134db61436e565b5b600086013567ffffffffffffffff8111156134fa576134f9614369565b5b613506888289016132e0565b95505060206135178882890161330e565b94505060406135288882890161330e565b93505060606135398882890161330e565b925050608061354a8882890161330e565b9150509295509295909350565b60006020828403121561356d5761356c61436e565b5b600061357b8482850161330e565b91505092915050565b600061359083836138c7565b60208301905092915050565b6135a58161403a565b82525050565b6135b481614028565b82525050565b60006135c582613d41565b6135cf8185613d6f565b93506135da83613d31565b8060005b8381101561360b5781516135f28882613584565b97506135fd83613d62565b9250506001810190506135de565b5085935050505092915050565b6136218161404c565b82525050565b61363081614058565b82525050565b61363f81614062565b82525050565b600061365082613d4c565b61365a8185613d80565b935061366a8185602086016140fd565b61367381614373565b840191505092915050565b61368f61368a826140b8565b6141dc565b82525050565b60006136a082613d57565b6136aa8185613d91565b93506136ba8185602086016140fd565b6136c381614373565b840191505092915050565b60006136db602683613d91565b91506136e68261439e565b604082019050919050565b60006136fe600e83613d91565b9150613709826143ed565b602082019050919050565b6000613721601483613d91565b915061372c82614416565b602082019050919050565b6000613744601983613d91565b915061374f8261443f565b602082019050919050565b6000613767602383613d91565b915061377282614468565b604082019050919050565b600061378a601a83613d91565b9150613795826144b7565b602082019050919050565b60006137ad602383613d91565b91506137b8826144e0565b604082019050919050565b60006137d0601383613d91565b91506137db8261452f565b602082019050919050565b60006137f3601583613d91565b91506137fe82614558565b602082019050919050565b6000613816602083613d91565b915061382182614581565b602082019050919050565b6000613839602883613d91565b9150613844826145aa565b604082019050919050565b600061385c602383613d91565b9150613867826145f9565b604082019050919050565b60808201600082015161388860008501826138c7565b50602082015161389b60208501826138c7565b5060408201516138ae60408501826138c7565b5060608201516138c160608501826138c7565b50505050565b6138d0816140ae565b82525050565b6138df816140ae565b82525050565b6138f66138f1826140ae565b614200565b82525050565b6000613908828561367e565b60148201915061391882846138e5565b6020820191508190509392505050565b600060208201905061393d60008301846135ab565b92915050565b6000602082019050613958600083018461359c565b92915050565b600061010082019050613974600083018b6135ab565b613981602083018a6138d6565b61398e6040830189613627565b61399b60608301886135ab565b6139a86080830187613636565b6139b560a08301866138d6565b6139c260c08301856138d6565b81810360e08301526139d48184613645565b90509998505050505050505050565b60006060820190506139f860008301866135ab565b613a0560208301856138d6565b8181036040830152613a178184613645565b9050949350505050565b60006020820190508181036000830152613a3b81846135ba565b905092915050565b6000604082019050613a586000830185613618565b8181036020830152613a6a8184613645565b90509392505050565b6000602082019050613a886000830184613627565b92915050565b60006020820190508181036000830152613aa7816136ce565b9050919050565b60006020820190508181036000830152613ac7816136f1565b9050919050565b60006020820190508181036000830152613ae781613714565b9050919050565b60006020820190508181036000830152613b0781613737565b9050919050565b60006020820190508181036000830152613b278161375a565b9050919050565b60006020820190508181036000830152613b478161377d565b9050919050565b60006020820190508181036000830152613b67816137a0565b9050919050565b60006020820190508181036000830152613b87816137c3565b9050919050565b60006020820190508181036000830152613ba7816137e6565b9050919050565b60006020820190508181036000830152613bc781613809565b9050919050565b60006020820190508181036000830152613be78161382c565b9050919050565b60006020820190508181036000830152613c078161384f565b9050919050565b6000602082019050613c2360008301846138d6565b92915050565b60006101c082019050613c3f600083018e6138d6565b613c4c602083018d61359c565b613c59604083018c61359c565b8181036060830152613c6b818b613695565b9050613c7a608083018a6138d6565b613c8760a08301896138d6565b613c9460c0830188613618565b613ca160e0830187613618565b613caf610100830186613618565b613cbd6101208301856138d6565b613ccb610140830184613872565b9c9b505050505050505050505050565b6000613ce5613cf6565b9050613cf18282614162565b919050565b6000604051905090565b600067ffffffffffffffff821115613d1b57613d1a614326565b5b613d2482614373565b9050602081019050919050565b6000819050602082019050919050565b600081519050919050565b600081519050919050565b600081519050919050565b6000602082019050919050565b600082825260208201905092915050565b600082825260208201905092915050565b600082825260208201905092915050565b6000613dad826140ae565b9150613db8836140ae565b9250827fffffffffffffffffffffffffffffffffffffffffffffffffffffffffffffffff03821115613ded57613dec61423b565b5b828201905092915050565b6000613e03826140ae565b9150613e0e836140ae565b925082613e1e57613e1d61426a565b5b828204905092915050565b6000808291508390505b6001851115613e7357808604811115613e4f57613e4e61423b565b5b6001851615613e5e5780820291505b8081029050613e6c85614391565b9450613e33565b94509492505050565b6000613e87826140ae565b9150613e92836140ae565b9250613ebf7fffffffffffffffffffffffffffffffffffffffffffffffffffffffffffffffff8484613ec7565b905092915050565b600082613ed75760019050613f93565b81613ee55760009050613f93565b8160018114613efb5760028114613f0557613f34565b6001915050613f93565b60ff841115613f1757613f1661423b565b5b8360020a915084821115613f2e57613f2d61423b565b5b50613f93565b5060208310610133831016604e8410600b8410161715613f695782820a905083811115613f6457613f6361423b565b5b613f93565b613f768484846001613e29565b92509050818404811115613f8d57613f8c61423b565b5b81810290505b9392505050565b6000613fa5826140ae565b9150613fb0836140ae565b9250817fffffffffffffffffffffffffffffffffffffffffffffffffffffffffffffffff0483118215151615613fe957613fe861423b565b5b828202905092915050565b6000613fff826140ae565b915061400a836140ae565b92508282101561401d5761401c61423b565b5b828203905092915050565b60006140338261408e565b9050919050565b60006140458261408e565b9050919050565b60008115159050919050565b6000819050919050565b60007fffffffff0000000000000000000000000000000000000000000000000000000082169050919050565b600073ffffffffffffffffffffffffffffffffffffffff82169050919050565b6000819050919050565b60006140c3826140ca565b9050919050565b60006140d5826140dc565b9050919050565b60006140e78261408e565b9050919050565b82818337600083830152505050565b60005b8381101561411b578082015181840152602081019050614100565b8381111561412a576000848401525b50505050565b6000600282049050600182168061414857607f821691505b6020821081141561415c5761415b614299565b5b50919050565b61416b82614373565b810181811067ffffffffffffffff8211171561418a57614189614326565b5b80604052505050565b600061419e826140ae565b91507fffffffffffffffffffffffffffffffffffffffffffffffffffffffffffffffff8214156141d1576141d061423b565b5b600182019050919050565b60006141e7826141ee565b9050919050565b60006141f982614384565b9050919050565b6000819050919050565b6000614215826140ae565b9150614220836140ae565b9250826142305761422f61426a565b5b828206905092915050565b7f4e487b7100000000000000000000000000000000000000000000000000000000600052601160045260246000fd5b7f4e487b7100000000000000000000000000000000000000000000000000000000600052601260045260246000fd5b7f4e487b7100000000000000000000000000000000000000000000000000000000600052602260045260246000fd5b7f4e487b7100000000000000000000000000000000000000000000000000000000600052603160045260246000fd5b7f4e487b7100000000000000000000000000000000000000000000000000000000600052603260045260246000fd5b7f4e487b7100000000000000000000000000000000000000000000000000000000600052604160045260246000fd5b600080fd5b600080fd5b600080fd5b600080fd5b600080fd5b600080fd5b6000601f19601f8301169050919050565b60008160601b9050919050565b60008160011c9050919050565b7f4f776e61626c653a206e6577206f776e657220697320746865207a65726f206160008201527f6464726573730000000000000000000000000000000000000000000000000000602082015250565b7f626574206e6f7420616374697665000000000000000000000000000000000000600082015250565b7f62657420616c7265616479206163636570746564000000000000000000000000600082015250565b7f6d696e696d756d20626574206e6f742073617469736669656400000000000000600082015250565b7f756e61626c6520746f207472616e73666572416e6443616c6c20746f206f726160008201527f636c650000000000000000000000000000000000000000000000000000000000602082015250565b7f6163636570746572206d6f6e6579206e6f7420636f7272656374000000000000600082015250565b7f6163636570742064617465206d757374206265206265666f726520656e64206460008201527f6174650000000000000000000000000000000000000000000000000000000000602082015250565b7f62657420686173206265656e20636c6f73656400000000000000000000000000600082015250565b7f54696d6520696e74657276616c206e6f74206d65740000000000000000000000600082015250565b7f4f776e61626c653a2063616c6c6572206973206e6f7420746865206f776e6572600082015250565b7f536f75726365206d75737420626520746865206f7261636c65206f662074686560008201527f2072657175657374000000000000000000000000000000000000000000000000602082015250565b7f626574206973206e6f206c6f6e676572206f70656e20666f722061636365707460008201527f696e670000000000000000000000000000000000000000000000000000000000602082015250565b61465181614028565b811461465c57600080fd5b50565b6146688161403a565b811461467357600080fd5b50565b61467f8161404c565b811461468a57600080fd5b50565b61469681614058565b81146146a157600080fd5b50565b6146ad816140ae565b81146146b857600080fd5b5056fea26469706673582212202512621f1506652b334a12ea3bdd2bdc9e0c4556c410a65280f9c09238d3a71a64736f6c63430008070033",
  "devdoc": {
    "kind": "dev",
    "methods": {
      "checkUpkeep(bytes)": {
        "details": "To ensure that it is never called, you may want to add the cannotExecute modifier from KeeperBase to your implementation of this method.",
        "params": {
          "checkData": "specified in the upkeep registration so it is always the same for a registered upkeep. This can easily be broken down into specific arguments using `abi.decode`, so multiple upkeeps can be registered on the same contract and easily differentiated by the contract."
        },
        "returns": {
          "performData": "bytes that the keeper should call performUpkeep with, if upkeep is needed. If you would like to encode data to decode later, try `abi.encode`.",
          "upkeepNeeded": "boolean to indicate whether the keeper should call performUpkeep or not."
        }
      },
      "owner()": {
        "details": "Returns the address of the current owner."
      },
      "performUpkeep(bytes)": {
        "details": "The input to this method should not be trusted, and the caller of the method should not even be restricted to any single registry. Anyone should be able call it, and the input should be validated, there is no guarantee that the data passed in is the performData returned from checkUpkeep. This could happen due to malicious keepers, racing keepers, or simply a state change while the performUpkeep transaction is waiting for confirmation. Always validate the data passed in.",
        "params": {
          "performData": "is the data which was passed back from the checkData simulation. If it is encoded, it can easily be decoded into other types by calling `abi.decode`. This data should not be trusted, and should be validated against the contract's current state."
        }
      },
      "renounceOwnership()": {
        "details": "Leaves the contract without owner. It will not be possible to call `onlyOwner` functions anymore. Can only be called by the current owner. NOTE: Renouncing ownership will leave the contract without an owner, thereby removing any functionality that is only available to the owner."
      },
      "transferOwnership(address)": {
        "details": "Transfers ownership of the contract to a new account (`newOwner`). Can only be called by the current owner."
      }
    },
    "version": 1
  },
  "userdoc": {
    "kind": "user",
    "methods": {
      "checkUpkeep(bytes)": {
        "notice": "method that is simulated by the keepers to see if any work actually needs to be performed. This method does does not actually need to be executable, and since it is only ever simulated it can consume lots of gas."
      },
      "performUpkeep(bytes)": {
        "notice": "method that is actually executed by the keepers, via the registry. The data returned by the checkUpkeep simulation will be passed into this method to actually be executed."
      }
    },
    "version": 1
  },
  "storageLayout": {
    "storage": [
      {
        "astId": 319,
        "contract": "contracts/BetGame.sol:BetGame",
        "label": "s_ens",
        "offset": 0,
        "slot": "0",
        "type": "t_contract(ENSInterface)1013"
      },
      {
        "astId": 321,
        "contract": "contracts/BetGame.sol:BetGame",
        "label": "s_ensNode",
        "offset": 0,
        "slot": "1",
        "type": "t_bytes32"
      },
      {
        "astId": 324,
        "contract": "contracts/BetGame.sol:BetGame",
        "label": "s_link",
        "offset": 0,
        "slot": "2",
        "type": "t_contract(LinkTokenInterface)1127"
      },
      {
        "astId": 327,
        "contract": "contracts/BetGame.sol:BetGame",
        "label": "s_oracle",
        "offset": 0,
        "slot": "3",
        "type": "t_contract(OperatorInterface)1207"
      },
      {
        "astId": 330,
        "contract": "contracts/BetGame.sol:BetGame",
        "label": "s_requestCount",
        "offset": 0,
        "slot": "4",
        "type": "t_uint256"
      },
      {
        "astId": 334,
        "contract": "contracts/BetGame.sol:BetGame",
        "label": "s_pendingRequests",
        "offset": 0,
        "slot": "5",
        "type": "t_mapping(t_bytes32,t_address)"
      },
      {
        "astId": 2241,
        "contract": "contracts/BetGame.sol:BetGame",
        "label": "_owner",
        "offset": 0,
        "slot": "6",
        "type": "t_address"
      },
      {
        "astId": 2377,
        "contract": "contracts/BetGame.sol:BetGame",
        "label": "serviceFee",
        "offset": 0,
        "slot": "7",
        "type": "t_uint256"
      },
      {
        "astId": 2379,
        "contract": "contracts/BetGame.sol:BetGame",
        "label": "minimumBet",
        "offset": 0,
        "slot": "8",
        "type": "t_uint256"
      },
      {
        "astId": 2381,
        "contract": "contracts/BetGame.sol:BetGame",
        "label": "devWallet",
        "offset": 0,
        "slot": "9",
        "type": "t_address_payable"
      },
      {
        "astId": 2416,
        "contract": "contracts/BetGame.sol:BetGame",
        "label": "globalId",
        "offset": 0,
        "slot": "10",
        "type": "t_uint256"
      },
      {
        "astId": 2421,
        "contract": "contracts/BetGame.sol:BetGame",
        "label": "allBets",
        "offset": 0,
        "slot": "11",
        "type": "t_mapping(t_uint256,t_struct(Bet)2414_storage)"
      },
      {
        "astId": 2424,
        "contract": "contracts/BetGame.sol:BetGame",
        "label": "activeBets",
        "offset": 0,
        "slot": "12",
        "type": "t_array(t_uint256)dyn_storage"
      },
      {
        "astId": 2427,
        "contract": "contracts/BetGame.sol:BetGame",
        "label": "acceptedBets",
        "offset": 0,
        "slot": "13",
        "type": "t_array(t_uint256)dyn_storage"
      },
      {
        "astId": 2429,
        "contract": "contracts/BetGame.sol:BetGame",
        "label": "oracle",
        "offset": 0,
        "slot": "14",
        "type": "t_address"
      },
      {
        "astId": 2431,
        "contract": "contracts/BetGame.sol:BetGame",
        "label": "jobId",
        "offset": 0,
        "slot": "15",
        "type": "t_bytes32"
      },
      {
        "astId": 2433,
        "contract": "contracts/BetGame.sol:BetGame",
        "label": "fee",
        "offset": 0,
        "slot": "16",
        "type": "t_uint256"
      },
      {
        "astId": 2437,
        "contract": "contracts/BetGame.sol:BetGame",
        "label": "requestToBet",
        "offset": 0,
        "slot": "17",
        "type": "t_mapping(t_bytes32,t_uint256)"
      },
      {
        "astId": 2439,
        "contract": "contracts/BetGame.sol:BetGame",
        "label": "interval",
        "offset": 0,
        "slot": "18",
        "type": "t_uint256"
      },
      {
        "astId": 2441,
        "contract": "contracts/BetGame.sol:BetGame",
        "label": "lastTimeStamp",
        "offset": 0,
        "slot": "19",
        "type": "t_uint256"
      }
    ],
    "types": {
      "t_address": {
        "encoding": "inplace",
        "label": "address",
        "numberOfBytes": "20"
      },
      "t_address_payable": {
        "encoding": "inplace",
        "label": "address payable",
        "numberOfBytes": "20"
      },
      "t_array(t_uint256)dyn_storage": {
        "base": "t_uint256",
        "encoding": "dynamic_array",
        "label": "uint256[]",
        "numberOfBytes": "32"
      },
      "t_bool": {
        "encoding": "inplace",
        "label": "bool",
        "numberOfBytes": "1"
      },
      "t_bytes32": {
        "encoding": "inplace",
        "label": "bytes32",
        "numberOfBytes": "32"
      },
      "t_contract(ENSInterface)1013": {
        "encoding": "inplace",
        "label": "contract ENSInterface",
        "numberOfBytes": "20"
      },
      "t_contract(LinkTokenInterface)1127": {
        "encoding": "inplace",
        "label": "contract LinkTokenInterface",
        "numberOfBytes": "20"
      },
      "t_contract(OperatorInterface)1207": {
        "encoding": "inplace",
        "label": "contract OperatorInterface",
        "numberOfBytes": "20"
      },
      "t_mapping(t_bytes32,t_address)": {
        "encoding": "mapping",
        "key": "t_bytes32",
        "label": "mapping(bytes32 => address)",
        "numberOfBytes": "32",
        "value": "t_address"
      },
      "t_mapping(t_bytes32,t_uint256)": {
        "encoding": "mapping",
        "key": "t_bytes32",
        "label": "mapping(bytes32 => uint256)",
        "numberOfBytes": "32",
        "value": "t_uint256"
      },
      "t_mapping(t_uint256,t_struct(Bet)2414_storage)": {
        "encoding": "mapping",
        "key": "t_uint256",
        "label": "mapping(uint256 => struct BetGame.Bet)",
        "numberOfBytes": "32",
        "value": "t_struct(Bet)2414_storage"
      },
      "t_string_storage": {
        "encoding": "bytes",
        "label": "string",
        "numberOfBytes": "32"
      },
      "t_struct(Bet)2414_storage": {
        "encoding": "inplace",
        "label": "struct BetGame.Bet",
        "members": [
          {
            "astId": 2392,
            "contract": "contracts/BetGame.sol:BetGame",
            "label": "id",
            "offset": 0,
            "slot": "0",
            "type": "t_uint256"
          },
          {
            "astId": 2394,
            "contract": "contracts/BetGame.sol:BetGame",
            "label": "creator",
            "offset": 0,
            "slot": "1",
            "type": "t_address_payable"
          },
          {
            "astId": 2396,
            "contract": "contracts/BetGame.sol:BetGame",
            "label": "acceptor",
            "offset": 0,
            "slot": "2",
            "type": "t_address_payable"
          },
          {
            "astId": 2398,
            "contract": "contracts/BetGame.sol:BetGame",
            "label": "apiURL",
            "offset": 0,
            "slot": "3",
            "type": "t_string_storage"
          },
          {
            "astId": 2400,
            "contract": "contracts/BetGame.sol:BetGame",
            "label": "amount",
            "offset": 0,
            "slot": "4",
            "type": "t_uint256"
          },
          {
            "astId": 2402,
            "contract": "contracts/BetGame.sol:BetGame",
            "label": "acceptValue",
            "offset": 0,
            "slot": "5",
            "type": "t_uint256"
          },
          {
            "astId": 2404,
            "contract": "contracts/BetGame.sol:BetGame",
            "label": "accepted",
            "offset": 0,
            "slot": "6",
            "type": "t_bool"
          },
          {
            "astId": 2406,
            "contract": "contracts/BetGame.sol:BetGame",
            "label": "active",
            "offset": 1,
            "slot": "6",
            "type": "t_bool"
          },
          {
            "astId": 2408,
            "contract": "contracts/BetGame.sol:BetGame",
            "label": "closed",
            "offset": 2,
            "slot": "6",
            "type": "t_bool"
          },
          {
            "astId": 2410,
            "contract": "contracts/BetGame.sol:BetGame",
            "label": "countArts",
            "offset": 0,
            "slot": "7",
            "type": "t_uint256"
          },
          {
            "astId": 2413,
            "contract": "contracts/BetGame.sol:BetGame",
            "label": "timeProps",
            "offset": 0,
            "slot": "8",
            "type": "t_struct(TimeProps)2390_storage"
          }
        ],
        "numberOfBytes": "384"
      },
      "t_struct(TimeProps)2390_storage": {
        "encoding": "inplace",
        "label": "struct BetGame.TimeProps",
        "members": [
          {
            "astId": 2383,
            "contract": "contracts/BetGame.sol:BetGame",
            "label": "createdDate",
            "offset": 0,
            "slot": "0",
            "type": "t_uint256"
          },
          {
            "astId": 2385,
            "contract": "contracts/BetGame.sol:BetGame",
            "label": "acceptByDate",
            "offset": 0,
            "slot": "1",
            "type": "t_uint256"
          },
          {
            "astId": 2387,
            "contract": "contracts/BetGame.sol:BetGame",
            "label": "startDate",
            "offset": 0,
            "slot": "2",
            "type": "t_uint256"
          },
          {
            "astId": 2389,
            "contract": "contracts/BetGame.sol:BetGame",
            "label": "expirationDate",
            "offset": 0,
            "slot": "3",
            "type": "t_uint256"
          }
        ],
        "numberOfBytes": "128"
      },
      "t_uint256": {
        "encoding": "inplace",
        "label": "uint256",
        "numberOfBytes": "32"
      }
    }
  }
}