{
  "address": "0x187Fa2Ae3E576E76a21aBCE223Dc9b31C00847F1",
  "abi": [
    {
      "inputs": [
        {
          "internalType": "uint256",
          "name": "_minimumBet",
          "type": "uint256"
        },
        {
          "internalType": "uint256",
          "name": "_interval",
          "type": "uint256"
        },
        {
          "internalType": "address",
          "name": "_link",
          "type": "address"
        },
        {
          "internalType": "address",
          "name": "_oracle",
          "type": "address"
        },
        {
          "internalType": "bytes32",
          "name": "_oracleJobId",
          "type": "bytes32"
        },
        {
          "internalType": "uint256",
          "name": "_oraclefee",
          "type": "uint256"
        },
        {
          "internalType": "uint256",
          "name": "_servicefee",
          "type": "uint256"
        },
        {
          "internalType": "address",
          "name": "_weth",
          "type": "address"
        }
      ],
      "stateMutability": "nonpayable",
      "type": "constructor"
    },
    {
      "anonymous": false,
      "inputs": [
        {
          "indexed": true,
          "internalType": "bytes32",
          "name": "id",
          "type": "bytes32"
        }
      ],
      "name": "ChainlinkCancelled",
      "type": "event"
    },
    {
      "anonymous": false,
      "inputs": [
        {
          "indexed": true,
          "internalType": "bytes32",
          "name": "id",
          "type": "bytes32"
        }
      ],
      "name": "ChainlinkFulfilled",
      "type": "event"
    },
    {
      "anonymous": false,
      "inputs": [
        {
          "indexed": true,
          "internalType": "bytes32",
          "name": "id",
          "type": "bytes32"
        }
      ],
      "name": "ChainlinkRequested",
      "type": "event"
    },
    {
      "anonymous": false,
      "inputs": [
        {
          "indexed": true,
          "internalType": "address",
          "name": "previousOwner",
          "type": "address"
        },
        {
          "indexed": true,
          "internalType": "address",
          "name": "newOwner",
          "type": "address"
        }
      ],
      "name": "OwnershipTransferred",
      "type": "event"
    },
    {
      "inputs": [
        {
          "internalType": "uint256",
          "name": "_betId",
          "type": "uint256"
        },
        {
          "internalType": "string",
          "name": "_apiURL",
          "type": "string"
        }
      ],
      "name": "acceptBet",
      "outputs": [],
      "stateMutability": "payable",
      "type": "function"
    },
    {
      "inputs": [
        {
          "internalType": "uint256",
          "name": "",
          "type": "uint256"
        }
      ],
      "name": "acceptedBets",
      "outputs": [
        {
          "internalType": "uint256",
          "name": "",
          "type": "uint256"
        }
      ],
      "stateMutability": "view",
      "type": "function"
    },
    {
      "inputs": [
        {
          "internalType": "uint256",
          "name": "",
          "type": "uint256"
        }
      ],
      "name": "activeBets",
      "outputs": [
        {
          "internalType": "uint256",
          "name": "",
          "type": "uint256"
        }
      ],
      "stateMutability": "view",
      "type": "function"
    },
    {
      "inputs": [
        {
          "internalType": "uint256",
          "name": "",
          "type": "uint256"
        }
      ],
      "name": "allBets",
      "outputs": [
        {
          "internalType": "uint256",
          "name": "id",
          "type": "uint256"
        },
        {
          "internalType": "string",
          "name": "title",
          "type": "string"
        },
        {
          "internalType": "address payable",
          "name": "creator",
          "type": "address"
        },
        {
          "internalType": "address payable",
          "name": "acceptor",
          "type": "address"
        },
        {
          "internalType": "string",
          "name": "apiURL",
          "type": "string"
        },
        {
          "internalType": "uint256",
          "name": "amount",
          "type": "uint256"
        },
        {
          "internalType": "uint256",
          "name": "acceptValue",
          "type": "uint256"
        },
        {
          "internalType": "bool",
          "name": "accepted",
          "type": "bool"
        },
        {
          "internalType": "bool",
          "name": "active",
          "type": "bool"
        },
        {
          "internalType": "bool",
          "name": "closed",
          "type": "bool"
        },
        {
          "internalType": "uint256",
          "name": "countArts",
          "type": "uint256"
        },
        {
          "components": [
            {
              "internalType": "uint256",
              "name": "createdDate",
              "type": "uint256"
            },
            {
              "internalType": "uint256",
              "name": "acceptByDate",
              "type": "uint256"
            },
            {
              "internalType": "uint256",
              "name": "startDate",
              "type": "uint256"
            },
            {
              "internalType": "uint256",
              "name": "expirationDate",
              "type": "uint256"
            }
          ],
          "internalType": "struct BetGame.TimeProps",
          "name": "timeProps",
          "type": "tuple"
        }
      ],
      "stateMutability": "view",
      "type": "function"
    },
    {
      "inputs": [
        {
          "internalType": "uint256",
          "name": "_id",
          "type": "uint256"
        }
      ],
      "name": "checkBet",
      "outputs": [],
      "stateMutability": "nonpayable",
      "type": "function"
    },
    {
      "inputs": [
        {
          "internalType": "bytes",
          "name": "checkData",
          "type": "bytes"
        }
      ],
      "name": "checkUpkeep",
      "outputs": [
        {
          "internalType": "bool",
          "name": "upkeepNeeded",
          "type": "bool"
        },
        {
          "internalType": "bytes",
          "name": "performData",
          "type": "bytes"
        }
      ],
      "stateMutability": "view",
      "type": "function"
    },
    {
      "inputs": [
        {
          "internalType": "uint256",
          "name": "_eth",
          "type": "uint256"
        }
      ],
      "name": "convertEthToLink",
      "outputs": [
        {
          "internalType": "uint256",
          "name": "",
          "type": "uint256"
        }
      ],
      "stateMutability": "nonpayable",
      "type": "function"
    },
    {
      "inputs": [
        {
          "internalType": "string",
          "name": "_apiURL",
          "type": "string"
        },
        {
          "internalType": "uint256",
          "name": "_acceptValue",
          "type": "uint256"
        },
        {
          "internalType": "uint256",
          "name": "_countArts",
          "type": "uint256"
        },
        {
          "internalType": "uint256",
          "name": "_endDate",
          "type": "uint256"
        },
        {
          "internalType": "uint256",
          "name": "_acceptdate",
          "type": "uint256"
        },
        {
          "internalType": "string",
          "name": "_title",
          "type": "string"
        }
      ],
      "name": "createBet",
      "outputs": [],
      "stateMutability": "payable",
      "type": "function"
    },
    {
      "inputs": [],
      "name": "devWallet",
      "outputs": [
        {
          "internalType": "address payable",
          "name": "",
          "type": "address"
        }
      ],
      "stateMutability": "view",
      "type": "function"
    },
    {
      "inputs": [
        {
          "internalType": "bytes32",
          "name": "_requestId",
          "type": "bytes32"
        },
        {
          "internalType": "uint256",
          "name": "_volume",
          "type": "uint256"
        }
      ],
      "name": "fulfill",
      "outputs": [],
      "stateMutability": "nonpayable",
      "type": "function"
    },
    {
      "inputs": [
        {
          "internalType": "uint256",
          "name": "_ethamount",
          "type": "uint256"
        }
      ],
      "name": "fundKeeper",
      "outputs": [],
      "stateMutability": "nonpayable",
      "type": "function"
    },
    {
      "inputs": [],
      "name": "getAcceptedBets",
      "outputs": [
        {
          "internalType": "uint256[]",
          "name": "",
          "type": "uint256[]"
        }
      ],
      "stateMutability": "view",
      "type": "function"
    },
    {
      "inputs": [],
      "name": "getActiveBets",
      "outputs": [
        {
          "internalType": "uint256[]",
          "name": "",
          "type": "uint256[]"
        }
      ],
      "stateMutability": "view",
      "type": "function"
    },
    {
      "inputs": [],
      "name": "getEthBalance",
      "outputs": [
        {
          "internalType": "uint256",
          "name": "",
          "type": "uint256"
        }
      ],
      "stateMutability": "view",
      "type": "function"
    },
    {
      "inputs": [],
      "name": "getLinkBalance",
      "outputs": [
        {
          "internalType": "uint256",
          "name": "",
          "type": "uint256"
        }
      ],
      "stateMutability": "view",
      "type": "function"
    },
    {
      "inputs": [],
      "name": "globalId",
      "outputs": [
        {
          "internalType": "uint256",
          "name": "",
          "type": "uint256"
        }
      ],
      "stateMutability": "view",
      "type": "function"
    },
    {
      "inputs": [],
      "name": "interval",
      "outputs": [
        {
          "internalType": "uint256",
          "name": "",
          "type": "uint256"
        }
      ],
      "stateMutability": "view",
      "type": "function"
    },
    {
      "inputs": [],
      "name": "keeperJobId",
      "outputs": [
        {
          "internalType": "uint256",
          "name": "",
          "type": "uint256"
        }
      ],
      "stateMutability": "view",
      "type": "function"
    },
    {
      "inputs": [],
      "name": "keeperRegistry",
      "outputs": [
        {
          "internalType": "contract KeeperRegistryInterface",
          "name": "",
          "type": "address"
        }
      ],
      "stateMutability": "view",
      "type": "function"
    },
    {
      "inputs": [],
      "name": "keeperRegistryAddress",
      "outputs": [
        {
          "internalType": "address",
          "name": "",
          "type": "address"
        }
      ],
      "stateMutability": "view",
      "type": "function"
    },
    {
      "inputs": [],
      "name": "lastTimeStamp",
      "outputs": [
        {
          "internalType": "uint256",
          "name": "",
          "type": "uint256"
        }
      ],
      "stateMutability": "view",
      "type": "function"
    },
    {
      "inputs": [],
      "name": "minimumBet",
      "outputs": [
        {
          "internalType": "uint256",
          "name": "",
          "type": "uint256"
        }
      ],
      "stateMutability": "view",
      "type": "function"
    },
    {
      "inputs": [],
      "name": "owner",
      "outputs": [
        {
          "internalType": "address",
          "name": "",
          "type": "address"
        }
      ],
      "stateMutability": "view",
      "type": "function"
    },
    {
      "inputs": [
        {
          "internalType": "bytes",
          "name": "performData",
          "type": "bytes"
        }
      ],
      "name": "performUpkeep",
      "outputs": [],
      "stateMutability": "nonpayable",
      "type": "function"
    },
    {
      "inputs": [],
      "name": "renounceOwnership",
      "outputs": [],
      "stateMutability": "nonpayable",
      "type": "function"
    },
    {
      "inputs": [
        {
          "internalType": "string",
          "name": "_apiURL",
          "type": "string"
        },
        {
          "internalType": "uint256",
          "name": "_id",
          "type": "uint256"
        }
      ],
      "name": "requestVolumeData",
      "outputs": [
        {
          "internalType": "bytes32",
          "name": "requestId",
          "type": "bytes32"
        }
      ],
      "stateMutability": "nonpayable",
      "type": "function"
    },
    {
      "inputs": [],
      "name": "serviceFee",
      "outputs": [
        {
          "internalType": "uint256",
          "name": "",
          "type": "uint256"
        }
      ],
      "stateMutability": "view",
      "type": "function"
    },
    {
      "inputs": [
        {
          "internalType": "address payable",
          "name": "_devWallet",
          "type": "address"
        }
      ],
      "name": "setDevWallet",
      "outputs": [],
      "stateMutability": "nonpayable",
      "type": "function"
    },
    {
      "inputs": [
        {
          "internalType": "uint256",
          "name": "_interval",
          "type": "uint256"
        }
      ],
      "name": "setInterval",
      "outputs": [],
      "stateMutability": "nonpayable",
      "type": "function"
    },
    {
      "inputs": [
        {
          "internalType": "uint256",
          "name": "_keeperJobId",
          "type": "uint256"
        }
      ],
      "name": "setKeeperJob",
      "outputs": [],
      "stateMutability": "nonpayable",
      "type": "function"
    },
    {
      "inputs": [
        {
          "internalType": "address",
          "name": "_add",
          "type": "address"
        }
      ],
      "name": "setKeeperRegistry",
      "outputs": [],
      "stateMutability": "nonpayable",
      "type": "function"
    },
    {
      "inputs": [
        {
          "internalType": "uint256",
          "name": "_minimumBet",
          "type": "uint256"
        }
      ],
      "name": "setMinimumBet",
      "outputs": [],
      "stateMutability": "nonpayable",
      "type": "function"
    },
    {
      "inputs": [
        {
          "internalType": "address",
          "name": "_oracle",
          "type": "address"
        }
      ],
      "name": "setOracle",
      "outputs": [],
      "stateMutability": "nonpayable",
      "type": "function"
    },
    {
      "inputs": [
        {
          "internalType": "bytes32",
          "name": "_oracleJobId",
          "type": "bytes32"
        }
      ],
      "name": "setOracleJobId",
      "outputs": [],
      "stateMutability": "nonpayable",
      "type": "function"
    },
    {
      "inputs": [
        {
          "internalType": "uint256",
          "name": "_eth",
          "type": "uint256"
        }
      ],
      "name": "setServiceFee",
      "outputs": [],
      "stateMutability": "nonpayable",
      "type": "function"
    },
    {
      "inputs": [
        {
          "internalType": "address",
          "name": "_router",
          "type": "address"
        }
      ],
      "name": "setSwapRouter",
      "outputs": [],
      "stateMutability": "nonpayable",
      "type": "function"
    },
    {
      "inputs": [
        {
          "internalType": "address",
          "name": "_weth",
          "type": "address"
        }
      ],
      "name": "setWETHAddress",
      "outputs": [],
      "stateMutability": "nonpayable",
      "type": "function"
    },
    {
      "inputs": [],
      "name": "swapRouter",
      "outputs": [
        {
          "internalType": "contract IUniswapV2Router02",
          "name": "",
          "type": "address"
        }
      ],
      "stateMutability": "view",
      "type": "function"
    },
    {
      "inputs": [
        {
          "internalType": "address",
          "name": "newOwner",
          "type": "address"
        }
      ],
      "name": "transferOwnership",
      "outputs": [],
      "stateMutability": "nonpayable",
      "type": "function"
    },
    {
      "inputs": [],
      "name": "upkeepcount",
      "outputs": [
        {
          "internalType": "uint256",
          "name": "",
          "type": "uint256"
        }
      ],
      "stateMutability": "view",
      "type": "function"
    },
    {
      "inputs": [],
      "name": "weth",
      "outputs": [
        {
          "internalType": "address",
          "name": "",
          "type": "address"
        }
      ],
      "stateMutability": "view",
      "type": "function"
    }
  ],
  "transactionHash": "0xcdc73445ea552c6a8896eb5a471281416be29609ea1603c5af0670ec1d6d577c",
  "args": [
    1000000000000000,
    120,
    "0xa36085F69e2889c224210F603D836748e7dC0088",
    "0xc57b33452b4f7bb189bb5afae9cc4aba1f7a4fd8",
    {
      "0": 100,
      "1": 53,
      "2": 50,
      "3": 55,
      "4": 48,
      "5": 100,
      "6": 49,
      "7": 99,
      "8": 51,
      "9": 49,
      "10": 49,
      "11": 57,
      "12": 52,
      "13": 49,
      "14": 100,
      "15": 48,
      "16": 98,
      "17": 48,
      "18": 56,
      "19": 98,
      "20": 101,
      "21": 97,
      "22": 100,
      "23": 50,
      "24": 49,
      "25": 102,
      "26": 101,
      "27": 97,
      "28": 55,
      "29": 55,
      "30": 52,
      "31": 55
    },
    "100000000000000000",
    1000000000000000,
    "0xd0A1E359811322d97991E03f863a0C30C2cF029C"
  ],
  "numDeployments": 8,
  "solcInputHash": "59bfd00956a73b4ff5419e5cad498205",
  "bytecode": "0x6080604052600160045560006017553480156200001b57600080fd5b50604051620063b6380380620063b68339818101604052810190620000419190620003ff565b6200006162000055620001ce60201b60201c565b620001d660201b60201c565b876008819055508660148190555042601581905550600073ffffffffffffffffffffffffffffffffffffffff168673ffffffffffffffffffffffffffffffffffffffff161415620000c257620000bc6200029c60201b60201c565b620000d4565b620000d3866200034460201b60201c565b5b84600e60006101000a81548173ffffffffffffffffffffffffffffffffffffffff021916908373ffffffffffffffffffffffffffffffffffffffff16021790555083600f819055508260108190555081600781905550737a250d5630b4cf539739df2c5dacb4c659f2488d601860006101000a81548173ffffffffffffffffffffffffffffffffffffffff021916908373ffffffffffffffffffffffffffffffffffffffff16021790555080601960006101000a81548173ffffffffffffffffffffffffffffffffffffffff021916908373ffffffffffffffffffffffffffffffffffffffff160217905550505050505050505062000563565b600033905090565b6000600660009054906101000a900473ffffffffffffffffffffffffffffffffffffffff16905081600660006101000a81548173ffffffffffffffffffffffffffffffffffffffff021916908373ffffffffffffffffffffffffffffffffffffffff1602179055508173ffffffffffffffffffffffffffffffffffffffff168173ffffffffffffffffffffffffffffffffffffffff167f8be0079c531659141344cd1fd0a4f28419497f9722a3daafe3b4186f6b6457e060405160405180910390a35050565b6200034273c89bd4e1632d3a43cb03aaad5262cbe4038bc57173ffffffffffffffffffffffffffffffffffffffff166338cc48316040518163ffffffff1660e01b815260040160206040518083038186803b158015620002fb57600080fd5b505afa15801562000310573d6000803e3d6000fd5b505050506040513d601f19601f82011682018060405250810190620003369190620003cd565b6200034460201b60201c565b565b80600260006101000a81548173ffffffffffffffffffffffffffffffffffffffff021916908373ffffffffffffffffffffffffffffffffffffffff16021790555050565b600081519050620003998162000515565b92915050565b600081519050620003b0816200052f565b92915050565b600081519050620003c78162000549565b92915050565b600060208284031215620003e657620003e562000510565b5b6000620003f68482850162000388565b91505092915050565b600080600080600080600080610100898b03121562000423576200042262000510565b5b6000620004338b828c01620003b6565b9850506020620004468b828c01620003b6565b9750506040620004598b828c0162000388565b96505060606200046c8b828c0162000388565b95505060806200047f8b828c016200039f565b94505060a0620004928b828c01620003b6565b93505060c0620004a58b828c01620003b6565b92505060e0620004b88b828c0162000388565b9150509295985092959890939650565b6000620004d582620004e6565b9050919050565b6000819050919050565b600073ffffffffffffffffffffffffffffffffffffffff82169050919050565b6000819050919050565b600080fd5b6200052081620004c8565b81146200052c57600080fd5b50565b6200053a81620004dc565b81146200054657600080fd5b50565b620005548162000506565b81146200056057600080fd5b50565b615e4380620005736000396000f3fe6080604052600436106102465760003560e01c806384f4412f11610139578063b4c0a1d4116100b6578063cc9af9641161007a578063cc9af9641461084a578063d05ef7ab14610875578063df9776cf146108a0578063e0ced0e1146108c9578063ecab969814610911578063f2fde38b1461092d57610246565b8063b4c0a1d414610763578063bb1edf82146107a0578063c31c9c07146107c9578063c38a8afd146107f4578063ca6668231461081f57610246565b80638ea5220f116100fd5780638ea5220f1461067c578063947a36fb146106a7578063a128c4d2146106d2578063ada73020146106fb578063af768ee31461072657610246565b806384f4412f146105975780638772ae3c146105d457806387f7777d146105fd5780638abdf5aa146106265780638da5cb5b1461065157610246565b806350c5f975116101c757806370ed0ada1161018b57806370ed0ada146104c4578063711bc983146104ef578063715018a61461052c5780637adbf9731461054357806383e227741461056c57610246565b806350c5f975146103ed5780635cdf76f8146104185780635cf54b04146104415780636a4234eb1461045d5780636e04ff0d1461048657610246565b80633fc8cef31161020e5780633fc8cef31461031e57806341273657146103495780634357855e1461037257806345777fee1461039b5780634585e33b146103c457610246565b806306d2ddbf1461024b5780631e11004f146102765780631f53ac02146102a157806322a90082146102ca5780633f3b3b27146102f3575b600080fd5b34801561025757600080fd5b50610260610956565b60405161026d91906152ab565b60405180910390f35b34801561028257600080fd5b5061028b61095c565b60405161029891906152ab565b60405180910390f35b3480156102ad57600080fd5b506102c860048036038101906102c391906147b5565b610962565b005b3480156102d657600080fd5b506102f160048036038101906102ec9190614a33565b610a22565b005b3480156102ff57600080fd5b50610308610aa8565b60405161031591906152ab565b60405180910390f35b34801561032a57600080fd5b50610333610aae565b6040516103409190614f3a565b60405180910390f35b34801561035557600080fd5b50610370600480360381019061036b9190614788565b610ad4565b005b34801561037e57600080fd5b5061039960048036038101906103949190614885565b610b94565b005b3480156103a757600080fd5b506103c260048036038101906103bd9190614a33565b610cd3565b005b3480156103d057600080fd5b506103eb60048036038101906103e691906148c5565b610e98565b005b3480156103f957600080fd5b50610402610f1e565b60405161040f91906152ab565b60405180910390f35b34801561042457600080fd5b5061043f600480360381019061043a9190614a33565b610fba565b005b61045b60048036038101906104569190614a8d565b611040565b005b34801561046957600080fd5b50610484600480360381019061047f9190614788565b61175e565b005b34801561049257600080fd5b506104ad60048036038101906104a891906148c5565b61181e565b6040516104bb92919061507e565b60405180910390f35b3480156104d057600080fd5b506104d9611884565b6040516104e691906152ab565b60405180910390f35b3480156104fb57600080fd5b5061051660048036038101906105119190614a33565b61188c565b60405161052391906152ab565b60405180910390f35b34801561053857600080fd5b506105416118b0565b005b34801561054f57600080fd5b5061056a60048036038101906105659190614788565b611938565b005b34801561057857600080fd5b50610581611a07565b60405161058e91906150e4565b60405180910390f35b3480156105a357600080fd5b506105be60048036038101906105b99190614a33565b611a2d565b6040516105cb91906152ab565b60405180910390f35b3480156105e057600080fd5b506105fb60048036038101906105f69190614a33565b611c3e565b005b34801561060957600080fd5b50610624600480360381019061061f9190614a33565b611cc4565b005b34801561063257600080fd5b5061063b611feb565b60405161064891906152ab565b60405180910390f35b34801561065d57600080fd5b50610666611ff1565b6040516106739190614f3a565b60405180910390f35b34801561068857600080fd5b5061069161201b565b60405161069e9190614f55565b60405180910390f35b3480156106b357600080fd5b506106bc612041565b6040516106c991906152ab565b60405180910390f35b3480156106de57600080fd5b506106f960048036038101906106f49190614788565b612047565b005b34801561070757600080fd5b50610710612148565b60405161071d919061505c565b60405180910390f35b34801561073257600080fd5b5061074d60048036038101906107489190614a33565b6121a0565b60405161075a91906152ab565b60405180910390f35b34801561076f57600080fd5b5061078a60048036038101906107859190614912565b6121c4565b60405161079791906150ae565b60405180910390f35b3480156107ac57600080fd5b506107c760048036038101906107c29190614a33565b6122f6565b005b3480156107d557600080fd5b506107de61237c565b6040516107eb91906150c9565b60405180910390f35b34801561080057600080fd5b506108096123a2565b60405161081691906152ab565b60405180910390f35b34801561082b57600080fd5b506108346123a8565b60405161084191906152ab565b60405180910390f35b34801561085657600080fd5b5061085f6123ae565b60405161086c919061505c565b60405180910390f35b34801561088157600080fd5b5061088a612406565b6040516108979190614f3a565b60405180910390f35b3480156108ac57600080fd5b506108c760048036038101906108c29190614858565b61242c565b005b3480156108d557600080fd5b506108f060048036038101906108eb9190614a33565b6124b2565b6040516109089c9b9a999897969594939291906152c6565b60405180910390f35b61092b6004803603810190610926919061496e565b6126bb565b005b34801561093957600080fd5b50610954600480360381019061094f9190614788565b612a4f565b005b60175481565b60165481565b61096a612b47565b73ffffffffffffffffffffffffffffffffffffffff16610988611ff1565b73ffffffffffffffffffffffffffffffffffffffff16146109de576040517f08c379a00000000000000000000000000000000000000000000000000000000081526004016109d59061524b565b60405180910390fd5b80600960006101000a81548173ffffffffffffffffffffffffffffffffffffffff021916908373ffffffffffffffffffffffffffffffffffffffff16021790555050565b610a2a612b47565b73ffffffffffffffffffffffffffffffffffffffff16610a48611ff1565b73ffffffffffffffffffffffffffffffffffffffff1614610a9e576040517f08c379a0000000000000000000000000000000000000000000000000000000008152600401610a959061524b565b60405180910390fd5b8060148190555050565b60155481565b601960009054906101000a900473ffffffffffffffffffffffffffffffffffffffff1681565b610adc612b47565b73ffffffffffffffffffffffffffffffffffffffff16610afa611ff1565b73ffffffffffffffffffffffffffffffffffffffff1614610b50576040517f08c379a0000000000000000000000000000000000000000000000000000000008152600401610b479061524b565b60405180910390fd5b80601860006101000a81548173ffffffffffffffffffffffffffffffffffffffff021916908373ffffffffffffffffffffffffffffffffffffffff16021790555050565b816005600082815260200190815260200160002060009054906101000a900473ffffffffffffffffffffffffffffffffffffffff1673ffffffffffffffffffffffffffffffffffffffff163373ffffffffffffffffffffffffffffffffffffffff1614610c36576040517f08c379a0000000000000000000000000000000000000000000000000000000008152600401610c2d9061526b565b60405180910390fd5b6005600082815260200190815260200160002060006101000a81549073ffffffffffffffffffffffffffffffffffffffff0219169055807f7cc135e0cebb02c3480ae5d74d377283180a2601f8f644edf7987b009316c63a60405160405180910390a26000606483610ca89190615539565b9050600060116000868152602001908152602001600020549050610ccc8183612b4f565b5050505050565b600073ffffffffffffffffffffffffffffffffffffffff16601360009054906101000a900473ffffffffffffffffffffffffffffffffffffffff1673ffffffffffffffffffffffffffffffffffffffff161415610d2f57600080fd5b60006016541415610d3f57600080fd5b6000610d4a82611a2d565b9050610d54613257565b73ffffffffffffffffffffffffffffffffffffffff1663095ea7b3601360009054906101000a900473ffffffffffffffffffffffffffffffffffffffff16836040518363ffffffff1660e01b8152600401610db0929190615033565b602060405180830381600087803b158015610dca57600080fd5b505af1158015610dde573d6000803e3d6000fd5b505050506040513d601f19601f82011682018060405250810190610e02919061482b565b50601260009054906101000a900473ffffffffffffffffffffffffffffffffffffffff1673ffffffffffffffffffffffffffffffffffffffff1663948108f7601654836040518363ffffffff1660e01b8152600401610e6292919061538e565b600060405180830381600087803b158015610e7c57600080fd5b505af1158015610e90573d6000803e3d6000fd5b505050505050565b60145460155442610ea99190615735565b11610ee9576040517f08c379a0000000000000000000000000000000000000000000000000000000008152600401610ee09061522b565b60405180910390fd5b600160176000828254610efc91906154e3565b9250508190555042601581905550610f12613281565b610f1a6137b3565b5050565b600080610f29613257565b90508073ffffffffffffffffffffffffffffffffffffffff166370a08231306040518263ffffffff1660e01b8152600401610f649190614f3a565b60206040518083038186803b158015610f7c57600080fd5b505afa158015610f90573d6000803e3d6000fd5b505050506040513d601f19601f82011682018060405250810190610fb49190614a60565b91505090565b610fc2612b47565b73ffffffffffffffffffffffffffffffffffffffff16610fe0611ff1565b73ffffffffffffffffffffffffffffffffffffffff1614611036576040517f08c379a000000000000000000000000000000000000000000000000000000000815260040161102d9061524b565b60405180910390fd5b8060078190555050565b600073ffffffffffffffffffffffffffffffffffffffff16601360009054906101000a900473ffffffffffffffffffffffffffffffffffffffff1673ffffffffffffffffffffffffffffffffffffffff16141561109c57600080fd5b600060165414156110ac57600080fd5b6000600b600084815260200190815260200160002060405180610180016040529081600082015481526020016001820180546110e7906158d1565b80601f0160208091040260200160405190810160405280929190818152602001828054611113906158d1565b80156111605780601f1061113557610100808354040283529160200191611160565b820191906000526020600020905b81548152906001019060200180831161114357829003601f168201915b505050505081526020016002820160009054906101000a900473ffffffffffffffffffffffffffffffffffffffff1673ffffffffffffffffffffffffffffffffffffffff1673ffffffffffffffffffffffffffffffffffffffff1681526020016003820160009054906101000a900473ffffffffffffffffffffffffffffffffffffffff1673ffffffffffffffffffffffffffffffffffffffff1673ffffffffffffffffffffffffffffffffffffffff168152602001600482018054611225906158d1565b80601f0160208091040260200160405190810160405280929190818152602001828054611251906158d1565b801561129e5780601f106112735761010080835404028352916020019161129e565b820191906000526020600020905b81548152906001019060200180831161128157829003601f168201915b5050505050815260200160058201548152602001600682015481526020016007820160009054906101000a900460ff161515151581526020016007820160019054906101000a900460ff161515151581526020016007820160029054906101000a900460ff161515151581526020016008820154815260200160098201604051806080016040529081600082015481526020016001820154815260200160028201548152602001600382015481525050815250509050600115158161010001511515146113a0576040517f08c379a00000000000000000000000000000000000000000000000000000000081526004016113979061516b565b60405180910390fd5b600015158160e001511515146113eb576040517f08c379a00000000000000000000000000000000000000000000000000000000081526004016113e29061518b565b60405180910390fd5b60001515816101200151151514611437576040517f08c379a000000000000000000000000000000000000000000000000000000000815260040161142e9061520b565b60405180910390fd5b346007548260c0015161144a91906154e3565b1461148a576040517f08c379a0000000000000000000000000000000000000000000000000000000008152600401611481906151eb565b60405180910390fd5b806101600151602001514211156114d6576040517f08c379a00000000000000000000000000000000000000000000000000000000081526004016114cd9061528b565b60405180910390fd5b42816101600151604001818152505060018160e00190151590811515815250506000816101000190151590811515815250508181608001819052506007543461151f9190615735565b8160a00181815161153091906154e3565b9150818152505033816060019073ffffffffffffffffffffffffffffffffffffffff16908173ffffffffffffffffffffffffffffffffffffffff168152505061157e600c8260000151613abe565b80600b6000836000015181526020019081526020016000206000820151816000015560208201518160010190805190602001906115bc92919061447c565b5060408201518160020160006101000a81548173ffffffffffffffffffffffffffffffffffffffff021916908373ffffffffffffffffffffffffffffffffffffffff16021790555060608201518160030160006101000a81548173ffffffffffffffffffffffffffffffffffffffff021916908373ffffffffffffffffffffffffffffffffffffffff160217905550608082015181600401908051906020019061166792919061447c565b5060a0820151816005015560c0820151816006015560e08201518160070160006101000a81548160ff0219169083151502179055506101008201518160070160016101000a81548160ff0219169083151502179055506101208201518160070160026101000a81548160ff021916908315150217905550610140820151816008015561016082015181600901600082015181600001556020820151816001015560408201518160020155606082015181600301555050905050600d81600001519080600181540180825580915050600190039060005260206000200160009091909190915055611758600754611a2d565b50505050565b611766612b47565b73ffffffffffffffffffffffffffffffffffffffff16611784611ff1565b73ffffffffffffffffffffffffffffffffffffffff16146117da576040517f08c379a00000000000000000000000000000000000000000000000000000000081526004016117d19061524b565b60405180910390fd5b80601960006101000a81548173ffffffffffffffffffffffffffffffffffffffff021916908373ffffffffffffffffffffffffffffffffffffffff16021790555050565b60006060601454601554426118339190615735565b11915083838080601f016020809104026020016040519081016040528093929190818152602001838380828437600081840152601f19601f8201169050808301925050505050505090509250929050565b600047905090565b600d818154811061189c57600080fd5b906000526020600020016000915090505481565b6118b8612b47565b73ffffffffffffffffffffffffffffffffffffffff166118d6611ff1565b73ffffffffffffffffffffffffffffffffffffffff161461192c576040517f08c379a00000000000000000000000000000000000000000000000000000000081526004016119239061524b565b60405180910390fd5b6119366000613ba6565b565b611940612b47565b73ffffffffffffffffffffffffffffffffffffffff1661195e611ff1565b73ffffffffffffffffffffffffffffffffffffffff16146119b4576040517f08c379a00000000000000000000000000000000000000000000000000000000081526004016119ab9061524b565b60405180910390fd5b80600e60006101000a81548173ffffffffffffffffffffffffffffffffffffffff021916908373ffffffffffffffffffffffffffffffffffffffff16021790555067016345785d8a000060108190555050565b601260009054906101000a900473ffffffffffffffffffffffffffffffffffffffff1681565b600080606442611a3d91906154e3565b90506000600267ffffffffffffffff811115611a5c57611a5b615ac7565b5b604051908082528060200260200182016040528015611a8a5781602001602082028036833780820191505090505b509050601960009054906101000a900473ffffffffffffffffffffffffffffffffffffffff1681600081518110611ac457611ac3615a98565b5b602002602001019073ffffffffffffffffffffffffffffffffffffffff16908173ffffffffffffffffffffffffffffffffffffffff1681525050611b06613257565b81600181518110611b1a57611b19615a98565b5b602002602001019073ffffffffffffffffffffffffffffffffffffffff16908173ffffffffffffffffffffffffffffffffffffffff168152505060008490506000601860009054906101000a900473ffffffffffffffffffffffffffffffffffffffff1673ffffffffffffffffffffffffffffffffffffffff16637ff36ab58360008630896040518663ffffffff1660e01b8152600401611bbe94939291906150ff565b6000604051808303818588803b158015611bd757600080fd5b505af1158015611beb573d6000803e3d6000fd5b50505050506040513d6000823e3d601f19601f82011682018060405250810190611c1591906147e2565b905080600181518110611c2b57611c2a615a98565b5b6020026020010151945050505050919050565b611c46612b47565b73ffffffffffffffffffffffffffffffffffffffff16611c64611ff1565b73ffffffffffffffffffffffffffffffffffffffff1614611cba576040517f08c379a0000000000000000000000000000000000000000000000000000000008152600401611cb19061524b565b60405180910390fd5b8060088190555050565b600073ffffffffffffffffffffffffffffffffffffffff16601360009054906101000a900473ffffffffffffffffffffffffffffffffffffffff1673ffffffffffffffffffffffffffffffffffffffff161415611d2057600080fd5b60006016541415611d3057600080fd5b6000600b60008381526020019081526020016000206040518061018001604052908160008201548152602001600182018054611d6b906158d1565b80601f0160208091040260200160405190810160405280929190818152602001828054611d97906158d1565b8015611de45780601f10611db957610100808354040283529160200191611de4565b820191906000526020600020905b815481529060010190602001808311611dc757829003601f168201915b505050505081526020016002820160009054906101000a900473ffffffffffffffffffffffffffffffffffffffff1673ffffffffffffffffffffffffffffffffffffffff1673ffffffffffffffffffffffffffffffffffffffff1681526020016003820160009054906101000a900473ffffffffffffffffffffffffffffffffffffffff1673ffffffffffffffffffffffffffffffffffffffff1673ffffffffffffffffffffffffffffffffffffffff168152602001600482018054611ea9906158d1565b80601f0160208091040260200160405190810160405280929190818152602001828054611ed5906158d1565b8015611f225780601f10611ef757610100808354040283529160200191611f22565b820191906000526020600020905b815481529060010190602001808311611f0557829003601f168201915b5050505050815260200160058201548152602001600682015481526020016007820160009054906101000a900460ff161515151581526020016007820160019054906101000a900460ff161515151581526020016007820160029054906101000a900460ff161515151581526020016008820154815260200160098201604051806080016040529081600082015481526020016001820154815260200160028201548152602001600382015481525050815250509050611fe68160800151836121c4565b505050565b60075481565b6000600660009054906101000a900473ffffffffffffffffffffffffffffffffffffffff16905090565b600960009054906101000a900473ffffffffffffffffffffffffffffffffffffffff1681565b60145481565b61204f612b47565b73ffffffffffffffffffffffffffffffffffffffff1661206d611ff1565b73ffffffffffffffffffffffffffffffffffffffff16146120c3576040517f08c379a00000000000000000000000000000000000000000000000000000000081526004016120ba9061524b565b60405180910390fd5b80601360006101000a81548173ffffffffffffffffffffffffffffffffffffffff021916908373ffffffffffffffffffffffffffffffffffffffff16021790555080601260006101000a81548173ffffffffffffffffffffffffffffffffffffffff021916908373ffffffffffffffffffffffffffffffffffffffff16021790555050565b6060600c80548060200260200160405190810160405280929190818152602001828054801561219657602002820191906000526020600020905b815481526020019060010190808311612182575b5050505050905090565b600c81815481106121b057600080fd5b906000526020600020016000915090505481565b6000806121db600f5430634357855e60e01b613c6c565b90506122276040518060400160405280600381526020017f67657400000000000000000000000000000000000000000000000000000000008152508583613c9d9092919063ffffffff16565b6122a66040518060400160405280600481526020017f70617468000000000000000000000000000000000000000000000000000000008152506040518060400160405280600c81526020017f746f74616c526573756c7473000000000000000000000000000000000000000081525083613c9d9092919063ffffffff16565b6122d5600e60009054906101000a900473ffffffffffffffffffffffffffffffffffffffff1682601054613cd0565b91508260116000848152602001908152602001600020819055505092915050565b6122fe612b47565b73ffffffffffffffffffffffffffffffffffffffff1661231c611ff1565b73ffffffffffffffffffffffffffffffffffffffff1614612372576040517f08c379a00000000000000000000000000000000000000000000000000000000081526004016123699061524b565b60405180910390fd5b8060168190555050565b601860009054906101000a900473ffffffffffffffffffffffffffffffffffffffff1681565b60085481565b600a5481565b6060600d8054806020026020016040519081016040528092919081815260200182805480156123fc57602002820191906000526020600020905b8154815260200190600101908083116123e8575b5050505050905090565b601360009054906101000a900473ffffffffffffffffffffffffffffffffffffffff1681565b612434612b47565b73ffffffffffffffffffffffffffffffffffffffff16612452611ff1565b73ffffffffffffffffffffffffffffffffffffffff16146124a8576040517f08c379a000000000000000000000000000000000000000000000000000000000815260040161249f9061524b565b60405180910390fd5b80600f8190555050565b600b6020528060005260406000206000915090508060000154908060010180546124db906158d1565b80601f0160208091040260200160405190810160405280929190818152602001828054612507906158d1565b80156125545780601f1061252957610100808354040283529160200191612554565b820191906000526020600020905b81548152906001019060200180831161253757829003601f168201915b5050505050908060020160009054906101000a900473ffffffffffffffffffffffffffffffffffffffff16908060030160009054906101000a900473ffffffffffffffffffffffffffffffffffffffff16908060040180546125b5906158d1565b80601f01602080910402602001604051908101604052809291908181526020018280546125e1906158d1565b801561262e5780601f106126035761010080835404028352916020019161262e565b820191906000526020600020905b81548152906001019060200180831161261157829003601f168201915b5050505050908060050154908060060154908060070160009054906101000a900460ff16908060070160019054906101000a900460ff16908060070160029054906101000a900460ff16908060080154908060090160405180608001604052908160008201548152602001600182015481526020016002820154815260200160038201548152505090508c565b600073ffffffffffffffffffffffffffffffffffffffff16601360009054906101000a900473ffffffffffffffffffffffffffffffffffffffff1673ffffffffffffffffffffffffffffffffffffffff16141561271757600080fd5b6000601654141561272757600080fd5b60075460085461273791906154e3565b341015612779576040517f08c379a0000000000000000000000000000000000000000000000000000000008152600401612770906151ab565b60405180910390fd5b60085485101561278857600080fd5b8282111561279557600080fd5b60006040518060800160405280428152602001848152602001600081526020018581525090506000604051806101800160405280600a5481526020018481526020013373ffffffffffffffffffffffffffffffffffffffff168152602001600073ffffffffffffffffffffffffffffffffffffffff168152602001898152602001600754346128249190615735565b81526020018881526020016000151581526020016001151581526020016000151581526020018781526020018381525090506001600a5461286591906154e3565b600a81905550600c8160000151908060018154018082558091505060019003906000526020600020016000909190919091505580600b6000836000015181526020019081526020016000206000820151816000015560208201518160010190805190602001906128d692919061447c565b5060408201518160020160006101000a81548173ffffffffffffffffffffffffffffffffffffffff021916908373ffffffffffffffffffffffffffffffffffffffff16021790555060608201518160030160006101000a81548173ffffffffffffffffffffffffffffffffffffffff021916908373ffffffffffffffffffffffffffffffffffffffff160217905550608082015181600401908051906020019061298192919061447c565b5060a0820151816005015560c0820151816006015560e08201518160070160006101000a81548160ff0219169083151502179055506101008201518160070160016101000a81548160ff0219169083151502179055506101208201518160070160026101000a81548160ff021916908315150217905550610140820151816008015561016082015181600901600082015181600001556020820151816001015560408201518160020155606082015181600301555050905050612a45600754610cd3565b5050505050505050565b612a57612b47565b73ffffffffffffffffffffffffffffffffffffffff16612a75611ff1565b73ffffffffffffffffffffffffffffffffffffffff1614612acb576040517f08c379a0000000000000000000000000000000000000000000000000000000008152600401612ac29061524b565b60405180910390fd5b600073ffffffffffffffffffffffffffffffffffffffff168173ffffffffffffffffffffffffffffffffffffffff161415612b3b576040517f08c379a0000000000000000000000000000000000000000000000000000000008152600401612b329061514b565b60405180910390fd5b612b4481613ba6565b50565b600033905090565b6000600b60008481526020019081526020016000206040518061018001604052908160008201548152602001600182018054612b8a906158d1565b80601f0160208091040260200160405190810160405280929190818152602001828054612bb6906158d1565b8015612c035780601f10612bd857610100808354040283529160200191612c03565b820191906000526020600020905b815481529060010190602001808311612be657829003601f168201915b505050505081526020016002820160009054906101000a900473ffffffffffffffffffffffffffffffffffffffff1673ffffffffffffffffffffffffffffffffffffffff1673ffffffffffffffffffffffffffffffffffffffff1681526020016003820160009054906101000a900473ffffffffffffffffffffffffffffffffffffffff1673ffffffffffffffffffffffffffffffffffffffff1673ffffffffffffffffffffffffffffffffffffffff168152602001600482018054612cc8906158d1565b80601f0160208091040260200160405190810160405280929190818152602001828054612cf4906158d1565b8015612d415780601f10612d1657610100808354040283529160200191612d41565b820191906000526020600020905b815481529060010190602001808311612d2457829003601f168201915b5050505050815260200160058201548152602001600682015481526020016007820160009054906101000a900460ff161515151581526020016007820160019054906101000a900460ff161515151581526020016007820160029054906101000a900460ff161515151581526020016008820154815260200160098201604051806080016040529081600082015481526020016001820154815260200160028201548152602001600382015481525050815250509050806101400151821061302457600181610120019015159081151581525050600081610100019015159081151581525050806040015173ffffffffffffffffffffffffffffffffffffffff166108fc8260a001519081150290604051600060405180830381858888f19350505050158015612e75573d6000803e3d6000fd5b5080600b6000858152602001908152602001600020600082015181600001556020820151816001019080519060200190612eb092919061447c565b5060408201518160020160006101000a81548173ffffffffffffffffffffffffffffffffffffffff021916908373ffffffffffffffffffffffffffffffffffffffff16021790555060608201518160030160006101000a81548173ffffffffffffffffffffffffffffffffffffffff021916908373ffffffffffffffffffffffffffffffffffffffff1602179055506080820151816004019080519060200190612f5b92919061447c565b5060a0820151816005015560c0820151816006015560e08201518160070160006101000a81548160ff0219169083151502179055506101008201518160070160016101000a81548160ff0219169083151502179055506101208201518160070160026101000a81548160ff02191690831515021790555061014082015181600801556101608201518160090160008201518160000155602082015181600101556040820151816002015560608201518160030155505090505061301f600d84613abe565b613252565b80610160015160600151421061325157600181610120019015159081151581525050600081610100019015159081151581525050806060015173ffffffffffffffffffffffffffffffffffffffff166108fc8260a001519081150290604051600060405180830381858888f193505050501580156130a6573d6000803e3d6000fd5b5080600b60008581526020019081526020016000206000820151816000015560208201518160010190805190602001906130e192919061447c565b5060408201518160020160006101000a81548173ffffffffffffffffffffffffffffffffffffffff021916908373ffffffffffffffffffffffffffffffffffffffff16021790555060608201518160030160006101000a81548173ffffffffffffffffffffffffffffffffffffffff021916908373ffffffffffffffffffffffffffffffffffffffff160217905550608082015181600401908051906020019061318c92919061447c565b5060a0820151816005015560c0820151816006015560e08201518160070160006101000a81548160ff0219169083151502179055506101008201518160070160016101000a81548160ff0219169083151502179055506101208201518160070160026101000a81548160ff021916908315150217905550610140820151816008015561016082015181600901600082015181600001556020820151816001015560408201518160020155606082015181600301555050905050613250600d84613abe565b5b5b505050565b6000600260009054906101000a900473ffffffffffffffffffffffffffffffffffffffff16905090565b60005b600c805490508110156137b0576000600b6000600c84815481106132ab576132aa615a98565b5b9060005260206000200154815260200190815260200160002060405180610180016040529081600082015481526020016001820180546132ea906158d1565b80601f0160208091040260200160405190810160405280929190818152602001828054613316906158d1565b80156133635780601f1061333857610100808354040283529160200191613363565b820191906000526020600020905b81548152906001019060200180831161334657829003601f168201915b505050505081526020016002820160009054906101000a900473ffffffffffffffffffffffffffffffffffffffff1673ffffffffffffffffffffffffffffffffffffffff1673ffffffffffffffffffffffffffffffffffffffff1681526020016003820160009054906101000a900473ffffffffffffffffffffffffffffffffffffffff1673ffffffffffffffffffffffffffffffffffffffff1673ffffffffffffffffffffffffffffffffffffffff168152602001600482018054613428906158d1565b80601f0160208091040260200160405190810160405280929190818152602001828054613454906158d1565b80156134a15780601f10613476576101008083540402835291602001916134a1565b820191906000526020600020905b81548152906001019060200180831161348457829003601f168201915b5050505050815260200160058201548152602001600682015481526020016007820160009054906101000a900460ff161515151581526020016007820160019054906101000a900460ff161515151581526020016007820160029054906101000a900460ff1615151515815260200160088201548152602001600982016040518060800160405290816000820154815260200160018201548152602001600282015481526020016003820154815250508152505090508060e001511580156135725750428161016001516020015111155b1561379c5760008161010001901515908115158152505060018161012001901515908115158152505080600b6000836000015181526020019081526020016000206000820151816000015560208201518160010190805190602001906135d992919061447c565b5060408201518160020160006101000a81548173ffffffffffffffffffffffffffffffffffffffff021916908373ffffffffffffffffffffffffffffffffffffffff16021790555060608201518160030160006101000a81548173ffffffffffffffffffffffffffffffffffffffff021916908373ffffffffffffffffffffffffffffffffffffffff160217905550608082015181600401908051906020019061368492919061447c565b5060a0820151816005015560c0820151816006015560e08201518160070160006101000a81548160ff0219169083151502179055506101008201518160070160016101000a81548160ff0219169083151502179055506101208201518160070160026101000a81548160ff02191690831515021790555061014082015181600801556101608201518160090160008201518160000155602082015181600101556040820151816002015560608201518160030155505090505061374c600c8260000151613abe565b806040015173ffffffffffffffffffffffffffffffffffffffff166108fc8260a001519081150290604051600060405180830381858888f1935050505015801561379a573d6000803e3d6000fd5b505b5080806137a890615934565b915050613284565b50565b60005b600d80549050811015613abb576000600b6000600d84815481106137dd576137dc615a98565b5b90600052602060002001548152602001908152602001600020604051806101800160405290816000820154815260200160018201805461381c906158d1565b80601f0160208091040260200160405190810160405280929190818152602001828054613848906158d1565b80156138955780601f1061386a57610100808354040283529160200191613895565b820191906000526020600020905b81548152906001019060200180831161387857829003601f168201915b505050505081526020016002820160009054906101000a900473ffffffffffffffffffffffffffffffffffffffff1673ffffffffffffffffffffffffffffffffffffffff1673ffffffffffffffffffffffffffffffffffffffff1681526020016003820160009054906101000a900473ffffffffffffffffffffffffffffffffffffffff1673ffffffffffffffffffffffffffffffffffffffff1673ffffffffffffffffffffffffffffffffffffffff16815260200160048201805461395a906158d1565b80601f0160208091040260200160405190810160405280929190818152602001828054613986906158d1565b80156139d35780601f106139a8576101008083540402835291602001916139d3565b820191906000526020600020905b8154815290600101906020018083116139b657829003601f168201915b5050505050815260200160058201548152602001600682015481526020016007820160009054906101000a900460ff161515151581526020016007820160019054906101000a900460ff161515151581526020016007820160029054906101000a900460ff161515151581526020016008820154815260200160098201604051806080016040529081600082015481526020016001820154815260200160028201548152602001600382015481525050815250509050428161016001516060015111613aa757613aa68160000151611cc4565b5b508080613ab390615934565b9150506137b6565b50565b60005b8280549050811015613ba15781838281548110613ae157613ae0615a98565b5b90600052602060002001541415613b8e57828181548110613b0557613b04615a98565b5b90600052602060002001600090558260018480549050613b259190615735565b81548110613b3657613b35615a98565b5b9060005260206000200154838281548110613b5457613b53615a98565b5b906000526020600020018190555082805480613b7357613b72615a69565b5b60019003818190600052602060002001600090559055613ba1565b8080613b9990615934565b915050613ac1565b505050565b6000600660009054906101000a900473ffffffffffffffffffffffffffffffffffffffff16905081600660006101000a81548173ffffffffffffffffffffffffffffffffffffffff021916908373ffffffffffffffffffffffffffffffffffffffff1602179055508173ffffffffffffffffffffffffffffffffffffffff168173ffffffffffffffffffffffffffffffffffffffff167f8be0079c531659141344cd1fd0a4f28419497f9722a3daafe3b4186f6b6457e060405160405180910390a35050565b613c74614502565b613c7c614502565b613c9385858584613d9c909392919063ffffffff16565b9150509392505050565b613cb4828460800151613e4c90919063ffffffff16565b613ccb818460800151613e4c90919063ffffffff16565b505050565b6000806004549050600181613ce591906154e3565b6004819055506000634042994660e01b60008087600001513089604001518760018c6080015160000151604051602401613d26989796959493929190614f70565b604051602081830303815290604052907bffffffffffffffffffffffffffffffffffffffffffffffffffffffff19166020820180517bffffffffffffffffffffffffffffffffffffffffffffffffffffffff83818316178352505050509050613d9186838684613e71565b925050509392505050565b613da4614502565b613db48560800151610100614015565b508385600001818152505082856020019073ffffffffffffffffffffffffffffffffffffffff16908173ffffffffffffffffffffffffffffffffffffffff16815250508185604001907bffffffffffffffffffffffffffffffffffffffffffffffffffffffff191690817bffffffffffffffffffffffffffffffffffffffffffffffffffffffff191681525050849050949350505050565b613e59826003835161407f565b613e6c818361420490919063ffffffff16565b505050565b60003084604051602001613e86929190614f0e565b604051602081830303815290604052805190602001209050846005600083815260200190815260200160002060006101000a81548173ffffffffffffffffffffffffffffffffffffffff021916908373ffffffffffffffffffffffffffffffffffffffff160217905550807fb5e6e01e79f91267dc17b4e6314d5d4d03593d2ceee0fbb452b750bd70ea5af960405160405180910390a2600260009054906101000a900473ffffffffffffffffffffffffffffffffffffffff1673ffffffffffffffffffffffffffffffffffffffff16634000aea08685856040518463ffffffff1660e01b8152600401613f7c93929190614ff5565b602060405180830381600087803b158015613f9657600080fd5b505af1158015613faa573d6000803e3d6000fd5b505050506040513d601f19601f82011682018060405250810190613fce919061482b565b61400d576040517f08c379a0000000000000000000000000000000000000000000000000000000008152600401614004906151cb565b60405180910390fd5b949350505050565b61401d61456f565b600060208361402c91906159ab565b146140585760208261403e91906159ab565b602061404a9190615735565b8261405591906154e3565b91505b81836020018181525050604051808452600081528281016020016040525082905092915050565b60178167ffffffffffffffff16116140b6576140b08160058460ff16901b60ff16178461422690919063ffffffff16565b506141ff565b60ff8167ffffffffffffffff161161410c576140e5601860058460ff16901b178461422690919063ffffffff16565b506141068167ffffffffffffffff166001856142469092919063ffffffff16565b506141fe565b61ffff8167ffffffffffffffff16116141635761413c601960058460ff16901b178461422690919063ffffffff16565b5061415d8167ffffffffffffffff166002856142469092919063ffffffff16565b506141fd565b63ffffffff8167ffffffffffffffff16116141bc57614195601a60058460ff16901b178461422690919063ffffffff16565b506141b68167ffffffffffffffff166004856142469092919063ffffffff16565b506141fc565b6141d9601b60058460ff16901b178461422690919063ffffffff16565b506141fa8167ffffffffffffffff166008856142469092919063ffffffff16565b505b5b5b5b505050565b61420c61456f565b61421e83846000015151848551614268565b905092915050565b61422e61456f565b61423e8384600001515184614357565b905092915050565b61424e61456f565b61425f8485600001515185856143ae565b90509392505050565b61427061456f565b825182111561427e57600080fd5b8460200151828561428f91906154e3565b11156142c4576142c38560026142b4886020015188876142af91906154e3565b61443c565b6142be91906156db565b614458565b5b6000808651805187602083010193508088870111156142e35787860182525b60208701925050505b6020841061432a578051825260208261430591906154e3565b915060208161431491906154e3565b90506020846143239190615735565b93506142ec565b60006001856020036101000a03905080198251168184511681811785525050508692505050949350505050565b61435f61456f565b8360200151831061438557614384846002866020015161437f91906156db565b614458565b5b83518051602085830101848153818614156143a1576001820183525b5050508390509392505050565b6143b661456f565b846020015184836143c791906154e3565b11156143ef576143ee85600286856143df91906154e3565b6143e991906156db565b614458565b5b600060018361010061440191906155bd565b61440b9190615735565b9050855183868201018583198251161781528151858801111561442e5784870182525b505085915050949350505050565b60008183111561444e57829050614452565b8190505b92915050565b60008260000151905061446b8383614015565b506144768382614204565b50505050565b828054614488906158d1565b90600052602060002090601f0160209004810192826144aa57600085556144f1565b82601f106144c357805160ff19168380011785556144f1565b828001600101855582156144f1579182015b828111156144f05782518255916020019190600101906144d5565b5b5090506144fe9190614589565b5090565b6040518060a0016040528060008019168152602001600073ffffffffffffffffffffffffffffffffffffffff16815260200160007bffffffffffffffffffffffffffffffffffffffffffffffffffffffff191681526020016000815260200161456961456f565b81525090565b604051806040016040528060608152602001600081525090565b5b808211156145a257600081600090555060010161458a565b5090565b60006145b96145b4846153dc565b6153b7565b905080838252602082019050828560208602820111156145dc576145db615b00565b5b60005b8581101561460c57816145f28882614773565b8452602084019350602083019250506001810190506145df565b5050509392505050565b600061462961462484615408565b6153b7565b90508281526020810184848401111561464557614644615b05565b5b61465084828561588f565b509392505050565b60008135905061466781615d9a565b92915050565b60008135905061467c81615db1565b92915050565b600082601f83011261469757614696615afb565b5b81516146a78482602086016145a6565b91505092915050565b6000815190506146bf81615dc8565b92915050565b6000813590506146d481615ddf565b92915050565b60008083601f8401126146f0576146ef615afb565b5b8235905067ffffffffffffffff81111561470d5761470c615af6565b5b60208301915083600182028301111561472957614728615b00565b5b9250929050565b600082601f83011261474557614744615afb565b5b8135614755848260208601614616565b91505092915050565b60008135905061476d81615df6565b92915050565b60008151905061478281615df6565b92915050565b60006020828403121561479e5761479d615b0f565b5b60006147ac84828501614658565b91505092915050565b6000602082840312156147cb576147ca615b0f565b5b60006147d98482850161466d565b91505092915050565b6000602082840312156147f8576147f7615b0f565b5b600082015167ffffffffffffffff81111561481657614815615b0a565b5b61482284828501614682565b91505092915050565b60006020828403121561484157614840615b0f565b5b600061484f848285016146b0565b91505092915050565b60006020828403121561486e5761486d615b0f565b5b600061487c848285016146c5565b91505092915050565b6000806040838503121561489c5761489b615b0f565b5b60006148aa858286016146c5565b92505060206148bb8582860161475e565b9150509250929050565b600080602083850312156148dc576148db615b0f565b5b600083013567ffffffffffffffff8111156148fa576148f9615b0a565b5b614906858286016146da565b92509250509250929050565b6000806040838503121561492957614928615b0f565b5b600083013567ffffffffffffffff81111561494757614946615b0a565b5b61495385828601614730565b92505060206149648582860161475e565b9150509250929050565b60008060008060008060c0878903121561498b5761498a615b0f565b5b600087013567ffffffffffffffff8111156149a9576149a8615b0a565b5b6149b589828a01614730565b96505060206149c689828a0161475e565b95505060406149d789828a0161475e565b94505060606149e889828a0161475e565b93505060806149f989828a0161475e565b92505060a087013567ffffffffffffffff811115614a1a57614a19615b0a565b5b614a2689828a01614730565b9150509295509295509295565b600060208284031215614a4957614a48615b0f565b5b6000614a578482850161475e565b91505092915050565b600060208284031215614a7657614a75615b0f565b5b6000614a8484828501614773565b91505092915050565b60008060408385031215614aa457614aa3615b0f565b5b6000614ab28582860161475e565b925050602083013567ffffffffffffffff811115614ad357614ad2615b0a565b5b614adf85828601614730565b9150509250929050565b6000614af58383614b28565b60208301905092915050565b6000614b0d8383614ebb565b60208301905092915050565b614b228161577b565b82525050565b614b3181615769565b82525050565b614b4081615769565b82525050565b6000614b5182615459565b614b5b818561549f565b9350614b6683615439565b8060005b83811015614b97578151614b7e8882614ae9565b9750614b8983615485565b925050600181019050614b6a565b5085935050505092915050565b6000614baf82615464565b614bb981856154b0565b9350614bc483615449565b8060005b83811015614bf5578151614bdc8882614b01565b9750614be783615492565b925050600181019050614bc8565b5085935050505092915050565b614c0b8161578d565b82525050565b614c1a81615799565b82525050565b614c29816157a3565b82525050565b6000614c3a8261546f565b614c4481856154c1565b9350614c5481856020860161589e565b614c5d81615b14565b840191505092915050565b614c79614c7482615811565b61597d565b82525050565b614c8881615823565b82525050565b614c9781615835565b82525050565b614ca681615847565b82525050565b6000614cb78261547a565b614cc181856154d2565b9350614cd181856020860161589e565b614cda81615b14565b840191505092915050565b6000614cf26026836154d2565b9150614cfd82615b3f565b604082019050919050565b6000614d15600e836154d2565b9150614d2082615b8e565b602082019050919050565b6000614d386014836154d2565b9150614d4382615bb7565b602082019050919050565b6000614d5b6019836154d2565b9150614d6682615be0565b602082019050919050565b6000614d7e6023836154d2565b9150614d8982615c09565b604082019050919050565b6000614da1601a836154d2565b9150614dac82615c58565b602082019050919050565b6000614dc46013836154d2565b9150614dcf82615c81565b602082019050919050565b6000614de76015836154d2565b9150614df282615caa565b602082019050919050565b6000614e0a6020836154d2565b9150614e1582615cd3565b602082019050919050565b6000614e2d6028836154d2565b9150614e3882615cfc565b604082019050919050565b6000614e506023836154d2565b9150614e5b82615d4b565b604082019050919050565b608082016000820151614e7c6000850182614ebb565b506020820151614e8f6020850182614ebb565b506040820151614ea26040850182614ebb565b506060820151614eb56060850182614ebb565b50505050565b614ec4816157ef565b82525050565b614ed3816157ef565b82525050565b614eea614ee5826157ef565b6159a1565b82525050565b614ef98161587d565b82525050565b614f08816157f9565b82525050565b6000614f1a8285614c68565b601482019150614f2a8284614ed9565b6020820191508190509392505050565b6000602082019050614f4f6000830184614b37565b92915050565b6000602082019050614f6a6000830184614b19565b92915050565b600061010082019050614f86600083018b614b37565b614f93602083018a614eca565b614fa06040830189614c11565b614fad6060830188614b37565b614fba6080830187614c20565b614fc760a0830186614eca565b614fd460c0830185614eca565b81810360e0830152614fe68184614c2f565b90509998505050505050505050565b600060608201905061500a6000830186614b37565b6150176020830185614eca565b81810360408301526150298184614c2f565b9050949350505050565b60006040820190506150486000830185614b37565b6150556020830184614ef0565b9392505050565b600060208201905081810360008301526150768184614ba4565b905092915050565b60006040820190506150936000830185614c02565b81810360208301526150a58184614c2f565b90509392505050565b60006020820190506150c36000830184614c11565b92915050565b60006020820190506150de6000830184614c7f565b92915050565b60006020820190506150f96000830184614c8e565b92915050565b60006080820190506151146000830187614c9d565b81810360208301526151268186614b46565b90506151356040830185614b37565b6151426060830184614eca565b95945050505050565b6000602082019050818103600083015261516481614ce5565b9050919050565b6000602082019050818103600083015261518481614d08565b9050919050565b600060208201905081810360008301526151a481614d2b565b9050919050565b600060208201905081810360008301526151c481614d4e565b9050919050565b600060208201905081810360008301526151e481614d71565b9050919050565b6000602082019050818103600083015261520481614d94565b9050919050565b6000602082019050818103600083015261522481614db7565b9050919050565b6000602082019050818103600083015261524481614dda565b9050919050565b6000602082019050818103600083015261526481614dfd565b9050919050565b6000602082019050818103600083015261528481614e20565b9050919050565b600060208201905081810360008301526152a481614e43565b9050919050565b60006020820190506152c06000830184614eca565b92915050565b60006101e0820190506152dc600083018f614eca565b81810360208301526152ee818e614cac565b90506152fd604083018d614b19565b61530a606083018c614b19565b818103608083015261531c818b614cac565b905061532b60a083018a614eca565b61533860c0830189614eca565b61534560e0830188614c02565b615353610100830187614c02565b615361610120830186614c02565b61536f610140830185614eca565b61537d610160830184614e66565b9d9c50505050505050505050505050565b60006040820190506153a36000830185614eca565b6153b06020830184614eff565b9392505050565b60006153c16153d2565b90506153cd8282615903565b919050565b6000604051905090565b600067ffffffffffffffff8211156153f7576153f6615ac7565b5b602082029050602081019050919050565b600067ffffffffffffffff82111561542357615422615ac7565b5b61542c82615b14565b9050602081019050919050565b6000819050602082019050919050565b6000819050602082019050919050565b600081519050919050565b600081519050919050565b600081519050919050565b600081519050919050565b6000602082019050919050565b6000602082019050919050565b600082825260208201905092915050565b600082825260208201905092915050565b600082825260208201905092915050565b600082825260208201905092915050565b60006154ee826157ef565b91506154f9836157ef565b9250827fffffffffffffffffffffffffffffffffffffffffffffffffffffffffffffffff0382111561552e5761552d6159dc565b5b828201905092915050565b6000615544826157ef565b915061554f836157ef565b92508261555f5761555e615a0b565b5b828204905092915050565b6000808291508390505b60018511156155b4578086048111156155905761558f6159dc565b5b600185161561559f5780820291505b80810290506155ad85615b32565b9450615574565b94509492505050565b60006155c8826157ef565b91506155d3836157ef565b92506156007fffffffffffffffffffffffffffffffffffffffffffffffffffffffffffffffff8484615608565b905092915050565b60008261561857600190506156d4565b8161562657600090506156d4565b816001811461563c576002811461564657615675565b60019150506156d4565b60ff841115615658576156576159dc565b5b8360020a91508482111561566f5761566e6159dc565b5b506156d4565b5060208310610133831016604e8410600b84101617156156aa5782820a9050838111156156a5576156a46159dc565b5b6156d4565b6156b7848484600161556a565b925090508184048111156156ce576156cd6159dc565b5b81810290505b9392505050565b60006156e6826157ef565b91506156f1836157ef565b9250817fffffffffffffffffffffffffffffffffffffffffffffffffffffffffffffffff048311821515161561572a576157296159dc565b5b828202905092915050565b6000615740826157ef565b915061574b836157ef565b92508282101561575e5761575d6159dc565b5b828203905092915050565b6000615774826157cf565b9050919050565b6000615786826157cf565b9050919050565b60008115159050919050565b6000819050919050565b60007fffffffff0000000000000000000000000000000000000000000000000000000082169050919050565b600073ffffffffffffffffffffffffffffffffffffffff82169050919050565b6000819050919050565b60006bffffffffffffffffffffffff82169050919050565b600061581c82615859565b9050919050565b600061582e82615859565b9050919050565b600061584082615859565b9050919050565b6000615852826157ef565b9050919050565b60006158648261586b565b9050919050565b6000615876826157cf565b9050919050565b6000615888826157f9565b9050919050565b82818337600083830152505050565b60005b838110156158bc5780820151818401526020810190506158a1565b838111156158cb576000848401525b50505050565b600060028204905060018216806158e957607f821691505b602082108114156158fd576158fc615a3a565b5b50919050565b61590c82615b14565b810181811067ffffffffffffffff8211171561592b5761592a615ac7565b5b80604052505050565b600061593f826157ef565b91507fffffffffffffffffffffffffffffffffffffffffffffffffffffffffffffffff821415615972576159716159dc565b5b600182019050919050565b60006159888261598f565b9050919050565b600061599a82615b25565b9050919050565b6000819050919050565b60006159b6826157ef565b91506159c1836157ef565b9250826159d1576159d0615a0b565b5b828206905092915050565b7f4e487b7100000000000000000000000000000000000000000000000000000000600052601160045260246000fd5b7f4e487b7100000000000000000000000000000000000000000000000000000000600052601260045260246000fd5b7f4e487b7100000000000000000000000000000000000000000000000000000000600052602260045260246000fd5b7f4e487b7100000000000000000000000000000000000000000000000000000000600052603160045260246000fd5b7f4e487b7100000000000000000000000000000000000000000000000000000000600052603260045260246000fd5b7f4e487b7100000000000000000000000000000000000000000000000000000000600052604160045260246000fd5b600080fd5b600080fd5b600080fd5b600080fd5b600080fd5b600080fd5b6000601f19601f8301169050919050565b60008160601b9050919050565b60008160011c9050919050565b7f4f776e61626c653a206e6577206f776e657220697320746865207a65726f206160008201527f6464726573730000000000000000000000000000000000000000000000000000602082015250565b7f626574206e6f7420616374697665000000000000000000000000000000000000600082015250565b7f62657420616c7265616479206163636570746564000000000000000000000000600082015250565b7f6d696e696d756d20626574206e6f742073617469736669656400000000000000600082015250565b7f756e61626c6520746f207472616e73666572416e6443616c6c20746f206f726160008201527f636c650000000000000000000000000000000000000000000000000000000000602082015250565b7f6163636570746572206d6f6e6579206e6f7420636f7272656374000000000000600082015250565b7f62657420686173206265656e20636c6f73656400000000000000000000000000600082015250565b7f54696d6520696e74657276616c206e6f74206d65740000000000000000000000600082015250565b7f4f776e61626c653a2063616c6c6572206973206e6f7420746865206f776e6572600082015250565b7f536f75726365206d75737420626520746865206f7261636c65206f662074686560008201527f2072657175657374000000000000000000000000000000000000000000000000602082015250565b7f626574206973206e6f206c6f6e676572206f70656e20666f722061636365707460008201527f696e670000000000000000000000000000000000000000000000000000000000602082015250565b615da381615769565b8114615dae57600080fd5b50565b615dba8161577b565b8114615dc557600080fd5b50565b615dd18161578d565b8114615ddc57600080fd5b50565b615de881615799565b8114615df357600080fd5b50565b615dff816157ef565b8114615e0a57600080fd5b5056fea26469706673582212204b1205f35c88f67d9c5623c247d53299188b15d58a0ce3e143a6fde0cf0a7e7564736f6c63430008070033",
  "devdoc": {
    "kind": "dev",
    "methods": {
      "checkUpkeep(bytes)": {
        "details": "To ensure that it is never called, you may want to add the cannotExecute modifier from KeeperBase to your implementation of this method.",
        "params": {
          "checkData": "specified in the upkeep registration so it is always the same for a registered upkeep. This can easily be broken down into specific arguments using `abi.decode`, so multiple upkeeps can be registered on the same contract and easily differentiated by the contract."
        },
        "returns": {
          "performData": "bytes that the keeper should call performUpkeep with, if upkeep is needed. If you would like to encode data to decode later, try `abi.encode`.",
          "upkeepNeeded": "boolean to indicate whether the keeper should call performUpkeep or not."
        }
      },
      "owner()": {
        "details": "Returns the address of the current owner."
      },
      "performUpkeep(bytes)": {
        "details": "The input to this method should not be trusted, and the caller of the method should not even be restricted to any single registry. Anyone should be able call it, and the input should be validated, there is no guarantee that the data passed in is the performData returned from checkUpkeep. This could happen due to malicious keepers, racing keepers, or simply a state change while the performUpkeep transaction is waiting for confirmation. Always validate the data passed in.",
        "params": {
          "performData": "is the data which was passed back from the checkData simulation. If it is encoded, it can easily be decoded into other types by calling `abi.decode`. This data should not be trusted, and should be validated against the contract's current state."
        }
      },
      "renounceOwnership()": {
        "details": "Leaves the contract without owner. It will not be possible to call `onlyOwner` functions anymore. Can only be called by the current owner. NOTE: Renouncing ownership will leave the contract without an owner, thereby removing any functionality that is only available to the owner."
      },
      "transferOwnership(address)": {
        "details": "Transfers ownership of the contract to a new account (`newOwner`). Can only be called by the current owner."
      }
    },
    "version": 1
  },
  "userdoc": {
    "kind": "user",
    "methods": {
      "checkUpkeep(bytes)": {
        "notice": "method that is simulated by the keepers to see if any work actually needs to be performed. This method does does not actually need to be executable, and since it is only ever simulated it can consume lots of gas."
      },
      "performUpkeep(bytes)": {
        "notice": "method that is actually executed by the keepers, via the registry. The data returned by the checkUpkeep simulation will be passed into this method to actually be executed."
      }
    },
    "version": 1
  },
  "storageLayout": {
    "storage": [
      {
        "astId": 319,
        "contract": "contracts/BetGame.sol:BetGame",
        "label": "s_ens",
        "offset": 0,
        "slot": "0",
        "type": "t_contract(ENSInterface)1013"
      },
      {
        "astId": 321,
        "contract": "contracts/BetGame.sol:BetGame",
        "label": "s_ensNode",
        "offset": 0,
        "slot": "1",
        "type": "t_bytes32"
      },
      {
        "astId": 324,
        "contract": "contracts/BetGame.sol:BetGame",
        "label": "s_link",
        "offset": 0,
        "slot": "2",
        "type": "t_contract(LinkTokenInterface)1127"
      },
      {
        "astId": 327,
        "contract": "contracts/BetGame.sol:BetGame",
        "label": "s_oracle",
        "offset": 0,
        "slot": "3",
        "type": "t_contract(OperatorInterface)1207"
      },
      {
        "astId": 330,
        "contract": "contracts/BetGame.sol:BetGame",
        "label": "s_requestCount",
        "offset": 0,
        "slot": "4",
        "type": "t_uint256"
      },
      {
        "astId": 334,
        "contract": "contracts/BetGame.sol:BetGame",
        "label": "s_pendingRequests",
        "offset": 0,
        "slot": "5",
        "type": "t_mapping(t_bytes32,t_address)"
      },
      {
        "astId": 2241,
        "contract": "contracts/BetGame.sol:BetGame",
        "label": "_owner",
        "offset": 0,
        "slot": "6",
        "type": "t_address"
      },
      {
        "astId": 2854,
        "contract": "contracts/BetGame.sol:BetGame",
        "label": "serviceFee",
        "offset": 0,
        "slot": "7",
        "type": "t_uint256"
      },
      {
        "astId": 2856,
        "contract": "contracts/BetGame.sol:BetGame",
        "label": "minimumBet",
        "offset": 0,
        "slot": "8",
        "type": "t_uint256"
      },
      {
        "astId": 2858,
        "contract": "contracts/BetGame.sol:BetGame",
        "label": "devWallet",
        "offset": 0,
        "slot": "9",
        "type": "t_address_payable"
      },
      {
        "astId": 2895,
        "contract": "contracts/BetGame.sol:BetGame",
        "label": "globalId",
        "offset": 0,
        "slot": "10",
        "type": "t_uint256"
      },
      {
        "astId": 2900,
        "contract": "contracts/BetGame.sol:BetGame",
        "label": "allBets",
        "offset": 0,
        "slot": "11",
        "type": "t_mapping(t_uint256,t_struct(Bet)2893_storage)"
      },
      {
        "astId": 2903,
        "contract": "contracts/BetGame.sol:BetGame",
        "label": "activeBets",
        "offset": 0,
        "slot": "12",
        "type": "t_array(t_uint256)dyn_storage"
      },
      {
        "astId": 2906,
        "contract": "contracts/BetGame.sol:BetGame",
        "label": "acceptedBets",
        "offset": 0,
        "slot": "13",
        "type": "t_array(t_uint256)dyn_storage"
      },
      {
        "astId": 2908,
        "contract": "contracts/BetGame.sol:BetGame",
        "label": "oracle",
        "offset": 0,
        "slot": "14",
        "type": "t_address"
      },
      {
        "astId": 2910,
        "contract": "contracts/BetGame.sol:BetGame",
        "label": "oracleJobId",
        "offset": 0,
        "slot": "15",
        "type": "t_bytes32"
      },
      {
        "astId": 2912,
        "contract": "contracts/BetGame.sol:BetGame",
        "label": "oracleFee",
        "offset": 0,
        "slot": "16",
        "type": "t_uint256"
      },
      {
        "astId": 2916,
        "contract": "contracts/BetGame.sol:BetGame",
        "label": "requestToBet",
        "offset": 0,
        "slot": "17",
        "type": "t_mapping(t_bytes32,t_uint256)"
      },
      {
        "astId": 2919,
        "contract": "contracts/BetGame.sol:BetGame",
        "label": "keeperRegistry",
        "offset": 0,
        "slot": "18",
        "type": "t_contract(KeeperRegistryInterface)4000"
      },
      {
        "astId": 2921,
        "contract": "contracts/BetGame.sol:BetGame",
        "label": "keeperRegistryAddress",
        "offset": 0,
        "slot": "19",
        "type": "t_address"
      },
      {
        "astId": 2923,
        "contract": "contracts/BetGame.sol:BetGame",
        "label": "interval",
        "offset": 0,
        "slot": "20",
        "type": "t_uint256"
      },
      {
        "astId": 2925,
        "contract": "contracts/BetGame.sol:BetGame",
        "label": "lastTimeStamp",
        "offset": 0,
        "slot": "21",
        "type": "t_uint256"
      },
      {
        "astId": 2927,
        "contract": "contracts/BetGame.sol:BetGame",
        "label": "keeperJobId",
        "offset": 0,
        "slot": "22",
        "type": "t_uint256"
      },
      {
        "astId": 2930,
        "contract": "contracts/BetGame.sol:BetGame",
        "label": "upkeepcount",
        "offset": 0,
        "slot": "23",
        "type": "t_uint256"
      },
      {
        "astId": 2933,
        "contract": "contracts/BetGame.sol:BetGame",
        "label": "swapRouter",
        "offset": 0,
        "slot": "24",
        "type": "t_contract(IUniswapV2Router02)2834"
      },
      {
        "astId": 2935,
        "contract": "contracts/BetGame.sol:BetGame",
        "label": "weth",
        "offset": 0,
        "slot": "25",
        "type": "t_address"
      }
    ],
    "types": {
      "t_address": {
        "encoding": "inplace",
        "label": "address",
        "numberOfBytes": "20"
      },
      "t_address_payable": {
        "encoding": "inplace",
        "label": "address payable",
        "numberOfBytes": "20"
      },
      "t_array(t_uint256)dyn_storage": {
        "base": "t_uint256",
        "encoding": "dynamic_array",
        "label": "uint256[]",
        "numberOfBytes": "32"
      },
      "t_bool": {
        "encoding": "inplace",
        "label": "bool",
        "numberOfBytes": "1"
      },
      "t_bytes32": {
        "encoding": "inplace",
        "label": "bytes32",
        "numberOfBytes": "32"
      },
      "t_contract(ENSInterface)1013": {
        "encoding": "inplace",
        "label": "contract ENSInterface",
        "numberOfBytes": "20"
      },
      "t_contract(IUniswapV2Router02)2834": {
        "encoding": "inplace",
        "label": "contract IUniswapV2Router02",
        "numberOfBytes": "20"
      },
      "t_contract(KeeperRegistryInterface)4000": {
        "encoding": "inplace",
        "label": "contract KeeperRegistryInterface",
        "numberOfBytes": "20"
      },
      "t_contract(LinkTokenInterface)1127": {
        "encoding": "inplace",
        "label": "contract LinkTokenInterface",
        "numberOfBytes": "20"
      },
      "t_contract(OperatorInterface)1207": {
        "encoding": "inplace",
        "label": "contract OperatorInterface",
        "numberOfBytes": "20"
      },
      "t_mapping(t_bytes32,t_address)": {
        "encoding": "mapping",
        "key": "t_bytes32",
        "label": "mapping(bytes32 => address)",
        "numberOfBytes": "32",
        "value": "t_address"
      },
      "t_mapping(t_bytes32,t_uint256)": {
        "encoding": "mapping",
        "key": "t_bytes32",
        "label": "mapping(bytes32 => uint256)",
        "numberOfBytes": "32",
        "value": "t_uint256"
      },
      "t_mapping(t_uint256,t_struct(Bet)2893_storage)": {
        "encoding": "mapping",
        "key": "t_uint256",
        "label": "mapping(uint256 => struct BetGame.Bet)",
        "numberOfBytes": "32",
        "value": "t_struct(Bet)2893_storage"
      },
      "t_string_storage": {
        "encoding": "bytes",
        "label": "string",
        "numberOfBytes": "32"
      },
      "t_struct(Bet)2893_storage": {
        "encoding": "inplace",
        "label": "struct BetGame.Bet",
        "members": [
          {
            "astId": 2869,
            "contract": "contracts/BetGame.sol:BetGame",
            "label": "id",
            "offset": 0,
            "slot": "0",
            "type": "t_uint256"
          },
          {
            "astId": 2871,
            "contract": "contracts/BetGame.sol:BetGame",
            "label": "title",
            "offset": 0,
            "slot": "1",
            "type": "t_string_storage"
          },
          {
            "astId": 2873,
            "contract": "contracts/BetGame.sol:BetGame",
            "label": "creator",
            "offset": 0,
            "slot": "2",
            "type": "t_address_payable"
          },
          {
            "astId": 2875,
            "contract": "contracts/BetGame.sol:BetGame",
            "label": "acceptor",
            "offset": 0,
            "slot": "3",
            "type": "t_address_payable"
          },
          {
            "astId": 2877,
            "contract": "contracts/BetGame.sol:BetGame",
            "label": "apiURL",
            "offset": 0,
            "slot": "4",
            "type": "t_string_storage"
          },
          {
            "astId": 2879,
            "contract": "contracts/BetGame.sol:BetGame",
            "label": "amount",
            "offset": 0,
            "slot": "5",
            "type": "t_uint256"
          },
          {
            "astId": 2881,
            "contract": "contracts/BetGame.sol:BetGame",
            "label": "acceptValue",
            "offset": 0,
            "slot": "6",
            "type": "t_uint256"
          },
          {
            "astId": 2883,
            "contract": "contracts/BetGame.sol:BetGame",
            "label": "accepted",
            "offset": 0,
            "slot": "7",
            "type": "t_bool"
          },
          {
            "astId": 2885,
            "contract": "contracts/BetGame.sol:BetGame",
            "label": "active",
            "offset": 1,
            "slot": "7",
            "type": "t_bool"
          },
          {
            "astId": 2887,
            "contract": "contracts/BetGame.sol:BetGame",
            "label": "closed",
            "offset": 2,
            "slot": "7",
            "type": "t_bool"
          },
          {
            "astId": 2889,
            "contract": "contracts/BetGame.sol:BetGame",
            "label": "countArts",
            "offset": 0,
            "slot": "8",
            "type": "t_uint256"
          },
          {
            "astId": 2892,
            "contract": "contracts/BetGame.sol:BetGame",
            "label": "timeProps",
            "offset": 0,
            "slot": "9",
            "type": "t_struct(TimeProps)2867_storage"
          }
        ],
        "numberOfBytes": "416"
      },
      "t_struct(TimeProps)2867_storage": {
        "encoding": "inplace",
        "label": "struct BetGame.TimeProps",
        "members": [
          {
            "astId": 2860,
            "contract": "contracts/BetGame.sol:BetGame",
            "label": "createdDate",
            "offset": 0,
            "slot": "0",
            "type": "t_uint256"
          },
          {
            "astId": 2862,
            "contract": "contracts/BetGame.sol:BetGame",
            "label": "acceptByDate",
            "offset": 0,
            "slot": "1",
            "type": "t_uint256"
          },
          {
            "astId": 2864,
            "contract": "contracts/BetGame.sol:BetGame",
            "label": "startDate",
            "offset": 0,
            "slot": "2",
            "type": "t_uint256"
          },
          {
            "astId": 2866,
            "contract": "contracts/BetGame.sol:BetGame",
            "label": "expirationDate",
            "offset": 0,
            "slot": "3",
            "type": "t_uint256"
          }
        ],
        "numberOfBytes": "128"
      },
      "t_uint256": {
        "encoding": "inplace",
        "label": "uint256",
        "numberOfBytes": "32"
      }
    }
  }
}